{"abi":[{"type":"constructor","inputs":[{"name":"config","type":"tuple","internalType":"struct LessRenderer.RendererConfig","components":[{"name":"less","type":"address","internalType":"address"},{"name":"scriptyBuilder","type":"address","internalType":"address"},{"name":"scriptyStorage","type":"address","internalType":"address"},{"name":"scriptName","type":"string","internalType":"string"},{"name":"baseImageURL","type":"string","internalType":"string"},{"name":"collectionName","type":"string","internalType":"string"},{"name":"description","type":"string","internalType":"string"},{"name":"collectionImage","type":"string","internalType":"string"},{"name":"externalLink","type":"string","internalType":"string"},{"name":"owner","type":"address","internalType":"address"}]}],"stateMutability":"nonpayable"},{"type":"function","name":"baseImageURL","inputs":[],"outputs":[{"name":"","type":"string","internalType":"string"}],"stateMutability":"view"},{"type":"function","name":"cancelOwnershipHandover","inputs":[],"outputs":[],"stateMutability":"payable"},{"type":"function","name":"collectionImage","inputs":[],"outputs":[{"name":"","type":"string","internalType":"string"}],"stateMutability":"view"},{"type":"function","name":"collectionName","inputs":[],"outputs":[{"name":"","type":"string","internalType":"string"}],"stateMutability":"view"},{"type":"function","name":"completeOwnershipHandover","inputs":[{"name":"pendingOwner","type":"address","internalType":"address"}],"outputs":[],"stateMutability":"payable"},{"type":"function","name":"contractURI","inputs":[],"outputs":[{"name":"","type":"string","internalType":"string"}],"stateMutability":"view"},{"type":"function","name":"description","inputs":[],"outputs":[{"name":"","type":"string","internalType":"string"}],"stateMutability":"view"},{"type":"function","name":"externalLink","inputs":[],"outputs":[{"name":"","type":"string","internalType":"string"}],"stateMutability":"view"},{"type":"function","name":"less","inputs":[],"outputs":[{"name":"","type":"address","internalType":"address"}],"stateMutability":"view"},{"type":"function","name":"owner","inputs":[],"outputs":[{"name":"result","type":"address","internalType":"address"}],"stateMutability":"view"},{"type":"function","name":"ownershipHandoverExpiresAt","inputs":[{"name":"pendingOwner","type":"address","internalType":"address"}],"outputs":[{"name":"result","type":"uint256","internalType":"uint256"}],"stateMutability":"view"},{"type":"function","name":"renounceOwnership","inputs":[],"outputs":[],"stateMutability":"payable"},{"type":"function","name":"requestOwnershipHandover","inputs":[],"outputs":[],"stateMutability":"payable"},{"type":"function","name":"scriptName","inputs":[],"outputs":[{"name":"","type":"string","internalType":"string"}],"stateMutability":"view"},{"type":"function","name":"scriptyBuilder","inputs":[],"outputs":[{"name":"","type":"address","internalType":"address"}],"stateMutability":"view"},{"type":"function","name":"scriptyStorage","inputs":[],"outputs":[{"name":"","type":"address","internalType":"address"}],"stateMutability":"view"},{"type":"function","name":"setBaseImageURL","inputs":[{"name":"_baseImageURL","type":"string","internalType":"string"}],"outputs":[],"stateMutability":"nonpayable"},{"type":"function","name":"setLessContract","inputs":[{"name":"_less","type":"address","internalType":"address"}],"outputs":[],"stateMutability":"nonpayable"},{"type":"function","name":"setMetadata","inputs":[{"name":"_collectionName","type":"string","internalType":"string"},{"name":"_description","type":"string","internalType":"string"},{"name":"_collectionImage","type":"string","internalType":"string"},{"name":"_externalLink","type":"string","internalType":"string"}],"outputs":[],"stateMutability":"nonpayable"},{"type":"function","name":"setScriptName","inputs":[{"name":"_scriptName","type":"string","internalType":"string"}],"outputs":[],"stateMutability":"nonpayable"},{"type":"function","name":"setScriptyBuilder","inputs":[{"name":"_scriptyBuilder","type":"address","internalType":"address"}],"outputs":[],"stateMutability":"nonpayable"},{"type":"function","name":"setScriptyStorage","inputs":[{"name":"_scriptyStorage","type":"address","internalType":"address"}],"outputs":[],"stateMutability":"nonpayable"},{"type":"function","name":"tokenURI","inputs":[{"name":"tokenId","type":"uint256","internalType":"uint256"}],"outputs":[{"name":"","type":"string","internalType":"string"}],"stateMutability":"view"},{"type":"function","name":"transferOwnership","inputs":[{"name":"newOwner","type":"address","internalType":"address"}],"outputs":[],"stateMutability":"payable"},{"type":"event","name":"BaseImageURLUpdated","inputs":[{"name":"newURL","type":"string","indexed":false,"internalType":"string"}],"anonymous":false},{"type":"event","name":"LessContractUpdated","inputs":[{"name":"newLess","type":"address","indexed":false,"internalType":"address"}],"anonymous":false},{"type":"event","name":"MetadataUpdated","inputs":[{"name":"collectionName","type":"string","indexed":false,"internalType":"string"},{"name":"description","type":"string","indexed":false,"internalType":"string"},{"name":"collectionImage","type":"string","indexed":false,"internalType":"string"},{"name":"externalLink","type":"string","indexed":false,"internalType":"string"}],"anonymous":false},{"type":"event","name":"OwnershipHandoverCanceled","inputs":[{"name":"pendingOwner","type":"address","indexed":true,"internalType":"address"}],"anonymous":false},{"type":"event","name":"OwnershipHandoverRequested","inputs":[{"name":"pendingOwner","type":"address","indexed":true,"internalType":"address"}],"anonymous":false},{"type":"event","name":"OwnershipTransferred","inputs":[{"name":"oldOwner","type":"address","indexed":true,"internalType":"address"},{"name":"newOwner","type":"address","indexed":true,"internalType":"address"}],"anonymous":false},{"type":"event","name":"ScriptNameUpdated","inputs":[{"name":"newName","type":"string","indexed":false,"internalType":"string"}],"anonymous":false},{"type":"event","name":"ScriptyBuilderUpdated","inputs":[{"name":"newBuilder","type":"address","indexed":false,"internalType":"address"}],"anonymous":false},{"type":"event","name":"ScriptyStorageUpdated","inputs":[{"name":"newStorage","type":"address","indexed":false,"internalType":"address"}],"anonymous":false},{"type":"error","name":"AlreadyInitialized","inputs":[]},{"type":"error","name":"NewOwnerIsZeroAddress","inputs":[]},{"type":"error","name":"NoHandoverRequest","inputs":[]},{"type":"error","name":"Unauthorized","inputs":[]}],"bytecode":{"object":"0x6080604052346109d357613e7380380380610019816109d7565b9283398101906020818303126109d3578051906001600160401b0382116109d35701610140818303126109d35760405161014081016001600160401b0381118282101761056b5760405261006c826109fc565b815261007a602083016109fc565b6020820190815261008d604084016109fc565b6040830190815260608401516001600160401b0381116109d357856100b3918601610a10565b6060840190815260808501516001600160401b0381116109d357866100d9918701610a10565b6080850190815260a08601519091906001600160401b0381116109d35787610102918801610a10565b60a0860190815260c08701519093906001600160401b0381116109d3578861012b918901610a10565b60c0870190815260e08801519095906001600160401b0381116109d35789610154918a01610a10565b60e0880190815261010089015190996001600160401b0382116109d35761018361012091610192938c01610a10565b996101008a019a8b52016109fc565b610120880190815296515f80546001600160a01b039283166001600160a01b031991821617909155915160018054918316918416919091179055915160028054919093169116179055518051906001600160401b03821161056b5760035490600182811c921680156109c9575b602083101461054d5781601f84931161095b575b50602090601f83116001146108f5575f926108ea575b50508160011b915f199060031b1c1916176003555b518051906001600160401b03821161056b5760045490600182811c921680156108e0575b602083101461054d5781601f849311610872575b50602090601f831160011461080c575f92610801575b50508160011b915f199060031b1c1916176004555b518051906001600160401b03821161056b5760055490600182811c921680156107f7575b602083101461054d5781601f8493116107a6575b50602090601f8311600114610740575f92610735575b50508160011b915f199060031b1c1916176005555b5180519093906001600160401b03811161056b57600654600181811c9116801561072b575b602082101461054d57601f81116106c8575b50602094601f8211600114610665579481929394955f9261065a575b50508160011b915f199060031b1c1916176006555b5180519092906001600160401b03811161056b57600754600181811c91168015610650575b602082101461054d57601f81116105ed575b506020601f821160011461058a57819293945f9261057f575b50508160011b915f199060031b1c1916176007555b5180519091906001600160401b03811161056b57600854600181811c91168015610561575b602082101461054d57601f81116104ea575b50602092601f821160011461048957928192935f9261047e575b50508160011b915f199060031b1c1916176008555b516001600160a01b0316638b78c6d8198190555f7f8be0079c531659141344cd1fd0a4f28419497f9722a3daafe3b4186f6b6457e08180a36040516134119081610a628239f35b015190505f80610422565b601f1982169360085f52805f20915f5b8681106104d257508360019596106104ba575b505050811b01600855610437565b01515f1960f88460031b161c191690555f80806104ac565b91926020600181928685015181550194019201610499565b60085f527ff3f7a9fe364faab93b216da50a3214154f22a0a2b415b23a84c8169e8b636ee3601f830160051c81019160208410610543575b601f0160051c01905b8181106105385750610408565b5f815560010161052b565b9091508190610522565b634e487b7160e01b5f52602260045260245ffd5b90607f16906103f6565b634e487b7160e01b5f52604160045260245ffd5b015190505f806103bc565b601f1982169060075f52805f20915f5b8181106105d5575095836001959697106105bd575b505050811b016007556103d1565b01515f1960f88460031b161c191690555f80806105af565b9192602060018192868b01518155019401920161059a565b60075f527fa66cc928b5edb82af9bd49922954155ab7b0942694bea4ce44661d9a8736c688601f830160051c81019160208410610646575b601f0160051c01905b81811061063b57506103a3565b5f815560010161062e565b9091508190610625565b90607f1690610391565b015190505f80610357565b601f1982169560065f52805f20915f5b8881106106b057508360019596979810610698575b505050811b0160065561036c565b01515f1960f88460031b161c191690555f808061068a565b91926020600181928685015181550194019201610675565b60065f527ff652222313e28459528d920b65115c16c04f3efc82aaedc97be59f3f377c0d3f601f830160051c81019160208410610721575b601f0160051c01905b818110610716575061033b565b5f8155600101610709565b9091508190610700565b90607f1690610329565b015190505f806102ef565b60055f9081528281209350601f198516905b81811061078e5750908460019594939210610776575b505050811b01600555610304565b01515f1960f88460031b161c191690555f8080610768565b92936020600181928786015181550195019301610752565b90915060055f5260205f20601f840160051c810191602085106107ed575b90601f859493920160051c01905b8181106107df57506102d9565b5f81558493506001016107d2565b90915081906107c4565b91607f16916102c5565b015190505f8061028c565b60045f9081528281209350601f198516905b81811061085a5750908460019594939210610842575b505050811b016004556102a1565b01515f1960f88460031b161c191690555f8080610834565b9293602060018192878601518155019501930161081e565b60045f529091507f8a35acfbc15ff81a39ae7d344fd709f28e8600b4aa8c65c6b64bfe7fe36bd19b601f840160051c810191602085106108d6575b90601f859493920160051c01905b8181106108c85750610276565b5f81558493506001016108bb565b90915081906108ad565b91607f1691610262565b015190505f80610229565b60035f9081528281209350601f198516905b818110610943575090846001959493921061092b575b505050811b0160035561023e565b01515f1960f88460031b161c191690555f808061091d565b92936020600181928786015181550195019301610907565b60035f529091507fc2575a0e9e593c00f959f8c92f12db2869c3395a3b0502d05e2516446f71f85b601f840160051c810191602085106109bf575b90601f859493920160051c01905b8181106109b15750610213565b5f81558493506001016109a4565b9091508190610996565b91607f16916101ff565b5f80fd5b6040519190601f01601f191682016001600160401b0381118382101761056b57604052565b51906001600160a01b03821682036109d357565b81601f820112156109d3578051906001600160401b03821161056b57610a3f601f8301601f19166020016109d7565b92828452602083830101116109d357815f9260208093018386015e830101529056fe6080806040526004361015610012575f80fd5b5f3560e01c9081630ac49cc214611db15750806311fd196514611d96578063196fc2b814611bd15780631b109d9c14611b3f5780632569296214611af65780634734e13c146114ff57806352ce61161461149357806354d1f13d1461144f57806355530614146113bd57806356a3aec41461135057806359146e1c146111865780635b9db898146110f4578063715018a6146110ab5780637284e416146110195780637f74900314610fac5780638da5cb5b14610f8057806391a0d36d14610f58578063c87b56dd1461068c578063d0b4237314610665578063e5326ab1146105ae578063e8a3d48514610205578063f04e283e146101ad578063f2fde38b146101655763fee81cf414610124575f80fd5b34610161576020366003190112610161576004356001600160a01b03811681036101615763389a75e1600c525f52602080600c2054604051908152f35b5f80fd5b6020366003190112610161576004356001600160a01b03811681036101615761018c612000565b8060601b156101a05761019e9061201c565b005b637448fbae5f526004601cfd5b6020366003190112610161576004356001600160a01b0381168103610161576101d4612000565b63389a75e1600c52805f526020600c2090815442116101f8575f61019e925561201c565b636f5e88185f526004601cfd5b34610161575f36600319011261016157604051683d913730b6b2911d1160b91b6020820152805f60055461023881611dd4565b906001811690811561058b5750600114610544575b50701116113232b9b1b934b83a34b7b7111d1160791b815261027190601101611f8c565b6a11161134b6b0b3b2911d1160a91b81526007545f9161029082611dd4565b916001811690811561052657506001146104df575b50507211161132bc3a32b93730b62fb634b735911d1160691b81526008545f916102ce82611dd4565b91600181169081156104b9575060011461046d575b505061227d60f01b815203601d19810182526103029060020182611e42565b806060918151908161037d575b6103796020610365603d876040519384917f646174613a6170706c69636174696f6e2f6a736f6e3b6261736536342c000000828401528051918291018484015e81015f838201520301601f198101835282611e42565b604051918291602083526020830190611f07565b0390f35b909192506003600283010460021b906040517f4142434445464748494a4b4c4d4e4f505152535455565758595a616263646566601f526106707f6768696a6b6c6d6e6f707172737475767778797a303132333435363738392d5f18603f5260208101928082019260208681860198010194600460038751935f89525b0191603f8351818160121c16515f538181600c1c1651600153818160061c165160025316516003535f51815201908882101561043a576004906003906103f9565b5061037997506020966040603d965f946103659952016040526003613d3d60f01b9106600204820352528152935061030f565b60085f90815291939250905f8051602061337c8339815191525b84821061049f575091920160130190508160026102e3565b805460138385010152859350602090910190600101610487565b60029450601392915092610302959360ff191683830152801515020101918193506102e3565b60075f908152919250905f8051602061335c8339815191525b83821061050c57505001600b0183806102a5565b8054600b83850101528594506020909101906001016104f8565b9050600b935060ff92919219168383015280151502010183806102a5565b60055f9081529091505f8051602061331c8339815191525b8282106105715750508101602901601161024d565b80546029838701015284935060209091019060010161055c565b6102719350602991509160119260ff19168286015280151502840101915061024d565b34610161575f366003190112610161576040515f6005546105ce81611dd4565b808452906001811690811561064157506001146105f6575b6103798361036581850382611e42565b60055f9081525f8051602061331c833981519152939250905b808210610627575090915081016020016103656105e6565b91926001816020925483858801015201910190929161060f565b60ff191660208086019190915291151560051b8401909101915061036590506105e6565b34610161575f366003190112610161575f546040516001600160a01b039091168152602090f35b34610161576020366003190112610161575f5460405163b09afec160e01b81526004803590820181905290916001600160a01b0316602083602481845afa928315610ed7575f93610ee2575b509160206024936040519485809263e0d4ea3760e01b82528660048301525afa928315610ed7575f93610ea3575b50610711838361220b565b9061071b83612b58565b90604051908160208101935f60045461073381611dd4565b9060018116908115610e8b5750600114610e41575b5081516020819301825e01632e706e6760e01b815203601b19810183526004016107729083611e42565b61077b86612bba565b979192516001600160401b031661079190612b58565b9061079b83612d64565b906107a584612eb8565b946107af85612fc8565b9160ff166107bc90612b58565b6107c586613112565b916107cf87613231565b9360405198899660208801987f5b7b2274726169745f74797065223a22466f6c6473222c2276616c7565223a008a5280516020819201603f8b015e8801603f81017f7d2c7b2274726169745f74797065223a22466f6c64205374726174656779222c905268113b30b63ab2911d1160b91b605f82015281516020819301606883015e01603f01602981017f227d2c7b2274726169745f74797065223a2252656e646572204d6f6465222c229052673b30b63ab2911d1160c11b604982015281516020819301605183015e01602901602881017f227d2c7b2274726169745f74797065223a224472617720446972656374696f6e90526a1116113b30b63ab2911d1160a91b604882015281516020819301605383015e01602801602b81017f227d2c7b2274726169745f74797065223a2250616c65747465222c2276616c7590526332911d1160e11b604b82015281516020819301604f83015e01602b01602481017f227d2c7b2274726169745f74797065223a22436f6c6f7220436f756e74222c229052663b30b63ab2911d60c91b604482015281516020819301604b83015e01602401602781017f7d2c7b2274726169745f74797065223a22477269642044656e73697479222c229052673b30b63ab2911d1160c11b604782015281516020819301604f83015e01602701602881017f227d2c7b2274726169745f74797065223a2250617065722054797065222c227690526630b63ab2911d1160c91b604882015281516020819301604f83015e0160280161227d60f01b602782015203602701601d1981018452600201610a259084611e42565b829160c01c637fffffff9006926115b38401808511610ce957610a4d610a4d610a52926132f9565b6132f9565b606481029080820460641490151715610ce957637fffffff60289104105f14610dd5575050610adc602d602080936040519481869251918291018484015e81017f2c7b2274726169745f74797065223a22506170657220477261696e222c227661838201526c6c7565223a22477261696e227d60981b60408201520301600d810184520182611e42565b955b6123e78201808311610ce957610af3906132f9565b6103e88102908082046103e81490151715610ce957637fffffff6008910410610d66575b610cfd575b6122b88101809111610ce957610b31906132f9565b6103e88102908082046103e81490151715610ce95760209561030295600195600f956008637fffffff6013960410610c75575b600b918a91610ba460405195610b9f8c8689818082019c8d815192839201905e8101605d60f81b838201520301601e1981018a520188611e42565b612b58565b604080516e7b226e616d65223a226c657373202360881b8f8201528251909e8f9b93610bf6939291829101602f8e015e8b01701116113232b9b1b934b83a34b7b7111d1160791b602f82015201611f8c565b6a11161134b6b0b3b2911d1160a91b815290519182908683015e01907211161130b734b6b0ba34b7b72fbab936111d1160691b84830152805192839101601e83015e0101906e11161130ba3a3934b13aba32b9911d60891b84830152518092602283015e0101607d60f81b838201520301601e19810184520182611e42565b92600b918a610cdf602e8280956040519481869251918291018484015e81017f2c7b2274726169745f74797065223a2248697420436f756e7473222c2276616c838201526d7565223a2256697369626c65227d60901b60408201520301600e810184520182611e42565b9491509150610b64565b634e487b7160e01b5f52601160045260245ffd5b94610d60602a602080936040519481869251918291018484015e81017f2c7b2274726169745f74797065223a224d6f6e6f6368726f6d65222c2276616c83820152697565223a22596573227d60b01b60408201520301600a810184520182611e42565b94610b1c565b95610dcf6030602080936040519481869251918291018484015e81017f2c7b2274726169745f74797065223a22437265617365204c696e6573222c2276838201526f616c7565223a2256697369626c65227d60801b604082015203016010810184520182611e42565b95610b17565b610e3b9192506020602f916040519485915180918484015e81017f2c7b2274726169745f74797065223a22506170657220477261696e222c227661838201526e6c7565223a22556e69666f726d227d60881b60408201520301600f810184520182611e42565b95610ade565b60045f9081529091505f805160206133bc8339815191525b828210610e6d575050820160200189610748565b60209192939450806001915483858a01015201910185939291610e59565b60ff1916885250801515028301602001905089610748565b9092506020813d602011610ecf575b81610ebf60209383611e42565b8101031261016157519183610706565b3d9150610eb2565b6040513d5f823e3d90fd5b92506020833d602011610f50575b81610efd60209383611e42565b810103126101615760405192602084018481106001600160401b03821117610f3c57604052516001600160401b038116810361016157835260206106d8565b634e487b7160e01b5f52604160045260245ffd5b3d9150610ef0565b34610161575f366003190112610161576001546040516001600160a01b039091168152602090f35b34610161575f36600319011261016157638b78c6d819546040516001600160a01b039091168152602090f35b34610161576020366003190112610161576004356001600160a01b038116908190036101615760207fd566016c5f23fe52a44459d0ca08c2b81f8411b49f6bbe69ea100611564bb6c591610ffe612000565b600180546001600160a01b03191682179055604051908152a1005b34610161575f366003190112610161576040515f60065461103981611dd4565b80845290600181169081156106415750600114611060576103798361036581850382611e42565b60065f9081525f8051602061339c833981519152939250905b808210611091575090915081016020016103656105e6565b919260018160209254838588010152019101909291611079565b5f366003190112610161576110be612000565b5f638b78c6d819547f8be0079c531659141344cd1fd0a4f28419497f9722a3daafe3b4186f6b6457e08280a35f638b78c6d81955005b34610161575f366003190112610161576040515f60085461111481611dd4565b8084529060018116908115610641575060011461113b576103798361036581850382611e42565b60085f9081525f8051602061337c833981519152939250905b80821061116c575090915081016020016103656105e6565b919260018160209254838588010152019101909291611154565b34610161576020366003190112610161576004356001600160401b038111610161576111b6903690600401611f46565b6111be612000565b80516001600160401b038111610f3c576111d9600454611dd4565b601f81116112e8575b506020601f8211600114611256579181611246927f95a50c186d5919be7ba2143bdf89abefc2588e9f86b6eba993901b4d9f416bed945f9161124b575b508160011b915f199060031b1c191617600455604051918291602083526020830190611f07565b0390a1005b90508201518561121f565b601f1982169060045f525f805160206133bc833981519152915f5b8181106112d05750927f95a50c186d5919be7ba2143bdf89abefc2588e9f86b6eba993901b4d9f416bed94926001928261124696106112b8575b5050811b01600455610365565b8401515f1960f88460031b161c1916905585806112ab565b91926020600181928689015181550194019201611271565b60045f52601f820160051c5f805160206133bc83398151915201906020831061133b575b601f0160051c5f805160206133bc83398151915201905b81811061133057506111e2565b5f8155600101611323565b5f805160206133bc833981519152915061130c565b34610161576020366003190112610161576004356001600160a01b038116908190036101615760207f70b12b6b8b6663fb182e440a56a9dba909b7d27f6773be8e1c1f9f8487c229c1916113a2612000565b600280546001600160a01b03191682179055604051908152a1005b34610161575f366003190112610161576040515f6007546113dd81611dd4565b80845290600181169081156106415750600114611404576103798361036581850382611e42565b60075f9081525f8051602061335c833981519152939250905b808210611435575090915081016020016103656105e6565b91926001816020925483858801015201910190929161141d565b5f3660031901126101615763389a75e1600c52335f525f6020600c2055337ffa7b8eab7da67f412cc9575ed43464468f9bfbae89d1675917346ca6d8fe3c925f80a2005b34610161576020366003190112610161576004356001600160a01b038116908190036101615760207fce24e5f855311c580478bc708feb6da3421628f56b822b39e8a209e80f05a719916114e5612000565b5f80546001600160a01b03191682179055604051908152a1005b34610161576080366003190112610161576004356001600160401b0381116101615761152f903690600401611f46565b6024356001600160401b0381116101615761154e903690600401611f46565b906044356001600160401b0381116101615761156e903690600401611f46565b6064356001600160401b0381116101615761158d903690600401611f46565b92611596612000565b82516001600160401b038111610f3c576115b1600554611dd4565b601f8111611a8e575b50806020601f8211600114611a1f575f91611a14575b508160011b915f199060031b1c1916176005555b80516001600160401b038111610f3c576115ff600654611dd4565b601f81116119ac575b50806020601f821160011461193d575f91611932575b508160011b915f199060031b1c1916176006555b81516001600160401b038111610f3c5761164d600754611dd4565b601f81116118ca575b50806020601f821160011461185b575f91611850575b508160011b915f199060031b1c1916176007555b83516001600160401b038111610f3c5761169b600854611dd4565b601f81116117e8575b506020601f821160011461174a57611715949361172361124694847f98b21c2a9353876752fe6fb3979aef527197201e88d11594070edd46f90e001c9995611731955f9161173f575b508160011b915f199060031b1c1916176008555b604051978897608089526080890190611f07565b908782036020890152611f07565b908582036040870152611f07565b908382036060850152611f07565b90508601518b6116ed565b601f1982169060085f525f8051602061337c833981519152915f5b8181106117d0575061124694600185611731956117159a99957f98b21c2a9353876752fe6fb3979aef527197201e88d11594070edd46f90e001c9c9861172396106117b8575b5050811b01600855611701565b8801515f1960f88460031b161c191690558b806117ab565b9192602060018192868c015181550194019201611765565b60085f52601f820160051c5f8051602061337c83398151915201906020831061183b575b601f0160051c5f8051602061337c83398151915201905b81811061183057506116a4565b5f8155600101611823565b5f8051602061337c833981519152915061180c565b90508301518661166c565b60075f9081525f8051602061335c8339815191529250601f198416905b8181106118b25750908360019493921061189a575b5050811b01600755611680565b8501515f1960f88460031b161c19169055868061188d565b9192602060018192868a015181550194019201611878565b60075f52601f820160051c5f8051602061335c83398151915201906020831061191d575b601f0160051c5f8051602061335c83398151915201905b8181106119125750611656565b5f8155600101611905565b5f8051602061335c83398151915291506118ee565b90508201518661161e565b60065f9081525f8051602061339c8339815191529250601f198416905b8181106119945750908360019493921061197c575b5050811b01600655611632565b8401515f1960f88460031b161c19169055868061196f565b9192602060018192868901518155019401920161195a565b60065f52601f820160051c5f8051602061339c8339815191520190602083106119ff575b601f0160051c5f8051602061339c83398151915201905b8181106119f45750611608565b5f81556001016119e7565b5f8051602061339c83398151915291506119d0565b9050840151866115d0565b60055f9081525f8051602061331c8339815191529250601f198416905b818110611a7657509083600194939210611a5e575b5050811b016005556115e4565b8601515f1960f88460031b161c191690558680611a51565b9192602060018192868b015181550194019201611a3c565b60055f52601f820160051c5f8051602061331c833981519152019060208310611ae1575b601f0160051c5f8051602061331c83398151915201905b818110611ad657506115ba565b5f8155600101611ac9565b5f8051602061331c8339815191529150611ab2565b5f3660031901126101615763389a75e1600c52335f526202a30042016020600c2055337fdbf36a107da19e49527a7176a1babf963b4b0ff8cde35ee35d6cd8f1f9ac7e1d5f80a2005b34610161575f366003190112610161576040515f600454611b5f81611dd4565b80845290600181169081156106415750600114611b86576103798361036581850382611e42565b60045f9081525f805160206133bc833981519152939250905b808210611bb7575090915081016020016103656105e6565b919260018160209254838588010152019101909291611b9f565b34610161576020366003190112610161576004356001600160401b03811161016157611c01903690600401611f46565b611c09612000565b80516001600160401b038111610f3c57611c24600354611dd4565b601f8111611d2e575b506020601f8211600114611c9c579181611246927f5415d426c4f141f128a11fca1a090008f54e065574159e10ed1447ef2fd6e2ec945f91611c91575b508160011b915f199060031b1c191617600355604051918291602083526020830190611f07565b905082015185611c6a565b601f1982169060035f525f8051602061333c833981519152915f5b818110611d165750927f5415d426c4f141f128a11fca1a090008f54e065574159e10ed1447ef2fd6e2ec9492600192826112469610611cfe575b5050811b01600355610365565b8401515f1960f88460031b161c191690558580611cf1565b91926020600181928689015181550194019201611cb7565b60035f52601f820160051c5f8051602061333c833981519152019060208310611d81575b601f0160051c5f8051602061333c83398151915201905b818110611d765750611c2d565b5f8155600101611d69565b5f8051602061333c8339815191529150611d52565b34610161575f36600319011261016157610379610365611e63565b34610161575f366003190112610161576002546001600160a01b03168152602090f35b90600182811c92168015611e02575b6020831014611dee57565b634e487b7160e01b5f52602260045260245ffd5b91607f1691611de3565b604081019081106001600160401b03821117610f3c57604052565b60e081019081106001600160401b03821117610f3c57604052565b90601f801991011681019081106001600160401b03821117610f3c57604052565b604051905f8260035491611e7683611dd4565b8083529260018116908115611ee85750600114611e9c575b611e9a92500383611e42565b565b5060035f90815290915f8051602061333c8339815191525b818310611ecc575050906020611e9a92820101611e8e565b6020919350806001915483858901015201910190918492611eb4565b60209250611e9a94915060ff191682840152151560051b820101611e8e565b805180835260209291819084018484015e5f828201840152601f01601f1916010190565b6001600160401b038111610f3c57601f01601f191660200190565b81601f8201121561016157803590611f5d82611f2b565b92611f6b6040519485611e42565b8284526020838301011161016157815f926020809301838601378301015290565b6006545f9291611f9b82611dd4565b9160018116908115611fee5750600114611fb3575050565b60065f90815292935090915f8051602061339c8339815191525b838210611fda5750500190565b600181602092548486015201910190611fcd565b60ff1916825250811515909102019150565b638b78c6d81954330361200f57565b6382b429005f526004601cfd5b60018060a01b031680638b78c6d819547f8be0079c531659141344cd1fd0a4f28419497f9722a3daafe3b4186f6b6457e05f80a3638b78c6d81955565b602081830312610161578051906001600160401b038211610161570181601f820112156101615760208151910161208f82611f2b565b9261209d6040519485611e42565b8284528282011161016157815f926020928386015e8301015290565b9080602083519182815201906020808260051b8501019401925f905b8282106120e457505050505090565b9091929394601f1982820301855285519061212f61210b835160e0845260e0840190611f07565b60018060a01b03602085015116602084015260408401518382036040850152611f07565b606083015190600582101561219a576001938360c061217c61216a61218d956020989760608a99015260808601518582036080870152611f07565b60a085015184820360a0860152611f07565b9201519060c0818403910152611f07565b97019501939201906120d5565b634e487b7160e01b5f52602160045260245ffd5b906121e3916020815260206121ce835160408385015260608401906120b9565b920151906040601f19828503019101526120b9565b90565b9081518110156121f7570160200190565b634e487b7160e01b5f52603260045260245ffd5b906060602060405161221c81611e0c565b828152015260405160606122308183611e42565b60028252601f19015f5b818110612b1257505060405161224f81611e27565b6123536020946040516122628782611e42565b5f815283525f868401526040516122798782611e42565b5f815260408401525f60608401526080926040516122978582611e42565b605981527f3c6d65746120636861727365743d227574662d38223e3c6d657461206e616d65888201527f3d2276696577706f72742220636f6e74656e743d2277696474683d646576696360408201527f652d77696474682c696e697469616c2d7363616c653d31223e0000000000000060608201528482015260405161231d8882611e42565b5f815260a08201526040516123328882611e42565b5f815260c082015261234385612b9d565b5261234d84612b9d565b50612b58565b60409384516123628682611e42565b601081526f181899199a1a9b1b9c1cb0b131b232b360811b8782015285519061238b8583611e42565b6042825287820192601f1986013685378251156121f757603084538251600110156121f757908291607860218b97969501535f5b868110612a78575050506124439260356002936013938a519788947477696e646f772e4c4553535f544f4b454e5f49443d60581b828701528051918291018587015e840190721dbbb4b73237bb972622a9a9afa9a2a2a21e9160691b84830152518092604883015e010161223b60f01b838201520301601d19810184520182611e42565b83519061244f82611e27565b845161245b8782611e42565b5f815282525f8683015284516124718782611e42565b5f8152858301525f6060830152845161248a8682611e42565b60088152671e39b1b934b83a1f60c11b878201528383015284516124ae8682611e42565b60098152681e17b9b1b934b83a1f60b91b8782015260a083015260c08201526124d683612baa565b526124e082612baa565b50825190602085016124f28184611e42565b60018352601f1901855f5b828110612a3657505060025485519291506001600160a01b031661252083611e27565b612528611e63565b835286830152845161253a8782611e42565b5f815285830152600160608301528451906125558783611e42565b5f825282015283516125678682611e42565b5f815260a0820152835161257b8682611e42565b5f815260c082015261258c82612b9d565b5261259681612b9d565b508251916125a383611e0c565b8252838201526001548251635448d9af60e11b81526001600160a01b03909116905f81806125d486600483016121ae565b0381855afa5f9181612a1a575b5061292457508251632bee680760e01b81525f818061260386600483016121ae565b0381855afa5f9181612908575b506128bc57508251636af6c46760e11b81525f818061263286600483016121ae565b0381855afa5f91816128a0575b506128445750612665915f9184518080958194633eddc85160e11b8352600483016121ae565b03915afa5f9181612820575b506126e057815162461bcd60e51b815260048101849052603d60248201527f536372697074794275696c6465723a20496e74657266616365206d69736d617460448201527f63682e20436865636b20636f6e74726163742066756e6374696f6e732e0000006064820152608490fd5b90816060928151908161273a575b5050506121e391603691519384917519185d184e9d195e1d0bda1d1b5b0ed8985cd94d8d0b60521b828401528051918291018484015e81015f838201520301601f198101835282611e42565b919350916003600284010460021b8151927f4142434445464748494a4b4c4d4e4f505152535455565758595a616263646566601f526106707f6768696a6b6c6d6e6f707172737475767778797a303132333435363738392d5f18603f528684019582850195888181890193010197600460038a51955f8c525b0191603f8351818160121c16515f538181600c1c1651600153818160061c165160025316516003535f5181520190838210156127f4576004906003906127b3565b509150846036975f946121e39a520185526003613d3d60f01b91066002048203525282529181936126ee565b61283d9192503d805f833e6128358183611e42565b810190612059565b905f612671565b92915050816060928151908161273a575050506121e391603691519384917519185d184e9d195e1d0bda1d1b5b0ed8985cd94d8d0b60521b828401528051918291018484015e81015f838201520301601f198101835282611e42565b6128b59192503d805f833e6128358183611e42565b905f61263f565b9050603691506121e392519384917519185d184e9d195e1d0bda1d1b5b0ed8985cd94d8d0b60521b828401528051918291018484015e81015f838201520301601f198101835282611e42565b61291d9192503d805f833e6128358183611e42565b905f612610565b9150505f9291925082516129388482611e42565b601681527519185d184e9d195e1d0bda1d1b5b0ed8985cd94d8d0b60521b838201526016825110156129b0575b506036906121e39293519384917519185d184e9d195e1d0bda1d1b5b0ed8985cd94d8d0b60521b828401528051918291018484015e81015f838201520301601f198101835282611e42565b926001935f5b8151811015612a10576001600160f81b03196129d282866121e6565b51166001600160f81b03196129e783856121e6565b5116036129f6576001016129b6565b5050909192505f5b612a0a5791905f612965565b50905090565b50509091926129fe565b612a2f9192503d805f833e6128358183611e42565b905f6125e1565b8651612a4181611e27565b606081525f838201526060888201525f6060820152606085820152606060a0820152606060c08201528282870101520186906124fd565b94955092939192909181811a906001600160f81b0319612a9f600484901c600f16866121e6565b5116918160011b9282840460021483151715610ce957836002019081600211610ce957612acf905f1a91886121e6565b536001600160f81b031990612ae790600f16866121e6565b51169160030180600311610ce957612b046001935f1a91876121e6565b5301908995949392916123bf565b602090604051612b2181611e27565b606081525f83820152606060408201525f606082015260606080820152606060a0820152606060c08201528282860101520161223a565b90604051600a608082019360a083016040525f8552935b5f190193603082820601855304928315612b8b57600a90612b6f565b809350608091030191601f1901918252565b8051156121f75760200190565b8051600110156121f75760400190565b637fffffff612bcc9160c01c066132f9565b6064810281810460641482151715610ce957637fffffff600c910410612d0f57612bf5906132f9565b906064820282810460641483151715610ce957637fffffff90046028811015612c775750612c42604051612c2a604082611e42565b600581526476616c756560d81b6020820152926132f9565b606481029080820460641490151715610ce957637fffffff60289104105f14612c6f576002915b91905f90565b600391612c69565b6044811015612cb05750612c42604051612c92604082611e42565b600b81526a74656d706572617475726560a81b6020820152926132f9565b605a1115612ce657612c42604051612cc9604082611e42565b600a81526918dbdb5c1b195b595b9d60b21b6020820152926132f9565b612c42604051612cf7604082611e42565b60058152640c6d8c2e6d60db1b6020820152926132f9565b50604051612d1e604082611e42565b600a8152696d6f6e6f6368726f6d6560b01b602082015290600290600190565b60405190612d4d604083611e42565b6008825267191a5859dbdb985b60c21b6020830152565b637fffffff9060c01c06611a0a8101809111610ce957612d83906132f9565b606481029080820460641490151715610ce957637fffffff900460108110612e8f5760208110612e6857602c8110612e5f5760388110612e3a5760448110612e1757605011612df057604051612dda604082611e42565b600681526572616e646f6d60d01b602082015290565b604051612dfe604082611e42565b600981526818db1d5cdd195c995960ba1b602082015290565b50604051612e26604082611e42565b600481526319dc9a5960e21b602082015290565b50604051612e49604082611e42565b60068152651c98591a585b60d21b602082015290565b506121e3612d3e565b50604051612e77604082611e42565b60088152671d995c9d1a58d85b60c21b602082015290565b50604051612e9e604082611e42565b600a8152691a1bdc9a5e9bdb9d185b60b21b602082015290565b637fffffff9060c01c066115b38101809111610ce957612ed7906132f9565b606481029080820460641490151715610ce957637fffffff900460238110612fa35760288110612f7e5760418110612f5757605211612f3357604051612f1e604082611e42565b600581526464656e736560d81b602082015290565b604051612f41604082611e42565b600681526573706172736560d01b602082015290565b50604051612f66604082611e42565b60088152671a5b9d995c9d195960c21b602082015290565b50604051612f8d604082611e42565b600681526562696e61727960d01b602082015290565b50604051612fb2604082611e42565b60068152651b9bdc9b585b60d21b602082015290565b637fffffff9060c01c066182358101809111610ce957612fe7906132f9565b606481029080820460641490151715610ce957637fffffff9004601681106130f057602c81106130ce57604181106130a9576050811061308157605a8110612e5f5760601161305a5760405161303e604082611e42565b600c81526b18da1958dad95c989bd85c9960a21b602082015290565b604051613068604082611e42565b60098152681c985b991bdb535a5960ba1b602082015290565b50604051613090604082611e42565b6009815268616c7465726e61746560b81b602082015290565b506040516130b8604082611e42565b600681526531b2b73a32b960d11b602082015290565b506040516130dd604082611e42565b60038152621c9d1b60ea1b602082015290565b506040516130ff604082611e42565b6003815262363a3960e91b602082015290565b637fffffff9060c01c0661270f8101809111610ce957613131906132f9565b606481029080820460641490151715610ce957637fffffff900460038110156131f457506101905b62177fa081156131e05704603281106131bb5761012c1161319757604051613182604082611e42565b600581526444656e736560d81b602082015290565b6040516131a5604082611e42565b6006815265139bdc9b585b60d21b602082015290565b506040516131ca604082611e42565b600681526553706172736560d01b602082015290565b634e487b7160e01b5f52601260045260245ffd5b600a81101561320657506109c4613159565b602d8110156132185750612710613159565b605f111561322857619c40613159565b62057e40613159565b637fffffff9060c01c066115b38101809111610ce957613250906132f9565b605081029080820460501490151715610ce957637fffffff9004600a8101809111610ce957602381106132d1576041116132ab57604051613292604082611e42565b600981526810589cdbdc98995b9d60ba1b602082015290565b6040516132b9604082611e42565b600881526714dd185b99185c9960c21b602082015290565b506040516132e0604082611e42565b600981526814995cda5cdd185b9d60ba1b602082015290565b8015613313575b6341c64e6d0261303901637fffffff1690565b50600161330056fe036b6384b5eca791c62761152d0c79bb0604c104a5fb6f4eb0703f3154bb3db0c2575a0e9e593c00f959f8c92f12db2869c3395a3b0502d05e2516446f71f85ba66cc928b5edb82af9bd49922954155ab7b0942694bea4ce44661d9a8736c688f3f7a9fe364faab93b216da50a3214154f22a0a2b415b23a84c8169e8b636ee3f652222313e28459528d920b65115c16c04f3efc82aaedc97be59f3f377c0d3f8a35acfbc15ff81a39ae7d344fd709f28e8600b4aa8c65c6b64bfe7fe36bd19ba2646970667358221220a5df2d581c10aa3597e288d1ce71ec0bded48faa331544db0a170ae1b62f409464736f6c634300081a0033","linkReferences":{}},"methodIdentifiers":{"baseImageURL()":"1b109d9c","cancelOwnershipHandover()":"54d1f13d","collectionImage()":"55530614","collectionName()":"e5326ab1","completeOwnershipHandover(address)":"f04e283e","contractURI()":"e8a3d485","description()":"7284e416","externalLink()":"5b9db898","less()":"d0b42373","owner()":"8da5cb5b","ownershipHandoverExpiresAt(address)":"fee81cf4","renounceOwnership()":"715018a6","requestOwnershipHandover()":"25692962","scriptName()":"11fd1965","scriptyBuilder()":"91a0d36d","scriptyStorage()":"0ac49cc2","setBaseImageURL(string)":"59146e1c","setLessContract(address)":"52ce6116","setMetadata(string,string,string,string)":"4734e13c","setScriptName(string)":"196fc2b8","setScriptyBuilder(address)":"7f749003","setScriptyStorage(address)":"56a3aec4","tokenURI(uint256)":"c87b56dd","transferOwnership(address)":"f2fde38b"},"id":3}