{"abi":[{"type":"constructor","inputs":[{"name":"_less","type":"address","internalType":"address"},{"name":"_scriptyBuilder","type":"address","internalType":"address"},{"name":"_scriptyStorage","type":"address","internalType":"address"},{"name":"_scriptName","type":"string","internalType":"string"},{"name":"_baseImageURL","type":"string","internalType":"string"},{"name":"_owner","type":"address","internalType":"address"}],"stateMutability":"nonpayable"},{"type":"function","name":"DESCRIPTION","inputs":[],"outputs":[{"name":"","type":"string","internalType":"string"}],"stateMutability":"view"},{"type":"function","name":"baseImageURL","inputs":[],"outputs":[{"name":"","type":"string","internalType":"string"}],"stateMutability":"view"},{"type":"function","name":"cancelOwnershipHandover","inputs":[],"outputs":[],"stateMutability":"payable"},{"type":"function","name":"completeOwnershipHandover","inputs":[{"name":"pendingOwner","type":"address","internalType":"address"}],"outputs":[],"stateMutability":"payable"},{"type":"function","name":"less","inputs":[],"outputs":[{"name":"","type":"address","internalType":"address"}],"stateMutability":"view"},{"type":"function","name":"owner","inputs":[],"outputs":[{"name":"result","type":"address","internalType":"address"}],"stateMutability":"view"},{"type":"function","name":"ownershipHandoverExpiresAt","inputs":[{"name":"pendingOwner","type":"address","internalType":"address"}],"outputs":[{"name":"result","type":"uint256","internalType":"uint256"}],"stateMutability":"view"},{"type":"function","name":"renounceOwnership","inputs":[],"outputs":[],"stateMutability":"payable"},{"type":"function","name":"requestOwnershipHandover","inputs":[],"outputs":[],"stateMutability":"payable"},{"type":"function","name":"scriptName","inputs":[],"outputs":[{"name":"","type":"string","internalType":"string"}],"stateMutability":"view"},{"type":"function","name":"scriptyBuilder","inputs":[],"outputs":[{"name":"","type":"address","internalType":"address"}],"stateMutability":"view"},{"type":"function","name":"scriptyStorage","inputs":[],"outputs":[{"name":"","type":"address","internalType":"address"}],"stateMutability":"view"},{"type":"function","name":"setBaseImageURL","inputs":[{"name":"_baseImageURL","type":"string","internalType":"string"}],"outputs":[],"stateMutability":"nonpayable"},{"type":"function","name":"setLessContract","inputs":[{"name":"_less","type":"address","internalType":"address"}],"outputs":[],"stateMutability":"nonpayable"},{"type":"function","name":"setScriptName","inputs":[{"name":"_scriptName","type":"string","internalType":"string"}],"outputs":[],"stateMutability":"nonpayable"},{"type":"function","name":"setScriptyBuilder","inputs":[{"name":"_scriptyBuilder","type":"address","internalType":"address"}],"outputs":[],"stateMutability":"nonpayable"},{"type":"function","name":"setScriptyStorage","inputs":[{"name":"_scriptyStorage","type":"address","internalType":"address"}],"outputs":[],"stateMutability":"nonpayable"},{"type":"function","name":"tokenURI","inputs":[{"name":"tokenId","type":"uint256","internalType":"uint256"}],"outputs":[{"name":"","type":"string","internalType":"string"}],"stateMutability":"view"},{"type":"function","name":"transferOwnership","inputs":[{"name":"newOwner","type":"address","internalType":"address"}],"outputs":[],"stateMutability":"payable"},{"type":"event","name":"BaseImageURLUpdated","inputs":[{"name":"newURL","type":"string","indexed":false,"internalType":"string"}],"anonymous":false},{"type":"event","name":"LessContractUpdated","inputs":[{"name":"newLess","type":"address","indexed":false,"internalType":"address"}],"anonymous":false},{"type":"event","name":"OwnershipHandoverCanceled","inputs":[{"name":"pendingOwner","type":"address","indexed":true,"internalType":"address"}],"anonymous":false},{"type":"event","name":"OwnershipHandoverRequested","inputs":[{"name":"pendingOwner","type":"address","indexed":true,"internalType":"address"}],"anonymous":false},{"type":"event","name":"OwnershipTransferred","inputs":[{"name":"oldOwner","type":"address","indexed":true,"internalType":"address"},{"name":"newOwner","type":"address","indexed":true,"internalType":"address"}],"anonymous":false},{"type":"event","name":"ScriptNameUpdated","inputs":[{"name":"newName","type":"string","indexed":false,"internalType":"string"}],"anonymous":false},{"type":"event","name":"ScriptyBuilderUpdated","inputs":[{"name":"newBuilder","type":"address","indexed":false,"internalType":"address"}],"anonymous":false},{"type":"event","name":"ScriptyStorageUpdated","inputs":[{"name":"newStorage","type":"address","indexed":false,"internalType":"address"}],"anonymous":false},{"type":"error","name":"AlreadyInitialized","inputs":[]},{"type":"error","name":"NewOwnerIsZeroAddress","inputs":[]},{"type":"error","name":"NoHandoverRequest","inputs":[]},{"type":"error","name":"TokenDoesNotExist","inputs":[]},{"type":"error","name":"Unauthorized","inputs":[]}],"bytecode":{"object":"0x608060405234801561000f575f80fd5b5060405161239a38038061239a83398101604081905261002e9161018b565b5f80546001600160a01b038089166001600160a01b031992831617909255600180548884169083161790556002805492871692909116919091179055600361007684826102b4565b50600461008383826102b4565b5061008d81610098565b50505050505061036e565b6001600160a01b0316638b78c6d819819055805f7f8be0079c531659141344cd1fd0a4f28419497f9722a3daafe3b4186f6b6457e08180a350565b80516001600160a01b03811681146100e9575f80fd5b919050565b634e487b7160e01b5f52604160045260245ffd5b5f82601f830112610111575f80fd5b81516001600160401b0381111561012a5761012a6100ee565b604051601f8201601f19908116603f011681016001600160401b0381118282101715610158576101586100ee565b60405281815283820160200185101561016f575f80fd5b8160208501602083015e5f918101602001919091529392505050565b5f805f805f8060c087890312156101a0575f80fd5b6101a9876100d3565b95506101b7602088016100d3565b94506101c5604088016100d3565b60608801519094506001600160401b038111156101e0575f80fd5b6101ec89828a01610102565b608089015190945090506001600160401b03811115610209575f80fd5b61021589828a01610102565b92505061022460a088016100d3565b90509295509295509295565b600181811c9082168061024457607f821691505b60208210810361026257634e487b7160e01b5f52602260045260245ffd5b50919050565b601f8211156102af57805f5260205f20601f840160051c8101602085101561028d5750805b601f840160051c820191505b818110156102ac575f8155600101610299565b50505b505050565b81516001600160401b038111156102cd576102cd6100ee565b6102e1816102db8454610230565b84610268565b6020601f821160018114610313575f83156102fc5750848201515b5f19600385901b1c1916600184901b1784556102ac565b5f84815260208120601f198516915b828110156103425787850151825560209485019460019092019101610322565b508482101561035f57868401515f19600387901b60f8161c191681555b50505050600190811b01905550565b61201f8061037b5f395ff3fe608060405260043610610110575f3560e01c8063715018a61161009d578063d0b4237311610062578063d0b4237314610290578063f04e283e146102ae578063f1ae8856146102c1578063f2fde38b146102d5578063fee81cf4146102e8575f80fd5b8063715018a6146102135780637f7490031461021b5780638da5cb5b1461023a57806391a0d36d14610252578063c87b56dd14610271575f80fd5b806325692962116100e357806325692962146101a657806352ce6116146101ae57806354d1f13d146101cd57806356a3aec4146101d557806359146e1c146101f4575f80fd5b80630ac49cc21461011457806311fd196514610150578063196fc2b8146101715780631b109d9c14610192575b5f80fd5b34801561011f575f80fd5b50600254610133906001600160a01b031681565b6040516001600160a01b0390911681526020015b60405180910390f35b34801561015b575f80fd5b50610164610327565b60405161014791906114c3565b34801561017c575f80fd5b5061019061018b366004611546565b6103b3565b005b34801561019d575f80fd5b50610164610402565b61019061040f565b3480156101b9575f80fd5b506101906101c83660046115d3565b61045b565b6101906104b0565b3480156101e0575f80fd5b506101906101ef3660046115d3565b6104e9565b3480156101ff575f80fd5b5061019061020e366004611546565b61053f565b610190610583565b348015610226575f80fd5b506101906102353660046115d3565b610596565b348015610245575f80fd5b50638b78c6d81954610133565b34801561025d575f80fd5b50600154610133906001600160a01b031681565b34801561027c575f80fd5b5061016461028b3660046115ee565b6105ec565b34801561029b575f80fd5b505f54610133906001600160a01b031681565b6101906102bc3660046115d3565b610788565b3480156102cc575f80fd5b506101646107c5565b6101906102e33660046115d3565b6107e4565b3480156102f3575f80fd5b506103196103023660046115d3565b63389a75e1600c9081525f91909152602090205490565b604051908152602001610147565b6003805461033490611605565b80601f016020809104026020016040519081016040528092919081815260200182805461036090611605565b80156103ab5780601f10610382576101008083540402835291602001916103ab565b820191905f5260205f20905b81548152906001019060200180831161038e57829003601f168201915b505050505081565b6103bb61080a565b60036103c78282611689565b507f5415d426c4f141f128a11fca1a090008f54e065574159e10ed1447ef2fd6e2ec816040516103f791906114c3565b60405180910390a150565b6004805461033490611605565b5f6202a3006001600160401b03164201905063389a75e1600c52335f52806020600c2055337fdbf36a107da19e49527a7176a1babf963b4b0ff8cde35ee35d6cd8f1f9ac7e1d5f80a250565b61046361080a565b5f80546001600160a01b0319166001600160a01b0383169081179091556040519081527fce24e5f855311c580478bc708feb6da3421628f56b822b39e8a209e80f05a719906020016103f7565b63389a75e1600c52335f525f6020600c2055337ffa7b8eab7da67f412cc9575ed43464468f9bfbae89d1675917346ca6d8fe3c925f80a2565b6104f161080a565b600280546001600160a01b0319166001600160a01b0383169081179091556040519081527f70b12b6b8b6663fb182e440a56a9dba909b7d27f6773be8e1c1f9f8487c229c1906020016103f7565b61054761080a565b60046105538282611689565b507f95a50c186d5919be7ba2143bdf89abefc2588e9f86b6eba993901b4d9f416bed816040516103f791906114c3565b61058b61080a565b6105945f610824565b565b61059e61080a565b600180546001600160a01b0319166001600160a01b0383169081179091556040519081527fd566016c5f23fe52a44459d0ca08c2b81f8411b49f6bbe69ea100611564bb6c5906020016103f7565b5f805460405163b09afec160e01b815260048101849052606092916001600160a01b03169063b09afec190602401602060405180830381865afa158015610635573d5f803e3d5ffd5b505050506040513d601f19601f82011682018060405250810190610659919061175e565b5f805482516040516351787e2f60e11b81526001600160401b03909116600482015292935090916001600160a01b039091169063a2f0fc5e90602401606060405180830381865afa1580156106b0573d5f803e3d5ffd5b505050506040513d601f19601f820116820180604052508101906106d491906117a7565b5f805460405163e0d4ea3760e01b81526004810188905292935090916001600160a01b039091169063e0d4ea3790602401602060405180830381865afa158015610720573d5f803e3d5ffd5b505050506040513d601f19601f82011682018060405250810190610744919061180d565b90505f61075386858585610861565b905061075e816108e2565b60405160200161076e919061183b565b604051602081830303815290604052945050505050919050565b61079061080a565b63389a75e1600c52805f526020600c2080544211156107b657636f5e88185f526004601cfd5b5f90556107c281610824565b50565b6040518061014001604052806101078152602001611ee3610107913981565b6107ec61080a565b8060601b61080157637448fbae5f526004601cfd5b6107c281610824565b638b78c6d819543314610594576382b429005f526004601cfd5b638b78c6d81980546001600160a01b039092169182907f8be0079c531659141344cd1fd0a4f28419497f9722a3daafe3b4186f6b6457e05f80a355565b60605f61086e86846108f5565b90505f61087a87610c70565b90505f610888878787610ca4565b905061089388610e26565b6040518061014001604052806101078152602001611ee361010791398385846040516020016108c695949392919061186c565b6040516020818303038152906040529350505050949350505050565b60606108ef825f80610e68565b92915050565b60605f6109028484610f5a565b600154604051635448d9af60e11b81529192506060916001600160a01b039091169063a891b35e90610938908590600401611a5d565b5f60405180830381865afa92505050801561097457506040513d5f823e601f3d908101601f191682016040526109719190810190611ad4565b60015b15610a62576040805180820190915260168082527519185d184e9d195e1d0bda1d1b5b0ed8985cd94d8d0b60521b602083015282519293508392839111610a365760015f5b8351811015610a1f578381815181106109d4576109d4611b20565b602001015160f81c60f81b6001600160f81b0319168382815181106109fb576109fb611b20565b01602001516001600160f81b03191614610a17575f9150610a1f565b6001016109b9565b508015610a34578396505050505050506108ef565b505b83604051602001610a479190611b34565b604051602081830303815290604052955050505050506108ef565b600154604051632bee680760e01b81526001600160a01b0390911690632bee680790610a92908590600401611a5d565b5f60405180830381865afa925050508015610ace57506040513d5f823e601f3d908101601f19168201604052610acb9190810190611ad4565b60015b15610b005780915081604051602001610ae79190611b34565b60405160208183030381529060405293505050506108ef565b600154604051636af6c46760e11b81526001600160a01b039091169063d5ed88ce90610b30908590600401611a5d565b5f60405180830381865afa925050508015610b6c57506040513d5f823e601f3d908101601f19168201604052610b699190810190611ad4565b60015b15610b8e575b610b7b816108e2565b915081604051602001610ae79190611b34565b600154604051633eddc85160e11b81526001600160a01b0390911690637dbb90a290610bbe908590600401611a5d565b5f60405180830381865afa925050508015610bfa57506040513d5f823e601f3d908101601f19168201604052610bf79190810190611ad4565b60015b610b725760405162461bcd60e51b815260206004820152603d60248201527f536372697074794275696c6465723a20496e74657266616365206d69736d617460448201527f63682e20436865636b20636f6e74726163742066756e6374696f6e732e000000606482015260840160405180910390fd5b60606004610c7d83610e26565b604051602001610c8e929190611b5e565b6040516020818303038152906040529050919050565b60408051602080820183525f808352548351635463173b60e11b815293516060946001600160a01b039092169263a8c62e7692600480820193918290030181865afa158015610cf5573d5f803e3d5ffd5b505050506040513d601f19601f82011682018060405250810190610d199190611be7565b6001600160a01b03166318160ddd6040518163ffffffff1660e01b8152600401602060405180830381865afa925050508015610d72575060408051601f3d908101601f19168201909252610d6f9181019061180d565b60015b15610da357610d8081610e26565b604051602001610d909190611c02565b6040516020818303038152906040529150505b8451610db7906001600160401b0316610e26565b610dc084611250565b610dcd8660400151611250565b8651610de1906001600160401b0316610e26565b610df788602001516001600160401b0316610e26565b85604051602001610e0d96959493929190611c56565b6040516020818303038152906040529150509392505050565b60606080604051019050602081016040525f8152805f19835b928101926030600a8206018453600a900480610e3f575050819003601f19909101908152919050565b606083518015610f52576003600282010460021b60405192507f4142434445464748494a4b4c4d4e4f505152535455565758595a616263646566601f526106708515027f6768696a6b6c6d6e6f707172737475767778797a303132333435363738392d5f18603f526020830181810183886020010180515f82525b60038a0199508951603f8160121c16515f53603f81600c1c1651600153603f8160061c1651600253603f811651600353505f518452600484019350828410610ee3579052602001604052613d3d60f01b60038406600204808303919091525f8615159091029182900352900382525b509392505050565b6040805180820182526060808252602082018190528251600280825291810190935290915f91816020015b610f8d611440565b815260200190600190039081610f855790505060408051610100810182525f60e0820181815282526020808301829052835190810184528181529282019290925291925060608201908152602001604051806080016040528060598152602001611e8a60599139815260200160405180602001604052805f815250815260200160405180602001604052805f815250815250815f8151811061103157611031611b20565b60209081029190910181019190915260408051610100810182525f60e082018181528252818401819052825180850184528181528284015260608201528151808301835260088152671e39b1b934b83a1f60c11b818501526080820152815180830190925260098252681e17b9b1b934b83a1f60b91b9282019290925260a082015260c081016110c18686611404565b815250816001815181106110d7576110d7611b20565b60209081029190910101526040805160018082528183019092525f91816020015b611100611440565b8152602001906001900390816110f85790505090506040518060e001604052806003805461112d90611605565b80601f016020809104026020016040519081016040528092919081815260200182805461115990611605565b80156111a45780601f1061117b576101008083540402835291602001916111a4565b820191905f5260205f20905b81548152906001019060200180831161118757829003601f168201915b50505091835250506002546001600160a01b03166020808301919091526040805191820181525f82528201526060016001815260200160405180602001604052805f815250815260200160405180602001604052805f815250815260200160405180602001604052805f815250815250815f8151811061122657611226611b20565b60200260200101819052506040518060400160405280838152602001828152509250505092915050565b604080518082018252601081526f181899199a1a9b1b9c1cb0b131b232b360811b602082015281516042808252608082019093526060925f9190602082018180368337019050509050600360fc1b815f815181106112b0576112b0611b20565b60200101906001600160f81b03191690815f1a905350600f60fb1b816001815181106112de576112de611b20565b60200101906001600160f81b03191690815f1a9053505f5b6020811015610f525782600486836020811061131457611314611b20565b1a60f81b6001600160f81b031916901c60f81c60ff168151811061133a5761133a611b20565b01602001516001600160f81b03191682611355836002611dfc565b611360906002611e13565b8151811061137057611370611b20565b60200101906001600160f81b03191690815f1a9053508285826020811061139957611399611b20565b825191901a600f169081106113b0576113b0611b20565b01602001516001600160f81b031916826113cb836002611dfc565b6113d6906003611e13565b815181106113e6576113e6611b20565b60200101906001600160f81b03191690815f1a9053506001016112f6565b606061140f83610e26565b61141883611250565b604051602001611429929190611e26565b604051602081830303815290604052905092915050565b6040518060e00160405280606081526020015f6001600160a01b03168152602001606081526020015f600481111561147a5761147a611935565b81526020016060815260200160608152602001606081525090565b5f81518084528060208401602086015e5f602082860101526020601f19601f83011685010191505092915050565b602081525f6114d56020830184611495565b9392505050565b634e487b7160e01b5f52604160045260245ffd5b604051601f8201601f191681016001600160401b0381118282101715611518576115186114dc565b604052919050565b5f6001600160401b03821115611538576115386114dc565b50601f01601f191660200190565b5f60208284031215611556575f80fd5b81356001600160401b0381111561156b575f80fd5b8201601f8101841361157b575f80fd5b803561158e61158982611520565b6114f0565b8181528560208385010111156115a2575f80fd5b816020840160208301375f91810160200191909152949350505050565b6001600160a01b03811681146107c2575f80fd5b5f602082840312156115e3575f80fd5b81356114d5816115bf565b5f602082840312156115fe575f80fd5b5035919050565b600181811c9082168061161957607f821691505b60208210810361163757634e487b7160e01b5f52602260045260245ffd5b50919050565b601f82111561168457805f5260205f20601f840160051c810160208510156116625750805b601f840160051c820191505b81811015611681575f815560010161166e565b50505b505050565b81516001600160401b038111156116a2576116a26114dc565b6116b6816116b08454611605565b8461163d565b6020601f8211600181146116e8575f83156116d15750848201515b5f19600385901b1c1916600184901b178455611681565b5f84815260208120601f198516915b8281101561171757878501518255602094850194600190920191016116f7565b508482101561173457868401515f19600387901b60f8161c191681555b50505050600190811b01905550565b80516001600160401b0381168114611759575f80fd5b919050565b5f602082840312801561176f575f80fd5b50604051602081016001600160401b0381118282101715611792576117926114dc565b60405261179e83611743565b81529392505050565b5f60608284031280156117b8575f80fd5b50604051606081016001600160401b03811182821017156117db576117db6114dc565b6040526117e783611743565b81526117f560208401611743565b60208201526040928301519281019290925250919050565b5f6020828403121561181d575f80fd5b5051919050565b5f81518060208401855e5f93019283525090919050565b7f646174613a6170706c69636174696f6e2f6a736f6e3b6261736536342c00000081525f6114d5601d830184611824565b6e7b226e616d65223a226c657373202360881b81525f61188f600f830188611824565b701116113232b9b1b934b83a34b7b7111d1160791b81526118b36011820188611824565b6a11161134b6b0b3b2911d1160a91b815290506118d3600b820187611824565b7211161130b734b6b0ba34b7b72fbab936111d1160691b815290506118fb6013820186611824565b6e11161130ba3a3934b13aba32b9911d60891b8152905061191f600f820185611824565b607d60f81b815260010198975050505050505050565b634e487b7160e01b5f52602160045260245ffd5b6005811061196557634e487b7160e01b5f52602160045260245ffd5b9052565b5f82825180855260208501945060208160051b830101602085015f5b83811015611a5157601f198584030188528151805160e085526119ab60e0860182611495565b905060018060a01b036020830151166020860152604082015185820360408701526119d68282611495565b91505060608201516119eb6060870182611949565b5060808201518582036080870152611a038282611495565b91505060a082015185820360a0870152611a1d8282611495565b91505060c0820151915084810360c0860152611a398183611495565b60209a8b019a90955093909301925050600101611985565b50909695505050505050565b602081525f825160406020840152611a786060840182611969565b90506020840151601f19848303016040850152611a958282611969565b95945050505050565b5f611aab61158984611520565b9050828152838383011115611abe575f80fd5b8282602083015e5f602084830101529392505050565b5f60208284031215611ae4575f80fd5b81516001600160401b03811115611af9575f80fd5b8201601f81018413611b09575f80fd5b611b1884825160208401611a9e565b949350505050565b634e487b7160e01b5f52603260045260245ffd5b7519185d184e9d195e1d0bda1d1b5b0ed8985cd94d8d0b60521b81525f6114d56016830184611824565b5f808454611b6b81611605565b600182168015611b825760018114611b9757611bc4565b60ff1983168652811515820286019350611bc4565b875f5260205f205f5b83811015611bbc57815488820152600190910190602001611ba0565b505081860193505b505050611bd18185611824565b632e706e6760e01b815260040195945050505050565b5f60208284031215611bf7575f80fd5b81516114d5816115bf565b7f2c7b2274726169745f74797065223a22537472617465677920537570706c792281526816113b30b63ab2911d60b91b60208201525f611c456029830184611824565b607d60f81b81526001019392505050565b7f5b7b2274726169745f74797065223a22466f6c64204944222c2276616c7565228152601d60f91b60208201525f611c916021830189611824565b7f7d2c7b2274726169745f74797065223a2253656564222c2276616c7565223a228152611cc16020820189611824565b7f227d2c7b2274726169745f74797065223a22426c6f636b2048617368222c227681526630b63ab2911d1160c91b60208201529050611d036027820188611824565b90507f227d2c7b2274726169745f74797065223a2257696e646f77205374617274222c81527f22646973706c61795f74797065223a2264617465222c2276616c7565223a00006020820152611d5b603e820187611824565b90507f7d2c7b2274726169745f74797065223a2257696e646f7720456e64222c22646981527f73706c61795f74797065223a2264617465222c2276616c7565223a00000000006020820152611db3603b820186611824565b607d60f81b8152905060018101611dda611dcd8287611824565b605d60f81b815260010190565b9a9950505050505050505050565b634e487b7160e01b5f52601160045260245ffd5b80820281158282048414176108ef576108ef611de8565b808201808211156108ef576108ef611de8565b7477696e646f772e4c4553535f544f4b454e5f49443d60581b81525f611e4f6015830185611824565b721dbbb4b73237bb972622a9a9afa9a2a2a21e9160691b8152611e756013820185611824565b61223b60f01b81526002019594505050505056fe3c6d65746120636861727365743d227574662d38223e3c6d657461206e616d653d2276696577706f72742220636f6e74656e743d2277696474683d6465766963652d77696474682c696e697469616c2d7363616c653d31223e6c65737320697320612067656e657261746976652061727420636f6c6c656374696f6e207469656420746f20612072656375727369766520737472617465677920746f6b656e2e204561636820746f6b656e20726570726573656e7473206120666f6c64206576656e74202d2061206d6f6d656e74207768656e2074686520737472617465677920626f7567687420616e64206275726e656420697473206f776e20737570706c792e205468652076697375616c2069732067656e6572617465642062792073696d756c6174696e6720706170657220666f6c64696e672c2064726177696e67206f6e6c7920776865726520666f6c64206c696e657320696e746572736563742ea2646970667358221220611179f97b74cdad1f3930924dab57c34af59a75afca218b9ceb6940b32c992264736f6c634300081a0033","linkReferences":{}},"methodIdentifiers":{"DESCRIPTION()":"f1ae8856","baseImageURL()":"1b109d9c","cancelOwnershipHandover()":"54d1f13d","completeOwnershipHandover(address)":"f04e283e","less()":"d0b42373","owner()":"8da5cb5b","ownershipHandoverExpiresAt(address)":"fee81cf4","renounceOwnership()":"715018a6","requestOwnershipHandover()":"25692962","scriptName()":"11fd1965","scriptyBuilder()":"91a0d36d","scriptyStorage()":"0ac49cc2","setBaseImageURL(string)":"59146e1c","setLessContract(address)":"52ce6116","setScriptName(string)":"196fc2b8","setScriptyBuilder(address)":"7f749003","setScriptyStorage(address)":"56a3aec4","tokenURI(uint256)":"c87b56dd","transferOwnership(address)":"f2fde38b"},"id":3}