{"abi":[{"type":"constructor","inputs":[{"name":"_less","type":"address","internalType":"address"},{"name":"_scriptyBuilder","type":"address","internalType":"address"},{"name":"_scriptyStorage","type":"address","internalType":"address"},{"name":"_scriptName","type":"string","internalType":"string"},{"name":"_baseImageURL","type":"string","internalType":"string"},{"name":"_owner","type":"address","internalType":"address"}],"stateMutability":"nonpayable"},{"type":"function","name":"DESCRIPTION","inputs":[],"outputs":[{"name":"","type":"string","internalType":"string"}],"stateMutability":"view"},{"type":"function","name":"baseImageURL","inputs":[],"outputs":[{"name":"","type":"string","internalType":"string"}],"stateMutability":"view"},{"type":"function","name":"cancelOwnershipHandover","inputs":[],"outputs":[],"stateMutability":"payable"},{"type":"function","name":"completeOwnershipHandover","inputs":[{"name":"pendingOwner","type":"address","internalType":"address"}],"outputs":[],"stateMutability":"payable"},{"type":"function","name":"contractURI","inputs":[],"outputs":[{"name":"","type":"string","internalType":"string"}],"stateMutability":"view"},{"type":"function","name":"less","inputs":[],"outputs":[{"name":"","type":"address","internalType":"address"}],"stateMutability":"view"},{"type":"function","name":"owner","inputs":[],"outputs":[{"name":"result","type":"address","internalType":"address"}],"stateMutability":"view"},{"type":"function","name":"ownershipHandoverExpiresAt","inputs":[{"name":"pendingOwner","type":"address","internalType":"address"}],"outputs":[{"name":"result","type":"uint256","internalType":"uint256"}],"stateMutability":"view"},{"type":"function","name":"renounceOwnership","inputs":[],"outputs":[],"stateMutability":"payable"},{"type":"function","name":"requestOwnershipHandover","inputs":[],"outputs":[],"stateMutability":"payable"},{"type":"function","name":"scriptName","inputs":[],"outputs":[{"name":"","type":"string","internalType":"string"}],"stateMutability":"view"},{"type":"function","name":"scriptyBuilder","inputs":[],"outputs":[{"name":"","type":"address","internalType":"address"}],"stateMutability":"view"},{"type":"function","name":"scriptyStorage","inputs":[],"outputs":[{"name":"","type":"address","internalType":"address"}],"stateMutability":"view"},{"type":"function","name":"setBaseImageURL","inputs":[{"name":"_baseImageURL","type":"string","internalType":"string"}],"outputs":[],"stateMutability":"nonpayable"},{"type":"function","name":"setLessContract","inputs":[{"name":"_less","type":"address","internalType":"address"}],"outputs":[],"stateMutability":"nonpayable"},{"type":"function","name":"setScriptName","inputs":[{"name":"_scriptName","type":"string","internalType":"string"}],"outputs":[],"stateMutability":"nonpayable"},{"type":"function","name":"setScriptyBuilder","inputs":[{"name":"_scriptyBuilder","type":"address","internalType":"address"}],"outputs":[],"stateMutability":"nonpayable"},{"type":"function","name":"setScriptyStorage","inputs":[{"name":"_scriptyStorage","type":"address","internalType":"address"}],"outputs":[],"stateMutability":"nonpayable"},{"type":"function","name":"tokenURI","inputs":[{"name":"tokenId","type":"uint256","internalType":"uint256"}],"outputs":[{"name":"","type":"string","internalType":"string"}],"stateMutability":"view"},{"type":"function","name":"transferOwnership","inputs":[{"name":"newOwner","type":"address","internalType":"address"}],"outputs":[],"stateMutability":"payable"},{"type":"event","name":"BaseImageURLUpdated","inputs":[{"name":"newURL","type":"string","indexed":false,"internalType":"string"}],"anonymous":false},{"type":"event","name":"LessContractUpdated","inputs":[{"name":"newLess","type":"address","indexed":false,"internalType":"address"}],"anonymous":false},{"type":"event","name":"OwnershipHandoverCanceled","inputs":[{"name":"pendingOwner","type":"address","indexed":true,"internalType":"address"}],"anonymous":false},{"type":"event","name":"OwnershipHandoverRequested","inputs":[{"name":"pendingOwner","type":"address","indexed":true,"internalType":"address"}],"anonymous":false},{"type":"event","name":"OwnershipTransferred","inputs":[{"name":"oldOwner","type":"address","indexed":true,"internalType":"address"},{"name":"newOwner","type":"address","indexed":true,"internalType":"address"}],"anonymous":false},{"type":"event","name":"ScriptNameUpdated","inputs":[{"name":"newName","type":"string","indexed":false,"internalType":"string"}],"anonymous":false},{"type":"event","name":"ScriptyBuilderUpdated","inputs":[{"name":"newBuilder","type":"address","indexed":false,"internalType":"address"}],"anonymous":false},{"type":"event","name":"ScriptyStorageUpdated","inputs":[{"name":"newStorage","type":"address","indexed":false,"internalType":"address"}],"anonymous":false},{"type":"error","name":"AlreadyInitialized","inputs":[]},{"type":"error","name":"NewOwnerIsZeroAddress","inputs":[]},{"type":"error","name":"NoHandoverRequest","inputs":[]},{"type":"error","name":"Unauthorized","inputs":[]}],"bytecode":{"object":"0x608060405234801561000f575f80fd5b50604051612ee4380380612ee483398101604081905261002e9161018b565b5f80546001600160a01b038089166001600160a01b031992831617909255600180548884169083161790556002805492871692909116919091179055600361007684826102b4565b50600461008383826102b4565b5061008d81610098565b50505050505061036e565b6001600160a01b0316638b78c6d819819055805f7f8be0079c531659141344cd1fd0a4f28419497f9722a3daafe3b4186f6b6457e08180a350565b80516001600160a01b03811681146100e9575f80fd5b919050565b634e487b7160e01b5f52604160045260245ffd5b5f82601f830112610111575f80fd5b81516001600160401b0381111561012a5761012a6100ee565b604051601f8201601f19908116603f011681016001600160401b0381118282101715610158576101586100ee565b60405281815283820160200185101561016f575f80fd5b8160208501602083015e5f918101602001919091529392505050565b5f805f805f8060c087890312156101a0575f80fd5b6101a9876100d3565b95506101b7602088016100d3565b94506101c5604088016100d3565b60608801519094506001600160401b038111156101e0575f80fd5b6101ec89828a01610102565b608089015190945090506001600160401b03811115610209575f80fd5b61021589828a01610102565b92505061022460a088016100d3565b90509295509295509295565b600181811c9082168061024457607f821691505b60208210810361026257634e487b7160e01b5f52602260045260245ffd5b50919050565b601f8211156102af57805f5260205f20601f840160051c8101602085101561028d5750805b601f840160051c820191505b818110156102ac575f8155600101610299565b50505b505050565b81516001600160401b038111156102cd576102cd6100ee565b6102e1816102db8454610230565b84610268565b6020601f821160018114610313575f83156102fc5750848201515b5f19600385901b1c1916600184901b1784556102ac565b5f84815260208120601f198516915b828110156103425787850151825560209485019460019092019101610322565b508482101561035f57868401515f19600387901b60f8161c191681555b50505050600190811b01905550565b612b698061037b5f395ff3fe60806040526004361061011b575f3560e01c80637f7490031161009d578063e8a3d48511610062578063e8a3d485146102b9578063f04e283e146102cd578063f1ae8856146102e0578063f2fde38b146102f4578063fee81cf414610307575f80fd5b80637f749003146102265780638da5cb5b1461024557806391a0d36d1461025d578063c87b56dd1461027c578063d0b423731461029b575f80fd5b806352ce6116116100e357806352ce6116146101b957806354d1f13d146101d857806356a3aec4146101e057806359146e1c146101ff578063715018a61461021e575f80fd5b80630ac49cc21461011f57806311fd19651461015b578063196fc2b81461017c5780631b109d9c1461019d57806325692962146101b1575b5f80fd5b34801561012a575f80fd5b5060025461013e906001600160a01b031681565b6040516001600160a01b0390911681526020015b60405180910390f35b348015610166575f80fd5b5061016f610346565b6040516101529190611dc6565b348015610187575f80fd5b5061019b610196366004611e44565b6103d2565b005b3480156101a8575f80fd5b5061016f610421565b61019b61042e565b3480156101c4575f80fd5b5061019b6101d3366004611ebe565b61047b565b61019b6104d0565b3480156101eb575f80fd5b5061019b6101fa366004611ebe565b610509565b34801561020a575f80fd5b5061019b610219366004611e44565b61055f565b61019b6105a3565b348015610231575f80fd5b5061019b610240366004611ebe565b6105b6565b348015610250575f80fd5b50638b78c6d8195461013e565b348015610268575f80fd5b5060015461013e906001600160a01b031681565b348015610287575f80fd5b5061016f610296366004611ee4565b61060c565b3480156102a6575f80fd5b505f5461013e906001600160a01b031681565b3480156102c4575f80fd5b5061016f61072b565b61019b6102db366004611ebe565b61079c565b3480156102eb575f80fd5b5061016f6107d9565b61019b610302366004611ebe565b6107f8565b348015610312575f80fd5b50610338610321366004611ebe565b63389a75e1600c9081525f91909152602090205490565b604051908152602001610152565b6003805461035390611efb565b80601f016020809104026020016040519081016040528092919081815260200182805461037f90611efb565b80156103ca5780601f106103a1576101008083540402835291602001916103ca565b820191905f5260205f20905b8154815290600101906020018083116103ad57829003601f168201915b505050505081565b6103da61081e565b60036103e68282611f7f565b507f5415d426c4f141f128a11fca1a090008f54e065574159e10ed1447ef2fd6e2ec816040516104169190611dc6565b60405180910390a150565b6004805461035390611efb565b5f6202a30067ffffffffffffffff164201905063389a75e1600c52335f52806020600c2055337fdbf36a107da19e49527a7176a1babf963b4b0ff8cde35ee35d6cd8f1f9ac7e1d5f80a250565b61048361081e565b5f80546001600160a01b0319166001600160a01b0383169081179091556040519081527fce24e5f855311c580478bc708feb6da3421628f56b822b39e8a209e80f05a71990602001610416565b63389a75e1600c52335f525f6020600c2055337ffa7b8eab7da67f412cc9575ed43464468f9bfbae89d1675917346ca6d8fe3c925f80a2565b61051161081e565b600280546001600160a01b0319166001600160a01b0383169081179091556040519081527f70b12b6b8b6663fb182e440a56a9dba909b7d27f6773be8e1c1f9f8487c229c190602001610416565b61056761081e565b60046105738282611f7f565b507f95a50c186d5919be7ba2143bdf89abefc2588e9f86b6eba993901b4d9f416bed816040516104169190611dc6565b6105ab61081e565b6105b45f610838565b565b6105be61081e565b600180546001600160a01b0319166001600160a01b0383169081179091556040519081527fd566016c5f23fe52a44459d0ca08c2b81f8411b49f6bbe69ea100611564bb6c590602001610416565b5f805460405163b09afec160e01b815260048101849052606092916001600160a01b03169063b09afec190602401602060405180830381865afa158015610655573d5f803e3d5ffd5b505050506040513d601f19601f82011682018060405250810190610679919061203a565b5f805460405163e0d4ea3760e01b81526004810187905292935090916001600160a01b039091169063e0d4ea3790602401602060405180830381865afa1580156106c5573d5f803e3d5ffd5b505050506040513d601f19601f820116820180604052508101906106e99190612092565b90505f6106f7858484610875565b9050610702816108f4565b60405160200161071291906120c0565b6040516020818303038152906040529350505050919050565b60605f6040518061014001604052806101078152602001612a2d6101079139600460405160200161075d92919061215f565b6040516020818303038152906040529050610777816108f4565b60405160200161078791906120c0565b60405160208183030381529060405291505090565b6107a461081e565b63389a75e1600c52805f526020600c2080544211156107ca57636f5e88185f526004601cfd5b5f90556107d681610838565b50565b6040518061014001604052806101078152602001612a2d610107913981565b61080061081e565b8060601b61081557637448fbae5f526004601cfd5b6107d681610838565b638b78c6d8195433146105b4576382b429005f526004601cfd5b638b78c6d81980546001600160a01b039092169182907f8be0079c531659141344cd1fd0a4f28419497f9722a3daafe3b4186f6b6457e05f80a355565b60605f6108828584610907565b90505f61088e86610c82565b90505f61089b8686610cb6565b90506108a687610e52565b6040518061014001604052806101078152602001612a2d61010791398385846040516020016108d99594939291906121f9565b60405160208183030381529060405293505050509392505050565b6060610901825f80610e94565b92915050565b60605f6109148484610f86565b600154604051635448d9af60e11b81529192506060916001600160a01b039091169063a891b35e9061094a9085906004016123ea565b5f60405180830381865afa92505050801561098657506040513d5f823e601f3d908101601f191682016040526109839190810190612461565b60015b15610a74576040805180820190915260168082527519185d184e9d195e1d0bda1d1b5b0ed8985cd94d8d0b60521b602083015282519293508392839111610a485760015f5b8351811015610a31578381815181106109e6576109e66124ae565b602001015160f81c60f81b6001600160f81b031916838281518110610a0d57610a0d6124ae565b01602001516001600160f81b03191614610a29575f9150610a31565b6001016109cb565b508015610a4657839650505050505050610901565b505b83604051602001610a5991906124c2565b60405160208183030381529060405295505050505050610901565b600154604051632bee680760e01b81526001600160a01b0390911690632bee680790610aa49085906004016123ea565b5f60405180830381865afa925050508015610ae057506040513d5f823e601f3d908101601f19168201604052610add9190810190612461565b60015b15610b125780915081604051602001610af991906124c2565b6040516020818303038152906040529350505050610901565b600154604051636af6c46760e11b81526001600160a01b039091169063d5ed88ce90610b429085906004016123ea565b5f60405180830381865afa925050508015610b7e57506040513d5f823e601f3d908101601f19168201604052610b7b9190810190612461565b60015b15610ba0575b610b8d816108f4565b915081604051602001610af991906124c2565b600154604051633eddc85160e11b81526001600160a01b0390911690637dbb90a290610bd09085906004016123ea565b5f60405180830381865afa925050508015610c0c57506040513d5f823e601f3d908101601f19168201604052610c099190810190612461565b60015b610b845760405162461bcd60e51b815260206004820152603d60248201527f536372697074794275696c6465723a20496e74657266616365206d69736d617460448201527f63682e20436865636b20636f6e74726163742066756e6374696f6e732e000000606482015260840160405180910390fd5b60606004610c8f83610e52565b604051602001610ca09291906124ec565b6040516020818303038152906040529050919050565b60605f805f610cc48561127c565b9250925092505f610ce1875f015167ffffffffffffffff16610e52565b610cea8761140d565b610cf388611589565b610cfc896116a1565b87610d098860ff16610e52565b610d128c61181c565b610d1b8d6119aa565b604051602001610d32989796959493929190612515565b6040516020818303038152906040529050610d4c86611a6c565b15610d785780604051602001610d629190612740565b6040516020818303038152906040529050610d9b565b80604051602001610d89919061278e565b60405160208183030381529060405290505b610da486611ab8565b15610dcc5780604051602001610dba91906127de565b60405160208183030381529060405290505b8115610df55780604051602001610de3919061282f565b60405160208183030381529060405290505b610dfe86611af9565b15610e265780604051602001610e14919061287a565b60405160208183030381529060405290505b80604051602001610e3791906128c9565b60405160208183030381529060405294505050505092915050565b60606080604051019050602081016040525f8152805f19835b928101926030600a8206018453600a900480610e6b575050819003601f19909101908152919050565b606083518015610f7e576003600282010460021b60405192507f4142434445464748494a4b4c4d4e4f505152535455565758595a616263646566601f526106708515027f6768696a6b6c6d6e6f707172737475767778797a303132333435363738392d5f18603f526020830181810183886020010180515f82525b60038a0199508951603f8160121c16515f53603f81600c1c1651600153603f8160061c1651600253603f811651600353505f518452600484019350828410610f0f579052602001604052613d3d60f01b60038406600204808303919091525f8615159091029182900352900382525b509392505050565b6040805180820182526060808252602082018190528251600280825291810190935290915f91816020015b610fb9611d43565b815260200190600190039081610fb15790505060408051610100810182525f60e08201818152825260208083018290528351908101845281815292820192909252919250606082019081526020016040518060800160405280605981526020016129d460599139815260200160405180602001604052805f815250815260200160405180602001604052805f815250815250815f8151811061105d5761105d6124ae565b60209081029190910181019190915260408051610100810182525f60e082018181528252818401819052825180850184528181528284015260608201528151808301835260088152671e39b1b934b83a1f60c11b818501526080820152815180830190925260098252681e17b9b1b934b83a1f60b91b9282019290925260a082015260c081016110ed8686611b13565b81525081600181518110611103576111036124ae565b60209081029190910101526040805160018082528183019092525f91816020015b61112c611d43565b8152602001906001900390816111245790505090506040518060e001604052806003805461115990611efb565b80601f016020809104026020016040519081016040528092919081815260200182805461118590611efb565b80156111d05780601f106111a7576101008083540402835291602001916111d0565b820191905f5260205f20905b8154815290600101906020018083116111b357829003601f168201915b50505091835250506002546001600160a01b03166020808301919091526040805191820181525f82528201526060016001815260200160405180602001604052805f815250815260200160405180602001604052805f815250815260200160405180602001604052805f815250815250815f81518110611252576112526124ae565b60200260200101819052506040518060400160405280838152602001828152509250505092915050565b60605f805f61129261128d86611b4f565b611b6a565b90505f637fffffff6112a58360646128f9565b6112af9190612924565b9050600c8110156112ec57505060408051808201909152600a8152696d6f6e6f6368726f6d6560b01b602082015292506002915060019050611406565b6112f582611b6a565b9150637fffffff6113078360646128f9565b6113119190612924565b905060606028821015611340575060408051808201909152600581526476616c756560d81b60208201526113bf565b6044821015611371575060408051808201909152600b81526a74656d706572617475726560a81b60208201526113bf565b605a8210156113a1575060408051808201909152600a81526918dbdb5c1b195b595b9d60b21b60208201526113bf565b506040805180820190915260058152640c6d8c2e6d60db1b60208201525b6113c883611b6a565b9250637fffffff6113da8460646128f9565b6113e49190612924565b91505f602883106113f65760036113f9565b60025b9196509094505f93505050505b9193909250565b60605f61142861141c84611b4f565b61128d90611a0a612937565b90505f637fffffff61143b8360646128f9565b6114459190612924565b9050601081101561147957505060408051808201909152600a8152691a1bdc9a5e9bdb9d185b60b21b602082015292915050565b60208110156114a95750506040805180820190915260088152671d995c9d1a58d85b60c21b602082015292915050565b602c8110156114d9575050604080518082019091526008815267191a5859dbdb985b60c21b602082015292915050565b60388110156115075750506040805180820190915260068152651c98591a585b60d21b602082015292915050565b604481101561153357505060408051808201909152600481526319dc9a5960e21b602082015292915050565b605081101561156457505060408051808201909152600981526818db1d5cdd195c995960ba1b602082015292915050565b505060408051808201909152600681526572616e646f6d60d01b602082015292915050565b60605f6115a461159884611b4f565b61128d906115b3612937565b90505f637fffffff6115b78360646128f9565b6115c19190612924565b905060238110156115f15750506040805180820190915260068152651b9bdc9b585b60d21b602082015292915050565b602881101561161f57505060408051808201909152600681526562696e61727960d01b602082015292915050565b604181101561164f5750506040805180820190915260088152671a5b9d995c9d195960c21b602082015292915050565b605281101561167d57505060408051808201909152600681526573706172736560d01b602082015292915050565b505060408051808201909152600581526464656e736560d81b602082015292915050565b60605f6116bc6116b084611b4f565b61128d90618235612937565b90505f637fffffff6116cf8360646128f9565b6116d99190612924565b90506016811015611706575050604080518082019091526003815262363a3960e91b602082015292915050565b602c8110156117315750506040805180820190915260038152621c9d1b60ea1b602082015292915050565b604181101561175f57505060408051808201909152600681526531b2b73a32b960d11b602082015292915050565b6050811015611790575050604080518082019091526009815268616c7465726e61746560b81b602082015292915050565b605a8110156117c0575050604080518082019091526008815267191a5859dbdb985b60c21b602082015292915050565b60608110156117f15750506040805180820190915260098152681c985b991bdb535a5960ba1b602082015292915050565b505060408051808201909152600c81526b18da1958dad95c989bd85c9960a21b602082015292915050565b60606104b06105dc603260146102585f6118378460026128f9565b611841908761294a565b90505f61184f8560026128f9565b611859908761294a565b90505f6118746118688b611b4f565b61128d9061270f612937565b90505f637fffffff6118878360646128f9565b6118919190612924565b90505f60038210156118ae576118a787806128f9565b90506118f1565b600a8210156118c057506109c46118f1565b602d8210156118d257506127106118f1565b605f8210156118e45750619c406118f1565b6118ee86806128f9565b90505b5f6118fc85876128f9565b90505f6119098383612924565b9050603281101561194357505060408051808201909152600681526553706172736560d01b60208201529c9b505050505050505050505050565b61012c81101561197c575050604080518082019091526006815265139bdc9b585b60d21b60208201529c9b505050505050505050505050565b505060408051808201909152600581526444656e736560d81b60208201529c9b505050505050505050505050565b60605f6119b961159884611b4f565b90505f637fffffff6119cc8360506128f9565b6119d69190612924565b6119e190600a612937565b90506023811015611a1457505060408051808201909152600981526814995cda5cdd185b9d60ba1b602082015292915050565b6041811015611a4457505060408051808201909152600881526714dd185b99185c9960c21b602082015292915050565b505060408051808201909152600981526810589cdbdc98995b9d60ba1b602082015292915050565b5f80611a7a61159884611b4f565b9050611a8581611b6a565b9050611a9081611b6a565b90505f637fffffff611aa38360646128f9565b611aad9190612924565b602811949350505050565b5f80611ad2611ac684611b4f565b61128d906123e7612937565b90506008637fffffff611ae7836103e86128f9565b611af19190612924565b109392505050565b5f80611ad2611b0784611b4f565b61128d906122b8612937565b6060611b1e83610e52565b611b2783611b8f565b604051602001611b3892919061295d565b604051602081830303815290604052905092915050565b5f60c082901c611b63637fffffff826129c0565b9392505050565b5f815f03611b7757600191505b816341c64e6d0261303901637fffffff169050919050565b604080518082018252601081526f181899199a1a9b1b9c1cb0b131b232b360811b602082015281516042808252608082019093526060925f9190602082018180368337019050509050600360fc1b815f81518110611bef57611bef6124ae565b60200101906001600160f81b03191690815f1a905350600f60fb1b81600181518110611c1d57611c1d6124ae565b60200101906001600160f81b03191690815f1a9053505f5b6020811015610f7e57826004868360208110611c5357611c536124ae565b1a60f81b6001600160f81b031916901c60f81c60ff1681518110611c7957611c796124ae565b01602001516001600160f81b03191682611c948360026128f9565b611c9f906002612937565b81518110611caf57611caf6124ae565b60200101906001600160f81b03191690815f1a90535082858260208110611cd857611cd86124ae565b825191901a600f16908110611cef57611cef6124ae565b01602001516001600160f81b03191682611d0a8360026128f9565b611d15906003612937565b81518110611d2557611d256124ae565b60200101906001600160f81b03191690815f1a905350600101611c35565b6040518060e00160405280606081526020015f6001600160a01b03168152602001606081526020015f6004811115611d7d57611d7d6122c2565b81526020016060815260200160608152602001606081525090565b5f81518084528060208401602086015e5f602082860101526020601f19601f83011685010191505092915050565b602081525f611b636020830184611d98565b634e487b7160e01b5f52604160045260245ffd5b604051601f8201601f1916810167ffffffffffffffff81118282101715611e1557611e15611dd8565b604052919050565b5f67ffffffffffffffff821115611e3657611e36611dd8565b50601f01601f191660200190565b5f60208284031215611e54575f80fd5b813567ffffffffffffffff811115611e6a575f80fd5b8201601f81018413611e7a575f80fd5b8035611e8d611e8882611e1d565b611dec565b818152856020838501011115611ea1575f80fd5b816020840160208301375f91810160200191909152949350505050565b5f60208284031215611ece575f80fd5b81356001600160a01b0381168114611b63575f80fd5b5f60208284031215611ef4575f80fd5b5035919050565b600181811c90821680611f0f57607f821691505b602082108103611f2d57634e487b7160e01b5f52602260045260245ffd5b50919050565b601f821115611f7a57805f5260205f20601f840160051c81016020851015611f585750805b601f840160051c820191505b81811015611f77575f8155600101611f64565b50505b505050565b815167ffffffffffffffff811115611f9957611f99611dd8565b611fad81611fa78454611efb565b84611f33565b6020601f821160018114611fdf575f8315611fc85750848201515b5f19600385901b1c1916600184901b178455611f77565b5f84815260208120601f198516915b8281101561200e5787850151825560209485019460019092019101611fee565b508482101561202b57868401515f19600387901b60f8161c191681555b50505050600190811b01905550565b5f602082840312801561204b575f80fd5b506040516020810167ffffffffffffffff8111828210171561206f5761206f611dd8565b604052825167ffffffffffffffff81168114612089575f80fd5b81529392505050565b5f602082840312156120a2575f80fd5b5051919050565b5f81518060208401855e5f93019283525090919050565b7f646174613a6170706c69636174696f6e2f6a736f6e3b6261736536342c00000081525f611b63601d8301846120a9565b5f81546120fd81611efb565b600182168015612114576001811461212957612156565b60ff1983168652811515820286019350612156565b845f5260205f205f5b8381101561214e57815488820152600190910190602001612132565b505081860193505b50505092915050565b7f7b226e616d65223a224c455353222c226465736372697074696f6e223a22000081525f612190601e8301856120a9565b6a11161134b6b0b3b2911d1160a91b81526121ae600b8201856120f1565b7f636f6c6c656374696f6e2e706e67222c2265787465726e616c5f6c696e6b223a8152722268747470733a2f2f6c6573732e617274227d60681b602082015260330195945050505050565b6e7b226e616d65223a226c657373202360881b81525f61221c600f8301886120a9565b701116113232b9b1b934b83a34b7b7111d1160791b815261224060118201886120a9565b6a11161134b6b0b3b2911d1160a91b81529050612260600b8201876120a9565b7211161130b734b6b0ba34b7b72fbab936111d1160691b8152905061228860138201866120a9565b6e11161130ba3a3934b13aba32b9911d60891b815290506122ac600f8201856120a9565b607d60f81b815260010198975050505050505050565b634e487b7160e01b5f52602160045260245ffd5b600581106122f257634e487b7160e01b5f52602160045260245ffd5b9052565b5f82825180855260208501945060208160051b830101602085015f5b838110156123de57601f198584030188528151805160e0855261233860e0860182611d98565b905060018060a01b036020830151166020860152604082015185820360408701526123638282611d98565b915050606082015161237860608701826122d6565b50608082015185820360808701526123908282611d98565b91505060a082015185820360a08701526123aa8282611d98565b91505060c0820151915084810360c08601526123c68183611d98565b60209a8b019a90955093909301925050600101612312565b50909695505050505050565b602081525f82516040602084015261240560608401826122f6565b90506020840151601f1984830301604085015261242282826122f6565b95945050505050565b5f612438611e8884611e1d565b905082815283838301111561244b575f80fd5b8282602083015e5f602084830101529392505050565b5f60208284031215612471575f80fd5b815167ffffffffffffffff811115612487575f80fd5b8201601f81018413612497575f80fd5b6124a68482516020840161242b565b949350505050565b634e487b7160e01b5f52603260045260245ffd5b7519185d184e9d195e1d0bda1d1b5b0ed8985cd94d8d0b60521b81525f611b6360168301846120a9565b5f6125006124fa83866120f1565b846120a9565b632e706e6760e01b8152600401949350505050565b7f5b7b2274726169745f74797065223a22466f6c6473222c2276616c7565223a0081525f612546601f83018b6120a9565b7f7d2c7b2274726169745f74797065223a22466f6c64205374726174656779222c815268113b30b63ab2911d1160b91b6020820152612588602982018b6120a9565b7f227d2c7b2274726169745f74797065223a2252656e646572204d6f6465222c228152673b30b63ab2911d1160c11b602082015290506125cb602882018a6120a9565b7f227d2c7b2274726169745f74797065223a224472617720446972656374696f6e81526a1116113b30b63ab2911d1160a91b60208201529050612611602b8201896120a9565b7f227d2c7b2274726169745f74797065223a2250616c65747465222c2276616c7581526332911d1160e11b6020820152905061273161272361271d6126e46126de6126a461269e612665602489018f6120a9565b7f227d2c7b2274726169745f74797065223a22436f6c6f7220436f756e74222c228152663b30b63ab2911d60c91b602082015260270190565b8c6120a9565b7f7d2c7b2274726169745f74797065223a22477269642044656e73697479222c228152673b30b63ab2911d1160c11b602082015260280190565b896120a9565b7f227d2c7b2274726169745f74797065223a2250617065722054797065222c227681526630b63ab2911d1160c91b602082015260270190565b866120a9565b61227d60f01b815260020190565b9b9a5050505050505050505050565b5f61274b82846120a9565b7f2c7b2274726169745f74797065223a22506170657220477261696e222c22766181526c6c7565223a22477261696e227d60981b6020820152602d019392505050565b5f61279982846120a9565b7f2c7b2274726169745f74797065223a22506170657220477261696e222c22766181526e6c7565223a22556e69666f726d227d60881b6020820152602f019392505050565b5f6127e982846120a9565b7f2c7b2274726169745f74797065223a22437265617365204c696e6573222c227681526f616c7565223a2256697369626c65227d60801b60208201526030019392505050565b5f61283a82846120a9565b7f2c7b2274726169745f74797065223a224d6f6e6f6368726f6d65222c2276616c8152697565223a22596573227d60b01b6020820152602a019392505050565b5f61288582846120a9565b7f2c7b2274726169745f74797065223a2248697420436f756e7473222c2276616c81526d7565223a2256697369626c65227d60901b6020820152602e019392505050565b5f6128d482846120a9565b605d60f81b81526001019392505050565b634e487b7160e01b5f52601160045260245ffd5b8082028115828204841417610901576109016128e5565b634e487b7160e01b5f52601260045260245ffd5b5f8261293257612932612910565b500490565b80820180821115610901576109016128e5565b81810381811115610901576109016128e5565b7477696e646f772e4c4553535f544f4b454e5f49443d60581b81525f61298660158301856120a9565b721dbbb4b73237bb972622a9a9afa9a2a2a21e9160691b81526129ac60138201856120a9565b61223b60f01b815260020195945050505050565b5f826129ce576129ce612910565b50069056fe3c6d65746120636861727365743d227574662d38223e3c6d657461206e616d653d2276696577706f72742220636f6e74656e743d2277696474683d6465766963652d77696474682c696e697469616c2d7363616c653d31223e6c65737320697320612067656e657261746976652061727420636f6c6c656374696f6e207469656420746f20612072656375727369766520737472617465677920746f6b656e2e204561636820746f6b656e20726570726573656e7473206120666f6c64206576656e74202d2061206d6f6d656e74207768656e2074686520737472617465677920626f7567687420616e64206275726e656420697473206f776e20737570706c792e205468652076697375616c2069732067656e6572617465642062792073696d756c6174696e6720706170657220666f6c64696e672c2064726177696e67206f6e6c7920776865726520666f6c64206c696e657320696e746572736563742ea2646970667358221220752322dd8096109049a273bd502bf3bf49febca156d68d35c4cc395edf97617464736f6c634300081a0033","linkReferences":{}},"methodIdentifiers":{"DESCRIPTION()":"f1ae8856","baseImageURL()":"1b109d9c","cancelOwnershipHandover()":"54d1f13d","completeOwnershipHandover(address)":"f04e283e","contractURI()":"e8a3d485","less()":"d0b42373","owner()":"8da5cb5b","ownershipHandoverExpiresAt(address)":"fee81cf4","renounceOwnership()":"715018a6","requestOwnershipHandover()":"25692962","scriptName()":"11fd1965","scriptyBuilder()":"91a0d36d","scriptyStorage()":"0ac49cc2","setBaseImageURL(string)":"59146e1c","setLessContract(address)":"52ce6116","setScriptName(string)":"196fc2b8","setScriptyBuilder(address)":"7f749003","setScriptyStorage(address)":"56a3aec4","tokenURI(uint256)":"c87b56dd","transferOwnership(address)":"f2fde38b"},"id":3}