{"abi":[{"type":"constructor","inputs":[{"name":"config","type":"tuple","internalType":"struct LessRenderer.RendererConfig","components":[{"name":"less","type":"address","internalType":"address"},{"name":"scriptyBuilder","type":"address","internalType":"address"},{"name":"scriptyStorage","type":"address","internalType":"address"},{"name":"scriptName","type":"string","internalType":"string"},{"name":"baseImageURL","type":"string","internalType":"string"},{"name":"collectionName","type":"string","internalType":"string"},{"name":"description","type":"string","internalType":"string"},{"name":"collectionImage","type":"string","internalType":"string"},{"name":"externalLink","type":"string","internalType":"string"},{"name":"owner","type":"address","internalType":"address"}]}],"stateMutability":"nonpayable"},{"type":"function","name":"baseImageURL","inputs":[],"outputs":[{"name":"","type":"string","internalType":"string"}],"stateMutability":"view"},{"type":"function","name":"cancelOwnershipHandover","inputs":[],"outputs":[],"stateMutability":"payable"},{"type":"function","name":"collectionImage","inputs":[],"outputs":[{"name":"","type":"string","internalType":"string"}],"stateMutability":"view"},{"type":"function","name":"collectionName","inputs":[],"outputs":[{"name":"","type":"string","internalType":"string"}],"stateMutability":"view"},{"type":"function","name":"completeOwnershipHandover","inputs":[{"name":"pendingOwner","type":"address","internalType":"address"}],"outputs":[],"stateMutability":"payable"},{"type":"function","name":"contractURI","inputs":[],"outputs":[{"name":"","type":"string","internalType":"string"}],"stateMutability":"view"},{"type":"function","name":"description","inputs":[],"outputs":[{"name":"","type":"string","internalType":"string"}],"stateMutability":"view"},{"type":"function","name":"externalLink","inputs":[],"outputs":[{"name":"","type":"string","internalType":"string"}],"stateMutability":"view"},{"type":"function","name":"less","inputs":[],"outputs":[{"name":"","type":"address","internalType":"address"}],"stateMutability":"view"},{"type":"function","name":"owner","inputs":[],"outputs":[{"name":"result","type":"address","internalType":"address"}],"stateMutability":"view"},{"type":"function","name":"ownershipHandoverExpiresAt","inputs":[{"name":"pendingOwner","type":"address","internalType":"address"}],"outputs":[{"name":"result","type":"uint256","internalType":"uint256"}],"stateMutability":"view"},{"type":"function","name":"renounceOwnership","inputs":[],"outputs":[],"stateMutability":"payable"},{"type":"function","name":"requestOwnershipHandover","inputs":[],"outputs":[],"stateMutability":"payable"},{"type":"function","name":"scriptName","inputs":[],"outputs":[{"name":"","type":"string","internalType":"string"}],"stateMutability":"view"},{"type":"function","name":"scriptyBuilder","inputs":[],"outputs":[{"name":"","type":"address","internalType":"address"}],"stateMutability":"view"},{"type":"function","name":"scriptyStorage","inputs":[],"outputs":[{"name":"","type":"address","internalType":"address"}],"stateMutability":"view"},{"type":"function","name":"setBaseImageURL","inputs":[{"name":"_baseImageURL","type":"string","internalType":"string"}],"outputs":[],"stateMutability":"nonpayable"},{"type":"function","name":"setLessContract","inputs":[{"name":"_less","type":"address","internalType":"address"}],"outputs":[],"stateMutability":"nonpayable"},{"type":"function","name":"setMetadata","inputs":[{"name":"_collectionName","type":"string","internalType":"string"},{"name":"_description","type":"string","internalType":"string"},{"name":"_collectionImage","type":"string","internalType":"string"},{"name":"_externalLink","type":"string","internalType":"string"}],"outputs":[],"stateMutability":"nonpayable"},{"type":"function","name":"tokenURI","inputs":[{"name":"tokenId","type":"uint256","internalType":"uint256"}],"outputs":[{"name":"","type":"string","internalType":"string"}],"stateMutability":"view"},{"type":"function","name":"transferOwnership","inputs":[{"name":"newOwner","type":"address","internalType":"address"}],"outputs":[],"stateMutability":"payable"},{"type":"event","name":"MetadataUpdated","inputs":[{"name":"collectionName","type":"string","indexed":false,"internalType":"string"},{"name":"description","type":"string","indexed":false,"internalType":"string"},{"name":"collectionImage","type":"string","indexed":false,"internalType":"string"},{"name":"externalLink","type":"string","indexed":false,"internalType":"string"}],"anonymous":false},{"type":"event","name":"OwnershipHandoverCanceled","inputs":[{"name":"pendingOwner","type":"address","indexed":true,"internalType":"address"}],"anonymous":false},{"type":"event","name":"OwnershipHandoverRequested","inputs":[{"name":"pendingOwner","type":"address","indexed":true,"internalType":"address"}],"anonymous":false},{"type":"event","name":"OwnershipTransferred","inputs":[{"name":"oldOwner","type":"address","indexed":true,"internalType":"address"},{"name":"newOwner","type":"address","indexed":true,"internalType":"address"}],"anonymous":false},{"type":"error","name":"AlreadyInitialized","inputs":[]},{"type":"error","name":"NewOwnerIsZeroAddress","inputs":[]},{"type":"error","name":"NoHandoverRequest","inputs":[]},{"type":"error","name":"Unauthorized","inputs":[]}],"bytecode":{"object":"0x6080604052346109d35761345e80380380610019816109d7565b9283398101906020818303126109d3578051906001600160401b0382116109d35701610140818303126109d35760405161014081016001600160401b0381118282101761056b5760405261006c826109fc565b815261007a602083016109fc565b6020820190815261008d604084016109fc565b6040830190815260608401516001600160401b0381116109d357856100b3918601610a10565b6060840190815260808501516001600160401b0381116109d357866100d9918701610a10565b6080850190815260a08601519091906001600160401b0381116109d35787610102918801610a10565b60a0860190815260c08701519093906001600160401b0381116109d3578861012b918901610a10565b60c0870190815260e08801519095906001600160401b0381116109d35789610154918a01610a10565b60e0880190815261010089015190996001600160401b0382116109d35761018361012091610192938c01610a10565b996101008a019a8b52016109fc565b610120880190815296515f80546001600160a01b039283166001600160a01b031991821617909155915160018054918316918416919091179055915160028054919093169116179055518051906001600160401b03821161056b5760035490600182811c921680156109c9575b602083101461054d5781601f84931161095b575b50602090601f83116001146108f5575f926108ea575b50508160011b915f199060031b1c1916176003555b518051906001600160401b03821161056b5760045490600182811c921680156108e0575b602083101461054d5781601f849311610872575b50602090601f831160011461080c575f92610801575b50508160011b915f199060031b1c1916176004555b518051906001600160401b03821161056b5760055490600182811c921680156107f7575b602083101461054d5781601f8493116107a6575b50602090601f8311600114610740575f92610735575b50508160011b915f199060031b1c1916176005555b5180519093906001600160401b03811161056b57600654600181811c9116801561072b575b602082101461054d57601f81116106c8575b50602094601f8211600114610665579481929394955f9261065a575b50508160011b915f199060031b1c1916176006555b5180519092906001600160401b03811161056b57600754600181811c91168015610650575b602082101461054d57601f81116105ed575b506020601f821160011461058a57819293945f9261057f575b50508160011b915f199060031b1c1916176007555b5180519091906001600160401b03811161056b57600854600181811c91168015610561575b602082101461054d57601f81116104ea575b50602092601f821160011461048957928192935f9261047e575b50508160011b915f199060031b1c1916176008555b516001600160a01b0316638b78c6d8198190555f7f8be0079c531659141344cd1fd0a4f28419497f9722a3daafe3b4186f6b6457e08180a36040516129fc9081610a628239f35b015190505f80610422565b601f1982169360085f52805f20915f5b8681106104d257508360019596106104ba575b505050811b01600855610437565b01515f1960f88460031b161c191690555f80806104ac565b91926020600181928685015181550194019201610499565b60085f527ff3f7a9fe364faab93b216da50a3214154f22a0a2b415b23a84c8169e8b636ee3601f830160051c81019160208410610543575b601f0160051c01905b8181106105385750610408565b5f815560010161052b565b9091508190610522565b634e487b7160e01b5f52602260045260245ffd5b90607f16906103f6565b634e487b7160e01b5f52604160045260245ffd5b015190505f806103bc565b601f1982169060075f52805f20915f5b8181106105d5575095836001959697106105bd575b505050811b016007556103d1565b01515f1960f88460031b161c191690555f80806105af565b9192602060018192868b01518155019401920161059a565b60075f527fa66cc928b5edb82af9bd49922954155ab7b0942694bea4ce44661d9a8736c688601f830160051c81019160208410610646575b601f0160051c01905b81811061063b57506103a3565b5f815560010161062e565b9091508190610625565b90607f1690610391565b015190505f80610357565b601f1982169560065f52805f20915f5b8881106106b057508360019596979810610698575b505050811b0160065561036c565b01515f1960f88460031b161c191690555f808061068a565b91926020600181928685015181550194019201610675565b60065f527ff652222313e28459528d920b65115c16c04f3efc82aaedc97be59f3f377c0d3f601f830160051c81019160208410610721575b601f0160051c01905b818110610716575061033b565b5f8155600101610709565b9091508190610700565b90607f1690610329565b015190505f806102ef565b60055f9081528281209350601f198516905b81811061078e5750908460019594939210610776575b505050811b01600555610304565b01515f1960f88460031b161c191690555f8080610768565b92936020600181928786015181550195019301610752565b90915060055f5260205f20601f840160051c810191602085106107ed575b90601f859493920160051c01905b8181106107df57506102d9565b5f81558493506001016107d2565b90915081906107c4565b91607f16916102c5565b015190505f8061028c565b60045f9081528281209350601f198516905b81811061085a5750908460019594939210610842575b505050811b016004556102a1565b01515f1960f88460031b161c191690555f8080610834565b9293602060018192878601518155019501930161081e565b60045f529091507f8a35acfbc15ff81a39ae7d344fd709f28e8600b4aa8c65c6b64bfe7fe36bd19b601f840160051c810191602085106108d6575b90601f859493920160051c01905b8181106108c85750610276565b5f81558493506001016108bb565b90915081906108ad565b91607f1691610262565b015190505f80610229565b60035f9081528281209350601f198516905b818110610943575090846001959493921061092b575b505050811b0160035561023e565b01515f1960f88460031b161c191690555f808061091d565b92936020600181928786015181550195019301610907565b60035f529091507fc2575a0e9e593c00f959f8c92f12db2869c3395a3b0502d05e2516446f71f85b601f840160051c810191602085106109bf575b90601f859493920160051c01905b8181106109b15750610213565b5f81558493506001016109a4565b9091508190610996565b91607f16916101ff565b5f80fd5b6040519190601f01601f191682016001600160401b0381118382101761056b57604052565b51906001600160a01b03821682036109d357565b81601f820112156109d3578051906001600160401b03821161056b57610a3f601f8301601f19166020016109d7565b92828452602083830101116109d357815f9260208093018386015e830101529056fe6080806040526004361015610012575f80fd5b5f3560e01c9081630ac49cc214611fbf5750806311fd196514611fa45780631b109d9c14611f125780632569296214611ec95780634734e13c146118cd57806352ce61161461188557806354d1f13d1461184157806355530614146117af57806359146e1c146116475780635b9db898146115b5578063715018a61461156c5780637284e416146114da5780638da5cb5b146114ae57806391a0d36d14611486578063c87b56dd146105e9578063d0b42373146105c2578063e5326ab11461050b578063e8a3d485146101e4578063f04e283e1461018c578063f2fde38b146101445763fee81cf414610103575f80fd5b34610140576020366003190112610140576004356001600160a01b03811681036101405763389a75e1600c525f52602080600c2054604051908152f35b5f80fd5b6020366003190112610140576004356001600160a01b03811681036101405761016b612283565b8060601b1561017f5761017d9061229f565b005b637448fbae5f526004601cfd5b6020366003190112610140576004356001600160a01b0381168103610140576101b3612283565b63389a75e1600c52805f526020600c2090815442116101d7575f61017d925561229f565b636f5e88185f526004601cfd5b34610140575f36600319011261014057604051683d913730b6b2911d1160b91b602082015280610238601161021b602984016121ad565b701116113232b9b1b934b83a34b7b7111d1160791b815201612221565b6a11161134b6b0b3b2911d1160a91b81526007545f9161025782611fe2565b91600181169081156104ed57506001146104a6575b50507211161132bc3a32b93730b62fb634b735911d1160691b81526008545f9161029582611fe2565b91600181169081156104805750600114610434575b505061227d60f01b815203601d19810182526102c99060020182612050565b8060609181519081610344575b610340602061032c603d876040519384917f646174613a6170706c69636174696f6e2f6a736f6e3b6261736536342c000000828401528051918291018484015e81015f838201520301601f198101835282612050565b604051918291602083526020830190612128565b0390f35b909192506003600283010460021b906040517f4142434445464748494a4b4c4d4e4f505152535455565758595a616263646566601f526106707f6768696a6b6c6d6e6f707172737475767778797a303132333435363738392d5f18603f5260208101928082019260208681860198010194600460038751935f89525b0191603f8351818160121c16515f538181600c1c1651600153818160061c165160025316516003535f518152019088821015610401576004906003906103c0565b5061034097506020966040603d965f9461032c9952016040526003613d3d60f01b910660020482035252815293506102d6565b60085f90815291939250905f805160206129678339815191525b848210610466575091920160130190508160026102aa565b80546013838501015285935060209091019060010161044e565b600294506013929150926102c9959360ff191683830152801515020101918193506102aa565b60075f908152919250905f805160206129478339815191525b8382106104d357505001600b01838061026c565b8054600b83850101528594506020909101906001016104bf565b9050600b935060ff929192191683830152801515020101838061026c565b34610140575f366003190112610140576040515f60055461052b81611fe2565b808452906001811690811561059e5750600114610553575b6103408361032c81850382612050565b60055f9081525f80516020612927833981519152939250905b8082106105845750909150810160200161032c610543565b91926001816020925483858801015201910190929161056c565b60ff191660208086019190915291151560051b8401909101915061032c9050610543565b34610140575f366003190112610140575f546040516001600160a01b039091168152602090f35b346101405760203660031901126101405760043560018060a01b035f5416906040519063b09afec160e01b8252806004830152604082602481865afa91821561141e575f92611429575b506020602492936040519384809263e0d4ea3760e01b82528560048301525afa91821561141e575f926113ea575b506001600160401b038351166060602060405161067d8161201a565b82815201526040519360606106928187612050565b60028652601f19015f5b8181106113a4575050604051936106b285612035565b6020956040516106c28882612050565b5f815286525f878701526040516106d98882612050565b5f815260408701525f60608701526080956040516106f78882612050565b605981527f3c6d65746120636861727365743d227574662d38223e3c6d657461206e616d65898201527f3d2276696577706f72742220636f6e74656e743d2277696474683d646576696360408201527f652d77696474682c696e697469616c2d7363616c653d31223e0000000000000060608201528782015260405161077d8982612050565b5f815260a08201526040516107928982612050565b5f815260c08201526107a382612416565b526107ad81612416565b506107b7856123d1565b6040948551906107c78783612050565b601082526f181899199a1a9b1b9c1cb0b131b232b360811b8a8301528651906107f08a83612050565b604282528a820192601f198b01368537825115611390576030845382516001101561139057918b9493918993607860218401535f5b8781106112f45750508560019460356014956108de98956108476013966123d1565b93519a8b977477696e646f772e4c4553535f544f4b454e5f49443d60581b828a0152805191829101858a015e870190721dbbb4b73237bb972622a9a9afa9a2a2a21e9160691b84830152518092604883015e01019073223b77696e646f772e464f4c445f434f554e543d60601b84830152805192839101602783015e0101603b60f81b838201520301601e19810184520182612050565b8451906108ea82612035565b85516108f68a82612050565b5f815282525f89830152855161090c8a82612050565b5f8152868301525f606083015285516109258782612050565b60088152671e39b1b934b83a1f60c11b8a8201528883015285516109498782612050565b60098152681e17b9b1b934b83a1f60b91b8a82015260a083015260c082015261097182612423565b5261097b81612423565b508351956020880161098d8189612050565b60018852601f1901885f5b82811061129e57505060025486515f94610a879490935090916001600160a01b03166109c383612035565b6109cb612071565b83528b83015287516109dd8c82612050565b85815288830152600160608301528751906109f88c83612050565b8582528201528651610a0a8b82612050565b84815260a08201528651610a1e8b82612050565b84815260c0820152610a2f89612416565b52610a3988612416565b50855190610a468261201a565b815288810197885260018060a01b03600154169089610a9a88519a8b9586948594635448d9af60e11b86526004860152518b602486015260648501906122dc565b90518382036023190160448501526122dc565b03915afa948515611294575f9561121d575b50610ab6846123d1565b93868451938482808201985f90600454610acf81611fe2565b90846001821691825f146112045750506001146111ca575b50805192839101825e015f815203601f1981018652610b069086612050565b516001600160401b0316610b19906123d1565b92610b2381612459565b82610b2d836125b0565b81610b37856126cc565b81610b418761282b565b938c8051998a9881808b019e8f7f5b7b2274726169745f74797065223a2257696e646f77222c2276616c7565223a9052805191829101858d015e8a01908382017f7d2c7b2274726169745f74797065223a22466f6c64205374726174656779222c905268113b30b63ab2911d1160b91b6060830152805192839101606983015e010190602982017f227d2c7b2274726169745f74797065223a2252656e646572204d6f6465222c229052673b30b63ab2911d1160c11b6049830152805192839101605183015e0160290190602882017f227d2c7b2274726169745f74797065223a224472617720446972656374696f6e90526a1116113b30b63ab2911d1160a91b6048830152805192839101605383015e0160280190602b82017f227d2c7b2274726169745f74797065223a2250617065722054797065222c227690526630b63ab2911d1160c91b604b830152805192839101605283015e01602b0161227d60f01b602782015203602701601d1981018352600201610cc09083612050565b819060c01c637fffffff9006936115b385018086116110e057610ce5610cea916128f3565b6128f3565b926064840293808504606414901517156110e0576028637fffffff8c9504105f14611161575050602d82610d729288519481869251918291018484015e81017f2c7b2274726169745f74797065223a22506170657220477261696e222c227661838201526c6c7565223a22477261696e227d60981b8a8201520301600d810184520182612050565b915b6123e781018082116110e057610d89906128f3565b6103e88102908082046103e814901517156110e0576008637fffffff8a9204106110f4575b506122b881018091116110e057610dc4906128f3565b6103e88102908082046103e814901517156110e057879687966008637fffffff89940410611076575b865193838581808201988051918291018a5e8101828101605d60f81b90520301601e1981018652600101610e219086612050565b610e2a906123d1565b8751683d913730b6b2911d1160b91b8b820152998a9791610e4d60298a016121ad565b90600160fd1b8252805192839101600183015e01701116113232b9b1b934b83a34b7b7111d1160791b6001820152601201610e8790612221565b6a11161134b6b0b3b2911d1160a91b81529051918290600b83015e01907211161130b734b6b0ba34b7b72fbab936111d1160691b600b830152805192839101601e83015e01600b01906e11161130ba3a3934b13aba32b9911d60891b6013830152518092602283015e01601301600f8101607d60f81b905203600f01601e1981018452600101610f179084612050565b8260609381519081610f8a575b505050610f7b603d610340939483519687917f646174613a6170706c69636174696f6e2f6a736f6e3b6261736536342c000000828401528051918291018484015e81015f838201520301601f198101865285612050565b51928284938452830190612128565b91945092506003600284010460021b9082517f4142434445464748494a4b4c4d4e4f505152535455565758595a616263646566601f526106707f6768696a6b6c6d6e6f707172737475767778797a303132333435363738392d5f18603f528681019280820192888781860199010194600460038751935f89525b0191603f8351818160121c16515f538181600c1c1651600153818160061c165160025316516003535f51815201908a8a8310156110475750600490600390611004565b9950506103409787603d965f94610f7b99520188526003613d3d60f01b91066002048203525281529493610f24565b936110da602e8480938a519481869251918291018484015e81017f2c7b2274726169745f74797065223a2248697420436f756e7473222c2276616c838201526d7565223a2256697369626c65227d60901b8c8201520301600e810184520182612050565b93610ded565b634e487b7160e01b5f52601160045260245ffd5b909260308261115a9288519481869251918291018484015e81017f2c7b2274726169745f74797065223a22437265617365204c696e6573222c2276838201526f616c7565223a2256697369626c65227d60801b8a82015203016010810184520182612050565b9187610dae565b6111c4925092602f919388519485915180918484015e81017f2c7b2274726169745f74797065223a22506170657220477261696e222c227661838201526e6c7565223a22556e69666f726d227d60881b8a8201520301600f810184520182612050565b91610d74565b90915060045f52825f205f905b8282106111eb57505083018201908d610ae7565b80548b83018601528a95508794909101906001016111d7565b915092935060ff19168c5280151502840101908d610ae7565b9094503d805f833e61122f8183612050565b8101908681830312610140578051906001600160401b038211610140570181601f82011215610140578051906112648261214c565b9261127186519485612050565b82845288838301011161014057815f92898093018386015e830101529386610aac565b83513d5f823e3d90fd5b819088516112ab81612035565b606081525f8382015260608a8201525f6060820152606086820152606060a0820152606060c082015282828d01015201610998565b634e487b7160e01b5f52604160045260245ffd5b9596509294919350919087811a906001600160f81b031961131c600484901c600f1685612915565b5116918160011b92828404600214831517156110e0578360020190816002116110e05761134c905f1a9188612915565b536001600160f81b03199061136490600f1685612915565b511691600301806003116110e0576113816001935f1a9187612915565b5301918993918d969593610825565b634e487b7160e01b5f52603260045260245ffd5b6020906040516113b381612035565b606081525f83820152606060408201525f606082015260606080820152606060a0820152606060c082015282828a0101520161069c565b9091506020813d602011611416575b8161140660209383612050565b8101031261014057519083610661565b3d91506113f9565b6040513d5f823e3d90fd5b91506040823d60401161147e575b8161144460409383612050565b8101031261014057604051916114598361201a565b8051926001600160401b03841684036101405792835260209081015183820152610633565b3d9150611437565b34610140575f366003190112610140576001546040516001600160a01b039091168152602090f35b34610140575f36600319011261014057638b78c6d819546040516001600160a01b039091168152602090f35b34610140575f366003190112610140576040515f6006546114fa81611fe2565b808452906001811690811561059e5750600114611521576103408361032c81850382612050565b60065f9081525f80516020612987833981519152939250905b8082106115525750909150810160200161032c610543565b91926001816020925483858801015201910190929161153a565b5f3660031901126101405761157f612283565b5f638b78c6d819547f8be0079c531659141344cd1fd0a4f28419497f9722a3daafe3b4186f6b6457e08280a35f638b78c6d81955005b34610140575f366003190112610140576040515f6008546115d581611fe2565b808452906001811690811561059e57506001146115fc576103408361032c81850382612050565b60085f9081525f80516020612967833981519152939250905b80821061162d5750909150810160200161032c610543565b919260018160209254838588010152019101909291611615565b34610140576020366003190112610140576004356001600160401b03811161014057611677903690600401612167565b61167f612283565b80516001600160401b0381116112e05761169a600454611fe2565b601f8111611747575b50602091601f82116001146116df579181925f926116d4575b50505f19600383901b1c191660019190911b17600455005b0151905082806116bc565b601f1982169260045f525f805160206129a7833981519152915f5b85811061172f57508360019510611717575b505050811b01600455005b01515f1960f88460031b161c1916905582808061170c565b919260206001819286850151815501940192016116fa565b60045f52601f820160051c5f805160206129a783398151915201906020831061179a575b601f0160051c5f805160206129a783398151915201905b81811061178f57506116a3565b5f8155600101611782565b5f805160206129a7833981519152915061176b565b34610140575f366003190112610140576040515f6007546117cf81611fe2565b808452906001811690811561059e57506001146117f6576103408361032c81850382612050565b60075f9081525f80516020612947833981519152939250905b8082106118275750909150810160200161032c610543565b91926001816020925483858801015201910190929161180f565b5f3660031901126101405763389a75e1600c52335f525f6020600c2055337ffa7b8eab7da67f412cc9575ed43464468f9bfbae89d1675917346ca6d8fe3c925f80a2005b34610140576020366003190112610140576004356001600160a01b03811690819003610140576118b3612283565b6bffffffffffffffffffffffff60a01b5f5416175f555f80f35b34610140576080366003190112610140576004356001600160401b038111610140576118fd903690600401612167565b6024356001600160401b0381116101405761191c903690600401612167565b906044356001600160401b0381116101405761193c903690600401612167565b6064356001600160401b0381116101405761195b903690600401612167565b92611964612283565b82516001600160401b0381116112e05761197f600554611fe2565b601f8111611e61575b50806020601f8211600114611df2575f91611de7575b508160011b915f199060031b1c1916176005555b80516001600160401b0381116112e0576119cd600654611fe2565b601f8111611d7f575b50806020601f8211600114611d10575f91611d05575b508160011b915f199060031b1c1916176006555b81516001600160401b0381116112e057611a1b600754611fe2565b601f8111611c9d575b50806020601f8211600114611c2e575f91611c23575b508160011b915f199060031b1c1916176007555b83516001600160401b0381116112e057611a69600854611fe2565b601f8111611bbb575b506020601f8211600114611b1d57611ae39493611af1611b0d94847f98b21c2a9353876752fe6fb3979aef527197201e88d11594070edd46f90e001c9995611aff955f91611b12575b508160011b915f199060031b1c1916176008555b604051978897608089526080890190612128565b908782036020890152612128565b908582036040870152612128565b908382036060850152612128565b0390a1005b90508601518b611abb565b601f1982169060085f525f80516020612967833981519152915f5b818110611ba35750611b0d94600185611aff95611ae39a99957f98b21c2a9353876752fe6fb3979aef527197201e88d11594070edd46f90e001c9c98611af19610611b8b575b5050811b01600855611acf565b8801515f1960f88460031b161c191690558b80611b7e565b9192602060018192868c015181550194019201611b38565b60085f52601f820160051c5f80516020612967833981519152019060208310611c0e575b601f0160051c5f8051602061296783398151915201905b818110611c035750611a72565b5f8155600101611bf6565b5f805160206129678339815191529150611bdf565b905083015186611a3a565b60075f9081525f805160206129478339815191529250601f198416905b818110611c8557509083600194939210611c6d575b5050811b01600755611a4e565b8501515f1960f88460031b161c191690558680611c60565b9192602060018192868a015181550194019201611c4b565b60075f52601f820160051c5f80516020612947833981519152019060208310611cf0575b601f0160051c5f8051602061294783398151915201905b818110611ce55750611a24565b5f8155600101611cd8565b5f805160206129478339815191529150611cc1565b9050820151866119ec565b60065f9081525f805160206129878339815191529250601f198416905b818110611d6757509083600194939210611d4f575b5050811b01600655611a00565b8401515f1960f88460031b161c191690558680611d42565b91926020600181928689015181550194019201611d2d565b60065f52601f820160051c5f80516020612987833981519152019060208310611dd2575b601f0160051c5f8051602061298783398151915201905b818110611dc757506119d6565b5f8155600101611dba565b5f805160206129878339815191529150611da3565b90508401518661199e565b60055f9081525f805160206129278339815191529250601f198416905b818110611e4957509083600194939210611e31575b5050811b016005556119b2565b8601515f1960f88460031b161c191690558680611e24565b9192602060018192868b015181550194019201611e0f565b60055f52601f820160051c5f80516020612927833981519152019060208310611eb4575b601f0160051c5f8051602061292783398151915201905b818110611ea95750611988565b5f8155600101611e9c565b5f805160206129278339815191529150611e85565b5f3660031901126101405763389a75e1600c52335f526202a30042016020600c2055337fdbf36a107da19e49527a7176a1babf963b4b0ff8cde35ee35d6cd8f1f9ac7e1d5f80a2005b34610140575f366003190112610140576040515f600454611f3281611fe2565b808452906001811690811561059e5750600114611f59576103408361032c81850382612050565b60045f9081525f805160206129a7833981519152939250905b808210611f8a5750909150810160200161032c610543565b919260018160209254838588010152019101909291611f72565b34610140575f3660031901126101405761034061032c612071565b34610140575f366003190112610140576002546001600160a01b03168152602090f35b90600182811c92168015612010575b6020831014611ffc57565b634e487b7160e01b5f52602260045260245ffd5b91607f1691611ff1565b604081019081106001600160401b038211176112e057604052565b60e081019081106001600160401b038211176112e057604052565b90601f801991011681019081106001600160401b038211176112e057604052565b604051905f826003549161208483611fe2565b808352926001811690811561210957506001146120aa575b6120a892500383612050565b565b5060035f90815290917fc2575a0e9e593c00f959f8c92f12db2869c3395a3b0502d05e2516446f71f85b5b8183106120ed5750509060206120a89282010161209c565b60209193508060019154838589010152019101909184926120d5565b602092506120a894915060ff191682840152151560051b82010161209c565b805180835260209291819084018484015e5f828201840152601f01601f1916010190565b6001600160401b0381116112e057601f01601f191660200190565b81601f820112156101405780359061217e8261214c565b9261218c6040519485612050565b8284526020838301011161014057815f926020809301838601378301015290565b6005545f92916121bc82611fe2565b916001811690811561220f57506001146121d4575050565b60055f90815292935090915f805160206129278339815191525b8382106121fb5750500190565b6001816020925484860152019101906121ee565b60ff1916825250811515909102019150565b6006545f929161223082611fe2565b916001811690811561220f5750600114612248575050565b60065f90815292935090915f805160206129878339815191525b83821061226f5750500190565b600181602092548486015201910190612262565b638b78c6d81954330361229257565b6382b429005f526004601cfd5b60018060a01b031680638b78c6d819547f8be0079c531659141344cd1fd0a4f28419497f9722a3daafe3b4186f6b6457e05f80a3638b78c6d81955565b9080602083519182815201906020808260051b8501019401925f905b82821061230757505050505090565b9091929394601f1982820301855285519061235261232e835160e0845260e0840190612128565b60018060a01b03602085015116602084015260408401518382036040850152612128565b60608301519060058210156123bd576001938360c061239f61238d6123b0956020989760608a99015260808601518582036080870152612128565b60a085015184820360a0860152612128565b9201519060c0818403910152612128565b97019501939201906122f8565b634e487b7160e01b5f52602160045260245ffd5b90604051600a608082019360a083016040525f8552935b5f19019360308282060185530492831561240457600a906123e8565b809350608091030191601f1901918252565b8051156113905760200190565b8051600110156113905760400190565b60405190612442604083612050565b6008825267111a5859dbdb985b60c21b6020830152565b637fffffff9060c01c06611a0a81018091116110e057612478906128f3565b6064810290808204606414901517156110e057637fffffff900460108110612587576020811061256057602c8110612554576038811061252f576044811061250c576050116124e5576040516124cf604082612050565b600681526552616e646f6d60d01b602082015290565b6040516124f3604082612050565b600981526810db1d5cdd195c995960ba1b602082015290565b5060405161251b604082612050565b600481526311dc9a5960e21b602082015290565b5060405161253e604082612050565b60068152651498591a585b60d21b602082015290565b5061255d612433565b90565b5060405161256f604082612050565b600881526715995c9d1a58d85b60c21b602082015290565b50604051612596604082612050565b600a815269121bdc9a5e9bdb9d185b60b21b602082015290565b637fffffff9060c01c066115b381018091116110e0576125cf906128f3565b620f4240810290808204620f424014901517156110e057637fffffff900462061a8081106126a757620aae60811061268057620c3500811061265b57620dbba01161263757604051612622604082612050565b600581526444656e736560d81b602082015290565b604051612645604082612050565b600681526553706172736560d01b602082015290565b5060405161266a604082612050565b600681526542696e61727960d01b602082015290565b5060405161268f604082612050565b6008815267125b9d995c9d195960c21b602082015290565b506040516126b6604082612050565b6006815265139bdc9b585b60d21b602082015290565b637fffffff9060c01c0661823581018091116110e0576126eb906128f3565b6064810290808204606414901517156110e057637fffffff9004601681106127ff57602c81106127d357604181106127ae576050811061278657605a81106125545760601161275e57604051612742604082612050565b600c81526b10da1958dad95c989bd85c9960a21b602082015290565b60405161276c604082612050565b600a81526914985b991bdb48135a5960b21b602082015290565b50604051612795604082612050565b6009815268416c7465726e61746560b81b602082015290565b506040516127bd604082612050565b600681526521b2b73a32b960d11b602082015290565b506040516127e2604082612050565b600d81526c149a59da1d081d1bc81319599d609a1b602082015290565b5060405161280e604082612050565b600d81526c1319599d081d1bc8149a59da1d609a1b602082015290565b637fffffff9060c01c066115b381018091116110e05761284a906128f3565b6050810290808204605014901517156110e057637fffffff9004600a81018091116110e057602381106128cb576041116128a55760405161288c604082612050565b600981526810589cdbdc98995b9d60ba1b602082015290565b6040516128b3604082612050565b600881526714dd185b99185c9960c21b602082015290565b506040516128da604082612050565b600981526814995cda5cdd185b9d60ba1b602082015290565b801561290d575b6341c64e6d0261303901637fffffff1690565b5060016128fa565b90815181101561139057016020019056fe036b6384b5eca791c62761152d0c79bb0604c104a5fb6f4eb0703f3154bb3db0a66cc928b5edb82af9bd49922954155ab7b0942694bea4ce44661d9a8736c688f3f7a9fe364faab93b216da50a3214154f22a0a2b415b23a84c8169e8b636ee3f652222313e28459528d920b65115c16c04f3efc82aaedc97be59f3f377c0d3f8a35acfbc15ff81a39ae7d344fd709f28e8600b4aa8c65c6b64bfe7fe36bd19ba264697066735822122035d8170c934ecf6722fc0a1ae37819a7657f523e453de7b2191b07eb1e0fc53164736f6c634300081a0033","linkReferences":{}},"methodIdentifiers":{"baseImageURL()":"1b109d9c","cancelOwnershipHandover()":"54d1f13d","collectionImage()":"55530614","collectionName()":"e5326ab1","completeOwnershipHandover(address)":"f04e283e","contractURI()":"e8a3d485","description()":"7284e416","externalLink()":"5b9db898","less()":"d0b42373","owner()":"8da5cb5b","ownershipHandoverExpiresAt(address)":"fee81cf4","renounceOwnership()":"715018a6","requestOwnershipHandover()":"25692962","scriptName()":"11fd1965","scriptyBuilder()":"91a0d36d","scriptyStorage()":"0ac49cc2","setBaseImageURL(string)":"59146e1c","setLessContract(address)":"52ce6116","setMetadata(string,string,string,string)":"4734e13c","tokenURI(uint256)":"c87b56dd","transferOwnership(address)":"f2fde38b"},"id":1}