{"abi":[{"type":"constructor","inputs":[{"name":"_less","type":"address","internalType":"address"},{"name":"_scriptyBuilder","type":"address","internalType":"address"},{"name":"_scriptyStorage","type":"address","internalType":"address"},{"name":"_scriptName","type":"string","internalType":"string"},{"name":"_baseImageURL","type":"string","internalType":"string"},{"name":"_owner","type":"address","internalType":"address"}],"stateMutability":"nonpayable"},{"type":"function","name":"DESCRIPTION","inputs":[],"outputs":[{"name":"","type":"string","internalType":"string"}],"stateMutability":"view"},{"type":"function","name":"baseImageURL","inputs":[],"outputs":[{"name":"","type":"string","internalType":"string"}],"stateMutability":"view"},{"type":"function","name":"cancelOwnershipHandover","inputs":[],"outputs":[],"stateMutability":"payable"},{"type":"function","name":"completeOwnershipHandover","inputs":[{"name":"pendingOwner","type":"address","internalType":"address"}],"outputs":[],"stateMutability":"payable"},{"type":"function","name":"contractURI","inputs":[],"outputs":[{"name":"","type":"string","internalType":"string"}],"stateMutability":"view"},{"type":"function","name":"less","inputs":[],"outputs":[{"name":"","type":"address","internalType":"address"}],"stateMutability":"view"},{"type":"function","name":"owner","inputs":[],"outputs":[{"name":"result","type":"address","internalType":"address"}],"stateMutability":"view"},{"type":"function","name":"ownershipHandoverExpiresAt","inputs":[{"name":"pendingOwner","type":"address","internalType":"address"}],"outputs":[{"name":"result","type":"uint256","internalType":"uint256"}],"stateMutability":"view"},{"type":"function","name":"renounceOwnership","inputs":[],"outputs":[],"stateMutability":"payable"},{"type":"function","name":"requestOwnershipHandover","inputs":[],"outputs":[],"stateMutability":"payable"},{"type":"function","name":"scriptName","inputs":[],"outputs":[{"name":"","type":"string","internalType":"string"}],"stateMutability":"view"},{"type":"function","name":"scriptyBuilder","inputs":[],"outputs":[{"name":"","type":"address","internalType":"address"}],"stateMutability":"view"},{"type":"function","name":"scriptyStorage","inputs":[],"outputs":[{"name":"","type":"address","internalType":"address"}],"stateMutability":"view"},{"type":"function","name":"setBaseImageURL","inputs":[{"name":"_baseImageURL","type":"string","internalType":"string"}],"outputs":[],"stateMutability":"nonpayable"},{"type":"function","name":"setLessContract","inputs":[{"name":"_less","type":"address","internalType":"address"}],"outputs":[],"stateMutability":"nonpayable"},{"type":"function","name":"setScriptName","inputs":[{"name":"_scriptName","type":"string","internalType":"string"}],"outputs":[],"stateMutability":"nonpayable"},{"type":"function","name":"setScriptyBuilder","inputs":[{"name":"_scriptyBuilder","type":"address","internalType":"address"}],"outputs":[],"stateMutability":"nonpayable"},{"type":"function","name":"setScriptyStorage","inputs":[{"name":"_scriptyStorage","type":"address","internalType":"address"}],"outputs":[],"stateMutability":"nonpayable"},{"type":"function","name":"tokenURI","inputs":[{"name":"tokenId","type":"uint256","internalType":"uint256"}],"outputs":[{"name":"","type":"string","internalType":"string"}],"stateMutability":"view"},{"type":"function","name":"transferOwnership","inputs":[{"name":"newOwner","type":"address","internalType":"address"}],"outputs":[],"stateMutability":"payable"},{"type":"event","name":"BaseImageURLUpdated","inputs":[{"name":"newURL","type":"string","indexed":false,"internalType":"string"}],"anonymous":false},{"type":"event","name":"LessContractUpdated","inputs":[{"name":"newLess","type":"address","indexed":false,"internalType":"address"}],"anonymous":false},{"type":"event","name":"OwnershipHandoverCanceled","inputs":[{"name":"pendingOwner","type":"address","indexed":true,"internalType":"address"}],"anonymous":false},{"type":"event","name":"OwnershipHandoverRequested","inputs":[{"name":"pendingOwner","type":"address","indexed":true,"internalType":"address"}],"anonymous":false},{"type":"event","name":"OwnershipTransferred","inputs":[{"name":"oldOwner","type":"address","indexed":true,"internalType":"address"},{"name":"newOwner","type":"address","indexed":true,"internalType":"address"}],"anonymous":false},{"type":"event","name":"ScriptNameUpdated","inputs":[{"name":"newName","type":"string","indexed":false,"internalType":"string"}],"anonymous":false},{"type":"event","name":"ScriptyBuilderUpdated","inputs":[{"name":"newBuilder","type":"address","indexed":false,"internalType":"address"}],"anonymous":false},{"type":"event","name":"ScriptyStorageUpdated","inputs":[{"name":"newStorage","type":"address","indexed":false,"internalType":"address"}],"anonymous":false},{"type":"error","name":"AlreadyInitialized","inputs":[]},{"type":"error","name":"NewOwnerIsZeroAddress","inputs":[]},{"type":"error","name":"NoHandoverRequest","inputs":[]},{"type":"error","name":"TokenDoesNotExist","inputs":[]},{"type":"error","name":"Unauthorized","inputs":[]}],"bytecode":{"object":"0x608060405234801561000f575f80fd5b506040516124d23803806124d283398101604081905261002e9161018b565b5f80546001600160a01b038089166001600160a01b031992831617909255600180548884169083161790556002805492871692909116919091179055600361007684826102b4565b50600461008383826102b4565b5061008d81610098565b50505050505061036e565b6001600160a01b0316638b78c6d819819055805f7f8be0079c531659141344cd1fd0a4f28419497f9722a3daafe3b4186f6b6457e08180a350565b80516001600160a01b03811681146100e9575f80fd5b919050565b634e487b7160e01b5f52604160045260245ffd5b5f82601f830112610111575f80fd5b81516001600160401b0381111561012a5761012a6100ee565b604051601f8201601f19908116603f011681016001600160401b0381118282101715610158576101586100ee565b60405281815283820160200185101561016f575f80fd5b8160208501602083015e5f918101602001919091529392505050565b5f805f805f8060c087890312156101a0575f80fd5b6101a9876100d3565b95506101b7602088016100d3565b94506101c5604088016100d3565b60608801519094506001600160401b038111156101e0575f80fd5b6101ec89828a01610102565b608089015190945090506001600160401b03811115610209575f80fd5b61021589828a01610102565b92505061022460a088016100d3565b90509295509295509295565b600181811c9082168061024457607f821691505b60208210810361026257634e487b7160e01b5f52602260045260245ffd5b50919050565b601f8211156102af57805f5260205f20601f840160051c8101602085101561028d5750805b601f840160051c820191505b818110156102ac575f8155600101610299565b50505b505050565b81516001600160401b038111156102cd576102cd6100ee565b6102e1816102db8454610230565b84610268565b6020601f821160018114610313575f83156102fc5750848201515b5f19600385901b1c1916600184901b1784556102ac565b5f84815260208120601f198516915b828110156103425787850151825560209485019460019092019101610322565b508482101561035f57868401515f19600387901b60f8161c191681555b50505050600190811b01905550565b6121578061037b5f395ff3fe60806040526004361061011b575f3560e01c80637f7490031161009d578063e8a3d48511610062578063e8a3d485146102b9578063f04e283e146102cd578063f1ae8856146102e0578063f2fde38b146102f4578063fee81cf414610307575f80fd5b80637f749003146102265780638da5cb5b1461024557806391a0d36d1461025d578063c87b56dd1461027c578063d0b423731461029b575f80fd5b806352ce6116116100e357806352ce6116146101b957806354d1f13d146101d857806356a3aec4146101e057806359146e1c146101ff578063715018a61461021e575f80fd5b80630ac49cc21461011f57806311fd19651461015b578063196fc2b81461017c5780631b109d9c1461019d57806325692962146101b1575b5f80fd5b34801561012a575f80fd5b5060025461013e906001600160a01b031681565b6040516001600160a01b0390911681526020015b60405180910390f35b348015610166575f80fd5b5061016f610346565b6040516101529190611553565b348015610187575f80fd5b5061019b6101963660046115d6565b6103d2565b005b3480156101a8575f80fd5b5061016f610421565b61019b61042e565b3480156101c4575f80fd5b5061019b6101d3366004611663565b61047a565b61019b6104cf565b3480156101eb575f80fd5b5061019b6101fa366004611663565b610508565b34801561020a575f80fd5b5061019b6102193660046115d6565b61055e565b61019b6105a2565b348015610231575f80fd5b5061019b610240366004611663565b6105b5565b348015610250575f80fd5b50638b78c6d8195461013e565b348015610268575f80fd5b5060015461013e906001600160a01b031681565b348015610287575f80fd5b5061016f61029636600461167e565b61060b565b3480156102a6575f80fd5b505f5461013e906001600160a01b031681565b3480156102c4575f80fd5b5061016f6107a7565b61019b6102db366004611663565b610818565b3480156102eb575f80fd5b5061016f610855565b61019b610302366004611663565b610874565b348015610312575f80fd5b50610338610321366004611663565b63389a75e1600c9081525f91909152602090205490565b604051908152602001610152565b6003805461035390611695565b80601f016020809104026020016040519081016040528092919081815260200182805461037f90611695565b80156103ca5780601f106103a1576101008083540402835291602001916103ca565b820191905f5260205f20905b8154815290600101906020018083116103ad57829003601f168201915b505050505081565b6103da61089a565b60036103e68282611719565b507f5415d426c4f141f128a11fca1a090008f54e065574159e10ed1447ef2fd6e2ec816040516104169190611553565b60405180910390a150565b6004805461035390611695565b5f6202a3006001600160401b03164201905063389a75e1600c52335f52806020600c2055337fdbf36a107da19e49527a7176a1babf963b4b0ff8cde35ee35d6cd8f1f9ac7e1d5f80a250565b61048261089a565b5f80546001600160a01b0319166001600160a01b0383169081179091556040519081527fce24e5f855311c580478bc708feb6da3421628f56b822b39e8a209e80f05a71990602001610416565b63389a75e1600c52335f525f6020600c2055337ffa7b8eab7da67f412cc9575ed43464468f9bfbae89d1675917346ca6d8fe3c925f80a2565b61051061089a565b600280546001600160a01b0319166001600160a01b0383169081179091556040519081527f70b12b6b8b6663fb182e440a56a9dba909b7d27f6773be8e1c1f9f8487c229c190602001610416565b61056661089a565b60046105728282611719565b507f95a50c186d5919be7ba2143bdf89abefc2588e9f86b6eba993901b4d9f416bed816040516104169190611553565b6105aa61089a565b6105b35f6108b4565b565b6105bd61089a565b600180546001600160a01b0319166001600160a01b0383169081179091556040519081527fd566016c5f23fe52a44459d0ca08c2b81f8411b49f6bbe69ea100611564bb6c590602001610416565b5f805460405163b09afec160e01b815260048101849052606092916001600160a01b03169063b09afec190602401602060405180830381865afa158015610654573d5f803e3d5ffd5b505050506040513d601f19601f8201168201806040525081019061067891906117ee565b5f805482516040516351787e2f60e11b81526001600160401b03909116600482015292935090916001600160a01b039091169063a2f0fc5e90602401606060405180830381865afa1580156106cf573d5f803e3d5ffd5b505050506040513d601f19601f820116820180604052508101906106f39190611837565b5f805460405163e0d4ea3760e01b81526004810188905292935090916001600160a01b039091169063e0d4ea3790602401602060405180830381865afa15801561073f573d5f803e3d5ffd5b505050506040513d601f19601f82011682018060405250810190610763919061189d565b90505f610772868585856108f1565b905061077d81610972565b60405160200161078d91906118cb565b604051602081830303815290604052945050505050919050565b60605f604051806101400160405280610107815260200161201b610107913960046040516020016107d992919061196a565b60405160208183030381529060405290506107f381610972565b60405160200161080391906118cb565b60405160208183030381529060405291505090565b61082061089a565b63389a75e1600c52805f526020600c20805442111561084657636f5e88185f526004601cfd5b5f9055610852816108b4565b50565b604051806101400160405280610107815260200161201b610107913981565b61087c61089a565b8060601b61089157637448fbae5f526004601cfd5b610852816108b4565b638b78c6d8195433146105b3576382b429005f526004601cfd5b638b78c6d81980546001600160a01b039092169182907f8be0079c531659141344cd1fd0a4f28419497f9722a3daafe3b4186f6b6457e05f80a355565b60605f6108fe8684610985565b90505f61090a87610d00565b90505f610918878787610d34565b905061092388610eb6565b604051806101400160405280610107815260200161201b6101079139838584604051602001610956959493929190611a04565b6040516020818303038152906040529350505050949350505050565b606061097f825f80610ef8565b92915050565b60605f6109928484610fea565b600154604051635448d9af60e11b81529192506060916001600160a01b039091169063a891b35e906109c8908590600401611bf5565b5f60405180830381865afa925050508015610a0457506040513d5f823e601f3d908101601f19168201604052610a019190810190611c6c565b60015b15610af2576040805180820190915260168082527519185d184e9d195e1d0bda1d1b5b0ed8985cd94d8d0b60521b602083015282519293508392839111610ac65760015f5b8351811015610aaf57838181518110610a6457610a64611cb8565b602001015160f81c60f81b6001600160f81b031916838281518110610a8b57610a8b611cb8565b01602001516001600160f81b03191614610aa7575f9150610aaf565b600101610a49565b508015610ac45783965050505050505061097f565b505b83604051602001610ad79190611ccc565b6040516020818303038152906040529550505050505061097f565b600154604051632bee680760e01b81526001600160a01b0390911690632bee680790610b22908590600401611bf5565b5f60405180830381865afa925050508015610b5e57506040513d5f823e601f3d908101601f19168201604052610b5b9190810190611c6c565b60015b15610b905780915081604051602001610b779190611ccc565b604051602081830303815290604052935050505061097f565b600154604051636af6c46760e11b81526001600160a01b039091169063d5ed88ce90610bc0908590600401611bf5565b5f60405180830381865afa925050508015610bfc57506040513d5f823e601f3d908101601f19168201604052610bf99190810190611c6c565b60015b15610c1e575b610c0b81610972565b915081604051602001610b779190611ccc565b600154604051633eddc85160e11b81526001600160a01b0390911690637dbb90a290610c4e908590600401611bf5565b5f60405180830381865afa925050508015610c8a57506040513d5f823e601f3d908101601f19168201604052610c879190810190611c6c565b60015b610c025760405162461bcd60e51b815260206004820152603d60248201527f536372697074794275696c6465723a20496e74657266616365206d69736d617460448201527f63682e20436865636b20636f6e74726163742066756e6374696f6e732e000000606482015260840160405180910390fd5b60606004610d0d83610eb6565b604051602001610d1e929190611cf6565b6040516020818303038152906040529050919050565b60408051602080820183525f808352548351635463173b60e11b815293516060946001600160a01b039092169263a8c62e7692600480820193918290030181865afa158015610d85573d5f803e3d5ffd5b505050506040513d601f19601f82011682018060405250810190610da99190611d1f565b6001600160a01b03166318160ddd6040518163ffffffff1660e01b8152600401602060405180830381865afa925050508015610e02575060408051601f3d908101601f19168201909252610dff9181019061189d565b60015b15610e3357610e1081610eb6565b604051602001610e209190611d3a565b6040516020818303038152906040529150505b8451610e47906001600160401b0316610eb6565b610e50846112e0565b610e5d86604001516112e0565b8651610e71906001600160401b0316610eb6565b610e8788602001516001600160401b0316610eb6565b85604051602001610e9d96959493929190611d8e565b6040516020818303038152906040529150509392505050565b60606080604051019050602081016040525f8152805f19835b928101926030600a8206018453600a900480610ecf575050819003601f19909101908152919050565b606083518015610fe2576003600282010460021b60405192507f4142434445464748494a4b4c4d4e4f505152535455565758595a616263646566601f526106708515027f6768696a6b6c6d6e6f707172737475767778797a303132333435363738392d5f18603f526020830181810183886020010180515f82525b60038a0199508951603f8160121c16515f53603f81600c1c1651600153603f8160061c1651600253603f811651600353505f518452600484019350828410610f73579052602001604052613d3d60f01b60038406600204808303919091525f8615159091029182900352900382525b509392505050565b6040805180820182526060808252602082018190528251600280825291810190935290915f91816020015b61101d6114d0565b8152602001906001900390816110155790505060408051610100810182525f60e0820181815282526020808301829052835190810184528181529282019290925291925060608201908152602001604051806080016040528060598152602001611fc260599139815260200160405180602001604052805f815250815260200160405180602001604052805f815250815250815f815181106110c1576110c1611cb8565b60209081029190910181019190915260408051610100810182525f60e082018181528252818401819052825180850184528181528284015260608201528151808301835260088152671e39b1b934b83a1f60c11b818501526080820152815180830190925260098252681e17b9b1b934b83a1f60b91b9282019290925260a082015260c081016111518686611494565b8152508160018151811061116757611167611cb8565b60209081029190910101526040805160018082528183019092525f91816020015b6111906114d0565b8152602001906001900390816111885790505090506040518060e00160405280600380546111bd90611695565b80601f01602080910402602001604051908101604052809291908181526020018280546111e990611695565b80156112345780601f1061120b57610100808354040283529160200191611234565b820191905f5260205f20905b81548152906001019060200180831161121757829003601f168201915b50505091835250506002546001600160a01b03166020808301919091526040805191820181525f82528201526060016001815260200160405180602001604052805f815250815260200160405180602001604052805f815250815260200160405180602001604052805f815250815250815f815181106112b6576112b6611cb8565b60200260200101819052506040518060400160405280838152602001828152509250505092915050565b604080518082018252601081526f181899199a1a9b1b9c1cb0b131b232b360811b602082015281516042808252608082019093526060925f9190602082018180368337019050509050600360fc1b815f8151811061134057611340611cb8565b60200101906001600160f81b03191690815f1a905350600f60fb1b8160018151811061136e5761136e611cb8565b60200101906001600160f81b03191690815f1a9053505f5b6020811015610fe2578260048683602081106113a4576113a4611cb8565b1a60f81b6001600160f81b031916901c60f81c60ff16815181106113ca576113ca611cb8565b01602001516001600160f81b031916826113e5836002611f34565b6113f0906002611f4b565b8151811061140057611400611cb8565b60200101906001600160f81b03191690815f1a9053508285826020811061142957611429611cb8565b825191901a600f1690811061144057611440611cb8565b01602001516001600160f81b0319168261145b836002611f34565b611466906003611f4b565b8151811061147657611476611cb8565b60200101906001600160f81b03191690815f1a905350600101611386565b606061149f83610eb6565b6114a8836112e0565b6040516020016114b9929190611f5e565b604051602081830303815290604052905092915050565b6040518060e00160405280606081526020015f6001600160a01b03168152602001606081526020015f600481111561150a5761150a611acd565b81526020016060815260200160608152602001606081525090565b5f81518084528060208401602086015e5f602082860101526020601f19601f83011685010191505092915050565b602081525f6115656020830184611525565b9392505050565b634e487b7160e01b5f52604160045260245ffd5b604051601f8201601f191681016001600160401b03811182821017156115a8576115a861156c565b604052919050565b5f6001600160401b038211156115c8576115c861156c565b50601f01601f191660200190565b5f602082840312156115e6575f80fd5b81356001600160401b038111156115fb575f80fd5b8201601f8101841361160b575f80fd5b803561161e611619826115b0565b611580565b818152856020838501011115611632575f80fd5b816020840160208301375f91810160200191909152949350505050565b6001600160a01b0381168114610852575f80fd5b5f60208284031215611673575f80fd5b81356115658161164f565b5f6020828403121561168e575f80fd5b5035919050565b600181811c908216806116a957607f821691505b6020821081036116c757634e487b7160e01b5f52602260045260245ffd5b50919050565b601f82111561171457805f5260205f20601f840160051c810160208510156116f25750805b601f840160051c820191505b81811015611711575f81556001016116fe565b50505b505050565b81516001600160401b038111156117325761173261156c565b611746816117408454611695565b846116cd565b6020601f821160018114611778575f83156117615750848201515b5f19600385901b1c1916600184901b178455611711565b5f84815260208120601f198516915b828110156117a75787850151825560209485019460019092019101611787565b50848210156117c457868401515f19600387901b60f8161c191681555b50505050600190811b01905550565b80516001600160401b03811681146117e9575f80fd5b919050565b5f60208284031280156117ff575f80fd5b50604051602081016001600160401b03811182821017156118225761182261156c565b60405261182e836117d3565b81529392505050565b5f6060828403128015611848575f80fd5b50604051606081016001600160401b038111828210171561186b5761186b61156c565b604052611877836117d3565b8152611885602084016117d3565b60208201526040928301519281019290925250919050565b5f602082840312156118ad575f80fd5b5051919050565b5f81518060208401855e5f93019283525090919050565b7f646174613a6170706c69636174696f6e2f6a736f6e3b6261736536342c00000081525f611565601d8301846118b4565b5f815461190881611695565b60018216801561191f576001811461193457611961565b60ff1983168652811515820286019350611961565b845f5260205f205f5b838110156119595781548882015260019091019060200161193d565b505081860193505b50505092915050565b7f7b226e616d65223a224c455353222c226465736372697074696f6e223a22000081525f61199b601e8301856118b4565b6a11161134b6b0b3b2911d1160a91b81526119b9600b8201856118fc565b7f636f6c6c656374696f6e2e706e67222c2265787465726e616c5f6c696e6b223a8152722268747470733a2f2f6c6573732e617274227d60681b602082015260330195945050505050565b6e7b226e616d65223a226c657373202360881b81525f611a27600f8301886118b4565b701116113232b9b1b934b83a34b7b7111d1160791b8152611a4b60118201886118b4565b6a11161134b6b0b3b2911d1160a91b81529050611a6b600b8201876118b4565b7211161130b734b6b0ba34b7b72fbab936111d1160691b81529050611a9360138201866118b4565b6e11161130ba3a3934b13aba32b9911d60891b81529050611ab7600f8201856118b4565b607d60f81b815260010198975050505050505050565b634e487b7160e01b5f52602160045260245ffd5b60058110611afd57634e487b7160e01b5f52602160045260245ffd5b9052565b5f82825180855260208501945060208160051b830101602085015f5b83811015611be957601f198584030188528151805160e08552611b4360e0860182611525565b905060018060a01b03602083015116602086015260408201518582036040870152611b6e8282611525565b9150506060820151611b836060870182611ae1565b5060808201518582036080870152611b9b8282611525565b91505060a082015185820360a0870152611bb58282611525565b91505060c0820151915084810360c0860152611bd18183611525565b60209a8b019a90955093909301925050600101611b1d565b50909695505050505050565b602081525f825160406020840152611c106060840182611b01565b90506020840151601f19848303016040850152611c2d8282611b01565b95945050505050565b5f611c43611619846115b0565b9050828152838383011115611c56575f80fd5b8282602083015e5f602084830101529392505050565b5f60208284031215611c7c575f80fd5b81516001600160401b03811115611c91575f80fd5b8201601f81018413611ca1575f80fd5b611cb084825160208401611c36565b949350505050565b634e487b7160e01b5f52603260045260245ffd5b7519185d184e9d195e1d0bda1d1b5b0ed8985cd94d8d0b60521b81525f61156560168301846118b4565b5f611d0a611d0483866118fc565b846118b4565b632e706e6760e01b8152600401949350505050565b5f60208284031215611d2f575f80fd5b81516115658161164f565b7f2c7b2274726169745f74797065223a22537472617465677920537570706c792281526816113b30b63ab2911d60b91b60208201525f611d7d60298301846118b4565b607d60f81b81526001019392505050565b7f5b7b2274726169745f74797065223a22466f6c64204944222c2276616c7565228152601d60f91b60208201525f611dc960218301896118b4565b7f7d2c7b2274726169745f74797065223a2253656564222c2276616c7565223a228152611df960208201896118b4565b7f227d2c7b2274726169745f74797065223a22426c6f636b2048617368222c227681526630b63ab2911d1160c91b60208201529050611e3b60278201886118b4565b90507f227d2c7b2274726169745f74797065223a2257696e646f77205374617274222c81527f22646973706c61795f74797065223a2264617465222c2276616c7565223a00006020820152611e93603e8201876118b4565b90507f7d2c7b2274726169745f74797065223a2257696e646f7720456e64222c22646981527f73706c61795f74797065223a2264617465222c2276616c7565223a00000000006020820152611eeb603b8201866118b4565b607d60f81b8152905060018101611f12611f0582876118b4565b605d60f81b815260010190565b9a9950505050505050505050565b634e487b7160e01b5f52601160045260245ffd5b808202811582820484141761097f5761097f611f20565b8082018082111561097f5761097f611f20565b7477696e646f772e4c4553535f544f4b454e5f49443d60581b81525f611f8760158301856118b4565b721dbbb4b73237bb972622a9a9afa9a2a2a21e9160691b8152611fad60138201856118b4565b61223b60f01b81526002019594505050505056fe3c6d65746120636861727365743d227574662d38223e3c6d657461206e616d653d2276696577706f72742220636f6e74656e743d2277696474683d6465766963652d77696474682c696e697469616c2d7363616c653d31223e6c65737320697320612067656e657261746976652061727420636f6c6c656374696f6e207469656420746f20612072656375727369766520737472617465677920746f6b656e2e204561636820746f6b656e20726570726573656e7473206120666f6c64206576656e74202d2061206d6f6d656e74207768656e2074686520737472617465677920626f7567687420616e64206275726e656420697473206f776e20737570706c792e205468652076697375616c2069732067656e6572617465642062792073696d756c6174696e6720706170657220666f6c64696e672c2064726177696e67206f6e6c7920776865726520666f6c64206c696e657320696e746572736563742ea2646970667358221220d06ed081826f34a7771c22616d5637175699f1e7c11509a90eb44d359da3623664736f6c634300081a0033","linkReferences":{}},"methodIdentifiers":{"DESCRIPTION()":"f1ae8856","baseImageURL()":"1b109d9c","cancelOwnershipHandover()":"54d1f13d","completeOwnershipHandover(address)":"f04e283e","contractURI()":"e8a3d485","less()":"d0b42373","owner()":"8da5cb5b","ownershipHandoverExpiresAt(address)":"fee81cf4","renounceOwnership()":"715018a6","requestOwnershipHandover()":"25692962","scriptName()":"11fd1965","scriptyBuilder()":"91a0d36d","scriptyStorage()":"0ac49cc2","setBaseImageURL(string)":"59146e1c","setLessContract(address)":"52ce6116","setScriptName(string)":"196fc2b8","setScriptyBuilder(address)":"7f749003","setScriptyStorage(address)":"56a3aec4","tokenURI(uint256)":"c87b56dd","transferOwnership(address)":"f2fde38b"},"id":3}