{"abi":[{"type":"constructor","inputs":[{"name":"config","type":"tuple","internalType":"struct LessRenderer.RendererConfig","components":[{"name":"less","type":"address","internalType":"address"},{"name":"scriptyBuilder","type":"address","internalType":"address"},{"name":"scriptyStorage","type":"address","internalType":"address"},{"name":"scriptName","type":"string","internalType":"string"},{"name":"baseImageURL","type":"string","internalType":"string"},{"name":"collectionName","type":"string","internalType":"string"},{"name":"description","type":"string","internalType":"string"},{"name":"collectionImage","type":"string","internalType":"string"},{"name":"externalLink","type":"string","internalType":"string"},{"name":"owner","type":"address","internalType":"address"}]}],"stateMutability":"nonpayable"},{"type":"function","name":"baseImageURL","inputs":[],"outputs":[{"name":"","type":"string","internalType":"string"}],"stateMutability":"view"},{"type":"function","name":"cancelOwnershipHandover","inputs":[],"outputs":[],"stateMutability":"payable"},{"type":"function","name":"collectionImage","inputs":[],"outputs":[{"name":"","type":"string","internalType":"string"}],"stateMutability":"view"},{"type":"function","name":"collectionName","inputs":[],"outputs":[{"name":"","type":"string","internalType":"string"}],"stateMutability":"view"},{"type":"function","name":"completeOwnershipHandover","inputs":[{"name":"pendingOwner","type":"address","internalType":"address"}],"outputs":[],"stateMutability":"payable"},{"type":"function","name":"contractURI","inputs":[],"outputs":[{"name":"","type":"string","internalType":"string"}],"stateMutability":"view"},{"type":"function","name":"description","inputs":[],"outputs":[{"name":"","type":"string","internalType":"string"}],"stateMutability":"view"},{"type":"function","name":"externalLink","inputs":[],"outputs":[{"name":"","type":"string","internalType":"string"}],"stateMutability":"view"},{"type":"function","name":"less","inputs":[],"outputs":[{"name":"","type":"address","internalType":"address"}],"stateMutability":"view"},{"type":"function","name":"owner","inputs":[],"outputs":[{"name":"result","type":"address","internalType":"address"}],"stateMutability":"view"},{"type":"function","name":"ownershipHandoverExpiresAt","inputs":[{"name":"pendingOwner","type":"address","internalType":"address"}],"outputs":[{"name":"result","type":"uint256","internalType":"uint256"}],"stateMutability":"view"},{"type":"function","name":"renounceOwnership","inputs":[],"outputs":[],"stateMutability":"payable"},{"type":"function","name":"requestOwnershipHandover","inputs":[],"outputs":[],"stateMutability":"payable"},{"type":"function","name":"scriptName","inputs":[],"outputs":[{"name":"","type":"string","internalType":"string"}],"stateMutability":"view"},{"type":"function","name":"scriptyBuilder","inputs":[],"outputs":[{"name":"","type":"address","internalType":"address"}],"stateMutability":"view"},{"type":"function","name":"scriptyStorage","inputs":[],"outputs":[{"name":"","type":"address","internalType":"address"}],"stateMutability":"view"},{"type":"function","name":"setBaseImageURL","inputs":[{"name":"_baseImageURL","type":"string","internalType":"string"}],"outputs":[],"stateMutability":"nonpayable"},{"type":"function","name":"setLessContract","inputs":[{"name":"_less","type":"address","internalType":"address"}],"outputs":[],"stateMutability":"nonpayable"},{"type":"function","name":"setMetadata","inputs":[{"name":"_collectionName","type":"string","internalType":"string"},{"name":"_description","type":"string","internalType":"string"},{"name":"_collectionImage","type":"string","internalType":"string"},{"name":"_externalLink","type":"string","internalType":"string"}],"outputs":[],"stateMutability":"nonpayable"},{"type":"function","name":"setScriptName","inputs":[{"name":"_scriptName","type":"string","internalType":"string"}],"outputs":[],"stateMutability":"nonpayable"},{"type":"function","name":"setScriptyBuilder","inputs":[{"name":"_scriptyBuilder","type":"address","internalType":"address"}],"outputs":[],"stateMutability":"nonpayable"},{"type":"function","name":"setScriptyStorage","inputs":[{"name":"_scriptyStorage","type":"address","internalType":"address"}],"outputs":[],"stateMutability":"nonpayable"},{"type":"function","name":"tokenURI","inputs":[{"name":"tokenId","type":"uint256","internalType":"uint256"}],"outputs":[{"name":"","type":"string","internalType":"string"}],"stateMutability":"view"},{"type":"function","name":"transferOwnership","inputs":[{"name":"newOwner","type":"address","internalType":"address"}],"outputs":[],"stateMutability":"payable"},{"type":"event","name":"BaseImageURLUpdated","inputs":[{"name":"newURL","type":"string","indexed":false,"internalType":"string"}],"anonymous":false},{"type":"event","name":"LessContractUpdated","inputs":[{"name":"newLess","type":"address","indexed":false,"internalType":"address"}],"anonymous":false},{"type":"event","name":"MetadataUpdated","inputs":[{"name":"collectionName","type":"string","indexed":false,"internalType":"string"},{"name":"description","type":"string","indexed":false,"internalType":"string"},{"name":"collectionImage","type":"string","indexed":false,"internalType":"string"},{"name":"externalLink","type":"string","indexed":false,"internalType":"string"}],"anonymous":false},{"type":"event","name":"OwnershipHandoverCanceled","inputs":[{"name":"pendingOwner","type":"address","indexed":true,"internalType":"address"}],"anonymous":false},{"type":"event","name":"OwnershipHandoverRequested","inputs":[{"name":"pendingOwner","type":"address","indexed":true,"internalType":"address"}],"anonymous":false},{"type":"event","name":"OwnershipTransferred","inputs":[{"name":"oldOwner","type":"address","indexed":true,"internalType":"address"},{"name":"newOwner","type":"address","indexed":true,"internalType":"address"}],"anonymous":false},{"type":"event","name":"ScriptNameUpdated","inputs":[{"name":"newName","type":"string","indexed":false,"internalType":"string"}],"anonymous":false},{"type":"event","name":"ScriptyBuilderUpdated","inputs":[{"name":"newBuilder","type":"address","indexed":false,"internalType":"address"}],"anonymous":false},{"type":"event","name":"ScriptyStorageUpdated","inputs":[{"name":"newStorage","type":"address","indexed":false,"internalType":"address"}],"anonymous":false},{"type":"error","name":"AlreadyInitialized","inputs":[]},{"type":"error","name":"NewOwnerIsZeroAddress","inputs":[]},{"type":"error","name":"NoHandoverRequest","inputs":[]},{"type":"error","name":"Unauthorized","inputs":[]}],"bytecode":{"object":"0x6080604052346109d357613d9880380380610019816109d7565b9283398101906020818303126109d3578051906001600160401b0382116109d35701610140818303126109d35760405161014081016001600160401b0381118282101761056b5760405261006c826109fc565b815261007a602083016109fc565b6020820190815261008d604084016109fc565b6040830190815260608401516001600160401b0381116109d357856100b3918601610a10565b6060840190815260808501516001600160401b0381116109d357866100d9918701610a10565b6080850190815260a08601519091906001600160401b0381116109d35787610102918801610a10565b60a0860190815260c08701519093906001600160401b0381116109d3578861012b918901610a10565b60c0870190815260e08801519095906001600160401b0381116109d35789610154918a01610a10565b60e0880190815261010089015190996001600160401b0382116109d35761018361012091610192938c01610a10565b996101008a019a8b52016109fc565b610120880190815296515f80546001600160a01b039283166001600160a01b031991821617909155915160018054918316918416919091179055915160028054919093169116179055518051906001600160401b03821161056b5760035490600182811c921680156109c9575b602083101461054d5781601f84931161095b575b50602090601f83116001146108f5575f926108ea575b50508160011b915f199060031b1c1916176003555b518051906001600160401b03821161056b5760045490600182811c921680156108e0575b602083101461054d5781601f849311610872575b50602090601f831160011461080c575f92610801575b50508160011b915f199060031b1c1916176004555b518051906001600160401b03821161056b5760055490600182811c921680156107f7575b602083101461054d5781601f8493116107a6575b50602090601f8311600114610740575f92610735575b50508160011b915f199060031b1c1916176005555b5180519093906001600160401b03811161056b57600654600181811c9116801561072b575b602082101461054d57601f81116106c8575b50602094601f8211600114610665579481929394955f9261065a575b50508160011b915f199060031b1c1916176006555b5180519092906001600160401b03811161056b57600754600181811c91168015610650575b602082101461054d57601f81116105ed575b506020601f821160011461058a57819293945f9261057f575b50508160011b915f199060031b1c1916176007555b5180519091906001600160401b03811161056b57600854600181811c91168015610561575b602082101461054d57601f81116104ea575b50602092601f821160011461048957928192935f9261047e575b50508160011b915f199060031b1c1916176008555b516001600160a01b0316638b78c6d8198190555f7f8be0079c531659141344cd1fd0a4f28419497f9722a3daafe3b4186f6b6457e08180a36040516133369081610a628239f35b015190505f80610422565b601f1982169360085f52805f20915f5b8681106104d257508360019596106104ba575b505050811b01600855610437565b01515f1960f88460031b161c191690555f80806104ac565b91926020600181928685015181550194019201610499565b60085f527ff3f7a9fe364faab93b216da50a3214154f22a0a2b415b23a84c8169e8b636ee3601f830160051c81019160208410610543575b601f0160051c01905b8181106105385750610408565b5f815560010161052b565b9091508190610522565b634e487b7160e01b5f52602260045260245ffd5b90607f16906103f6565b634e487b7160e01b5f52604160045260245ffd5b015190505f806103bc565b601f1982169060075f52805f20915f5b8181106105d5575095836001959697106105bd575b505050811b016007556103d1565b01515f1960f88460031b161c191690555f80806105af565b9192602060018192868b01518155019401920161059a565b60075f527fa66cc928b5edb82af9bd49922954155ab7b0942694bea4ce44661d9a8736c688601f830160051c81019160208410610646575b601f0160051c01905b81811061063b57506103a3565b5f815560010161062e565b9091508190610625565b90607f1690610391565b015190505f80610357565b601f1982169560065f52805f20915f5b8881106106b057508360019596979810610698575b505050811b0160065561036c565b01515f1960f88460031b161c191690555f808061068a565b91926020600181928685015181550194019201610675565b60065f527ff652222313e28459528d920b65115c16c04f3efc82aaedc97be59f3f377c0d3f601f830160051c81019160208410610721575b601f0160051c01905b818110610716575061033b565b5f8155600101610709565b9091508190610700565b90607f1690610329565b015190505f806102ef565b60055f9081528281209350601f198516905b81811061078e5750908460019594939210610776575b505050811b01600555610304565b01515f1960f88460031b161c191690555f8080610768565b92936020600181928786015181550195019301610752565b90915060055f5260205f20601f840160051c810191602085106107ed575b90601f859493920160051c01905b8181106107df57506102d9565b5f81558493506001016107d2565b90915081906107c4565b91607f16916102c5565b015190505f8061028c565b60045f9081528281209350601f198516905b81811061085a5750908460019594939210610842575b505050811b016004556102a1565b01515f1960f88460031b161c191690555f8080610834565b9293602060018192878601518155019501930161081e565b60045f529091507f8a35acfbc15ff81a39ae7d344fd709f28e8600b4aa8c65c6b64bfe7fe36bd19b601f840160051c810191602085106108d6575b90601f859493920160051c01905b8181106108c85750610276565b5f81558493506001016108bb565b90915081906108ad565b91607f1691610262565b015190505f80610229565b60035f9081528281209350601f198516905b818110610943575090846001959493921061092b575b505050811b0160035561023e565b01515f1960f88460031b161c191690555f808061091d565b92936020600181928786015181550195019301610907565b60035f529091507fc2575a0e9e593c00f959f8c92f12db2869c3395a3b0502d05e2516446f71f85b601f840160051c810191602085106109bf575b90601f859493920160051c01905b8181106109b15750610213565b5f81558493506001016109a4565b9091508190610996565b91607f16916101ff565b5f80fd5b6040519190601f01601f191682016001600160401b0381118382101761056b57604052565b51906001600160a01b03821682036109d357565b81601f820112156109d3578051906001600160401b03821161056b57610a3f601f8301601f19166020016109d7565b92828452602083830101116109d357815f9260208093018386015e830101529056fe6080806040526004361015610012575f80fd5b5f3560e01c9081630ac49cc214611d675750806311fd196514611d4c578063196fc2b814611b875780631b109d9c14611af55780632569296214611aac5780634734e13c146114b557806352ce61161461144957806354d1f13d14611405578063555306141461137357806356a3aec41461130657806359146e1c1461113c5780635b9db898146110aa578063715018a6146110615780637284e41614610fcf5780637f74900314610f625780638da5cb5b14610f3657806391a0d36d14610f0e578063c87b56dd1461068c578063d0b4237314610665578063e5326ab1146105ae578063e8a3d48514610205578063f04e283e146101ad578063f2fde38b146101655763fee81cf414610124575f80fd5b34610161576020366003190112610161576004356001600160a01b03811681036101615763389a75e1600c525f52602080600c2054604051908152f35b5f80fd5b6020366003190112610161576004356001600160a01b03811681036101615761018c611fb6565b8060601b156101a05761019e90611fd2565b005b637448fbae5f526004601cfd5b6020366003190112610161576004356001600160a01b0381168103610161576101d4611fb6565b63389a75e1600c52805f526020600c2090815442116101f8575f61019e9255611fd2565b636f5e88185f526004601cfd5b34610161575f36600319011261016157604051683d913730b6b2911d1160b91b6020820152805f60055461023881611d8a565b906001811690811561058b5750600114610544575b50701116113232b9b1b934b83a34b7b7111d1160791b815261027190601101611f42565b6a11161134b6b0b3b2911d1160a91b81526007545f9161029082611d8a565b916001811690811561052657506001146104df575b50507211161132bc3a32b93730b62fb634b735911d1160691b81526008545f916102ce82611d8a565b91600181169081156104b9575060011461046d575b505061227d60f01b815203601d19810182526103029060020182611df8565b806060918151908161037d575b6103796020610365603d876040519384917f646174613a6170706c69636174696f6e2f6a736f6e3b6261736536342c000000828401528051918291018484015e81015f838201520301601f198101835282611df8565b604051918291602083526020830190611ebd565b0390f35b909192506003600283010460021b906040517f4142434445464748494a4b4c4d4e4f505152535455565758595a616263646566601f526106707f6768696a6b6c6d6e6f707172737475767778797a303132333435363738392d5f18603f5260208101928082019260208681860198010194600460038751935f89525b0191603f8351818160121c16515f538181600c1c1651600153818160061c165160025316516003535f51815201908882101561043a576004906003906103f9565b5061037997506020966040603d965f946103659952016040526003613d3d60f01b9106600204820352528152935061030f565b60085f90815291939250905f805160206132a18339815191525b84821061049f575091920160130190508160026102e3565b805460138385010152859350602090910190600101610487565b60029450601392915092610302959360ff191683830152801515020101918193506102e3565b60075f908152919250905f805160206132818339815191525b83821061050c57505001600b0183806102a5565b8054600b83850101528594506020909101906001016104f8565b9050600b935060ff92919219168383015280151502010183806102a5565b60055f9081529091505f805160206132418339815191525b8282106105715750508101602901601161024d565b80546029838701015284935060209091019060010161055c565b6102719350602991509160119260ff19168286015280151502840101915061024d565b34610161575f366003190112610161576040515f6005546105ce81611d8a565b808452906001811690811561064157506001146105f6575b6103798361036581850382611df8565b60055f9081525f80516020613241833981519152939250905b808210610627575090915081016020016103656105e6565b91926001816020925483858801015201910190929161060f565b60ff191660208086019190915291151560051b8401909101915061036590506105e6565b34610161575f366003190112610161575f546040516001600160a01b039091168152602090f35b34610161576020366003190112610161575f5460405163b09afec160e01b81526004803590820181905290916001600160a01b0316602083602481845afa928315610e8d575f93610e98575b509160206024936040519485809263e0d4ea3760e01b82528660048301525afa928315610e8d575f93610e59575b5061071c6001600160401b0382511684846121c1565b9061072683612b56565b90604051908160208101935f60045461073e81611d8a565b9060018116908115610e415750600114610df7575b5081516020819301825e01632e706e6760e01b815203601b198101835260040161077d9083611df8565b61078686612bb8565b979192516001600160401b031661079c90612b56565b906107a683612d87565b906107b084612edb565b946107ba85612ff7565b9160ff166107c790612b56565b906107d186613156565b9260405197889560208701977f5b7b2274726169745f74797065223a22466f6c6473222c2276616c7565223a00895280516020819201603f8a015e8701603f81017f7d2c7b2274726169745f74797065223a22466f6c64205374726174656779222c905268113b30b63ab2911d1160b91b605f82015281516020819301606883015e01603f01602981017f227d2c7b2274726169745f74797065223a2252656e646572204d6f6465222c229052673b30b63ab2911d1160c11b604982015281516020819301605183015e01602901602881017f227d2c7b2274726169745f74797065223a224472617720446972656374696f6e90526a1116113b30b63ab2911d1160a91b604882015281516020819301605383015e01602801602b81017f227d2c7b2274726169745f74797065223a2250616c65747465222c2276616c7590526332911d1160e11b604b82015281516020819301604f83015e01602b01602481017f227d2c7b2274726169745f74797065223a22436f6c6f7220436f756e74222c229052663b30b63ab2911d60c91b604482015281516020819301604b83015e01602401602781017f7d2c7b2274726169745f74797065223a2250617065722054797065222c227661905265363ab2911d1160d11b604782015281516020819301604d83015e0160270161227d60f01b602682015203602601601d19810184526002016109de9084611df8565b829160c01c637fffffff9006926115b38401808511610c9f57610a03610a089161321e565b61321e565b606481029080820460641490151715610c9f57637fffffff60289104105f14610d8b575050610a92602d602080936040519481869251918291018484015e81017f2c7b2274726169745f74797065223a22506170657220477261696e222c227661838201526c6c7565223a22477261696e227d60981b60408201520301600d810184520182611df8565b955b6123e78201808311610c9f57610aa99061321e565b6103e88102908082046103e81490151715610c9f57637fffffff6008910410610d1c575b610cb3575b6122b88101809111610c9f57610ae79061321e565b6103e88102908082046103e81490151715610c9f5760209561030295600195600f956008637fffffff6013960410610c2b575b600b918a91610b5a60405195610b558c8689818082019c8d815192839201905e8101605d60f81b838201520301601e1981018a520188611df8565b612b56565b604080516e7b226e616d65223a226c657373202360881b8f8201528251909e8f9b93610bac939291829101602f8e015e8b01701116113232b9b1b934b83a34b7b7111d1160791b602f82015201611f42565b6a11161134b6b0b3b2911d1160a91b815290519182908683015e01907211161130b734b6b0ba34b7b72fbab936111d1160691b84830152805192839101601e83015e0101906e11161130ba3a3934b13aba32b9911d60891b84830152518092602283015e0101607d60f81b838201520301601e19810184520182611df8565b92600b918a610c95602e8280956040519481869251918291018484015e81017f2c7b2274726169745f74797065223a2248697420436f756e7473222c2276616c838201526d7565223a2256697369626c65227d60901b60408201520301600e810184520182611df8565b9491509150610b1a565b634e487b7160e01b5f52601160045260245ffd5b94610d16602a602080936040519481869251918291018484015e81017f2c7b2274726169745f74797065223a224d6f6e6f6368726f6d65222c2276616c83820152697565223a22596573227d60b01b60408201520301600a810184520182611df8565b94610ad2565b95610d856030602080936040519481869251918291018484015e81017f2c7b2274726169745f74797065223a22437265617365204c696e6573222c2276838201526f616c7565223a2256697369626c65227d60801b604082015203016010810184520182611df8565b95610acd565b610df19192506020602f916040519485915180918484015e81017f2c7b2274726169745f74797065223a22506170657220477261696e222c227661838201526e6c7565223a22556e69666f726d227d60881b60408201520301600f810184520182611df8565b95610a94565b60045f9081529091505f805160206132e18339815191525b828210610e23575050820160200189610753565b60209192939450806001915483858a01015201910185939291610e0f565b60ff1916885250801515028301602001905089610753565b9092506020813d602011610e85575b81610e7560209383611df8565b8101031261016157519183610706565b3d9150610e68565b6040513d5f823e3d90fd5b92506020833d602011610f06575b81610eb360209383611df8565b810103126101615760405192602084018481106001600160401b03821117610ef257604052516001600160401b038116810361016157835260206106d8565b634e487b7160e01b5f52604160045260245ffd5b3d9150610ea6565b34610161575f366003190112610161576001546040516001600160a01b039091168152602090f35b34610161575f36600319011261016157638b78c6d819546040516001600160a01b039091168152602090f35b34610161576020366003190112610161576004356001600160a01b038116908190036101615760207fd566016c5f23fe52a44459d0ca08c2b81f8411b49f6bbe69ea100611564bb6c591610fb4611fb6565b600180546001600160a01b03191682179055604051908152a1005b34610161575f366003190112610161576040515f600654610fef81611d8a565b80845290600181169081156106415750600114611016576103798361036581850382611df8565b60065f9081525f805160206132c1833981519152939250905b808210611047575090915081016020016103656105e6565b91926001816020925483858801015201910190929161102f565b5f36600319011261016157611074611fb6565b5f638b78c6d819547f8be0079c531659141344cd1fd0a4f28419497f9722a3daafe3b4186f6b6457e08280a35f638b78c6d81955005b34610161575f366003190112610161576040515f6008546110ca81611d8a565b808452906001811690811561064157506001146110f1576103798361036581850382611df8565b60085f9081525f805160206132a1833981519152939250905b808210611122575090915081016020016103656105e6565b91926001816020925483858801015201910190929161110a565b34610161576020366003190112610161576004356001600160401b0381116101615761116c903690600401611efc565b611174611fb6565b80516001600160401b038111610ef25761118f600454611d8a565b601f811161129e575b506020601f821160011461120c5791816111fc927f95a50c186d5919be7ba2143bdf89abefc2588e9f86b6eba993901b4d9f416bed945f91611201575b508160011b915f199060031b1c191617600455604051918291602083526020830190611ebd565b0390a1005b9050820151856111d5565b601f1982169060045f525f805160206132e1833981519152915f5b8181106112865750927f95a50c186d5919be7ba2143bdf89abefc2588e9f86b6eba993901b4d9f416bed9492600192826111fc961061126e575b5050811b01600455610365565b8401515f1960f88460031b161c191690558580611261565b91926020600181928689015181550194019201611227565b60045f52601f820160051c5f805160206132e18339815191520190602083106112f1575b601f0160051c5f805160206132e183398151915201905b8181106112e65750611198565b5f81556001016112d9565b5f805160206132e183398151915291506112c2565b34610161576020366003190112610161576004356001600160a01b038116908190036101615760207f70b12b6b8b6663fb182e440a56a9dba909b7d27f6773be8e1c1f9f8487c229c191611358611fb6565b600280546001600160a01b03191682179055604051908152a1005b34610161575f366003190112610161576040515f60075461139381611d8a565b808452906001811690811561064157506001146113ba576103798361036581850382611df8565b60075f9081525f80516020613281833981519152939250905b8082106113eb575090915081016020016103656105e6565b9192600181602092548385880101520191019092916113d3565b5f3660031901126101615763389a75e1600c52335f525f6020600c2055337ffa7b8eab7da67f412cc9575ed43464468f9bfbae89d1675917346ca6d8fe3c925f80a2005b34610161576020366003190112610161576004356001600160a01b038116908190036101615760207fce24e5f855311c580478bc708feb6da3421628f56b822b39e8a209e80f05a7199161149b611fb6565b5f80546001600160a01b03191682179055604051908152a1005b34610161576080366003190112610161576004356001600160401b038111610161576114e5903690600401611efc565b6024356001600160401b03811161016157611504903690600401611efc565b906044356001600160401b03811161016157611524903690600401611efc565b6064356001600160401b03811161016157611543903690600401611efc565b9261154c611fb6565b82516001600160401b038111610ef257611567600554611d8a565b601f8111611a44575b50806020601f82116001146119d5575f916119ca575b508160011b915f199060031b1c1916176005555b80516001600160401b038111610ef2576115b5600654611d8a565b601f8111611962575b50806020601f82116001146118f3575f916118e8575b508160011b915f199060031b1c1916176006555b81516001600160401b038111610ef257611603600754611d8a565b601f8111611880575b50806020601f8211600114611811575f91611806575b508160011b915f199060031b1c1916176007555b83516001600160401b038111610ef257611651600854611d8a565b601f811161179e575b506020601f8211600114611700576116cb94936116d96111fc94847f98b21c2a9353876752fe6fb3979aef527197201e88d11594070edd46f90e001c99956116e7955f916116f5575b508160011b915f199060031b1c1916176008555b604051978897608089526080890190611ebd565b908782036020890152611ebd565b908582036040870152611ebd565b908382036060850152611ebd565b90508601518b6116a3565b601f1982169060085f525f805160206132a1833981519152915f5b81811061178657506111fc946001856116e7956116cb9a99957f98b21c2a9353876752fe6fb3979aef527197201e88d11594070edd46f90e001c9c986116d9961061176e575b5050811b016008556116b7565b8801515f1960f88460031b161c191690558b80611761565b9192602060018192868c01518155019401920161171b565b60085f52601f820160051c5f805160206132a18339815191520190602083106117f1575b601f0160051c5f805160206132a183398151915201905b8181106117e6575061165a565b5f81556001016117d9565b5f805160206132a183398151915291506117c2565b905083015186611622565b60075f9081525f805160206132818339815191529250601f198416905b81811061186857509083600194939210611850575b5050811b01600755611636565b8501515f1960f88460031b161c191690558680611843565b9192602060018192868a01518155019401920161182e565b60075f52601f820160051c5f805160206132818339815191520190602083106118d3575b601f0160051c5f8051602061328183398151915201905b8181106118c8575061160c565b5f81556001016118bb565b5f8051602061328183398151915291506118a4565b9050820151866115d4565b60065f9081525f805160206132c18339815191529250601f198416905b81811061194a57509083600194939210611932575b5050811b016006556115e8565b8401515f1960f88460031b161c191690558680611925565b91926020600181928689015181550194019201611910565b60065f52601f820160051c5f805160206132c18339815191520190602083106119b5575b601f0160051c5f805160206132c183398151915201905b8181106119aa57506115be565b5f815560010161199d565b5f805160206132c18339815191529150611986565b905084015186611586565b60055f9081525f805160206132418339815191529250601f198416905b818110611a2c57509083600194939210611a14575b5050811b0160055561159a565b8601515f1960f88460031b161c191690558680611a07565b9192602060018192868b0151815501940192016119f2565b60055f52601f820160051c5f80516020613241833981519152019060208310611a97575b601f0160051c5f8051602061324183398151915201905b818110611a8c5750611570565b5f8155600101611a7f565b5f805160206132418339815191529150611a68565b5f3660031901126101615763389a75e1600c52335f526202a30042016020600c2055337fdbf36a107da19e49527a7176a1babf963b4b0ff8cde35ee35d6cd8f1f9ac7e1d5f80a2005b34610161575f366003190112610161576040515f600454611b1581611d8a565b80845290600181169081156106415750600114611b3c576103798361036581850382611df8565b60045f9081525f805160206132e1833981519152939250905b808210611b6d575090915081016020016103656105e6565b919260018160209254838588010152019101909291611b55565b34610161576020366003190112610161576004356001600160401b03811161016157611bb7903690600401611efc565b611bbf611fb6565b80516001600160401b038111610ef257611bda600354611d8a565b601f8111611ce4575b506020601f8211600114611c525791816111fc927f5415d426c4f141f128a11fca1a090008f54e065574159e10ed1447ef2fd6e2ec945f91611c47575b508160011b915f199060031b1c191617600355604051918291602083526020830190611ebd565b905082015185611c20565b601f1982169060035f525f80516020613261833981519152915f5b818110611ccc5750927f5415d426c4f141f128a11fca1a090008f54e065574159e10ed1447ef2fd6e2ec9492600192826111fc9610611cb4575b5050811b01600355610365565b8401515f1960f88460031b161c191690558580611ca7565b91926020600181928689015181550194019201611c6d565b60035f52601f820160051c5f80516020613261833981519152019060208310611d37575b601f0160051c5f8051602061326183398151915201905b818110611d2c5750611be3565b5f8155600101611d1f565b5f805160206132618339815191529150611d08565b34610161575f36600319011261016157610379610365611e19565b34610161575f366003190112610161576002546001600160a01b03168152602090f35b90600182811c92168015611db8575b6020831014611da457565b634e487b7160e01b5f52602260045260245ffd5b91607f1691611d99565b604081019081106001600160401b03821117610ef257604052565b60e081019081106001600160401b03821117610ef257604052565b90601f801991011681019081106001600160401b03821117610ef257604052565b604051905f8260035491611e2c83611d8a565b8083529260018116908115611e9e5750600114611e52575b611e5092500383611df8565b565b5060035f90815290915f805160206132618339815191525b818310611e82575050906020611e5092820101611e44565b6020919350806001915483858901015201910190918492611e6a565b60209250611e5094915060ff191682840152151560051b820101611e44565b805180835260209291819084018484015e5f828201840152601f01601f1916010190565b6001600160401b038111610ef257601f01601f191660200190565b81601f8201121561016157803590611f1382611ee1565b92611f216040519485611df8565b8284526020838301011161016157815f926020809301838601378301015290565b6006545f9291611f5182611d8a565b9160018116908115611fa45750600114611f69575050565b60065f90815292935090915f805160206132c18339815191525b838210611f905750500190565b600181602092548486015201910190611f83565b60ff1916825250811515909102019150565b638b78c6d819543303611fc557565b6382b429005f526004601cfd5b60018060a01b031680638b78c6d819547f8be0079c531659141344cd1fd0a4f28419497f9722a3daafe3b4186f6b6457e05f80a3638b78c6d81955565b602081830312610161578051906001600160401b038211610161570181601f820112156101615760208151910161204582611ee1565b926120536040519485611df8565b8284528282011161016157815f926020928386015e8301015290565b9080602083519182815201906020808260051b8501019401925f905b82821061209a57505050505090565b9091929394601f198282030185528551906120e56120c1835160e0845260e0840190611ebd565b60018060a01b03602085015116602084015260408401518382036040850152611ebd565b6060830151906005821015612150576001938360c0612132612120612143956020989760608a99015260808601518582036080870152611ebd565b60a085015184820360a0860152611ebd565b9201519060c0818403910152611ebd565b970195019392019061208b565b634e487b7160e01b5f52602160045260245ffd5b90612199916020815260206121848351604083850152606084019061206f565b920151906040601f198285030191015261206f565b90565b9081518110156121ad570160200190565b634e487b7160e01b5f52603260045260245ffd5b91606060206040516121d281611dc2565b82815201526040519060606121e78184611df8565b60028352601f19015f5b818110612b105750506040519061220782611ddd565b61230b60209560405161221a8882611df8565b5f815284525f878501526040516122318882611df8565b5f815260408501525f606085015260809360405161224f8682611df8565b605981527f3c6d65746120636861727365743d227574662d38223e3c6d657461206e616d65898201527f3d2276696577706f72742220636f6e74656e743d2277696474683d646576696360408201527f652d77696474682c696e697469616c2d7363616c653d31223e000000000000006060820152858201526040516122d58982611df8565b5f815260a08201526040516122ea8982611df8565b5f815260c08201526122fb86612b9b565b5261230585612b9b565b50612b56565b9060409485519161231c8784611df8565b601083526f181899199a1a9b1b9c1cb0b131b232b360811b888401528651926123458685611df8565b6042845288840192601f1987013685378451156121ad57603084538451600110156121ad579084939291607860218c989701535f5b878110612a72575050509260138560019460356014956123a56001600160401b0361243d9a16612b56565b928d519a8b977477696e646f772e4c4553535f544f4b454e5f49443d60581b828a0152805191829101858a015e870190721dbbb4b73237bb972622a9a9afa9a2a2a21e9160691b84830152518092604883015e01019073223b77696e646f772e464f4c445f434f554e543d60601b84830152805192839101602783015e0101603b60f81b838201520301601e19810184520182611df8565b83519061244982611ddd565b84516124558782611df8565b5f815282525f86830152845161246b8782611df8565b5f8152858301525f606083015284516124848682611df8565b60088152671e39b1b934b83a1f60c11b878201528383015284516124a88682611df8565b60098152681e17b9b1b934b83a1f60b91b8782015260a083015260c08201526124d083612ba8565b526124da82612ba8565b50825190602085016124ec8184611df8565b60018352601f1901855f5b828110612a3057505060025485519291506001600160a01b031661251a83611ddd565b612522611e19565b83528683015284516125348782611df8565b5f8152858301526001606083015284519061254f8783611df8565b5f825282015283516125618682611df8565b5f815260a082015283516125758682611df8565b5f815260c082015261258682612b9b565b5261259081612b9b565b5082519161259d83611dc2565b8252838201526001548251635448d9af60e11b81526001600160a01b03909116905f81806125ce8660048301612164565b0381855afa5f9181612a14575b5061291e57508251632bee680760e01b81525f81806125fd8660048301612164565b0381855afa5f9181612902575b506128b657508251636af6c46760e11b81525f818061262c8660048301612164565b0381855afa5f918161289a575b5061283e575061265f915f9184518080958194633eddc85160e11b835260048301612164565b03915afa5f918161281a575b506126da57815162461bcd60e51b815260048101849052603d60248201527f536372697074794275696c6465723a20496e74657266616365206d69736d617460448201527f63682e20436865636b20636f6e74726163742066756e6374696f6e732e0000006064820152608490fd5b908160609281519081612734575b50505061219991603691519384917519185d184e9d195e1d0bda1d1b5b0ed8985cd94d8d0b60521b828401528051918291018484015e81015f838201520301601f198101835282611df8565b919350916003600284010460021b8151927f4142434445464748494a4b4c4d4e4f505152535455565758595a616263646566601f526106707f6768696a6b6c6d6e6f707172737475767778797a303132333435363738392d5f18603f528684019582850195888181890193010197600460038a51955f8c525b0191603f8351818160121c16515f538181600c1c1651600153818160061c165160025316516003535f5181520190838210156127ee576004906003906127ad565b509150846036975f946121999a520185526003613d3d60f01b91066002048203525282529181936126e8565b6128379192503d805f833e61282f8183611df8565b81019061200f565b905f61266b565b9291505081606092815190816127345750505061219991603691519384917519185d184e9d195e1d0bda1d1b5b0ed8985cd94d8d0b60521b828401528051918291018484015e81015f838201520301601f198101835282611df8565b6128af9192503d805f833e61282f8183611df8565b905f612639565b90506036915061219992519384917519185d184e9d195e1d0bda1d1b5b0ed8985cd94d8d0b60521b828401528051918291018484015e81015f838201520301601f198101835282611df8565b6129179192503d805f833e61282f8183611df8565b905f61260a565b9150505f9291925082516129328482611df8565b601681527519185d184e9d195e1d0bda1d1b5b0ed8985cd94d8d0b60521b838201526016825110156129aa575b506036906121999293519384917519185d184e9d195e1d0bda1d1b5b0ed8985cd94d8d0b60521b828401528051918291018484015e81015f838201520301601f198101835282611df8565b926001935f5b8151811015612a0a576001600160f81b03196129cc828661219c565b51166001600160f81b03196129e1838561219c565b5116036129f0576001016129b0565b5050909192505f5b612a045791905f61295f565b50905090565b50509091926129f8565b612a299192503d805f833e61282f8183611df8565b905f6125db565b8651612a3b81611ddd565b606081525f838201526060888201525f6060820152606085820152606060a0820152606060c08201528282870101520186906124f7565b95965093949293919290919081811a906001600160f81b0319612a9c600484901c600f168661219c565b5116918160011b9282840460021483151715610c9f57836002019081600211610c9f57612acc905f1a918a61219c565b536001600160f81b031990612ae490600f168661219c565b51169160030180600311610c9f57612b016001935f1a918961219c565b5301908a96959493929161237a565b602090604051612b1f81611ddd565b606081525f83820152606060408201525f606082015260606080820152606060a0820152606060c0820152828287010152016121f1565b90604051600a608082019360a083016040525f8552935b5f190193603082820601855304928315612b8957600a90612b6d565b809350608091030191601f1901918252565b8051156121ad5760200190565b8051600110156121ad5760400190565b637fffffff612bca9160c01c0661321e565b620f42408102818104620f42401482151715610c9f57637fffffff6201d4c0910410612d3257610a03612bfc9161321e565b90620f42408202828104620f42401483151715610c9f57637fffffff900462061a80811015612c8d5750612c52610a03604051612c3a604082611df8565b600581526456616c756560d81b60208201529361321e565b620f4240810290808204620f42401490151715610c9f57637fffffff62061a809104105f14612c85576002915b91905f90565b600391612c7f565b620a6040811015612ccb5750612c52610a03604051612cad604082611df8565b600b81526a54656d706572617475726560a81b60208201529361321e565b620dbba01115612d0657612c52610a03604051612ce9604082611df8565b600a81526910dbdb5c1b195b595b9d60b21b60208201529361321e565b612c52610a03604051612d1a604082611df8565b6005815264086d8c2e6d60db1b60208201529361321e565b50604051612d41604082611df8565b600a8152694d6f6e6f6368726f6d6560b01b602082015290600290600190565b60405190612d70604083611df8565b6008825267111a5859dbdb985b60c21b6020830152565b637fffffff9060c01c06611a0a8101809111610c9f57612da69061321e565b606481029080820460641490151715610c9f57637fffffff900460108110612eb25760208110612e8b57602c8110612e825760388110612e5d5760448110612e3a57605011612e1357604051612dfd604082611df8565b600681526552616e646f6d60d01b602082015290565b604051612e21604082611df8565b600981526810db1d5cdd195c995960ba1b602082015290565b50604051612e49604082611df8565b600481526311dc9a5960e21b602082015290565b50604051612e6c604082611df8565b60068152651498591a585b60d21b602082015290565b50612199612d61565b50604051612e9a604082611df8565b600881526715995c9d1a58d85b60c21b602082015290565b50604051612ec1604082611df8565b600a815269121bdc9a5e9bdb9d185b60b21b602082015290565b637fffffff9060c01c066115b38101809111610c9f57612efa9061321e565b620f4240810290808204620f42401490151715610c9f57637fffffff9004620557308110612fd25762061a808110612fad576209eb108110612f8657620c96a811612f6257604051612f4d604082611df8565b600581526444656e736560d81b602082015290565b604051612f70604082611df8565b600681526553706172736560d01b602082015290565b50604051612f95604082611df8565b6008815267125b9d995c9d195960c21b602082015290565b50604051612fbc604082611df8565b600681526542696e61727960d01b602082015290565b50604051612fe1604082611df8565b6006815265139bdc9b585b60d21b602082015290565b637fffffff9060c01c066182358101809111610c9f576130169061321e565b606481029080820460641490151715610c9f57637fffffff90046016811061312a57602c81106130fe57604181106130d957605081106130b157605a8110612e82576060116130895760405161306d604082611df8565b600c81526b10da1958dad95c989bd85c9960a21b602082015290565b604051613097604082611df8565b600a81526914985b991bdb48135a5960b21b602082015290565b506040516130c0604082611df8565b6009815268416c7465726e61746560b81b602082015290565b506040516130e8604082611df8565b600681526521b2b73a32b960d11b602082015290565b5060405161310d604082611df8565b600d81526c149a59da1d081d1bc81319599d609a1b602082015290565b50604051613139604082611df8565b600d81526c1319599d081d1bc8149a59da1d609a1b602082015290565b637fffffff9060c01c066115b38101809111610c9f576131759061321e565b605081029080820460501490151715610c9f57637fffffff9004600a8101809111610c9f57602381106131f6576041116131d0576040516131b7604082611df8565b600981526810589cdbdc98995b9d60ba1b602082015290565b6040516131de604082611df8565b600881526714dd185b99185c9960c21b602082015290565b50604051613205604082611df8565b600981526814995cda5cdd185b9d60ba1b602082015290565b8015613238575b6341c64e6d0261303901637fffffff1690565b50600161322556fe036b6384b5eca791c62761152d0c79bb0604c104a5fb6f4eb0703f3154bb3db0c2575a0e9e593c00f959f8c92f12db2869c3395a3b0502d05e2516446f71f85ba66cc928b5edb82af9bd49922954155ab7b0942694bea4ce44661d9a8736c688f3f7a9fe364faab93b216da50a3214154f22a0a2b415b23a84c8169e8b636ee3f652222313e28459528d920b65115c16c04f3efc82aaedc97be59f3f377c0d3f8a35acfbc15ff81a39ae7d344fd709f28e8600b4aa8c65c6b64bfe7fe36bd19ba2646970667358221220e5f0f53dc56e62db96523345d7d49f4f63dd9b0791d4eb71bde1b89430b88f4064736f6c634300081a0033","linkReferences":{}},"methodIdentifiers":{"baseImageURL()":"1b109d9c","cancelOwnershipHandover()":"54d1f13d","collectionImage()":"55530614","collectionName()":"e5326ab1","completeOwnershipHandover(address)":"f04e283e","contractURI()":"e8a3d485","description()":"7284e416","externalLink()":"5b9db898","less()":"d0b42373","owner()":"8da5cb5b","ownershipHandoverExpiresAt(address)":"fee81cf4","renounceOwnership()":"715018a6","requestOwnershipHandover()":"25692962","scriptName()":"11fd1965","scriptyBuilder()":"91a0d36d","scriptyStorage()":"0ac49cc2","setBaseImageURL(string)":"59146e1c","setLessContract(address)":"52ce6116","setMetadata(string,string,string,string)":"4734e13c","setScriptName(string)":"196fc2b8","setScriptyBuilder(address)":"7f749003","setScriptyStorage(address)":"56a3aec4","tokenURI(uint256)":"c87b56dd","transferOwnership(address)":"f2fde38b"},"id":3}