{"abi":[{"type":"constructor","inputs":[{"name":"_less","type":"address","internalType":"address"},{"name":"_scriptyBuilder","type":"address","internalType":"address"},{"name":"_scriptyStorage","type":"address","internalType":"address"},{"name":"_scriptName","type":"string","internalType":"string"},{"name":"_baseImageURL","type":"string","internalType":"string"},{"name":"_owner","type":"address","internalType":"address"}],"stateMutability":"nonpayable"},{"type":"function","name":"DESCRIPTION","inputs":[],"outputs":[{"name":"","type":"string","internalType":"string"}],"stateMutability":"view"},{"type":"function","name":"baseImageURL","inputs":[],"outputs":[{"name":"","type":"string","internalType":"string"}],"stateMutability":"view"},{"type":"function","name":"cancelOwnershipHandover","inputs":[],"outputs":[],"stateMutability":"payable"},{"type":"function","name":"completeOwnershipHandover","inputs":[{"name":"pendingOwner","type":"address","internalType":"address"}],"outputs":[],"stateMutability":"payable"},{"type":"function","name":"less","inputs":[],"outputs":[{"name":"","type":"address","internalType":"address"}],"stateMutability":"view"},{"type":"function","name":"owner","inputs":[],"outputs":[{"name":"result","type":"address","internalType":"address"}],"stateMutability":"view"},{"type":"function","name":"ownershipHandoverExpiresAt","inputs":[{"name":"pendingOwner","type":"address","internalType":"address"}],"outputs":[{"name":"result","type":"uint256","internalType":"uint256"}],"stateMutability":"view"},{"type":"function","name":"renounceOwnership","inputs":[],"outputs":[],"stateMutability":"payable"},{"type":"function","name":"requestOwnershipHandover","inputs":[],"outputs":[],"stateMutability":"payable"},{"type":"function","name":"scriptName","inputs":[],"outputs":[{"name":"","type":"string","internalType":"string"}],"stateMutability":"view"},{"type":"function","name":"scriptyBuilder","inputs":[],"outputs":[{"name":"","type":"address","internalType":"address"}],"stateMutability":"view"},{"type":"function","name":"scriptyStorage","inputs":[],"outputs":[{"name":"","type":"address","internalType":"address"}],"stateMutability":"view"},{"type":"function","name":"setBaseImageURL","inputs":[{"name":"_baseImageURL","type":"string","internalType":"string"}],"outputs":[],"stateMutability":"nonpayable"},{"type":"function","name":"setLessContract","inputs":[{"name":"_less","type":"address","internalType":"address"}],"outputs":[],"stateMutability":"nonpayable"},{"type":"function","name":"setScriptName","inputs":[{"name":"_scriptName","type":"string","internalType":"string"}],"outputs":[],"stateMutability":"nonpayable"},{"type":"function","name":"setScriptyBuilder","inputs":[{"name":"_scriptyBuilder","type":"address","internalType":"address"}],"outputs":[],"stateMutability":"nonpayable"},{"type":"function","name":"setScriptyStorage","inputs":[{"name":"_scriptyStorage","type":"address","internalType":"address"}],"outputs":[],"stateMutability":"nonpayable"},{"type":"function","name":"tokenURI","inputs":[{"name":"tokenId","type":"uint256","internalType":"uint256"}],"outputs":[{"name":"","type":"string","internalType":"string"}],"stateMutability":"view"},{"type":"function","name":"transferOwnership","inputs":[{"name":"newOwner","type":"address","internalType":"address"}],"outputs":[],"stateMutability":"payable"},{"type":"event","name":"BaseImageURLUpdated","inputs":[{"name":"newURL","type":"string","indexed":false,"internalType":"string"}],"anonymous":false},{"type":"event","name":"LessContractUpdated","inputs":[{"name":"newLess","type":"address","indexed":false,"internalType":"address"}],"anonymous":false},{"type":"event","name":"OwnershipHandoverCanceled","inputs":[{"name":"pendingOwner","type":"address","indexed":true,"internalType":"address"}],"anonymous":false},{"type":"event","name":"OwnershipHandoverRequested","inputs":[{"name":"pendingOwner","type":"address","indexed":true,"internalType":"address"}],"anonymous":false},{"type":"event","name":"OwnershipTransferred","inputs":[{"name":"oldOwner","type":"address","indexed":true,"internalType":"address"},{"name":"newOwner","type":"address","indexed":true,"internalType":"address"}],"anonymous":false},{"type":"event","name":"ScriptNameUpdated","inputs":[{"name":"newName","type":"string","indexed":false,"internalType":"string"}],"anonymous":false},{"type":"event","name":"ScriptyBuilderUpdated","inputs":[{"name":"newBuilder","type":"address","indexed":false,"internalType":"address"}],"anonymous":false},{"type":"event","name":"ScriptyStorageUpdated","inputs":[{"name":"newStorage","type":"address","indexed":false,"internalType":"address"}],"anonymous":false},{"type":"error","name":"AlreadyInitialized","inputs":[]},{"type":"error","name":"NewOwnerIsZeroAddress","inputs":[]},{"type":"error","name":"NoHandoverRequest","inputs":[]},{"type":"error","name":"TokenDoesNotExist","inputs":[]},{"type":"error","name":"Unauthorized","inputs":[]}],"bytecode":{"object":"0x608060405234801561000f575f80fd5b5060405161234a38038061234a83398101604081905261002e9161018b565b5f80546001600160a01b038089166001600160a01b031992831617909255600180548884169083161790556002805492871692909116919091179055600361007684826102b4565b50600461008383826102b4565b5061008d81610098565b50505050505061036e565b6001600160a01b0316638b78c6d819819055805f7f8be0079c531659141344cd1fd0a4f28419497f9722a3daafe3b4186f6b6457e08180a350565b80516001600160a01b03811681146100e9575f80fd5b919050565b634e487b7160e01b5f52604160045260245ffd5b5f82601f830112610111575f80fd5b81516001600160401b0381111561012a5761012a6100ee565b604051601f8201601f19908116603f011681016001600160401b0381118282101715610158576101586100ee565b60405281815283820160200185101561016f575f80fd5b8160208501602083015e5f918101602001919091529392505050565b5f805f805f8060c087890312156101a0575f80fd5b6101a9876100d3565b95506101b7602088016100d3565b94506101c5604088016100d3565b60608801519094506001600160401b038111156101e0575f80fd5b6101ec89828a01610102565b608089015190945090506001600160401b03811115610209575f80fd5b61021589828a01610102565b92505061022460a088016100d3565b90509295509295509295565b600181811c9082168061024457607f821691505b60208210810361026257634e487b7160e01b5f52602260045260245ffd5b50919050565b601f8211156102af57805f5260205f20601f840160051c8101602085101561028d5750805b601f840160051c820191505b818110156102ac575f8155600101610299565b50505b505050565b81516001600160401b038111156102cd576102cd6100ee565b6102e1816102db8454610230565b84610268565b6020601f821160018114610313575f83156102fc5750848201515b5f19600385901b1c1916600184901b1784556102ac565b5f84815260208120601f198516915b828110156103425787850151825560209485019460019092019101610322565b508482101561035f57868401515f19600387901b60f8161c191681555b50505050600190811b01905550565b611fcf8061037b5f395ff3fe608060405260043610610110575f3560e01c8063715018a61161009d578063d0b4237311610062578063d0b4237314610290578063f04e283e146102ae578063f1ae8856146102c1578063f2fde38b146102d5578063fee81cf4146102e8575f80fd5b8063715018a6146102135780637f7490031461021b5780638da5cb5b1461023a57806391a0d36d14610252578063c87b56dd14610271575f80fd5b806325692962116100e357806325692962146101a657806352ce6116146101ae57806354d1f13d146101cd57806356a3aec4146101d557806359146e1c146101f4575f80fd5b80630ac49cc21461011457806311fd196514610150578063196fc2b8146101715780631b109d9c14610192575b5f80fd5b34801561011f575f80fd5b50600254610133906001600160a01b031681565b6040516001600160a01b0390911681526020015b60405180910390f35b34801561015b575f80fd5b50610164610327565b604051610147919061145e565b34801561017c575f80fd5b5061019061018b3660046114e1565b6103b3565b005b34801561019d575f80fd5b50610164610402565b61019061040f565b3480156101b9575f80fd5b506101906101c836600461156e565b61045b565b6101906104b0565b3480156101e0575f80fd5b506101906101ef36600461156e565b6104e9565b3480156101ff575f80fd5b5061019061020e3660046114e1565b61053f565b610190610583565b348015610226575f80fd5b5061019061023536600461156e565b610596565b348015610245575f80fd5b50638b78c6d81954610133565b34801561025d575f80fd5b50600154610133906001600160a01b031681565b34801561027c575f80fd5b5061016461028b366004611589565b6105ec565b34801561029b575f80fd5b505f54610133906001600160a01b031681565b6101906102bc36600461156e565b610715565b3480156102cc575f80fd5b50610164610752565b6101906102e336600461156e565b610771565b3480156102f3575f80fd5b5061031961030236600461156e565b63389a75e1600c9081525f91909152602090205490565b604051908152602001610147565b60038054610334906115a0565b80601f0160208091040260200160405190810160405280929190818152602001828054610360906115a0565b80156103ab5780601f10610382576101008083540402835291602001916103ab565b820191905f5260205f20905b81548152906001019060200180831161038e57829003601f168201915b505050505081565b6103bb610797565b60036103c78282611624565b507f5415d426c4f141f128a11fca1a090008f54e065574159e10ed1447ef2fd6e2ec816040516103f7919061145e565b60405180910390a150565b60048054610334906115a0565b5f6202a3006001600160401b03164201905063389a75e1600c52335f52806020600c2055337fdbf36a107da19e49527a7176a1babf963b4b0ff8cde35ee35d6cd8f1f9ac7e1d5f80a250565b610463610797565b5f80546001600160a01b0319166001600160a01b0383169081179091556040519081527fce24e5f855311c580478bc708feb6da3421628f56b822b39e8a209e80f05a719906020016103f7565b63389a75e1600c52335f525f6020600c2055337ffa7b8eab7da67f412cc9575ed43464468f9bfbae89d1675917346ca6d8fe3c925f80a2565b6104f1610797565b600280546001600160a01b0319166001600160a01b0383169081179091556040519081527f70b12b6b8b6663fb182e440a56a9dba909b7d27f6773be8e1c1f9f8487c229c1906020016103f7565b610547610797565b60046105538282611624565b507f95a50c186d5919be7ba2143bdf89abefc2588e9f86b6eba993901b4d9f416bed816040516103f7919061145e565b61058b610797565b6105945f6107b1565b565b61059e610797565b600180546001600160a01b0319166001600160a01b0383169081179091556040519081527fd566016c5f23fe52a44459d0ca08c2b81f8411b49f6bbe69ea100611564bb6c5906020016103f7565b5f805460405163b09afec160e01b815260048101849052606092916001600160a01b03169063b09afec1906024016040805180830381865afa158015610634573d5f803e3d5ffd5b505050506040513d601f19601f8201168201806040525081019061065891906116f9565b5f805482516040516351787e2f60e11b81526001600160401b03909116600482015292935090916001600160a01b039091169063a2f0fc5e90602401606060405180830381865afa1580156106af573d5f803e3d5ffd5b505050506040513d601f19601f820116820180604052508101906106d3919061174f565b90505f6106e18584846107ee565b90506106ec81610871565b6040516020016106fc91906117d1565b6040516020818303038152906040529350505050919050565b61071d610797565b63389a75e1600c52805f526020600c20805442111561074357636f5e88185f526004601cfd5b5f905561074f816107b1565b50565b6040518061014001604052806101078152602001611e93610107913981565b610779610797565b8060601b61078e57637448fbae5f526004601cfd5b61074f816107b1565b638b78c6d819543314610594576382b429005f526004601cfd5b638b78c6d81980546001600160a01b039092169182907f8be0079c531659141344cd1fd0a4f28419497f9722a3daafe3b4186f6b6457e05f80a355565b60605f6107ff858560200151610884565b90505f61080b86610bff565b90505f6108188686610c33565b905061082387610dc1565b6040518061014001604052806101078152602001611e936101079139838584604051602001610856959493929190611802565b60405160208183030381529060405293505050509392505050565b606061087e825f80610e03565b92915050565b60605f6108918484610ef5565b600154604051635448d9af60e11b81529192506060916001600160a01b039091169063a891b35e906108c79085906004016119f3565b5f60405180830381865afa92505050801561090357506040513d5f823e601f3d908101601f191682016040526109009190810190611a6a565b60015b156109f1576040805180820190915260168082527519185d184e9d195e1d0bda1d1b5b0ed8985cd94d8d0b60521b6020830152825192935083928391116109c55760015f5b83518110156109ae5783818151811061096357610963611ab6565b602001015160f81c60f81b6001600160f81b03191683828151811061098a5761098a611ab6565b01602001516001600160f81b031916146109a6575f91506109ae565b600101610948565b5080156109c35783965050505050505061087e565b505b836040516020016109d69190611aca565b6040516020818303038152906040529550505050505061087e565b600154604051632bee680760e01b81526001600160a01b0390911690632bee680790610a219085906004016119f3565b5f60405180830381865afa925050508015610a5d57506040513d5f823e601f3d908101601f19168201604052610a5a9190810190611a6a565b60015b15610a8f5780915081604051602001610a769190611aca565b604051602081830303815290604052935050505061087e565b600154604051636af6c46760e11b81526001600160a01b039091169063d5ed88ce90610abf9085906004016119f3565b5f60405180830381865afa925050508015610afb57506040513d5f823e601f3d908101601f19168201604052610af89190810190611a6a565b60015b15610b1d575b610b0a81610871565b915081604051602001610a769190611aca565b600154604051633eddc85160e11b81526001600160a01b0390911690637dbb90a290610b4d9085906004016119f3565b5f60405180830381865afa925050508015610b8957506040513d5f823e601f3d908101601f19168201604052610b869190810190611a6a565b60015b610b015760405162461bcd60e51b815260206004820152603d60248201527f536372697074794275696c6465723a20496e74657266616365206d69736d617460448201527f63682e20436865636b20636f6e74726163742066756e6374696f6e732e000000606482015260840160405180910390fd5b60606004610c0c83610dc1565b604051602001610c1d929190611af4565b6040516020818303038152906040529050919050565b60408051602080820183525f808352548351635463173b60e11b815293516060946001600160a01b039092169263a8c62e7692600480820193918290030181865afa158015610c84573d5f803e3d5ffd5b505050506040513d601f19601f82011682018060405250810190610ca89190611b7d565b6001600160a01b03166318160ddd6040518163ffffffff1660e01b8152600401602060405180830381865afa925050508015610d01575060408051601f3d908101601f19168201909252610cfe91810190611b98565b60015b15610d3257610d0f81610dc1565b604051602001610d1f9190611baf565b6040516020818303038152906040529150505b8351610d46906001600160401b0316610dc1565b610d5385602001516111eb565b610d6985604001516001600160401b0316610dc1565b8551610d7d906001600160401b0316610dc1565b610d9387602001516001600160401b0316610dc1565b85604051602001610da996959493929190611c03565b60405160208183030381529060405291505092915050565b60606080604051019050602081016040525f8152805f19835b928101926030600a8206018453600a900480610dda575050819003601f19909101908152919050565b606083518015610eed576003600282010460021b60405192507f4142434445464748494a4b4c4d4e4f505152535455565758595a616263646566601f526106708515027f6768696a6b6c6d6e6f707172737475767778797a303132333435363738392d5f18603f526020830181810183886020010180515f82525b60038a0199508951603f8160121c16515f53603f81600c1c1651600153603f8160061c1651600253603f811651600353505f518452600484019350828410610e7e579052602001604052613d3d60f01b60038406600204808303919091525f8615159091029182900352900382525b509392505050565b6040805180820182526060808252602082018190528251600280825291810190935290915f91816020015b610f286113db565b815260200190600190039081610f205790505060408051610100810182525f60e0820181815282526020808301829052835190810184528181529282019290925291925060608201908152602001604051806080016040528060598152602001611e3a60599139815260200160405180602001604052805f815250815260200160405180602001604052805f815250815250815f81518110610fcc57610fcc611ab6565b60209081029190910181019190915260408051610100810182525f60e082018181528252818401819052825180850184528181528284015260608201528151808301835260088152671e39b1b934b83a1f60c11b818501526080820152815180830190925260098252681e17b9b1b934b83a1f60b91b9282019290925260a082015260c0810161105c868661139f565b8152508160018151811061107257611072611ab6565b60209081029190910101526040805160018082528183019092525f91816020015b61109b6113db565b8152602001906001900390816110935790505090506040518060e00160405280600380546110c8906115a0565b80601f01602080910402602001604051908101604052809291908181526020018280546110f4906115a0565b801561113f5780601f106111165761010080835404028352916020019161113f565b820191905f5260205f20905b81548152906001019060200180831161112257829003601f168201915b50505091835250506002546001600160a01b03166020808301919091526040805191820181525f82528201526060016001815260200160405180602001604052805f815250815260200160405180602001604052805f815250815260200160405180602001604052805f815250815250815f815181106111c1576111c1611ab6565b60200260200101819052506040518060400160405280838152602001828152509250505092915050565b604080518082018252601081526f181899199a1a9b1b9c1cb0b131b232b360811b602082015281516042808252608082019093526060925f9190602082018180368337019050509050600360fc1b815f8151811061124b5761124b611ab6565b60200101906001600160f81b03191690815f1a905350600f60fb1b8160018151811061127957611279611ab6565b60200101906001600160f81b03191690815f1a9053505f5b6020811015610eed578260048683602081106112af576112af611ab6565b1a60f81b6001600160f81b031916901c60f81c60ff16815181106112d5576112d5611ab6565b01602001516001600160f81b031916826112f0836002611dac565b6112fb906002611dc3565b8151811061130b5761130b611ab6565b60200101906001600160f81b03191690815f1a9053508285826020811061133457611334611ab6565b825191901a600f1690811061134b5761134b611ab6565b01602001516001600160f81b03191682611366836002611dac565b611371906003611dc3565b8151811061138157611381611ab6565b60200101906001600160f81b03191690815f1a905350600101611291565b60606113aa83610dc1565b6113b3836111eb565b6040516020016113c4929190611dd6565b604051602081830303815290604052905092915050565b6040518060e00160405280606081526020015f6001600160a01b03168152602001606081526020015f6004811115611415576114156118cb565b81526020016060815260200160608152602001606081525090565b5f81518084528060208401602086015e5f602082860101526020601f19601f83011685010191505092915050565b602081525f6114706020830184611430565b9392505050565b634e487b7160e01b5f52604160045260245ffd5b604051601f8201601f191681016001600160401b03811182821017156114b3576114b3611477565b604052919050565b5f6001600160401b038211156114d3576114d3611477565b50601f01601f191660200190565b5f602082840312156114f1575f80fd5b81356001600160401b03811115611506575f80fd5b8201601f81018413611516575f80fd5b8035611529611524826114bb565b61148b565b81815285602083850101111561153d575f80fd5b816020840160208301375f91810160200191909152949350505050565b6001600160a01b038116811461074f575f80fd5b5f6020828403121561157e575f80fd5b81356114708161155a565b5f60208284031215611599575f80fd5b5035919050565b600181811c908216806115b457607f821691505b6020821081036115d257634e487b7160e01b5f52602260045260245ffd5b50919050565b601f82111561161f57805f5260205f20601f840160051c810160208510156115fd5750805b601f840160051c820191505b8181101561161c575f8155600101611609565b50505b505050565b81516001600160401b0381111561163d5761163d611477565b6116518161164b84546115a0565b846115d8565b6020601f821160018114611683575f831561166c5750848201515b5f19600385901b1c1916600184901b17845561161c565b5f84815260208120601f198516915b828110156116b25787850151825560209485019460019092019101611692565b50848210156116cf57868401515f19600387901b60f8161c191681555b50505050600190811b01905550565b80516001600160401b03811681146116f4575f80fd5b919050565b5f604082840312801561170a575f80fd5b50604080519081016001600160401b038111828210171561172d5761172d611477565b604052611739836116de565b8152602083015160208201528091505092915050565b5f6060828403128015611760575f80fd5b50604051606081016001600160401b038111828210171561178357611783611477565b60405261178f836116de565b815261179d602084016116de565b60208201526117ae604084016116de565b60408201529392505050565b5f81518060208401855e5f93019283525090919050565b7f646174613a6170706c69636174696f6e2f6a736f6e3b6261736536342c00000081525f611470601d8301846117ba565b6e7b226e616d65223a226c657373202360881b81525f611825600f8301886117ba565b701116113232b9b1b934b83a34b7b7111d1160791b815261184960118201886117ba565b6a11161134b6b0b3b2911d1160a91b81529050611869600b8201876117ba565b7211161130b734b6b0ba34b7b72fbab936111d1160691b8152905061189160138201866117ba565b6e11161130ba3a3934b13aba32b9911d60891b815290506118b5600f8201856117ba565b607d60f81b815260010198975050505050505050565b634e487b7160e01b5f52602160045260245ffd5b600581106118fb57634e487b7160e01b5f52602160045260245ffd5b9052565b5f82825180855260208501945060208160051b830101602085015f5b838110156119e757601f198584030188528151805160e0855261194160e0860182611430565b905060018060a01b0360208301511660208601526040820151858203604087015261196c8282611430565b915050606082015161198160608701826118df565b50608082015185820360808701526119998282611430565b91505060a082015185820360a08701526119b38282611430565b91505060c0820151915084810360c08601526119cf8183611430565b60209a8b019a9095509390930192505060010161191b565b50909695505050505050565b602081525f825160406020840152611a0e60608401826118ff565b90506020840151601f19848303016040850152611a2b82826118ff565b95945050505050565b5f611a41611524846114bb565b9050828152838383011115611a54575f80fd5b8282602083015e5f602084830101529392505050565b5f60208284031215611a7a575f80fd5b81516001600160401b03811115611a8f575f80fd5b8201601f81018413611a9f575f80fd5b611aae84825160208401611a34565b949350505050565b634e487b7160e01b5f52603260045260245ffd5b7519185d184e9d195e1d0bda1d1b5b0ed8985cd94d8d0b60521b81525f61147060168301846117ba565b5f808454611b01816115a0565b600182168015611b185760018114611b2d57611b5a565b60ff1983168652811515820286019350611b5a565b875f5260205f205f5b83811015611b5257815488820152600190910190602001611b36565b505081860193505b505050611b6781856117ba565b632e706e6760e01b815260040195945050505050565b5f60208284031215611b8d575f80fd5b81516114708161155a565b5f60208284031215611ba8575f80fd5b5051919050565b7f2c7b2274726169745f74797065223a22537472617465677920537570706c792281526816113b30b63ab2911d60b91b60208201525f611bf260298301846117ba565b607d60f81b81526001019392505050565b7f5b7b2274726169745f74797065223a22466f6c64204944222c2276616c7565228152601d60f91b60208201525f611c3e60218301896117ba565b7f7d2c7b2274726169745f74797065223a2253656564222c2276616c7565223a228152611c6e60208201896117ba565b7f227d2c7b2274726169745f74797065223a22537472617465677920426c6f636b8152691116113b30b63ab2911d60b11b60208201529050611cb3602a8201886117ba565b90507f7d2c7b2274726169745f74797065223a2257696e646f77205374617274222c2281527f646973706c61795f74797065223a2264617465222c2276616c7565223a0000006020820152611d0b603d8201876117ba565b90507f7d2c7b2274726169745f74797065223a2257696e646f7720456e64222c22646981527f73706c61795f74797065223a2264617465222c2276616c7565223a00000000006020820152611d63603b8201866117ba565b607d60f81b8152905060018101611d8a611d7d82876117ba565b605d60f81b815260010190565b9a9950505050505050505050565b634e487b7160e01b5f52601160045260245ffd5b808202811582820484141761087e5761087e611d98565b8082018082111561087e5761087e611d98565b7477696e646f772e4c4553535f544f4b454e5f49443d60581b81525f611dff60158301856117ba565b721dbbb4b73237bb972622a9a9afa9a2a2a21e9160691b8152611e2560138201856117ba565b61223b60f01b81526002019594505050505056fe3c6d65746120636861727365743d227574662d38223e3c6d657461206e616d653d2276696577706f72742220636f6e74656e743d2277696474683d6465766963652d77696474682c696e697469616c2d7363616c653d31223e6c65737320697320612067656e657261746976652061727420636f6c6c656374696f6e207469656420746f20612072656375727369766520737472617465677920746f6b656e2e204561636820746f6b656e20726570726573656e7473206120666f6c64206576656e74202d2061206d6f6d656e74207768656e2074686520737472617465677920626f7567687420616e64206275726e656420697473206f776e20737570706c792e205468652076697375616c2069732067656e6572617465642062792073696d756c6174696e6720706170657220666f6c64696e672c2064726177696e67206f6e6c7920776865726520666f6c64206c696e657320696e746572736563742ea2646970667358221220e6be4d58afe5fec4b4c42e47962e4678b3cde060eb0034cb5bb69de241e6a12d64736f6c634300081a0033","linkReferences":{}},"methodIdentifiers":{"DESCRIPTION()":"f1ae8856","baseImageURL()":"1b109d9c","cancelOwnershipHandover()":"54d1f13d","completeOwnershipHandover(address)":"f04e283e","less()":"d0b42373","owner()":"8da5cb5b","ownershipHandoverExpiresAt(address)":"fee81cf4","renounceOwnership()":"715018a6","requestOwnershipHandover()":"25692962","scriptName()":"11fd1965","scriptyBuilder()":"91a0d36d","scriptyStorage()":"0ac49cc2","setBaseImageURL(string)":"59146e1c","setLessContract(address)":"52ce6116","setScriptName(string)":"196fc2b8","setScriptyBuilder(address)":"7f749003","setScriptyStorage(address)":"56a3aec4","tokenURI(uint256)":"c87b56dd","transferOwnership(address)":"f2fde38b"},"id":3}