{"abi":[{"type":"constructor","inputs":[{"name":"_strategy","type":"address","internalType":"address"},{"name":"_mintPrice","type":"uint256","internalType":"uint256"},{"name":"_payoutRecipient","type":"address","internalType":"address"},{"name":"_owner","type":"address","internalType":"address"},{"name":"_windowDuration","type":"uint256","internalType":"uint256"}],"stateMutability":"nonpayable"},{"type":"function","name":"approve","inputs":[{"name":"account","type":"address","internalType":"address"},{"name":"id","type":"uint256","internalType":"uint256"}],"outputs":[],"stateMutability":"payable"},{"type":"function","name":"balanceOf","inputs":[{"name":"owner","type":"address","internalType":"address"}],"outputs":[{"name":"result","type":"uint256","internalType":"uint256"}],"stateMutability":"view"},{"type":"function","name":"canCreateWindow","inputs":[],"outputs":[{"name":"","type":"bool","internalType":"bool"}],"stateMutability":"view"},{"type":"function","name":"cancelOwnershipHandover","inputs":[],"outputs":[],"stateMutability":"payable"},{"type":"function","name":"completeOwnershipHandover","inputs":[{"name":"pendingOwner","type":"address","internalType":"address"}],"outputs":[],"stateMutability":"payable"},{"type":"function","name":"contractURI","inputs":[],"outputs":[{"name":"","type":"string","internalType":"string"}],"stateMutability":"view"},{"type":"function","name":"createWindow","inputs":[],"outputs":[],"stateMutability":"nonpayable"},{"type":"function","name":"getApproved","inputs":[{"name":"id","type":"uint256","internalType":"uint256"}],"outputs":[{"name":"result","type":"address","internalType":"address"}],"stateMutability":"view"},{"type":"function","name":"getMintCost","inputs":[{"name":"user","type":"address","internalType":"address"},{"name":"quantity","type":"uint256","internalType":"uint256"}],"outputs":[{"name":"","type":"uint256","internalType":"uint256"}],"stateMutability":"view"},{"type":"function","name":"getMintCount","inputs":[{"name":"user","type":"address","internalType":"address"}],"outputs":[{"name":"","type":"uint256","internalType":"uint256"}],"stateMutability":"view"},{"type":"function","name":"getSeed","inputs":[{"name":"tokenId","type":"uint256","internalType":"uint256"}],"outputs":[{"name":"","type":"bytes32","internalType":"bytes32"}],"stateMutability":"view"},{"type":"function","name":"getTokenData","inputs":[{"name":"tokenId","type":"uint256","internalType":"uint256"}],"outputs":[{"name":"","type":"tuple","internalType":"struct Less.TokenData","components":[{"name":"windowId","type":"uint64","internalType":"uint64"},{"name":"seed","type":"bytes32","internalType":"bytes32"}]}],"stateMutability":"view"},{"type":"function","name":"isApprovedForAll","inputs":[{"name":"owner","type":"address","internalType":"address"},{"name":"operator","type":"address","internalType":"address"}],"outputs":[{"name":"result","type":"bool","internalType":"bool"}],"stateMutability":"view"},{"type":"function","name":"isWindowActive","inputs":[],"outputs":[{"name":"","type":"bool","internalType":"bool"}],"stateMutability":"view"},{"type":"function","name":"minEthForWindow","inputs":[],"outputs":[{"name":"","type":"uint256","internalType":"uint256"}],"stateMutability":"view"},{"type":"function","name":"mint","inputs":[{"name":"quantity","type":"uint256","internalType":"uint256"}],"outputs":[],"stateMutability":"payable"},{"type":"function","name":"mintPrice","inputs":[],"outputs":[{"name":"","type":"uint256","internalType":"uint256"}],"stateMutability":"view"},{"type":"function","name":"mintingPaused","inputs":[],"outputs":[{"name":"","type":"bool","internalType":"bool"}],"stateMutability":"view"},{"type":"function","name":"name","inputs":[],"outputs":[{"name":"","type":"string","internalType":"string"}],"stateMutability":"pure"},{"type":"function","name":"owner","inputs":[],"outputs":[{"name":"result","type":"address","internalType":"address"}],"stateMutability":"view"},{"type":"function","name":"ownerOf","inputs":[{"name":"id","type":"uint256","internalType":"uint256"}],"outputs":[{"name":"result","type":"address","internalType":"address"}],"stateMutability":"view"},{"type":"function","name":"ownershipHandoverExpiresAt","inputs":[{"name":"pendingOwner","type":"address","internalType":"address"}],"outputs":[{"name":"result","type":"uint256","internalType":"uint256"}],"stateMutability":"view"},{"type":"function","name":"payoutRecipient","inputs":[],"outputs":[{"name":"","type":"address","internalType":"address"}],"stateMutability":"view"},{"type":"function","name":"renderer","inputs":[],"outputs":[{"name":"","type":"address","internalType":"address"}],"stateMutability":"view"},{"type":"function","name":"renounceOwnership","inputs":[],"outputs":[],"stateMutability":"payable"},{"type":"function","name":"requestOwnershipHandover","inputs":[],"outputs":[],"stateMutability":"payable"},{"type":"function","name":"safeTransferFrom","inputs":[{"name":"from","type":"address","internalType":"address"},{"name":"to","type":"address","internalType":"address"},{"name":"id","type":"uint256","internalType":"uint256"}],"outputs":[],"stateMutability":"payable"},{"type":"function","name":"safeTransferFrom","inputs":[{"name":"from","type":"address","internalType":"address"},{"name":"to","type":"address","internalType":"address"},{"name":"id","type":"uint256","internalType":"uint256"},{"name":"data","type":"bytes","internalType":"bytes"}],"outputs":[],"stateMutability":"payable"},{"type":"function","name":"setApprovalForAll","inputs":[{"name":"operator","type":"address","internalType":"address"},{"name":"isApproved","type":"bool","internalType":"bool"}],"outputs":[],"stateMutability":"nonpayable"},{"type":"function","name":"setMinEthForWindow","inputs":[{"name":"_minEthForWindow","type":"uint256","internalType":"uint256"}],"outputs":[],"stateMutability":"nonpayable"},{"type":"function","name":"setMintPrice","inputs":[{"name":"_mintPrice","type":"uint256","internalType":"uint256"}],"outputs":[],"stateMutability":"nonpayable"},{"type":"function","name":"setMintingPaused","inputs":[{"name":"_paused","type":"bool","internalType":"bool"}],"outputs":[],"stateMutability":"nonpayable"},{"type":"function","name":"setPayoutRecipient","inputs":[{"name":"_payoutRecipient","type":"address","internalType":"address"}],"outputs":[],"stateMutability":"nonpayable"},{"type":"function","name":"setRenderer","inputs":[{"name":"_renderer","type":"address","internalType":"address"}],"outputs":[],"stateMutability":"nonpayable"},{"type":"function","name":"setStrategy","inputs":[{"name":"_strategy","type":"address","internalType":"address"}],"outputs":[],"stateMutability":"nonpayable"},{"type":"function","name":"setWindowCreationEnabled","inputs":[{"name":"_enabled","type":"bool","internalType":"bool"}],"outputs":[],"stateMutability":"nonpayable"},{"type":"function","name":"setWindowDuration","inputs":[{"name":"_windowDuration","type":"uint256","internalType":"uint256"}],"outputs":[],"stateMutability":"nonpayable"},{"type":"function","name":"strategy","inputs":[],"outputs":[{"name":"","type":"address","internalType":"contract IRecursiveStrategy"}],"stateMutability":"view"},{"type":"function","name":"supportsInterface","inputs":[{"name":"interfaceId","type":"bytes4","internalType":"bytes4"}],"outputs":[{"name":"result","type":"bool","internalType":"bool"}],"stateMutability":"view"},{"type":"function","name":"symbol","inputs":[],"outputs":[{"name":"","type":"string","internalType":"string"}],"stateMutability":"pure"},{"type":"function","name":"timeUntilWindowCloses","inputs":[],"outputs":[{"name":"","type":"uint256","internalType":"uint256"}],"stateMutability":"view"},{"type":"function","name":"tokenURI","inputs":[{"name":"tokenId","type":"uint256","internalType":"uint256"}],"outputs":[{"name":"","type":"string","internalType":"string"}],"stateMutability":"view"},{"type":"function","name":"totalSupply","inputs":[],"outputs":[{"name":"","type":"uint256","internalType":"uint256"}],"stateMutability":"view"},{"type":"function","name":"transferFrom","inputs":[{"name":"from","type":"address","internalType":"address"},{"name":"to","type":"address","internalType":"address"},{"name":"id","type":"uint256","internalType":"uint256"}],"outputs":[],"stateMutability":"payable"},{"type":"function","name":"transferOwnership","inputs":[{"name":"newOwner","type":"address","internalType":"address"}],"outputs":[],"stateMutability":"payable"},{"type":"function","name":"windowCount","inputs":[],"outputs":[{"name":"","type":"uint256","internalType":"uint256"}],"stateMutability":"view"},{"type":"function","name":"windowCreationEnabled","inputs":[],"outputs":[{"name":"","type":"bool","internalType":"bool"}],"stateMutability":"view"},{"type":"function","name":"windowDuration","inputs":[],"outputs":[{"name":"","type":"uint256","internalType":"uint256"}],"stateMutability":"view"},{"type":"function","name":"withdraw","inputs":[],"outputs":[],"stateMutability":"nonpayable"},{"type":"event","name":"Approval","inputs":[{"name":"owner","type":"address","indexed":true,"internalType":"address"},{"name":"account","type":"address","indexed":true,"internalType":"address"},{"name":"id","type":"uint256","indexed":true,"internalType":"uint256"}],"anonymous":false},{"type":"event","name":"ApprovalForAll","inputs":[{"name":"owner","type":"address","indexed":true,"internalType":"address"},{"name":"operator","type":"address","indexed":true,"internalType":"address"},{"name":"isApproved","type":"bool","indexed":false,"internalType":"bool"}],"anonymous":false},{"type":"event","name":"MinEthForWindowUpdated","inputs":[{"name":"newMinEth","type":"uint256","indexed":false,"internalType":"uint256"}],"anonymous":false},{"type":"event","name":"MintPriceUpdated","inputs":[{"name":"newPrice","type":"uint256","indexed":false,"internalType":"uint256"}],"anonymous":false},{"type":"event","name":"Minted","inputs":[{"name":"tokenId","type":"uint256","indexed":true,"internalType":"uint256"},{"name":"windowId","type":"uint256","indexed":true,"internalType":"uint256"},{"name":"minter","type":"address","indexed":true,"internalType":"address"},{"name":"seed","type":"bytes32","indexed":false,"internalType":"bytes32"}],"anonymous":false},{"type":"event","name":"MintingPausedChanged","inputs":[{"name":"paused","type":"bool","indexed":false,"internalType":"bool"}],"anonymous":false},{"type":"event","name":"OwnershipHandoverCanceled","inputs":[{"name":"pendingOwner","type":"address","indexed":true,"internalType":"address"}],"anonymous":false},{"type":"event","name":"OwnershipHandoverRequested","inputs":[{"name":"pendingOwner","type":"address","indexed":true,"internalType":"address"}],"anonymous":false},{"type":"event","name":"OwnershipTransferred","inputs":[{"name":"oldOwner","type":"address","indexed":true,"internalType":"address"},{"name":"newOwner","type":"address","indexed":true,"internalType":"address"}],"anonymous":false},{"type":"event","name":"PayoutRecipientUpdated","inputs":[{"name":"newRecipient","type":"address","indexed":false,"internalType":"address"}],"anonymous":false},{"type":"event","name":"RendererUpdated","inputs":[{"name":"newRenderer","type":"address","indexed":false,"internalType":"address"}],"anonymous":false},{"type":"event","name":"StrategyUpdated","inputs":[{"name":"newStrategy","type":"address","indexed":false,"internalType":"address"}],"anonymous":false},{"type":"event","name":"Transfer","inputs":[{"name":"from","type":"address","indexed":true,"internalType":"address"},{"name":"to","type":"address","indexed":true,"internalType":"address"},{"name":"id","type":"uint256","indexed":true,"internalType":"uint256"}],"anonymous":false},{"type":"event","name":"WindowCreated","inputs":[{"name":"windowId","type":"uint256","indexed":true,"internalType":"uint256"},{"name":"startTime","type":"uint64","indexed":false,"internalType":"uint64"},{"name":"endTime","type":"uint64","indexed":false,"internalType":"uint64"}],"anonymous":false},{"type":"event","name":"WindowCreationEnabledChanged","inputs":[{"name":"enabled","type":"bool","indexed":false,"internalType":"bool"}],"anonymous":false},{"type":"event","name":"WindowDurationUpdated","inputs":[{"name":"newWindowDuration","type":"uint256","indexed":false,"internalType":"uint256"}],"anonymous":false},{"type":"event","name":"Withdrawn","inputs":[{"name":"recipient","type":"address","indexed":true,"internalType":"address"},{"name":"amount","type":"uint256","indexed":false,"internalType":"uint256"}],"anonymous":false},{"type":"error","name":"AccountBalanceOverflow","inputs":[]},{"type":"error","name":"AlreadyInitialized","inputs":[]},{"type":"error","name":"BalanceQueryForZeroAddress","inputs":[]},{"type":"error","name":"IncorrectPayment","inputs":[]},{"type":"error","name":"InsufficientStrategyBalance","inputs":[]},{"type":"error","name":"InvalidAddress","inputs":[]},{"type":"error","name":"InvalidQuantity","inputs":[]},{"type":"error","name":"MintWindowActive","inputs":[]},{"type":"error","name":"MintingPaused","inputs":[]},{"type":"error","name":"NewOwnerIsZeroAddress","inputs":[]},{"type":"error","name":"NoHandoverRequest","inputs":[]},{"type":"error","name":"NotOwnerNorApproved","inputs":[]},{"type":"error","name":"Reentrancy","inputs":[]},{"type":"error","name":"TokenAlreadyExists","inputs":[]},{"type":"error","name":"TokenDoesNotExist","inputs":[]},{"type":"error","name":"TransferFromIncorrectOwner","inputs":[]},{"type":"error","name":"TransferToNonERC721ReceiverImplementer","inputs":[]},{"type":"error","name":"TransferToZeroAddress","inputs":[]},{"type":"error","name":"Unauthorized","inputs":[]},{"type":"error","name":"WindowCreationDisabled","inputs":[]}],"bytecode":{"object":"0x60803461010f57601f611ace38819003918201601f19168301916001600160401b038311848410176101135780849260a09460405283398101031261010f5761004781610127565b90602081015161005960408301610127565b608061006760608501610127565b9301516001600160a01b03909116928315610100576001600160a01b03169384156101005760018060a01b031660018060a01b03195f5416175f5560015560045560018060a01b031960055416176005556703782dace9d9000060075580638b78c6d819555f7f8be0079c531659141344cd1fd0a4f28419497f9722a3daafe3b4186f6b6457e08180a3604051611992908161013c8239f35b63e6c4247b60e01b5f5260045ffd5b5f80fd5b634e487b7160e01b5f52604160045260245ffd5b51906001600160a01b038216820361010f5756fe6080806040526004361015610012575f80fd5b5f3560e01c90816301ffc9a7146111e25750806305e9003a146111bd57806306fdde0314610b97578063081812fc1461116c578063095ea7b3146110c457806318160ddd146110a7578063205760eb1461105b578063223c49721461104157806323b872dd1461102f5780632569296214610fe65780632d07ae1114610fc957806333a100ca14610f5a5780633ccfd60b14610eb25780633fb80b1514610e8a57806342842e0e14610e5157806346bb595414610de057806354d1f13d14610d9c57806356d3163d14610d1c5780635c11ff7a14610cff5780636352211e14610ca95780636817c76c14610c8c57806370a0823114610c39578063715018a614610bf05780638ada6b0f14610bc85780638da5cb5b14610b9c57806395d89b4114610b975780639795867414610b33578063a0712d68146108b1578063a22cb4651461083f578063a2801f571461081c578063a8c62e76146107f5578063ad13419d14610797578063b09afec11461070d578063b4f738cf146106c1578063b88d4fde14610620578063b977946d146105fc578063b98fb3ee146105d5578063c87b56dd14610554578063e0d4ea37146104f4578063e1a283d6146104d2578063e8a3d4851461044e578063e985e9c51461040a578063ebe4238b14610382578063f04e283e14610335578063f2fde38b146102f8578063f4a0a528146102ac578063fd282a981461028f578063fee81cf41461025d5763ff0ea23614610237575f80fd5b34610259575f3660031901126102595760206102516115eb565b604051908152f35b5f80fd5b3461025957602036600319011261025957610276611294565b63389a75e1600c525f52602080600c2054604051908152f35b34610259575f366003190112610259576020600754604051908152f35b34610259576020366003190112610259577f525b762709cc2a983aec5ccdfd807a061f993c91090b5bcd7da92ca254976aaa60206004356102eb61161a565b80600455604051908152a1005b60203660031901126102595761030c611294565b61031461161a565b8060601b1561032857610326906116eb565b005b637448fbae5f526004601cfd5b602036600319011261025957610349611294565b61035161161a565b63389a75e1600c52805f526020600c209081544211610375575f61032692556116eb565b636f5e88185f526004601cfd5b34610259575f366003190112610259573068929eee149b4bd2126854146103fd573068929eee149b4bd212685560ff60085460081c16156103ee576103c5611636565b6103df576103d1611728565b3868929eee149b4bd2126855005b63209b21a560e11b5f5260045ffd5b632340ee9960e11b5f5260045ffd5b63ab143c065f526004601cfd5b3461025957604036600319011261025957610423611294565b61042b6112aa565b601c52670a5a2e7a000000006008525f5260206030600c20546040519015158152f35b34610259575f3660031901126102595760065460405163e8a3d48560e01b8152905f90829060049082906001600160a01b03165afa80156104c7576104a1915f916104a5575b506040519182918261122c565b0390f35b6104c191503d805f833e6104b98183611338565b810190611589565b82610494565b6040513d5f823e3d90fd5b34610259575f36600319011261025957602060ff600854166040519015158152f35b34610259576020366003190112610259576004355f818152673ec412a9852d173d60c11b601c5260209020810181015460601b15610545575f52600a6020526020600160405f200154604051908152f35b63677510db60e11b5f5260045ffd5b34610259576020366003190112610259576004355f818152673ec412a9852d173d60c11b601c5260209020810181015460601b156105455760065460405163c87b56dd60e01b815260048101929092525f90829060249082906001600160a01b03165afa80156104c7576104a1915f916104a557506040519182918261122c565b346102595760403660031901126102595760206102516105f3611294565b60243590611546565b34610259575f366003190112610259576020610616611636565b6040519015158152f35b608036600319011261025957610634611294565b61063c6112aa565b604435606435916001600160401b0383116102595736602384011215610259578260040135936001600160401b03851161025957366024868601011161025957610687838383611405565b813b61068f57005b5f6020868060246106a26103269a611359565b986106b06040519a8b611338565b828a52018389013786010152611659565b34610259576020366003190112610259577fcc269177d1f91fe2ded446dd59b3ca32e118a02398319775c76ffa72e7855653602060043561070061161a565b80600155604051908152a1005b34610259576020366003190112610259576004355f602060405161073081611309565b82815201525f818152673ec412a9852d173d60c11b601c5260209020810181015460601b15610545575f52600a6020526040805f20815161077081611309565b602060016001600160401b0384541693848452015491019081528251918252516020820152f35b34610259576020366003190112610259577f60fa4f6a102b3dbb4fdff5e8b9283920c9d1559e293bb8708fe483ea109dde5a60206107d36112fa565b6107db61161a565b151560ff196008541660ff821617600855604051908152a1005b34610259575f366003190112610259575f546040516001600160a01b039091168152602090f35b3461025957602036600319011261025957602061025161083a611294565b611516565b3461025957604036600319011261025957610858611294565b6024358015158091036102595781601c52670a5a2e7a00000000600852335f52806030600c20555f5260018060a01b0316337f17307eab39ab6107e8899845ad3d59bd9653f200f220920489ca2b5937696c3160205fa3005b6020366003190112610259576004353068929eee149b4bd2126854146103fd573068929eee149b4bd212685560085460ff8116610b24578115610b15576108f6611636565b15610afc575b5060025490815f52600b60205260405f2060018060a01b0333165f5260205260405f205461092a82826118cf565b3403610aed578161093a916114fc565b5f838152600b60209081526040808320338452909152902055600354600181019190828111610ad9578161096d916114fc565b6003555f194301438111610ad957409290916001600160401b03821691905f5b8481106109a2573868929eee149b4bd2126855005b6109ac81836114fc565b906040516020810190888252836040820152604081526109cd606082611338565b5190206040516109dc81611309565b868152600160208201838152855f52600a6020526001600160401b038060405f20945116166001600160401b031984541617835551910155825f52673ec412a9852d173d60c11b601c5260205f208301830180548060601b610acc5733179055335f52601c600c2060018154019363ffffffff8516330215610ab75760019487925580335f7fddf252ad1be2c89b69c2b068fc378daa952ba7f163c4a11628f55a4df523b3ef8180a46040519283527fd8d3f4689036e011512f797b74f83dbe227a55ff95d3ea8c9a556d086191ba9e60203394a40161098d565b67ea553b3401336cea331560021b526004601cfd5b63c991cbb15f526004601cfd5b634e487b7160e01b5f52601160045260245ffd5b63569e8c1160e01b5f5260045ffd5b60081c60ff16156103ee57610b0f611728565b816108fc565b63524f409b60e01b5f5260045ffd5b6375ab03ab60e11b5f5260045ffd5b34610259576020366003190112610259577fc6120a63d59298860f6fd933df9ea3daeb489f3959671c11278903a0b985c8216020610b6f6112fa565b610b7761161a565b151560085461ff008260081b169061ff00191617600855604051908152a1005b611256565b34610259575f36600319011261025957638b78c6d819546040516001600160a01b039091168152602090f35b34610259575f366003190112610259576006546040516001600160a01b039091168152602090f35b5f36600319011261025957610c0361161a565b5f638b78c6d819547f8be0079c531659141344cd1fd0a4f28419497f9722a3daafe3b4186f6b6457e08280a35f638b78c6d81955005b3461025957602036600319011261025957610c52611294565b8015610c7f57673ec412a9852d173d60c11b601c525f52602063ffffffff601c600c205416604051908152f35b638f4eb6045f526004601cfd5b34610259575f366003190112610259576020600454604051908152f35b34610259576020366003190112610259576004355f818152673ec412a9852d173d60c11b601c5260209020810101546001600160a01b03168015610cf257602090604051908152f35b63ceea21b65f526004601cfd5b34610259575f366003190112610259576020600154604051908152f35b3461025957602036600319011261025957610d35611294565b610d3d61161a565b6001600160a01b03168015610d8d576020817f482cbbbcf912da3be80deb8503ae1e94c0b7d5d1d0ec0af3d9d6403e06e609ee926001600160601b0360a01b6006541617600655604051908152a1005b63e6c4247b60e01b5f5260045ffd5b5f3660031901126102595763389a75e1600c52335f525f6020600c2055337ffa7b8eab7da67f412cc9575ed43464468f9bfbae89d1675917346ca6d8fe3c925f80a2005b3461025957602036600319011261025957610df9611294565b610e0161161a565b6001600160a01b03168015610d8d576020817f5eb0913799140a38d5e80f5c04a585a09b65facadcbbe1a2c0c942d4198b2e93926001600160601b0360a01b6005541617600555604051908152a1005b610e5a366112c0565b610e678183859495611405565b823b610e6f57005b6103269260405192610e82602085611338565b5f8452611659565b34610259575f366003190112610259576005546040516001600160a01b039091168152602090f35b34610259575f36600319011261025957610eca61161a565b60055447906001600160a01b0316478211610f4d575f3881808585620186a0f115610f2c575b506005546040519182526001600160a01b0316907f7084f5476618d8e60b11ef0d7d3f06914655adb8793e28ff7f018d4c76d505d590602090a2005b5f526073600b5360ff6020536016600b82f015610f495781610ef0565b3838fd5b63b12d13eb5f526004601cfd5b3461025957602036600319011261025957610f73611294565b610f7b61161a565b6001600160a01b03168015610d8d576020817f4da9c22c924692646a21cf1f423781ae3285198dc22e8a6912835d3272b90b3c926001600160601b0360a01b5f5416175f55604051908152a1005b34610259575f366003190112610259576020600254604051908152f35b5f3660031901126102595763389a75e1600c52335f526202a30042016020600c2055337fdbf36a107da19e49527a7176a1babf963b4b0ff8cde35ee35d6cd8f1f9ac7e1d5f80a2005b61032661103b366112c0565b91611405565b34610259575f366003190112610259576020610616611374565b34610259576020366003190112610259577f182bb03c6d66a6d1c1abf10b224dc0879a278504605029310ada64409a8bf41b602060043561109a61161a565b80600755604051908152a1005b34610259575f366003190112610259576020600354604051908152f35b6040366003190112610259576110d8611294565b6024355f818152673ec412a9852d173d60c11b3317601c526020902081018101805491926001600160a01b039081169216908115610cf257829082331433151715611148575b600101557f8c5be1e5ebec7d5bd14f71427d1e84f3dd0314c0f7b2291e5b200ac8c7c3b9255f80a4005b9050815f526030600c20541561115f57829061111e565b634b6e7f185f526004601cfd5b34610259576020366003190112610259576004355f818152673ec412a9852d173d60c11b601c5260209020810101805460601b15610cf257600101546040516001600160a01b039091168152602090f35b34610259575f36600319011261025957602060ff60085460081c166040519015158152f35b3461025957602036600319011261025957600435906001600160e01b0319821682036102595760209160e01c635b5e139f8114906301ffc9a76380ac58cd82149114171715158152f35b602060409281835280519182918282860152018484015e5f828201840152601f01601f1916010190565b34610259575f366003190112610259576104a1604051611277604082611338565b60048152634c45535360e01b60208201526040519182918261122c565b600435906001600160a01b038216820361025957565b602435906001600160a01b038216820361025957565b6060906003190112610259576004356001600160a01b038116810361025957906024356001600160a01b0381168103610259579060443590565b60043590811515820361025957565b604081019081106001600160401b0382111761132457604052565b634e487b7160e01b5f52604160045260245ffd5b90601f801991011681019081106001600160401b0382111761132457604052565b6001600160401b03811161132457601f01601f191660200190565b60ff60085460081c16156114015761138a611636565b6114015760018060a01b035f54168031600754116113fc5760206004916040519283809263016dc09d60e31b82525afa9081156104c7575f916113cc57501590565b90506020813d6020116113f4575b816113e760209383611338565b8101031261025957511590565b3d91506113da565b505f90565b5f90565b5f838152673ec412a9852d173d60c11b3317601c52602090208301830180546001600160a01b03938416939283169281168084148102156114e75750825f5281600101805480331485331417156114d0575b6114c7575b50838318189055601c600c205f198154019055815f52601c600c2060018154019063ffffffff82168402156114b257557fddf252ad1be2c89b69c2b068fc378daa952ba7f163c4a11628f55a4df523b3ef5f80a4565b67ea553b3401336cea841560021b526004601cfd5b5f90555f61145c565b6030600c205461145757634b6e7f185f526004601cfd5b67ceea21b6a1148100901560021b526004601cfd5b91908201809211610ad957565b91908203918211610ad957565b6002548015611540575f52600b60205260405f209060018060a01b03165f5260205260405f205490565b50505f90565b9080156115405760025461157e92908015611581575f52600b60205260405f209060018060a01b03165f5260205260405f20546118cf565b90565b50505f6118cf565b602081830312610259578051906001600160401b038211610259570181601f82011215610259578051906115bc82611359565b926115ca6040519485611338565b8284526020838301011161025957815f9260208093018386015e8301015290565b6115f3611636565b15611401576002545f52600960205261157e6001600160401b0360405f2054164290611509565b638b78c6d81954330361162957565b6382b429005f526004601cfd5b60025480156113fc575f5260096020526001600160401b0360405f205416421090565b9060a46020939460405195869463150b7a028652338787015260018060a01b03166040860152606085015260808085015280518091818060a08801526116d7575b505001905f601c8401915af1156116c9575b5163757a42ff60e11b016116bc57565b63d1a57ed65f526004601cfd5b3d156116ac573d5f823e3d90fd5b818760c08801920160045afa50805f61169a565b60018060a01b031680638b78c6d819547f8be0079c531659141344cd1fd0a4f28419497f9722a3daafe3b4186f6b6457e05f80a3638b78c6d81955565b5f60018060a01b035f541680316007541161187257803b15610259575f8091600460405180948193631db5275560e01b83525af180156104c75761185f575b506002545f19811461184b5760010190816002556001600160401b034216906001600160401b03600154168201906001600160401b0382116118375760405191602083018381106001600160401b03821117611823576001600160401b0360407fe06ce442afd483033ce0a251188ca4c4d1c81a74bf69c6d3699cede668afda479694828297958195845216988986528152600960205220925116166001600160401b03198254161790556002549382519182526020820152a2565b634e487b7160e01b83526041600452602483fd5b634e487b7160e01b81526011600452602490fd5b634e487b7160e01b82526011600452602482fd5b61186b91505f90611338565b5f80611767565b6354e89c2b60e11b5f5260045ffd5b60a18111610ad95760030a90565b81810292918115918404141715610ad957565b60ff8111610ad9576001901b90565b81156118bb570490565b634e487b7160e01b5f52601260045260245ffd5b60018214611939576118e081611881565b906118fd6118ed84611881565b936118f7816118a2565b926114fc565b5f19810193908411610ad95761192e6119349261192861191f61157e976118a2565b9560045461188f565b92611509565b9061188f565b6118b1565b61157e915061195661195060045461192e84611881565b916118a2565b906118b156fea2646970667358221220c1b8281a9c5fb293dbc49ddf02b99036b14b7d251ef6d3932b8f7321d7ceed0e64736f6c634300081a0033","linkReferences":{}},"methodIdentifiers":{"approve(address,uint256)":"095ea7b3","balanceOf(address)":"70a08231","canCreateWindow()":"223c4972","cancelOwnershipHandover()":"54d1f13d","completeOwnershipHandover(address)":"f04e283e","contractURI()":"e8a3d485","createWindow()":"ebe4238b","getApproved(uint256)":"081812fc","getMintCost(address,uint256)":"b98fb3ee","getMintCount(address)":"a2801f57","getSeed(uint256)":"e0d4ea37","getTokenData(uint256)":"b09afec1","isApprovedForAll(address,address)":"e985e9c5","isWindowActive()":"b977946d","minEthForWindow()":"fd282a98","mint(uint256)":"a0712d68","mintPrice()":"6817c76c","mintingPaused()":"e1a283d6","name()":"06fdde03","owner()":"8da5cb5b","ownerOf(uint256)":"6352211e","ownershipHandoverExpiresAt(address)":"fee81cf4","payoutRecipient()":"3fb80b15","renderer()":"8ada6b0f","renounceOwnership()":"715018a6","requestOwnershipHandover()":"25692962","safeTransferFrom(address,address,uint256)":"42842e0e","safeTransferFrom(address,address,uint256,bytes)":"b88d4fde","setApprovalForAll(address,bool)":"a22cb465","setMinEthForWindow(uint256)":"205760eb","setMintPrice(uint256)":"f4a0a528","setMintingPaused(bool)":"ad13419d","setPayoutRecipient(address)":"46bb5954","setRenderer(address)":"56d3163d","setStrategy(address)":"33a100ca","setWindowCreationEnabled(bool)":"97958674","setWindowDuration(uint256)":"b4f738cf","strategy()":"a8c62e76","supportsInterface(bytes4)":"01ffc9a7","symbol()":"95d89b41","timeUntilWindowCloses()":"ff0ea236","tokenURI(uint256)":"c87b56dd","totalSupply()":"18160ddd","transferFrom(address,address,uint256)":"23b872dd","transferOwnership(address)":"f2fde38b","windowCount()":"2d07ae11","windowCreationEnabled()":"05e9003a","windowDuration()":"5c11ff7a","withdraw()":"3ccfd60b"},"id":2}