{"abi":[{"type":"constructor","inputs":[{"name":"_strategy","type":"address","internalType":"address"},{"name":"_mintPrice","type":"uint256","internalType":"uint256"},{"name":"_payoutRecipient","type":"address","internalType":"address"},{"name":"_owner","type":"address","internalType":"address"},{"name":"_windowDuration","type":"uint256","internalType":"uint256"}],"stateMutability":"nonpayable"},{"type":"function","name":"approve","inputs":[{"name":"account","type":"address","internalType":"address"},{"name":"id","type":"uint256","internalType":"uint256"}],"outputs":[],"stateMutability":"payable"},{"type":"function","name":"balanceOf","inputs":[{"name":"owner","type":"address","internalType":"address"}],"outputs":[{"name":"result","type":"uint256","internalType":"uint256"}],"stateMutability":"view"},{"type":"function","name":"canCreateWindow","inputs":[],"outputs":[{"name":"","type":"bool","internalType":"bool"}],"stateMutability":"view"},{"type":"function","name":"cancelOwnershipHandover","inputs":[],"outputs":[],"stateMutability":"payable"},{"type":"function","name":"completeOwnershipHandover","inputs":[{"name":"pendingOwner","type":"address","internalType":"address"}],"outputs":[],"stateMutability":"payable"},{"type":"function","name":"contractURI","inputs":[],"outputs":[{"name":"","type":"string","internalType":"string"}],"stateMutability":"view"},{"type":"function","name":"createWindow","inputs":[],"outputs":[],"stateMutability":"nonpayable"},{"type":"function","name":"getApproved","inputs":[{"name":"id","type":"uint256","internalType":"uint256"}],"outputs":[{"name":"result","type":"address","internalType":"address"}],"stateMutability":"view"},{"type":"function","name":"getMintCost","inputs":[{"name":"user","type":"address","internalType":"address"},{"name":"quantity","type":"uint256","internalType":"uint256"}],"outputs":[{"name":"","type":"uint256","internalType":"uint256"}],"stateMutability":"view"},{"type":"function","name":"getMintCount","inputs":[{"name":"user","type":"address","internalType":"address"}],"outputs":[{"name":"","type":"uint256","internalType":"uint256"}],"stateMutability":"view"},{"type":"function","name":"getSeed","inputs":[{"name":"tokenId","type":"uint256","internalType":"uint256"}],"outputs":[{"name":"","type":"bytes32","internalType":"bytes32"}],"stateMutability":"view"},{"type":"function","name":"getTokenData","inputs":[{"name":"tokenId","type":"uint256","internalType":"uint256"}],"outputs":[{"name":"","type":"tuple","internalType":"struct Less.TokenData","components":[{"name":"windowId","type":"uint64","internalType":"uint64"},{"name":"seed","type":"bytes32","internalType":"bytes32"}]}],"stateMutability":"view"},{"type":"function","name":"isApprovedForAll","inputs":[{"name":"owner","type":"address","internalType":"address"},{"name":"operator","type":"address","internalType":"address"}],"outputs":[{"name":"result","type":"bool","internalType":"bool"}],"stateMutability":"view"},{"type":"function","name":"isWindowActive","inputs":[],"outputs":[{"name":"","type":"bool","internalType":"bool"}],"stateMutability":"view"},{"type":"function","name":"minEthForWindow","inputs":[],"outputs":[{"name":"","type":"uint256","internalType":"uint256"}],"stateMutability":"view"},{"type":"function","name":"mint","inputs":[{"name":"quantity","type":"uint256","internalType":"uint256"}],"outputs":[],"stateMutability":"payable"},{"type":"function","name":"mintPrice","inputs":[],"outputs":[{"name":"","type":"uint256","internalType":"uint256"}],"stateMutability":"view"},{"type":"function","name":"mintingPaused","inputs":[],"outputs":[{"name":"","type":"bool","internalType":"bool"}],"stateMutability":"view"},{"type":"function","name":"name","inputs":[],"outputs":[{"name":"","type":"string","internalType":"string"}],"stateMutability":"pure"},{"type":"function","name":"owner","inputs":[],"outputs":[{"name":"result","type":"address","internalType":"address"}],"stateMutability":"view"},{"type":"function","name":"ownerOf","inputs":[{"name":"id","type":"uint256","internalType":"uint256"}],"outputs":[{"name":"result","type":"address","internalType":"address"}],"stateMutability":"view"},{"type":"function","name":"ownershipHandoverExpiresAt","inputs":[{"name":"pendingOwner","type":"address","internalType":"address"}],"outputs":[{"name":"result","type":"uint256","internalType":"uint256"}],"stateMutability":"view"},{"type":"function","name":"payoutRecipient","inputs":[],"outputs":[{"name":"","type":"address","internalType":"address"}],"stateMutability":"view"},{"type":"function","name":"renderer","inputs":[],"outputs":[{"name":"","type":"address","internalType":"address"}],"stateMutability":"view"},{"type":"function","name":"renounceOwnership","inputs":[],"outputs":[],"stateMutability":"payable"},{"type":"function","name":"requestOwnershipHandover","inputs":[],"outputs":[],"stateMutability":"payable"},{"type":"function","name":"safeTransferFrom","inputs":[{"name":"from","type":"address","internalType":"address"},{"name":"to","type":"address","internalType":"address"},{"name":"id","type":"uint256","internalType":"uint256"}],"outputs":[],"stateMutability":"payable"},{"type":"function","name":"safeTransferFrom","inputs":[{"name":"from","type":"address","internalType":"address"},{"name":"to","type":"address","internalType":"address"},{"name":"id","type":"uint256","internalType":"uint256"},{"name":"data","type":"bytes","internalType":"bytes"}],"outputs":[],"stateMutability":"payable"},{"type":"function","name":"setApprovalForAll","inputs":[{"name":"operator","type":"address","internalType":"address"},{"name":"isApproved","type":"bool","internalType":"bool"}],"outputs":[],"stateMutability":"nonpayable"},{"type":"function","name":"setMinEthForWindow","inputs":[{"name":"_minEthForWindow","type":"uint256","internalType":"uint256"}],"outputs":[],"stateMutability":"nonpayable"},{"type":"function","name":"setMintPrice","inputs":[{"name":"_mintPrice","type":"uint256","internalType":"uint256"}],"outputs":[],"stateMutability":"nonpayable"},{"type":"function","name":"setMintingPaused","inputs":[{"name":"_paused","type":"bool","internalType":"bool"}],"outputs":[],"stateMutability":"nonpayable"},{"type":"function","name":"setPayoutRecipient","inputs":[{"name":"_payoutRecipient","type":"address","internalType":"address"}],"outputs":[],"stateMutability":"nonpayable"},{"type":"function","name":"setRenderer","inputs":[{"name":"_renderer","type":"address","internalType":"address"}],"outputs":[],"stateMutability":"nonpayable"},{"type":"function","name":"setStrategy","inputs":[{"name":"_strategy","type":"address","internalType":"address"}],"outputs":[],"stateMutability":"nonpayable"},{"type":"function","name":"setWindowCreationEnabled","inputs":[{"name":"_enabled","type":"bool","internalType":"bool"}],"outputs":[],"stateMutability":"nonpayable"},{"type":"function","name":"setWindowDuration","inputs":[{"name":"_windowDuration","type":"uint256","internalType":"uint256"}],"outputs":[],"stateMutability":"nonpayable"},{"type":"function","name":"startWindow0","inputs":[{"name":"duration","type":"uint64","internalType":"uint64"}],"outputs":[],"stateMutability":"nonpayable"},{"type":"function","name":"strategy","inputs":[],"outputs":[{"name":"","type":"address","internalType":"contract IRecursiveStrategy"}],"stateMutability":"view"},{"type":"function","name":"supportsInterface","inputs":[{"name":"interfaceId","type":"bytes4","internalType":"bytes4"}],"outputs":[{"name":"result","type":"bool","internalType":"bool"}],"stateMutability":"view"},{"type":"function","name":"symbol","inputs":[],"outputs":[{"name":"","type":"string","internalType":"string"}],"stateMutability":"pure"},{"type":"function","name":"timeUntilWindowCloses","inputs":[],"outputs":[{"name":"","type":"uint256","internalType":"uint256"}],"stateMutability":"view"},{"type":"function","name":"tokenURI","inputs":[{"name":"tokenId","type":"uint256","internalType":"uint256"}],"outputs":[{"name":"","type":"string","internalType":"string"}],"stateMutability":"view"},{"type":"function","name":"totalSupply","inputs":[],"outputs":[{"name":"","type":"uint256","internalType":"uint256"}],"stateMutability":"view"},{"type":"function","name":"transferFrom","inputs":[{"name":"from","type":"address","internalType":"address"},{"name":"to","type":"address","internalType":"address"},{"name":"id","type":"uint256","internalType":"uint256"}],"outputs":[],"stateMutability":"payable"},{"type":"function","name":"transferOwnership","inputs":[{"name":"newOwner","type":"address","internalType":"address"}],"outputs":[],"stateMutability":"payable"},{"type":"function","name":"window0EndTime","inputs":[],"outputs":[{"name":"","type":"uint64","internalType":"uint64"}],"stateMutability":"view"},{"type":"function","name":"windowCount","inputs":[],"outputs":[{"name":"","type":"uint256","internalType":"uint256"}],"stateMutability":"view"},{"type":"function","name":"windowCreationEnabled","inputs":[],"outputs":[{"name":"","type":"bool","internalType":"bool"}],"stateMutability":"view"},{"type":"function","name":"windowDuration","inputs":[],"outputs":[{"name":"","type":"uint256","internalType":"uint256"}],"stateMutability":"view"},{"type":"function","name":"withdraw","inputs":[],"outputs":[],"stateMutability":"nonpayable"},{"type":"event","name":"Approval","inputs":[{"name":"owner","type":"address","indexed":true,"internalType":"address"},{"name":"account","type":"address","indexed":true,"internalType":"address"},{"name":"id","type":"uint256","indexed":true,"internalType":"uint256"}],"anonymous":false},{"type":"event","name":"ApprovalForAll","inputs":[{"name":"owner","type":"address","indexed":true,"internalType":"address"},{"name":"operator","type":"address","indexed":true,"internalType":"address"},{"name":"isApproved","type":"bool","indexed":false,"internalType":"bool"}],"anonymous":false},{"type":"event","name":"MinEthForWindowUpdated","inputs":[{"name":"newMinEth","type":"uint256","indexed":false,"internalType":"uint256"}],"anonymous":false},{"type":"event","name":"MintPriceUpdated","inputs":[{"name":"newPrice","type":"uint256","indexed":false,"internalType":"uint256"}],"anonymous":false},{"type":"event","name":"Minted","inputs":[{"name":"tokenId","type":"uint256","indexed":true,"internalType":"uint256"},{"name":"windowId","type":"uint256","indexed":true,"internalType":"uint256"},{"name":"minter","type":"address","indexed":true,"internalType":"address"},{"name":"seed","type":"bytes32","indexed":false,"internalType":"bytes32"}],"anonymous":false},{"type":"event","name":"MintingPausedChanged","inputs":[{"name":"paused","type":"bool","indexed":false,"internalType":"bool"}],"anonymous":false},{"type":"event","name":"OwnershipHandoverCanceled","inputs":[{"name":"pendingOwner","type":"address","indexed":true,"internalType":"address"}],"anonymous":false},{"type":"event","name":"OwnershipHandoverRequested","inputs":[{"name":"pendingOwner","type":"address","indexed":true,"internalType":"address"}],"anonymous":false},{"type":"event","name":"OwnershipTransferred","inputs":[{"name":"oldOwner","type":"address","indexed":true,"internalType":"address"},{"name":"newOwner","type":"address","indexed":true,"internalType":"address"}],"anonymous":false},{"type":"event","name":"PayoutRecipientUpdated","inputs":[{"name":"newRecipient","type":"address","indexed":false,"internalType":"address"}],"anonymous":false},{"type":"event","name":"RendererUpdated","inputs":[{"name":"newRenderer","type":"address","indexed":false,"internalType":"address"}],"anonymous":false},{"type":"event","name":"StrategyUpdated","inputs":[{"name":"newStrategy","type":"address","indexed":false,"internalType":"address"}],"anonymous":false},{"type":"event","name":"Transfer","inputs":[{"name":"from","type":"address","indexed":true,"internalType":"address"},{"name":"to","type":"address","indexed":true,"internalType":"address"},{"name":"id","type":"uint256","indexed":true,"internalType":"uint256"}],"anonymous":false},{"type":"event","name":"Window0Started","inputs":[{"name":"startTime","type":"uint64","indexed":false,"internalType":"uint64"},{"name":"endTime","type":"uint64","indexed":false,"internalType":"uint64"}],"anonymous":false},{"type":"event","name":"WindowCreated","inputs":[{"name":"windowId","type":"uint256","indexed":true,"internalType":"uint256"},{"name":"startTime","type":"uint64","indexed":false,"internalType":"uint64"},{"name":"endTime","type":"uint64","indexed":false,"internalType":"uint64"}],"anonymous":false},{"type":"event","name":"WindowCreationEnabledChanged","inputs":[{"name":"enabled","type":"bool","indexed":false,"internalType":"bool"}],"anonymous":false},{"type":"event","name":"WindowDurationUpdated","inputs":[{"name":"newWindowDuration","type":"uint256","indexed":false,"internalType":"uint256"}],"anonymous":false},{"type":"event","name":"Withdrawn","inputs":[{"name":"recipient","type":"address","indexed":true,"internalType":"address"},{"name":"amount","type":"uint256","indexed":false,"internalType":"uint256"}],"anonymous":false},{"type":"error","name":"AccountBalanceOverflow","inputs":[]},{"type":"error","name":"AlreadyInitialized","inputs":[]},{"type":"error","name":"BalanceQueryForZeroAddress","inputs":[]},{"type":"error","name":"IncorrectPayment","inputs":[]},{"type":"error","name":"InsufficientStrategyBalance","inputs":[]},{"type":"error","name":"InvalidAddress","inputs":[]},{"type":"error","name":"InvalidQuantity","inputs":[]},{"type":"error","name":"MintWindowActive","inputs":[]},{"type":"error","name":"MintingPaused","inputs":[]},{"type":"error","name":"NewOwnerIsZeroAddress","inputs":[]},{"type":"error","name":"NoHandoverRequest","inputs":[]},{"type":"error","name":"NotOwnerNorApproved","inputs":[]},{"type":"error","name":"Reentrancy","inputs":[]},{"type":"error","name":"TokenAlreadyExists","inputs":[]},{"type":"error","name":"TokenDoesNotExist","inputs":[]},{"type":"error","name":"TransferFromIncorrectOwner","inputs":[]},{"type":"error","name":"TransferToNonERC721ReceiverImplementer","inputs":[]},{"type":"error","name":"TransferToZeroAddress","inputs":[]},{"type":"error","name":"Unauthorized","inputs":[]},{"type":"error","name":"Window0NotAllowed","inputs":[]},{"type":"error","name":"WindowCreationDisabled","inputs":[]}],"bytecode":{"object":"0x60803461010f57601f611e6538819003918201601f19168301916001600160401b038311848410176101135780849260a09460405283398101031261010f5761004781610127565b90602081015161005960408301610127565b608061006760608501610127565b9301516001600160a01b03909116928315610100576001600160a01b03169384156101005760018060a01b031660018060a01b03195f5416175f5560015560045560018060a01b031960055416176005556703782dace9d9000060075580638b78c6d819555f7f8be0079c531659141344cd1fd0a4f28419497f9722a3daafe3b4186f6b6457e08180a3604051611d29908161013c8239f35b63e6c4247b60e01b5f5260045ffd5b5f80fd5b634e487b7160e01b5f52604160045260245ffd5b51906001600160a01b038216820361010f5756fe6080806040526004361015610012575f80fd5b5f3560e01c90816301ffc9a7146113a45750806305e9003a1461137f57806306fdde0314610c77578063081812fc1461132e578063095ea7b31461128657806318160ddd14611269578063205760eb1461121d578063223c49721461120357806323b872dd146111f157806325692962146111a85780632d07ae111461118b57806333a100ca1461111c5780633ccfd60b146110745780633fb80b151461104c57806342842e0e1461101357806346bb595414610fa257806354d1f13d14610f5e57806356d3163d14610ede5780635c11ff7a14610ec1578063617c8a8d14610ddf5780636352211e14610d895780636817c76c14610d6c57806370a0823114610d19578063715018a614610cd05780638ada6b0f14610ca85780638da5cb5b14610c7c57806395d89b4114610c775780639795867414610c13578063a0712d6814610940578063a22cb465146108ce578063a2801f57146108ab578063a8c62e7614610884578063ad13419d14610826578063b09afec11461079c578063b4f738cf14610750578063b88d4fde146106af578063b977946d1461068b578063b98fb3ee14610664578063c87b56dd146105e3578063e0d4ea3714610583578063e1a283d614610561578063e8a3d485146104dd578063e8e03280146104b4578063e985e9c514610470578063ebe4238b14610398578063f04e283e1461034b578063f2fde38b1461030e578063f4a0a528146102c2578063fd282a98146102a5578063fee81cf4146102735763ff0ea2361461024d575f80fd5b3461026f575f36600319011261026f5760206102676118bf565b604051908152f35b5f80fd5b3461026f57602036600319011261026f5761028c611456565b63389a75e1600c525f52602080600c2054604051908152f35b3461026f575f36600319011261026f576020600754604051908152f35b3461026f57602036600319011261026f577f525b762709cc2a983aec5ccdfd807a061f993c91090b5bcd7da92ca254976aaa602060043561030161190e565b80600455604051908152a1005b602036600319011261026f57610322611456565b61032a61190e565b8060601b1561033e5761033c90611a03565b005b637448fbae5f526004601cfd5b602036600319011261026f5761035f611456565b61036761190e565b63389a75e1600c52805f526020600c20908154421161038b575f61033c9255611a03565b636f5e88185f526004601cfd5b3461026f575f36600319011261026f573068929eee149b4bd212685414610463573068929eee149b4bd2126855600254158061044c575b80610434575b60ff60085460081c1615908161042b575b5061041c576103f361192a565b61040d576103ff611a40565b3868929eee149b4bd2126855005b63209b21a560e11b5f5260045ffd5b632340ee9960e11b5f5260045ffd5b905015816103e6565b506001600160401b0360085460101c164210156103d5565b506001600160401b0360085460101c1615156103cf565b63ab143c065f526004601cfd5b3461026f57604036600319011261026f57610489611456565b61049161146c565b601c52670a5a2e7a000000006008525f5260206030600c20546040519015158152f35b3461026f575f36600319011261026f5760206001600160401b0360085460101c16604051908152f35b3461026f575f36600319011261026f5760065460405163e8a3d48560e01b8152905f90829060049082906001600160a01b03165afa801561055657610530915f91610534575b50604051918291826113ee565b0390f35b61055091503d805f833e61054881836114fa565b81019061185d565b82610523565b6040513d5f823e3d90fd5b3461026f575f36600319011261026f57602060ff600854166040519015158152f35b3461026f57602036600319011261026f576004355f818152673ec412a9852d173d60c11b601c5260209020810181015460601b156105d4575f52600a6020526020600160405f200154604051908152f35b63677510db60e11b5f5260045ffd5b3461026f57602036600319011261026f576004355f818152673ec412a9852d173d60c11b601c5260209020810181015460601b156105d45760065460405163c87b56dd60e01b815260048101929092525f90829060249082906001600160a01b03165afa801561055657610530915f916105345750604051918291826113ee565b3461026f57604036600319011261026f576020610267610682611456565b602435906117c0565b3461026f575f36600319011261026f5760206106a561192a565b6040519015158152f35b608036600319011261026f576106c3611456565b6106cb61146c565b604435606435916001600160401b03831161026f573660238401121561026f578260040135936001600160401b03851161026f57366024868601011161026f57610716838383611617565b813b61071e57005b5f60208680602461073161033c9a61151b565b9861073f6040519a8b6114fa565b828a52018389013786010152611971565b3461026f57602036600319011261026f577fcc269177d1f91fe2ded446dd59b3ca32e118a02398319775c76ffa72e7855653602060043561078f61190e565b80600155604051908152a1005b3461026f57602036600319011261026f576004355f60206040516107bf816114cb565b82815201525f818152673ec412a9852d173d60c11b601c5260209020810181015460601b156105d4575f52600a6020526040805f2081516107ff816114cb565b602060016001600160401b0384541693848452015491019081528251918252516020820152f35b3461026f57602036600319011261026f577f60fa4f6a102b3dbb4fdff5e8b9283920c9d1559e293bb8708fe483ea109dde5a60206108626114bc565b61086a61190e565b151560ff196008541660ff821617600855604051908152a1005b3461026f575f36600319011261026f575f546040516001600160a01b039091168152602090f35b3461026f57602036600319011261026f5760206102676108c9611456565b611748565b3461026f57604036600319011261026f576108e7611456565b60243580151580910361026f5781601c52670a5a2e7a00000000600852335f52806030600c20555f5260018060a01b0316337f17307eab39ab6107e8899845ad3d59bd9653f200f220920489ca2b5937696c3160205fa3005b602036600319011261026f576004353068929eee149b4bd212685414610463573068929eee149b4bd212685560085460ff8116610c04578115610bf55761098561192a565b15610b8b575b5060025490815f52600b60205260405f2060018060a01b0333165f5260205260405f20546109b98282611c66565b3403610b7c57816109c99161172e565b5f838152600b60209081526040808320338452909152902055600354600181019190828111610b6857816109fc9161172e565b6003555f194301438111610b6857409290916001600160401b03821691905f5b848110610a31573868929eee149b4bd2126855005b610a3b818361172e565b90604051602081019088825283604082015260408152610a5c6060826114fa565b519020604051610a6b816114cb565b868152600160208201838152855f52600a6020526001600160401b038060405f20945116166001600160401b031984541617835551910155825f52673ec412a9852d173d60c11b601c5260205f208301830180548060601b610b5b5733179055335f52601c600c2060018154019363ffffffff8516330215610b465760019487925580335f7fddf252ad1be2c89b69c2b068fc378daa952ba7f163c4a11628f55a4df523b3ef8180a46040519283527fd8d3f4689036e011512f797b74f83dbe227a55ff95d3ea8c9a556d086191ba9e60203394a401610a1c565b67ea553b3401336cea331560021b526004601cfd5b63c991cbb15f526004601cfd5b634e487b7160e01b5f52601160045260245ffd5b63569e8c1160e01b5f5260045ffd5b600254159081610bde575b81610bc6575b60081c60ff16159081610bbd575b5061041c57610bb7611a40565b8161098b565b90501582610baa565b601081901c6001600160401b03164210159150610b9c565b90506001600160401b038160101c16151590610b96565b63524f409b60e01b5f5260045ffd5b6375ab03ab60e11b5f5260045ffd5b3461026f57602036600319011261026f577fc6120a63d59298860f6fd933df9ea3daeb489f3959671c11278903a0b985c8216020610c4f6114bc565b610c5761190e565b151560085461ff008260081b169061ff00191617600855604051908152a1005b611418565b3461026f575f36600319011261026f57638b78c6d819546040516001600160a01b039091168152602090f35b3461026f575f36600319011261026f576006546040516001600160a01b039091168152602090f35b5f36600319011261026f57610ce361190e565b5f638b78c6d819547f8be0079c531659141344cd1fd0a4f28419497f9722a3daafe3b4186f6b6457e08280a35f638b78c6d81955005b3461026f57602036600319011261026f57610d32611456565b8015610d5f57673ec412a9852d173d60c11b601c525f52602063ffffffff601c600c205416604051908152f35b638f4eb6045f526004601cfd5b3461026f575f36600319011261026f576020600454604051908152f35b3461026f57602036600319011261026f576004355f818152673ec412a9852d173d60c11b601c5260209020810101546001600160a01b03168015610dd257602090604051908152f35b63ceea21b65f526004601cfd5b3461026f57602036600319011261026f576004356001600160401b038116810361026f57610e0b61190e565b600254610eb2576008546001600160401b038160101c16610eb2577fcd075a155ea16f406de513a02424429933bc404c9ce85800b7700c185e54df9c91610ead6001600160401b039269ffffffffffffffff0000610e6c854216948561170e565b60101b169069ffffffffffffffff0000191617918260085560405193849360101c1690839092916001600160401b0360209181604085019616845216910152565b0390a1005b63631ab65160e01b5f5260045ffd5b3461026f575f36600319011261026f576020600154604051908152f35b3461026f57602036600319011261026f57610ef7611456565b610eff61190e565b6001600160a01b03168015610f4f576020817f482cbbbcf912da3be80deb8503ae1e94c0b7d5d1d0ec0af3d9d6403e06e609ee926001600160601b0360a01b6006541617600655604051908152a1005b63e6c4247b60e01b5f5260045ffd5b5f36600319011261026f5763389a75e1600c52335f525f6020600c2055337ffa7b8eab7da67f412cc9575ed43464468f9bfbae89d1675917346ca6d8fe3c925f80a2005b3461026f57602036600319011261026f57610fbb611456565b610fc361190e565b6001600160a01b03168015610f4f576020817f5eb0913799140a38d5e80f5c04a585a09b65facadcbbe1a2c0c942d4198b2e93926001600160601b0360a01b6005541617600555604051908152a1005b61101c36611482565b6110298183859495611617565b823b61103157005b61033c92604051926110446020856114fa565b5f8452611971565b3461026f575f36600319011261026f576005546040516001600160a01b039091168152602090f35b3461026f575f36600319011261026f5761108c61190e565b60055447906001600160a01b031647821161110f575f3881808585620186a0f1156110ee575b506005546040519182526001600160a01b0316907f7084f5476618d8e60b11ef0d7d3f06914655adb8793e28ff7f018d4c76d505d590602090a2005b5f526073600b5360ff6020536016600b82f01561110b57816110b2565b3838fd5b63b12d13eb5f526004601cfd5b3461026f57602036600319011261026f57611135611456565b61113d61190e565b6001600160a01b03168015610f4f576020817f4da9c22c924692646a21cf1f423781ae3285198dc22e8a6912835d3272b90b3c926001600160601b0360a01b5f5416175f55604051908152a1005b3461026f575f36600319011261026f576020600254604051908152f35b5f36600319011261026f5763389a75e1600c52335f526202a30042016020600c2055337fdbf36a107da19e49527a7176a1babf963b4b0ff8cde35ee35d6cd8f1f9ac7e1d5f80a2005b61033c6111fd36611482565b91611617565b3461026f575f36600319011261026f5760206106a5611536565b3461026f57602036600319011261026f577f182bb03c6d66a6d1c1abf10b224dc0879a278504605029310ada64409a8bf41b602060043561125c61190e565b80600755604051908152a1005b3461026f575f36600319011261026f576020600354604051908152f35b604036600319011261026f5761129a611456565b6024355f818152673ec412a9852d173d60c11b3317601c526020902081018101805491926001600160a01b039081169216908115610dd25782908233143315171561130a575b600101557f8c5be1e5ebec7d5bd14f71427d1e84f3dd0314c0f7b2291e5b200ac8c7c3b9255f80a4005b9050815f526030600c2054156113215782906112e0565b634b6e7f185f526004601cfd5b3461026f57602036600319011261026f576004355f818152673ec412a9852d173d60c11b601c5260209020810101805460601b15610dd257600101546040516001600160a01b039091168152602090f35b3461026f575f36600319011261026f57602060ff60085460081c166040519015158152f35b3461026f57602036600319011261026f57600435906001600160e01b03198216820361026f5760209160e01c635b5e139f8114906301ffc9a76380ac58cd82149114171715158152f35b602060409281835280519182918282860152018484015e5f828201840152601f01601f1916010190565b3461026f575f36600319011261026f576105306040516114396040826114fa565b60048152634c45535360e01b6020820152604051918291826113ee565b600435906001600160a01b038216820361026f57565b602435906001600160a01b038216820361026f57565b606090600319011261026f576004356001600160a01b038116810361026f57906024356001600160a01b038116810361026f579060443590565b60043590811515820361026f57565b604081019081106001600160401b038211176114e657604052565b634e487b7160e01b5f52604160045260245ffd5b90601f801991011681019081106001600160401b038211176114e657604052565b6001600160401b0381116114e657601f01601f191660200190565b6002541580611600575b806115e8575b60ff60085460081c161590816115df575b506115db5761156461192a565b6115db5760018060a01b035f54168031600754116115d65760206004916040519283809263016dc09d60e31b82525afa908115610556575f916115a657501590565b90506020813d6020116115ce575b816115c1602093836114fa565b8101031261026f57511590565b3d91506115b4565b505f90565b5f90565b9050155f611557565b506001600160401b0360085460101c16421015611546565b506001600160401b0360085460101c161515611540565b5f838152673ec412a9852d173d60c11b3317601c52602090208301830180546001600160a01b03938416939283169281168084148102156116f95750825f5281600101805480331485331417156116e2575b6116d9575b50838318189055601c600c205f198154019055815f52601c600c2060018154019063ffffffff82168402156116c457557fddf252ad1be2c89b69c2b068fc378daa952ba7f163c4a11628f55a4df523b3ef5f80a4565b67ea553b3401336cea841560021b526004601cfd5b5f90555f61166e565b6030600c205461166957634b6e7f185f526004601cfd5b67ceea21b6a1148100901560021b526004601cfd5b906001600160401b03809116911601906001600160401b038211610b6857565b91908201809211610b6857565b91908203918211610b6857565b6002548015611772575f52600b60205260405f209060018060a01b03165f5260205260405f205490565b506001600160401b0360085460101c16156115d6576001600160a01b03165f9081527fdf7de25b7f1fd6d0b5205f0e18f1f35bd7b8d84cce336588d184533ce43a6f76602052604090205490565b908015611857576002546117fa92905f81156117fd57505f52600b60205260405f209060018060a01b03165f5260205260405f2054611c66565b90565b9190506001600160401b0360085460101c1661181a575b50611c66565b6001600160a01b03165f9081527fdf7de25b7f1fd6d0b5205f0e18f1f35bd7b8d84cce336588d184533ce43a6f7660205260408120549150611814565b50505f90565b60208183031261026f578051906001600160401b03821161026f570181601f8201121561026f578051906118908261151b565b9261189e60405194856114fa565b8284526020838301011161026f57815f9260208093018386015e8301015290565b6118c761192a565b156115db5760025480156118f4575f5260096020526117fa6001600160401b0360405f205416429061173b565b506117fa6001600160401b0360085460101c16429061173b565b638b78c6d81954330361191d57565b6382b429005f526004601cfd5b600254801561194d575f5260096020526001600160401b0360405f205416421090565b506001600160401b0360085460101c16801515908161196a575090565b9050421090565b9060a46020939460405195869463150b7a028652338787015260018060a01b03166040860152606085015260808085015280518091818060a08801526119ef575b505001905f601c8401915af1156119e1575b5163757a42ff60e11b016119d457565b63d1a57ed65f526004601cfd5b3d156119c4573d5f823e3d90fd5b818760c08801920160045afa50805f6119b2565b60018060a01b031680638b78c6d819547f8be0079c531659141344cd1fd0a4f28419497f9722a3daafe3b4186f6b6457e05f80a3638b78c6d81955565b600854905f9160ff8160081c161580611c0e575b80611bf9575b611bbb575b5060018060a01b035f5416803160075411611bac57803b1561026f575f8091600460405180948193631db5275560e01b83525af1801561055657611b97575b506002545f198114611b8357600101806002556001600160401b03421690611ad16001600160401b03600154168361170e565b9060405190602082018281106001600160401b03821117611b6f5760407fe06ce442afd483033ce0a251188ca4c4d1c81a74bf69c6d3699cede668afda479596976001600160401b03938493835283871686528152600960205220925116166001600160401b031982541617905560025492611b6a604051928392839092916001600160401b0360209181604085019616845216910152565b0390a2565b634e487b7160e01b87526041600452602487fd5b634e487b7160e01b83526011600452602483fd5b611ba49192505f906114fa565b5f905f611a9e565b6354e89c2b60e11b5f5260045ffd5b6101009061ff001916176008557fc6120a63d59298860f6fd933df9ea3daeb489f3959671c11278903a0b985c821602060405160018152a15f611a5f565b506001600160401b038160101c161515611a5a565b5060025415611a54565b60a18111610b685760030a90565b81810292918115918404141715610b6857565b60ff8111610b68576001901b90565b8115611c52570490565b634e487b7160e01b5f52601260045260245ffd5b60018214611cd057611c7781611c18565b90611c94611c8484611c18565b93611c8e81611c39565b9261172e565b5f19810193908411610b6857611cc5611ccb92611cbf611cb66117fa97611c39565b95600454611c26565b9261173b565b90611c26565b611c48565b6117fa9150611ced611ce7600454611cc584611c18565b91611c39565b90611c4856fea2646970667358221220c2c38e8087a25c2963c3cbba444a3b902a5e14c95a29941dd96f7659e32bf63564736f6c634300081a0033","linkReferences":{}},"methodIdentifiers":{"approve(address,uint256)":"095ea7b3","balanceOf(address)":"70a08231","canCreateWindow()":"223c4972","cancelOwnershipHandover()":"54d1f13d","completeOwnershipHandover(address)":"f04e283e","contractURI()":"e8a3d485","createWindow()":"ebe4238b","getApproved(uint256)":"081812fc","getMintCost(address,uint256)":"b98fb3ee","getMintCount(address)":"a2801f57","getSeed(uint256)":"e0d4ea37","getTokenData(uint256)":"b09afec1","isApprovedForAll(address,address)":"e985e9c5","isWindowActive()":"b977946d","minEthForWindow()":"fd282a98","mint(uint256)":"a0712d68","mintPrice()":"6817c76c","mintingPaused()":"e1a283d6","name()":"06fdde03","owner()":"8da5cb5b","ownerOf(uint256)":"6352211e","ownershipHandoverExpiresAt(address)":"fee81cf4","payoutRecipient()":"3fb80b15","renderer()":"8ada6b0f","renounceOwnership()":"715018a6","requestOwnershipHandover()":"25692962","safeTransferFrom(address,address,uint256)":"42842e0e","safeTransferFrom(address,address,uint256,bytes)":"b88d4fde","setApprovalForAll(address,bool)":"a22cb465","setMinEthForWindow(uint256)":"205760eb","setMintPrice(uint256)":"f4a0a528","setMintingPaused(bool)":"ad13419d","setPayoutRecipient(address)":"46bb5954","setRenderer(address)":"56d3163d","setStrategy(address)":"33a100ca","setWindowCreationEnabled(bool)":"97958674","setWindowDuration(uint256)":"b4f738cf","startWindow0(uint64)":"617c8a8d","strategy()":"a8c62e76","supportsInterface(bytes4)":"01ffc9a7","symbol()":"95d89b41","timeUntilWindowCloses()":"ff0ea236","tokenURI(uint256)":"c87b56dd","totalSupply()":"18160ddd","transferFrom(address,address,uint256)":"23b872dd","transferOwnership(address)":"f2fde38b","window0EndTime()":"e8e03280","windowCount()":"2d07ae11","windowCreationEnabled()":"05e9003a","windowDuration()":"5c11ff7a","withdraw()":"3ccfd60b"},"id":2}