{"abi":[{"type":"constructor","inputs":[{"name":"_strategy","type":"address","internalType":"address"},{"name":"_mintPrice","type":"uint256","internalType":"uint256"},{"name":"_payoutRecipient","type":"address","internalType":"address"},{"name":"_owner","type":"address","internalType":"address"}],"stateMutability":"nonpayable"},{"type":"function","name":"activeFoldId","inputs":[],"outputs":[{"name":"","type":"uint256","internalType":"uint256"}],"stateMutability":"view"},{"type":"function","name":"approve","inputs":[{"name":"account","type":"address","internalType":"address"},{"name":"id","type":"uint256","internalType":"uint256"}],"outputs":[],"stateMutability":"payable"},{"type":"function","name":"balanceOf","inputs":[{"name":"owner","type":"address","internalType":"address"}],"outputs":[{"name":"result","type":"uint256","internalType":"uint256"}],"stateMutability":"view"},{"type":"function","name":"cancelOwnershipHandover","inputs":[],"outputs":[],"stateMutability":"payable"},{"type":"function","name":"completeOwnershipHandover","inputs":[{"name":"pendingOwner","type":"address","internalType":"address"}],"outputs":[],"stateMutability":"payable"},{"type":"function","name":"createFold","inputs":[],"outputs":[],"stateMutability":"nonpayable"},{"type":"function","name":"currentFoldId","inputs":[],"outputs":[{"name":"","type":"uint256","internalType":"uint256"}],"stateMutability":"view"},{"type":"function","name":"folds","inputs":[{"name":"","type":"uint256","internalType":"uint256"}],"outputs":[{"name":"startTime","type":"uint64","internalType":"uint64"},{"name":"endTime","type":"uint64","internalType":"uint64"},{"name":"strategyBlock","type":"uint64","internalType":"uint64"}],"stateMutability":"view"},{"type":"function","name":"getApproved","inputs":[{"name":"id","type":"uint256","internalType":"uint256"}],"outputs":[{"name":"result","type":"address","internalType":"address"}],"stateMutability":"view"},{"type":"function","name":"getFold","inputs":[{"name":"foldId","type":"uint256","internalType":"uint256"}],"outputs":[{"name":"","type":"tuple","internalType":"struct Less.Fold","components":[{"name":"startTime","type":"uint64","internalType":"uint64"},{"name":"endTime","type":"uint64","internalType":"uint64"},{"name":"strategyBlock","type":"uint64","internalType":"uint64"}]}],"stateMutability":"view"},{"type":"function","name":"getFoldId","inputs":[{"name":"tokenId","type":"uint256","internalType":"uint256"}],"outputs":[{"name":"","type":"uint256","internalType":"uint256"}],"stateMutability":"view"},{"type":"function","name":"getSeed","inputs":[{"name":"tokenId","type":"uint256","internalType":"uint256"}],"outputs":[{"name":"","type":"bytes32","internalType":"bytes32"}],"stateMutability":"view"},{"type":"function","name":"getTokenData","inputs":[{"name":"tokenId","type":"uint256","internalType":"uint256"}],"outputs":[{"name":"","type":"tuple","internalType":"struct Less.TokenData","components":[{"name":"foldId","type":"uint64","internalType":"uint64"},{"name":"seed","type":"bytes32","internalType":"bytes32"}]}],"stateMutability":"view"},{"type":"function","name":"hasMintedFold","inputs":[{"name":"","type":"uint256","internalType":"uint256"},{"name":"","type":"address","internalType":"address"}],"outputs":[{"name":"","type":"bool","internalType":"bool"}],"stateMutability":"view"},{"type":"function","name":"isApprovedForAll","inputs":[{"name":"owner","type":"address","internalType":"address"},{"name":"operator","type":"address","internalType":"address"}],"outputs":[{"name":"result","type":"bool","internalType":"bool"}],"stateMutability":"view"},{"type":"function","name":"isWindowActive","inputs":[],"outputs":[{"name":"","type":"bool","internalType":"bool"}],"stateMutability":"view"},{"type":"function","name":"mint","inputs":[],"outputs":[],"stateMutability":"payable"},{"type":"function","name":"mintPrice","inputs":[],"outputs":[{"name":"","type":"uint256","internalType":"uint256"}],"stateMutability":"view"},{"type":"function","name":"name","inputs":[],"outputs":[{"name":"","type":"string","internalType":"string"}],"stateMutability":"pure"},{"type":"function","name":"owner","inputs":[],"outputs":[{"name":"result","type":"address","internalType":"address"}],"stateMutability":"view"},{"type":"function","name":"ownerOf","inputs":[{"name":"id","type":"uint256","internalType":"uint256"}],"outputs":[{"name":"result","type":"address","internalType":"address"}],"stateMutability":"view"},{"type":"function","name":"ownershipHandoverExpiresAt","inputs":[{"name":"pendingOwner","type":"address","internalType":"address"}],"outputs":[{"name":"result","type":"uint256","internalType":"uint256"}],"stateMutability":"view"},{"type":"function","name":"payoutRecipient","inputs":[],"outputs":[{"name":"","type":"address","internalType":"address"}],"stateMutability":"view"},{"type":"function","name":"renderer","inputs":[],"outputs":[{"name":"","type":"address","internalType":"address"}],"stateMutability":"view"},{"type":"function","name":"renounceOwnership","inputs":[],"outputs":[],"stateMutability":"payable"},{"type":"function","name":"requestOwnershipHandover","inputs":[],"outputs":[],"stateMutability":"payable"},{"type":"function","name":"safeTransferFrom","inputs":[{"name":"from","type":"address","internalType":"address"},{"name":"to","type":"address","internalType":"address"},{"name":"id","type":"uint256","internalType":"uint256"}],"outputs":[],"stateMutability":"payable"},{"type":"function","name":"safeTransferFrom","inputs":[{"name":"from","type":"address","internalType":"address"},{"name":"to","type":"address","internalType":"address"},{"name":"id","type":"uint256","internalType":"uint256"},{"name":"data","type":"bytes","internalType":"bytes"}],"outputs":[],"stateMutability":"payable"},{"type":"function","name":"setApprovalForAll","inputs":[{"name":"operator","type":"address","internalType":"address"},{"name":"isApproved","type":"bool","internalType":"bool"}],"outputs":[],"stateMutability":"nonpayable"},{"type":"function","name":"setMintPrice","inputs":[{"name":"_mintPrice","type":"uint256","internalType":"uint256"}],"outputs":[],"stateMutability":"nonpayable"},{"type":"function","name":"setPayoutRecipient","inputs":[{"name":"_payoutRecipient","type":"address","internalType":"address"}],"outputs":[],"stateMutability":"nonpayable"},{"type":"function","name":"setRenderer","inputs":[{"name":"_renderer","type":"address","internalType":"address"}],"outputs":[],"stateMutability":"nonpayable"},{"type":"function","name":"strategy","inputs":[],"outputs":[{"name":"","type":"address","internalType":"contract IRecursiveStrategy"}],"stateMutability":"view"},{"type":"function","name":"supportsInterface","inputs":[{"name":"interfaceId","type":"bytes4","internalType":"bytes4"}],"outputs":[{"name":"result","type":"bool","internalType":"bool"}],"stateMutability":"view"},{"type":"function","name":"symbol","inputs":[],"outputs":[{"name":"","type":"string","internalType":"string"}],"stateMutability":"pure"},{"type":"function","name":"tokenData","inputs":[{"name":"","type":"uint256","internalType":"uint256"}],"outputs":[{"name":"foldId","type":"uint64","internalType":"uint64"},{"name":"seed","type":"bytes32","internalType":"bytes32"}],"stateMutability":"view"},{"type":"function","name":"tokenURI","inputs":[{"name":"tokenId","type":"uint256","internalType":"uint256"}],"outputs":[{"name":"","type":"string","internalType":"string"}],"stateMutability":"view"},{"type":"function","name":"totalSupply","inputs":[],"outputs":[{"name":"","type":"uint256","internalType":"uint256"}],"stateMutability":"view"},{"type":"function","name":"transferFrom","inputs":[{"name":"from","type":"address","internalType":"address"},{"name":"to","type":"address","internalType":"address"},{"name":"id","type":"uint256","internalType":"uint256"}],"outputs":[],"stateMutability":"payable"},{"type":"function","name":"transferOwnership","inputs":[{"name":"newOwner","type":"address","internalType":"address"}],"outputs":[],"stateMutability":"payable"},{"type":"function","name":"windowDuration","inputs":[],"outputs":[{"name":"","type":"uint256","internalType":"uint256"}],"stateMutability":"view"},{"type":"event","name":"Approval","inputs":[{"name":"owner","type":"address","indexed":true,"internalType":"address"},{"name":"account","type":"address","indexed":true,"internalType":"address"},{"name":"id","type":"uint256","indexed":true,"internalType":"uint256"}],"anonymous":false},{"type":"event","name":"ApprovalForAll","inputs":[{"name":"owner","type":"address","indexed":true,"internalType":"address"},{"name":"operator","type":"address","indexed":true,"internalType":"address"},{"name":"isApproved","type":"bool","indexed":false,"internalType":"bool"}],"anonymous":false},{"type":"event","name":"FoldCreated","inputs":[{"name":"foldId","type":"uint256","indexed":true,"internalType":"uint256"},{"name":"startTime","type":"uint64","indexed":false,"internalType":"uint64"},{"name":"endTime","type":"uint64","indexed":false,"internalType":"uint64"},{"name":"strategyBlock","type":"uint64","indexed":false,"internalType":"uint64"}],"anonymous":false},{"type":"event","name":"MintPriceUpdated","inputs":[{"name":"newPrice","type":"uint256","indexed":false,"internalType":"uint256"}],"anonymous":false},{"type":"event","name":"Minted","inputs":[{"name":"tokenId","type":"uint256","indexed":true,"internalType":"uint256"},{"name":"foldId","type":"uint256","indexed":true,"internalType":"uint256"},{"name":"minter","type":"address","indexed":true,"internalType":"address"},{"name":"seed","type":"bytes32","indexed":false,"internalType":"bytes32"}],"anonymous":false},{"type":"event","name":"OwnershipHandoverCanceled","inputs":[{"name":"pendingOwner","type":"address","indexed":true,"internalType":"address"}],"anonymous":false},{"type":"event","name":"OwnershipHandoverRequested","inputs":[{"name":"pendingOwner","type":"address","indexed":true,"internalType":"address"}],"anonymous":false},{"type":"event","name":"OwnershipTransferred","inputs":[{"name":"oldOwner","type":"address","indexed":true,"internalType":"address"},{"name":"newOwner","type":"address","indexed":true,"internalType":"address"}],"anonymous":false},{"type":"event","name":"PayoutRecipientUpdated","inputs":[{"name":"newRecipient","type":"address","indexed":false,"internalType":"address"}],"anonymous":false},{"type":"event","name":"RendererUpdated","inputs":[{"name":"newRenderer","type":"address","indexed":false,"internalType":"address"}],"anonymous":false},{"type":"event","name":"Transfer","inputs":[{"name":"from","type":"address","indexed":true,"internalType":"address"},{"name":"to","type":"address","indexed":true,"internalType":"address"},{"name":"id","type":"uint256","indexed":true,"internalType":"uint256"}],"anonymous":false},{"type":"error","name":"AccountBalanceOverflow","inputs":[]},{"type":"error","name":"AlreadyInitialized","inputs":[]},{"type":"error","name":"AlreadyMintedThisFold","inputs":[]},{"type":"error","name":"BalanceQueryForZeroAddress","inputs":[]},{"type":"error","name":"InsufficientPayment","inputs":[]},{"type":"error","name":"InvalidPayoutRecipient","inputs":[]},{"type":"error","name":"MintWindowActive","inputs":[]},{"type":"error","name":"NewOwnerIsZeroAddress","inputs":[]},{"type":"error","name":"NoActiveMintWindow","inputs":[]},{"type":"error","name":"NoHandoverRequest","inputs":[]},{"type":"error","name":"NotOwnerNorApproved","inputs":[]},{"type":"error","name":"Reentrancy","inputs":[]},{"type":"error","name":"TokenAlreadyExists","inputs":[]},{"type":"error","name":"TokenDoesNotExist","inputs":[]},{"type":"error","name":"TransferFailed","inputs":[]},{"type":"error","name":"TransferFromIncorrectOwner","inputs":[]},{"type":"error","name":"TransferToNonERC721ReceiverImplementer","inputs":[]},{"type":"error","name":"TransferToZeroAddress","inputs":[]},{"type":"error","name":"Unauthorized","inputs":[]}],"bytecode":{"object":"0x60c060405234801561000f575f80fd5b50604051611aea380380611aea83398101604081905261002e9161014c565b6001600160a01b038216610055576040516321c17ee560e11b815260040160405180910390fd5b6001600160a01b03841660808190526040805163377da8df60e21b8152905163ddf6a37c916004808201926020929091908290030181865afa15801561009d573d5f803e3d5ffd5b505050506040513d601f19601f820116820180604052508101906100c19190610197565b60a0526002839055600380546001600160a01b0319166001600160a01b0384161790556100ed816100f6565b505050506101ae565b6001600160a01b0316638b78c6d819819055805f7f8be0079c531659141344cd1fd0a4f28419497f9722a3daafe3b4186f6b6457e08180a350565b80516001600160a01b0381168114610147575f80fd5b919050565b5f805f806080858703121561015f575f80fd5b61016885610131565b6020860151909450925061017e60408601610131565b915061018c60608601610131565b905092959194509250565b5f602082840312156101a7575f80fd5b5051919050565b60805160a05161190d6101dd5f395f81816103f70152610e2801525f81816105f60152610da0015261190d5ff3fe60806040526004361061023e575f3560e01c8063715018a611610134578063b4b5b48f116100b3578063e0d4ea3711610078578063e0d4ea37146107ab578063e985e9c5146107ca578063f04e283e146107fe578063f2fde38b14610811578063f4a0a52814610824578063fee81cf414610843575f80fd5b8063b4b5b48f14610694578063b88d4fde146106f1578063b977946d14610704578063c72aad5d14610718578063c87b56dd1461078c575f80fd5b8063a22cb465116100f9578063a22cb4651461051e578063a2f0fc5e1461053d578063a8c62e76146105e5578063ac1e447e14610618578063b09afec114610651575f80fd5b8063715018a6146104945780638ada6b0f1461049c5780638da5cb5b146104bb5780638dfe32c4146104d357806395d89b41146104f2575f80fd5b806342842e0e116101c05780636352211e116101855780636352211e1461041957806363a2eda6146104385780636817c76c1461044c578063686693711461046157806370a0823114610475575f80fd5b806342842e0e1461038d57806346bb5954146103a057806354d1f13d146103bf57806356d3163d146103c75780635c11ff7a146103e6575f80fd5b806318160ddd1161020657806318160ddd1461031c57806323b872dd1461033f57806325692962146103525780633fb80b151461035a5780634086df6414610379575f80fd5b806301ffc9a71461024257806306fdde0314610293578063081812fc146102c8578063095ea7b3146102ff5780631249c58b14610314575b5f80fd5b34801561024d575f80fd5b5061027e61025c36600461158c565b6301ffc9a760e09190911c9081146380ac58cd821417635b5e139f9091141790565b60405190151581526020015b60405180910390f35b34801561029e575f80fd5b506040805180820190915260048152636c65737360e01b60208201525b60405161028a91906115ba565b3480156102d3575f80fd5b506102e76102e23660046115ef565b610874565b6040516001600160a01b03909116815260200161028a565b61031261030d36600461161c565b6108af565b005b6103126108be565b348015610327575f80fd5b5061033160015481565b60405190815260200161028a565b61031261034d366004611644565b610a70565b610312610b6a565b348015610365575f80fd5b506003546102e7906001600160a01b031681565b348015610384575f80fd5b506103315f5481565b61031261039b366004611644565b610bb6565b3480156103ab575f80fd5b506103126103ba36600461167e565b610be2565b610312610c66565b3480156103d2575f80fd5b506103126103e136600461167e565b610c9f565b3480156103f1575f80fd5b506103317f000000000000000000000000000000000000000000000000000000000000000081565b348015610424575f80fd5b506102e76104333660046115ef565b610cf5565b348015610443575f80fd5b50610331610d31565b348015610457575f80fd5b5061033160025481565b34801561046c575f80fd5b50610312610d4a565b348015610480575f80fd5b5061033161048f36600461167e565b610f21565b610312610f59565b3480156104a7575f80fd5b506004546102e7906001600160a01b031681565b3480156104c6575f80fd5b50638b78c6d819546102e7565b3480156104de575f80fd5b506103316104ed3660046115ef565b610f6c565b3480156104fd575f80fd5b506040805180820190915260048152634c45535360e01b60208201526102bb565b348015610529575f80fd5b50610312610538366004611697565b610fae565b348015610548575f80fd5b506105b36105573660046115ef565b60408051606080820183525f8083526020808401829052928401819052938452600582529282902082519384018352546001600160401b038082168552600160401b8204811692850192909252600160801b9004169082015290565b6040805182516001600160401b039081168252602080850151821690830152928201519092169082015260600161028a565b3480156105f0575f80fd5b506102e77f000000000000000000000000000000000000000000000000000000000000000081565b348015610623575f80fd5b5061027e6106323660046116d0565b600760209081525f928352604080842090915290825290205460ff1681565b34801561065c575f80fd5b5061067061066b3660046115ef565b611001565b6040805182516001600160401b03168152602092830151928101929092520161028a565b34801561069f575f80fd5b506106d26106ae3660046115ef565b60066020525f9081526040902080546001909101546001600160401b039091169082565b604080516001600160401b03909316835260208301919091520161028a565b6103126106ff3660046116fa565b61106c565b34801561070f575f80fd5b5061027e6110c6565b348015610723575f80fd5b506107626107323660046115ef565b60056020525f90815260409020546001600160401b0380821691600160401b8104821691600160801b9091041683565b604080516001600160401b039485168152928416602084015292169181019190915260600161028a565b348015610797575f80fd5b506102bb6107a63660046115ef565b6110d4565b3480156107b6575f80fd5b506103316107c53660046115ef565b61116d565b3480156107d5575f80fd5b5061027e6107e436600461178d565b601c52670a5a2e7a000000006008525f526030600c205490565b61031261080c36600461167e565b6111a9565b61031261081f36600461167e565b6111e6565b34801561082f575f80fd5b5061031261083e3660046115ef565b61120c565b34801561084e575f80fd5b5061033161085d36600461167e565b63389a75e1600c9081525f91909152602090205490565b5f815f52673ec412a9852d173d60c11b601c5260205f2082018201805460601b6108a55763ceea21b65f526004601cfd5b6001015492915050565b6108ba338383611249565b5050565b3068929eee149b4bd2126854036108dc5763ab143c065f526004601cfd5b3068929eee149b4bd21268556108f06112e3565b61090d5760405163a979282960e01b815260040160405180910390fd5b5f80548082526007602090815260408084203385529091529091205460ff161561094a57604051633efd109360e21b815260040160405180910390fd5b60025434101561096d5760405163cd1c886760e01b815260040160405180910390fd5b5f8181526007602090815260408083203384529091528120805460ff19166001908117909155805482906109a0906117c9565b918290555090505f6109b2838361132f565b6040805180820182526001600160401b03868116825260208083018581525f88815260069092529390209151825467ffffffffffffffff1916911617815590516001909101559050610a0433836113ae565b600354610a1a906001600160a01b03163461144a565b336001600160a01b031683837fd8d3f4689036e011512f797b74f83dbe227a55ff95d3ea8c9a556d086191ba9e84604051610a5791815260200190565b60405180910390a45050503868929eee149b4bd2126855565b5f818152673ec412a9852d173d60c11b3317601c52602090208101810180546001600160a01b039485169493841693811691908286148302610ac15767ceea21b6a1148100831560021b526004601cfd5b855f528160010154925082331486331417610aed576030600c2054610aed57634b6e7f185f526004601cfd5b8215610afa575f82600101555b85851818905550601c600c81812080545f190190555f84905220805460010163ffffffff81168402610b3b5767ea553b3401336cea841560021b526004601cfd5b90558082847fddf252ad1be2c89b69c2b068fc378daa952ba7f163c4a11628f55a4df523b3ef5f38a45b505050565b5f6202a3006001600160401b03164201905063389a75e1600c52335f52806020600c2055337fdbf36a107da19e49527a7176a1babf963b4b0ff8cde35ee35d6cd8f1f9ac7e1d5f80a250565b610bc1838383610a70565b813b15610b6557610b6583838360405180602001604052805f815250611489565b610bea611512565b6001600160a01b038116610c11576040516321c17ee560e11b815260040160405180910390fd5b600380546001600160a01b0319166001600160a01b0383169081179091556040519081527f5eb0913799140a38d5e80f5c04a585a09b65facadcbbe1a2c0c942d4198b2e93906020015b60405180910390a150565b63389a75e1600c52335f525f6020600c2055337ffa7b8eab7da67f412cc9575ed43464468f9bfbae89d1675917346ca6d8fe3c925f80a2565b610ca7611512565b600480546001600160a01b0319166001600160a01b0383169081179091556040519081527f482cbbbcf912da3be80deb8503ae1e94c0b7d5d1d0ec0af3d9d6403e06e609ee90602001610c5b565b5f818152673ec412a9852d173d60c11b601c526020902081018101546001600160a01b031680610d2c5763ceea21b65f526004601cfd5b919050565b5f610d3a6112e3565b15610d4557505f5490565b505f90565b3068929eee149b4bd212685403610d685763ab143c065f526004601cfd5b3068929eee149b4bd2126855610d7c6112e3565b15610d9a5760405163209b21a560e11b815260040160405180910390fd5b5f4390507f00000000000000000000000000000000000000000000000000000000000000006001600160a01b0316631db527556040518163ffffffff1660e01b81526004015f604051808303815f87803b158015610df6575f80fd5b505af1158015610e08573d5f803e3d5ffd5b50505f80549250905080610e1b836117c9565b909155504290505f610e4d7f0000000000000000000000000000000000000000000000000000000000000000836117e1565b60408051606080820183526001600160401b0386811680845285821660208086018281528b85168789018181525f80548152600585528a812099518a54945192518916600160801b0267ffffffffffffffff60801b19938a16600160401b026fffffffffffffffffffffffffffffffff199096169190991617939093171695909517909655945486519283529482015293840152929350917fec4cb8236342d617b4422200328d90745ab62bb055121d3e2f6123098a86017e910160405180910390a25050503868929eee149b4bd2126855565b5f81610f3457638f4eb6045f526004601cfd5b673ec412a9852d173d60c11b601c52815f5263ffffffff601c600c2054169050919050565b610f61611512565b610f6a5f61152c565b565b5f610f7682611569565b610f935760405163677510db60e11b815260040160405180910390fd5b505f908152600660205260409020546001600160401b031690565b801515905081601c52670a5a2e7a00000000600852335f52806030600c2055805f528160601b60601c337f17307eab39ab6107e8899845ad3d59bd9653f200f220920489ca2b5937696c3160205fa35050565b604080518082019091525f808252602082015261101d82611569565b61103a5760405163677510db60e11b815260040160405180910390fd5b505f90815260066020908152604091829020825180840190935280546001600160401b03168352600101549082015290565b611077858585610a70565b833b156110bf576110bf85858585858080601f0160208091040260200160405190810160405280939291908181526020018383808284375f9201919091525061148992505050565b5050505050565b5f6110cf6112e3565b905090565b60606110df82611569565b6110fc5760405163677510db60e11b815260040160405180910390fd5b6004805460405163c87b56dd60e01b81529182018490526001600160a01b03169063c87b56dd906024015f60405180830381865afa158015611140573d5f803e3d5ffd5b505050506040513d5f823e601f3d908101601f191682016040526111679190810190611814565b92915050565b5f61117782611569565b6111945760405163677510db60e11b815260040160405180910390fd5b505f9081526006602052604090206001015490565b6111b1611512565b63389a75e1600c52805f526020600c2080544211156111d757636f5e88185f526004601cfd5b5f90556111e38161152c565b50565b6111ee611512565b8060601b61120357637448fbae5f526004601cfd5b6111e38161152c565b611214611512565b60028190556040518181527f525b762709cc2a983aec5ccdfd807a061f993c91090b5bcd7da92ca254976aaa90602001610c5b565b5f1960601c82811692508381169350815f5283673ec412a9852d173d60c11b17601c5260205f20820182018054821691508161128c5763ceea21b65f526004601cfd5b8185148515176112b057815f526030600c20546112b057634b6e7f185f526004601cfd5b6001018390558183827f8c5be1e5ebec7d5bd14f71427d1e84f3dd0314c0f7b2291e5b200ac8c7c3b9255f38a450505050565b5f80545f036112f157505f90565b5f8054815260056020526040902080546001600160401b0316421080159061132957508054600160401b90046001600160401b031642105b91505090565b5f8281526005602052604081208054600160801b90046001600160401b031640806113635761135f6001436118c4565b4090505b90546040805160208082019490945280820196909652606086019490945260c01b6001600160c01b031916608085015282518085036068018152608890940190925250815191012090565b8160601b60601c9150805f52673ec412a9852d173d60c11b601c5260205f208101810180548060601b156113e95763c991cbb15f526004601cfd5b831790555f829052601c600c20805460010163ffffffff8116840261141d5767ea553b3401336cea841560021b526004601cfd5b905580825f7fddf252ad1be2c89b69c2b068fc378daa952ba7f163c4a11628f55a4df523b3ef8138a45050565b8047101561145f5763b12d13eb5f526004601cfd5b5f385f388486620186a0f16108ba57815f526073600b5360ff6020536016600b82f06108ba573838fd5b60405163150b7a028082523360208301528560601b60601c604083015283606083015260808083015282518060a084015280156114d0578060c08401826020870160045afa505b60208360a48301601c86015f8a5af16114f1573d156114f1573d5f843e3d83fd5b508060e01b82511461150a5763d1a57ed65f526004601cfd5b505050505050565b638b78c6d819543314610f6a576382b429005f526004601cfd5b638b78c6d81980546001600160a01b039092169182907f8be0079c531659141344cd1fd0a4f28419497f9722a3daafe3b4186f6b6457e05f80a355565b5f818152673ec412a9852d173d60c11b601c52602090208101015460601b151590565b5f6020828403121561159c575f80fd5b81356001600160e01b0319811681146115b3575f80fd5b9392505050565b602081525f82518060208401528060208501604085015e5f604082850101526040601f19601f83011684010191505092915050565b5f602082840312156115ff575f80fd5b5035919050565b80356001600160a01b0381168114610d2c575f80fd5b5f806040838503121561162d575f80fd5b61163683611606565b946020939093013593505050565b5f805f60608486031215611656575f80fd5b61165f84611606565b925061166d60208501611606565b929592945050506040919091013590565b5f6020828403121561168e575f80fd5b6115b382611606565b5f80604083850312156116a8575f80fd5b6116b183611606565b9150602083013580151581146116c5575f80fd5b809150509250929050565b5f80604083850312156116e1575f80fd5b823591506116f160208401611606565b90509250929050565b5f805f805f6080868803121561170e575f80fd5b61171786611606565b945061172560208701611606565b93506040860135925060608601356001600160401b03811115611746575f80fd5b8601601f81018813611756575f80fd5b80356001600160401b0381111561176b575f80fd5b88602082840101111561177c575f80fd5b959894975092955050506020019190565b5f806040838503121561179e575f80fd5b6117a783611606565b91506116f160208401611606565b634e487b7160e01b5f52601160045260245ffd5b5f600182016117da576117da6117b5565b5060010190565b6001600160401b038181168382160190811115611167576111676117b5565b634e487b7160e01b5f52604160045260245ffd5b5f60208284031215611824575f80fd5b81516001600160401b03811115611839575f80fd5b8201601f81018413611849575f80fd5b80516001600160401b0381111561186257611862611800565b604051601f8201601f19908116603f011681016001600160401b038111828210171561189057611890611800565b6040528181528282016020018610156118a7575f80fd5b8160208401602083015e5f91810160200191909152949350505050565b81810381811115611167576111676117b556fea264697066735822122073199ef9c5a55fd09d1f2a9f48c5b94cd950dd815640805b455f6cfdb4c521af64736f6c634300081a0033","linkReferences":{}},"methodIdentifiers":{"activeFoldId()":"63a2eda6","approve(address,uint256)":"095ea7b3","balanceOf(address)":"70a08231","cancelOwnershipHandover()":"54d1f13d","completeOwnershipHandover(address)":"f04e283e","createFold()":"68669371","currentFoldId()":"4086df64","folds(uint256)":"c72aad5d","getApproved(uint256)":"081812fc","getFold(uint256)":"a2f0fc5e","getFoldId(uint256)":"8dfe32c4","getSeed(uint256)":"e0d4ea37","getTokenData(uint256)":"b09afec1","hasMintedFold(uint256,address)":"ac1e447e","isApprovedForAll(address,address)":"e985e9c5","isWindowActive()":"b977946d","mint()":"1249c58b","mintPrice()":"6817c76c","name()":"06fdde03","owner()":"8da5cb5b","ownerOf(uint256)":"6352211e","ownershipHandoverExpiresAt(address)":"fee81cf4","payoutRecipient()":"3fb80b15","renderer()":"8ada6b0f","renounceOwnership()":"715018a6","requestOwnershipHandover()":"25692962","safeTransferFrom(address,address,uint256)":"42842e0e","safeTransferFrom(address,address,uint256,bytes)":"b88d4fde","setApprovalForAll(address,bool)":"a22cb465","setMintPrice(uint256)":"f4a0a528","setPayoutRecipient(address)":"46bb5954","setRenderer(address)":"56d3163d","strategy()":"a8c62e76","supportsInterface(bytes4)":"01ffc9a7","symbol()":"95d89b41","tokenData(uint256)":"b4b5b48f","tokenURI(uint256)":"c87b56dd","totalSupply()":"18160ddd","transferFrom(address,address,uint256)":"23b872dd","transferOwnership(address)":"f2fde38b","windowDuration()":"5c11ff7a"},"id":2}