{"abi":[{"type":"constructor","inputs":[{"name":"_strategy","type":"address","internalType":"address"},{"name":"_mintPrice","type":"uint256","internalType":"uint256"},{"name":"_payoutRecipient","type":"address","internalType":"address"},{"name":"_owner","type":"address","internalType":"address"},{"name":"_windowDuration","type":"uint256","internalType":"uint256"}],"stateMutability":"nonpayable"},{"type":"function","name":"approve","inputs":[{"name":"account","type":"address","internalType":"address"},{"name":"id","type":"uint256","internalType":"uint256"}],"outputs":[],"stateMutability":"payable"},{"type":"function","name":"balanceOf","inputs":[{"name":"owner","type":"address","internalType":"address"}],"outputs":[{"name":"result","type":"uint256","internalType":"uint256"}],"stateMutability":"view"},{"type":"function","name":"canCreateWindow","inputs":[],"outputs":[{"name":"","type":"bool","internalType":"bool"}],"stateMutability":"view"},{"type":"function","name":"cancelOwnershipHandover","inputs":[],"outputs":[],"stateMutability":"payable"},{"type":"function","name":"completeOwnershipHandover","inputs":[{"name":"pendingOwner","type":"address","internalType":"address"}],"outputs":[],"stateMutability":"payable"},{"type":"function","name":"contractURI","inputs":[],"outputs":[{"name":"","type":"string","internalType":"string"}],"stateMutability":"view"},{"type":"function","name":"createWindow","inputs":[],"outputs":[],"stateMutability":"nonpayable"},{"type":"function","name":"getApproved","inputs":[{"name":"id","type":"uint256","internalType":"uint256"}],"outputs":[{"name":"result","type":"address","internalType":"address"}],"stateMutability":"view"},{"type":"function","name":"getMintCost","inputs":[{"name":"user","type":"address","internalType":"address"},{"name":"quantity","type":"uint256","internalType":"uint256"}],"outputs":[{"name":"","type":"uint256","internalType":"uint256"}],"stateMutability":"view"},{"type":"function","name":"getMintCount","inputs":[{"name":"user","type":"address","internalType":"address"}],"outputs":[{"name":"","type":"uint256","internalType":"uint256"}],"stateMutability":"view"},{"type":"function","name":"getSeed","inputs":[{"name":"tokenId","type":"uint256","internalType":"uint256"}],"outputs":[{"name":"","type":"bytes32","internalType":"bytes32"}],"stateMutability":"view"},{"type":"function","name":"getTokenData","inputs":[{"name":"tokenId","type":"uint256","internalType":"uint256"}],"outputs":[{"name":"","type":"tuple","internalType":"struct Less.TokenData","components":[{"name":"windowId","type":"uint64","internalType":"uint64"},{"name":"seed","type":"bytes32","internalType":"bytes32"}]}],"stateMutability":"view"},{"type":"function","name":"isApprovedForAll","inputs":[{"name":"owner","type":"address","internalType":"address"},{"name":"operator","type":"address","internalType":"address"}],"outputs":[{"name":"result","type":"bool","internalType":"bool"}],"stateMutability":"view"},{"type":"function","name":"isWindowActive","inputs":[],"outputs":[{"name":"","type":"bool","internalType":"bool"}],"stateMutability":"view"},{"type":"function","name":"minEthForWindow","inputs":[],"outputs":[{"name":"","type":"uint256","internalType":"uint256"}],"stateMutability":"view"},{"type":"function","name":"mint","inputs":[{"name":"quantity","type":"uint256","internalType":"uint256"}],"outputs":[],"stateMutability":"payable"},{"type":"function","name":"mintPrice","inputs":[],"outputs":[{"name":"","type":"uint256","internalType":"uint256"}],"stateMutability":"view"},{"type":"function","name":"mintingPaused","inputs":[],"outputs":[{"name":"","type":"bool","internalType":"bool"}],"stateMutability":"view"},{"type":"function","name":"name","inputs":[],"outputs":[{"name":"","type":"string","internalType":"string"}],"stateMutability":"pure"},{"type":"function","name":"owner","inputs":[],"outputs":[{"name":"result","type":"address","internalType":"address"}],"stateMutability":"view"},{"type":"function","name":"ownerOf","inputs":[{"name":"id","type":"uint256","internalType":"uint256"}],"outputs":[{"name":"result","type":"address","internalType":"address"}],"stateMutability":"view"},{"type":"function","name":"ownershipHandoverExpiresAt","inputs":[{"name":"pendingOwner","type":"address","internalType":"address"}],"outputs":[{"name":"result","type":"uint256","internalType":"uint256"}],"stateMutability":"view"},{"type":"function","name":"payoutRecipient","inputs":[],"outputs":[{"name":"","type":"address","internalType":"address"}],"stateMutability":"view"},{"type":"function","name":"renderer","inputs":[],"outputs":[{"name":"","type":"address","internalType":"address"}],"stateMutability":"view"},{"type":"function","name":"renounceOwnership","inputs":[],"outputs":[],"stateMutability":"payable"},{"type":"function","name":"requestOwnershipHandover","inputs":[],"outputs":[],"stateMutability":"payable"},{"type":"function","name":"safeTransferFrom","inputs":[{"name":"from","type":"address","internalType":"address"},{"name":"to","type":"address","internalType":"address"},{"name":"id","type":"uint256","internalType":"uint256"}],"outputs":[],"stateMutability":"payable"},{"type":"function","name":"safeTransferFrom","inputs":[{"name":"from","type":"address","internalType":"address"},{"name":"to","type":"address","internalType":"address"},{"name":"id","type":"uint256","internalType":"uint256"},{"name":"data","type":"bytes","internalType":"bytes"}],"outputs":[],"stateMutability":"payable"},{"type":"function","name":"setApprovalForAll","inputs":[{"name":"operator","type":"address","internalType":"address"},{"name":"isApproved","type":"bool","internalType":"bool"}],"outputs":[],"stateMutability":"nonpayable"},{"type":"function","name":"setMinEthForWindow","inputs":[{"name":"_minEthForWindow","type":"uint256","internalType":"uint256"}],"outputs":[],"stateMutability":"nonpayable"},{"type":"function","name":"setMintPrice","inputs":[{"name":"_mintPrice","type":"uint256","internalType":"uint256"}],"outputs":[],"stateMutability":"nonpayable"},{"type":"function","name":"setMintingPaused","inputs":[{"name":"_paused","type":"bool","internalType":"bool"}],"outputs":[],"stateMutability":"nonpayable"},{"type":"function","name":"setPayoutRecipient","inputs":[{"name":"_payoutRecipient","type":"address","internalType":"address"}],"outputs":[],"stateMutability":"nonpayable"},{"type":"function","name":"setRenderer","inputs":[{"name":"_renderer","type":"address","internalType":"address"}],"outputs":[],"stateMutability":"nonpayable"},{"type":"function","name":"setWindowDuration","inputs":[{"name":"_windowDuration","type":"uint256","internalType":"uint256"}],"outputs":[],"stateMutability":"nonpayable"},{"type":"function","name":"strategy","inputs":[],"outputs":[{"name":"","type":"address","internalType":"contract IRecursiveStrategy"}],"stateMutability":"view"},{"type":"function","name":"supportsInterface","inputs":[{"name":"interfaceId","type":"bytes4","internalType":"bytes4"}],"outputs":[{"name":"result","type":"bool","internalType":"bool"}],"stateMutability":"view"},{"type":"function","name":"symbol","inputs":[],"outputs":[{"name":"","type":"string","internalType":"string"}],"stateMutability":"pure"},{"type":"function","name":"timeUntilWindowCloses","inputs":[],"outputs":[{"name":"","type":"uint256","internalType":"uint256"}],"stateMutability":"view"},{"type":"function","name":"tokenURI","inputs":[{"name":"tokenId","type":"uint256","internalType":"uint256"}],"outputs":[{"name":"","type":"string","internalType":"string"}],"stateMutability":"view"},{"type":"function","name":"totalSupply","inputs":[],"outputs":[{"name":"","type":"uint256","internalType":"uint256"}],"stateMutability":"view"},{"type":"function","name":"transferFrom","inputs":[{"name":"from","type":"address","internalType":"address"},{"name":"to","type":"address","internalType":"address"},{"name":"id","type":"uint256","internalType":"uint256"}],"outputs":[],"stateMutability":"payable"},{"type":"function","name":"transferOwnership","inputs":[{"name":"newOwner","type":"address","internalType":"address"}],"outputs":[],"stateMutability":"payable"},{"type":"function","name":"windowCount","inputs":[],"outputs":[{"name":"","type":"uint256","internalType":"uint256"}],"stateMutability":"view"},{"type":"function","name":"windowDuration","inputs":[],"outputs":[{"name":"","type":"uint256","internalType":"uint256"}],"stateMutability":"view"},{"type":"function","name":"withdraw","inputs":[],"outputs":[],"stateMutability":"nonpayable"},{"type":"event","name":"Approval","inputs":[{"name":"owner","type":"address","indexed":true,"internalType":"address"},{"name":"account","type":"address","indexed":true,"internalType":"address"},{"name":"id","type":"uint256","indexed":true,"internalType":"uint256"}],"anonymous":false},{"type":"event","name":"ApprovalForAll","inputs":[{"name":"owner","type":"address","indexed":true,"internalType":"address"},{"name":"operator","type":"address","indexed":true,"internalType":"address"},{"name":"isApproved","type":"bool","indexed":false,"internalType":"bool"}],"anonymous":false},{"type":"event","name":"MinEthForWindowUpdated","inputs":[{"name":"newMinEth","type":"uint256","indexed":false,"internalType":"uint256"}],"anonymous":false},{"type":"event","name":"MintPriceUpdated","inputs":[{"name":"newPrice","type":"uint256","indexed":false,"internalType":"uint256"}],"anonymous":false},{"type":"event","name":"Minted","inputs":[{"name":"tokenId","type":"uint256","indexed":true,"internalType":"uint256"},{"name":"windowId","type":"uint256","indexed":true,"internalType":"uint256"},{"name":"minter","type":"address","indexed":true,"internalType":"address"},{"name":"seed","type":"bytes32","indexed":false,"internalType":"bytes32"}],"anonymous":false},{"type":"event","name":"MintingPausedChanged","inputs":[{"name":"paused","type":"bool","indexed":false,"internalType":"bool"}],"anonymous":false},{"type":"event","name":"OwnershipHandoverCanceled","inputs":[{"name":"pendingOwner","type":"address","indexed":true,"internalType":"address"}],"anonymous":false},{"type":"event","name":"OwnershipHandoverRequested","inputs":[{"name":"pendingOwner","type":"address","indexed":true,"internalType":"address"}],"anonymous":false},{"type":"event","name":"OwnershipTransferred","inputs":[{"name":"oldOwner","type":"address","indexed":true,"internalType":"address"},{"name":"newOwner","type":"address","indexed":true,"internalType":"address"}],"anonymous":false},{"type":"event","name":"PayoutRecipientUpdated","inputs":[{"name":"newRecipient","type":"address","indexed":false,"internalType":"address"}],"anonymous":false},{"type":"event","name":"RendererUpdated","inputs":[{"name":"newRenderer","type":"address","indexed":false,"internalType":"address"}],"anonymous":false},{"type":"event","name":"Transfer","inputs":[{"name":"from","type":"address","indexed":true,"internalType":"address"},{"name":"to","type":"address","indexed":true,"internalType":"address"},{"name":"id","type":"uint256","indexed":true,"internalType":"uint256"}],"anonymous":false},{"type":"event","name":"WindowCreated","inputs":[{"name":"windowId","type":"uint256","indexed":true,"internalType":"uint256"},{"name":"startTime","type":"uint64","indexed":false,"internalType":"uint64"},{"name":"endTime","type":"uint64","indexed":false,"internalType":"uint64"}],"anonymous":false},{"type":"event","name":"WindowDurationUpdated","inputs":[{"name":"newWindowDuration","type":"uint256","indexed":false,"internalType":"uint256"}],"anonymous":false},{"type":"event","name":"Withdrawn","inputs":[{"name":"recipient","type":"address","indexed":true,"internalType":"address"},{"name":"amount","type":"uint256","indexed":false,"internalType":"uint256"}],"anonymous":false},{"type":"error","name":"AccountBalanceOverflow","inputs":[]},{"type":"error","name":"AlreadyInitialized","inputs":[]},{"type":"error","name":"BalanceQueryForZeroAddress","inputs":[]},{"type":"error","name":"IncorrectPayment","inputs":[]},{"type":"error","name":"InsufficientStrategyBalance","inputs":[]},{"type":"error","name":"InvalidAddress","inputs":[]},{"type":"error","name":"InvalidQuantity","inputs":[]},{"type":"error","name":"MintWindowActive","inputs":[]},{"type":"error","name":"MintingPaused","inputs":[]},{"type":"error","name":"NewOwnerIsZeroAddress","inputs":[]},{"type":"error","name":"NoHandoverRequest","inputs":[]},{"type":"error","name":"NotOwnerNorApproved","inputs":[]},{"type":"error","name":"Reentrancy","inputs":[]},{"type":"error","name":"TokenAlreadyExists","inputs":[]},{"type":"error","name":"TokenDoesNotExist","inputs":[]},{"type":"error","name":"TransferFromIncorrectOwner","inputs":[]},{"type":"error","name":"TransferToNonERC721ReceiverImplementer","inputs":[]},{"type":"error","name":"TransferToZeroAddress","inputs":[]},{"type":"error","name":"Unauthorized","inputs":[]}],"bytecode":{"object":"0x60a03461012357601f6119ec38819003918201601f19168301916001600160401b038311848410176101275780849260a094604052833981010312610123576100478161013b565b9060208101516100596040830161013b565b9260806100686060850161013b565b9301516001600160a01b03909116938415610114576001600160a01b0316928315610114576001600160a01b0316938415610114576080525f5560035560018060a01b031960045416176004556703782dace9d9000060065580638b78c6d819555f7f8be0079c531659141344cd1fd0a4f28419497f9722a3daafe3b4186f6b6457e08180a360405161189c908161015082396080518181816107cf0152818161125b01526116180152f35b63e6c4247b60e01b5f5260045ffd5b5f80fd5b634e487b7160e01b5f52604160045260245ffd5b51906001600160a01b03821682036101235756fe6080806040526004361015610012575f80fd5b5f3560e01c90816301ffc9a7146110c75750806306fdde0314610b07578063081812fc14611076578063095ea7b314610fce57806318160ddd14610fb1578063205760eb14610f65578063223c497214610f4b57806323b872dd14610f395780632569296214610ef05780632d07ae1114610ed35780633ccfd60b14610e2b5780633fb80b1514610e0357806342842e0e14610dca57806346bb595414610d5457806354d1f13d14610d1057806356d3163d14610c8b5780635c11ff7a14610c6f5780636352211e14610c195780636817c76c14610bfc57806370a0823114610ba9578063715018a614610b605780638ada6b0f14610b385780638da5cb5b14610b0c57806395d89b4114610b07578063a0712d6814610893578063a22cb46514610821578063a2801f57146107fe578063a8c62e76146107ba578063ad13419d14610758578063b09afec1146106ce578063b4f738cf14610683578063b88d4fde146105e2578063b977946d146105be578063b98fb3ee14610597578063c87b56dd14610516578063e0d4ea37146104b6578063e1a283d614610494578063e8a3d48514610410578063e985e9c5146103cc578063ebe4238b14610361578063f04e283e14610314578063f2fde38b146102d7578063f4a0a5281461028b578063fd282a981461026e578063fee81cf41461023c5763ff0ea23614610216575f80fd5b34610238575f3660031901126102385760206102306114d4565b604051908152f35b5f80fd5b3461023857602036600319011261023857610255611179565b63389a75e1600c525f52602080600c2054604051908152f35b34610238575f366003190112610238576020600654604051908152f35b34610238576020366003190112610238577f525b762709cc2a983aec5ccdfd807a061f993c91090b5bcd7da92ca254976aaa60206004356102ca611503565b80600355604051908152a1005b6020366003190112610238576102eb611179565b6102f3611503565b8060601b1561030757610305906115d4565b005b637448fbae5f526004601cfd5b602036600319011261023857610328611179565b610330611503565b63389a75e1600c52805f526020600c209081544211610354575f61030592556115d4565b636f5e88185f526004601cfd5b34610238575f366003190112610238573068929eee149b4bd2126854146103bf573068929eee149b4bd212685561039661151f565b6103b0576103a2611611565b3868929eee149b4bd2126855005b63209b21a560e11b5f5260045ffd5b63ab143c065f526004601cfd5b34610238576040366003190112610238576103e5611179565b6103ed61118f565b601c52670a5a2e7a000000006008525f5260206030600c20546040519015158152f35b34610238575f3660031901126102385760055460405163e8a3d48560e01b8152905f90829060049082906001600160a01b03165afa801561048957610463915f91610467575b5060405191829182611111565b0390f35b61048391503d805f833e61047b818361120e565b810190611472565b82610456565b6040513d5f823e3d90fd5b34610238575f36600319011261023857602060ff600754166040519015158152f35b34610238576020366003190112610238576004355f818152673ec412a9852d173d60c11b601c5260209020810181015460601b15610507575f5260096020526020600160405f200154604051908152f35b63677510db60e11b5f5260045ffd5b34610238576020366003190112610238576004355f818152673ec412a9852d173d60c11b601c5260209020810181015460601b156105075760055460405163c87b56dd60e01b815260048101929092525f90829060249082906001600160a01b03165afa801561048957610463915f91610467575060405191829182611111565b346102385760403660031901126102385760206102306105b5611179565b6024359061142f565b34610238575f3660031901126102385760206105d861151f565b6040519015158152f35b6080366003190112610238576105f6611179565b6105fe61118f565b604435606435916001600160401b0383116102385736602384011215610238578260040135936001600160401b038511610238573660248686010111610238576106498383836112ee565b813b61065157005b5f6020868060246106646103059a61122f565b986106726040519a8b61120e565b828a52018389013786010152611542565b34610238576020366003190112610238577fcc269177d1f91fe2ded446dd59b3ca32e118a02398319775c76ffa72e785565360206004356106c2611503565b805f55604051908152a1005b34610238576020366003190112610238576004355f60206040516106f1816111df565b82815201525f818152673ec412a9852d173d60c11b601c5260209020810181015460601b15610507575f5260096020526040805f208151610731816111df565b602060016001600160401b0384541693848452015491019081528251918252516020820152f35b34610238576020366003190112610238576004358015158091036102385760207f60fa4f6a102b3dbb4fdff5e8b9283920c9d1559e293bb8708fe483ea109dde5a916107a2611503565b60ff196007541660ff821617600755604051908152a1005b34610238575f366003190112610238576040517f00000000000000000000000000000000000000000000000000000000000000006001600160a01b03168152602090f35b3461023857602036600319011261023857602061023061081c611179565b6113ff565b346102385760403660031901126102385761083a611179565b6024358015158091036102385781601c52670a5a2e7a00000000600852335f52806030600c20555f5260018060a01b0316337f17307eab39ab6107e8899845ad3d59bd9653f200f220920489ca2b5937696c3160205fa3005b6020366003190112610238576004353068929eee149b4bd2126854146103bf573068929eee149b4bd212685560ff60075416610af8578015610ae9576108d761151f565b15610adc575b60015490815f52600a60205260405f2060018060a01b0333165f5260205260405f205461090a82826117d9565b3403610acd578161091a916113e5565b5f838152600a60209081526040808320338452909152902055600254600181019190828111610ab9578161094d916113e5565b6002555f194301438111610ab957409290916001600160401b03821691905f5b848110610982573868929eee149b4bd2126855005b61098c81836113e5565b906040516020810190888252836040820152604081526109ad60608261120e565b5190206040516109bc816111df565b868152600160208201838152855f5260096020526001600160401b038060405f20945116166001600160401b031984541617835551910155825f52673ec412a9852d173d60c11b601c5260205f208301830180548060601b610aac5733179055335f52601c600c2060018154019363ffffffff8516330215610a975760019487925580335f7fddf252ad1be2c89b69c2b068fc378daa952ba7f163c4a11628f55a4df523b3ef8180a46040519283527fd8d3f4689036e011512f797b74f83dbe227a55ff95d3ea8c9a556d086191ba9e60203394a40161096d565b67ea553b3401336cea331560021b526004601cfd5b63c991cbb15f526004601cfd5b634e487b7160e01b5f52601160045260245ffd5b63569e8c1160e01b5f5260045ffd5b610ae4611611565b6108dd565b63524f409b60e01b5f5260045ffd5b6375ab03ab60e11b5f5260045ffd5b61113b565b34610238575f36600319011261023857638b78c6d819546040516001600160a01b039091168152602090f35b34610238575f366003190112610238576005546040516001600160a01b039091168152602090f35b5f36600319011261023857610b73611503565b5f638b78c6d819547f8be0079c531659141344cd1fd0a4f28419497f9722a3daafe3b4186f6b6457e08280a35f638b78c6d81955005b3461023857602036600319011261023857610bc2611179565b8015610bef57673ec412a9852d173d60c11b601c525f52602063ffffffff601c600c205416604051908152f35b638f4eb6045f526004601cfd5b34610238575f366003190112610238576020600354604051908152f35b34610238576020366003190112610238576004355f818152673ec412a9852d173d60c11b601c5260209020810101546001600160a01b03168015610c6257602090604051908152f35b63ceea21b65f526004601cfd5b34610238575f3660031901126102385760205f54604051908152f35b3461023857602036600319011261023857610ca4611179565b610cac611503565b6001600160a01b03168015610d01576020817f482cbbbcf912da3be80deb8503ae1e94c0b7d5d1d0ec0af3d9d6403e06e609ee926bffffffffffffffffffffffff60a01b6005541617600555604051908152a1005b63e6c4247b60e01b5f5260045ffd5b5f3660031901126102385763389a75e1600c52335f525f6020600c2055337ffa7b8eab7da67f412cc9575ed43464468f9bfbae89d1675917346ca6d8fe3c925f80a2005b3461023857602036600319011261023857610d6d611179565b610d75611503565b6001600160a01b03168015610d01576020817f5eb0913799140a38d5e80f5c04a585a09b65facadcbbe1a2c0c942d4198b2e93926bffffffffffffffffffffffff60a01b6004541617600455604051908152a1005b610dd3366111a5565b610de081838594956112ee565b823b610de857005b6103059260405192610dfb60208561120e565b5f8452611542565b34610238575f366003190112610238576004546040516001600160a01b039091168152602090f35b34610238575f36600319011261023857610e43611503565b60045447906001600160a01b0316478211610ec6575f3881808585620186a0f115610ea5575b506004546040519182526001600160a01b0316907f7084f5476618d8e60b11ef0d7d3f06914655adb8793e28ff7f018d4c76d505d590602090a2005b5f526073600b5360ff6020536016600b82f015610ec25781610e69565b3838fd5b63b12d13eb5f526004601cfd5b34610238575f366003190112610238576020600154604051908152f35b5f3660031901126102385763389a75e1600c52335f526202a30042016020600c2055337fdbf36a107da19e49527a7176a1babf963b4b0ff8cde35ee35d6cd8f1f9ac7e1d5f80a2005b610305610f45366111a5565b916112ee565b34610238575f3660031901126102385760206105d861124a565b34610238576020366003190112610238577f182bb03c6d66a6d1c1abf10b224dc0879a278504605029310ada64409a8bf41b6020600435610fa4611503565b80600655604051908152a1005b34610238575f366003190112610238576020600254604051908152f35b604036600319011261023857610fe2611179565b6024355f818152673ec412a9852d173d60c11b3317601c526020902081018101805491926001600160a01b039081169216908115610c6257829082331433151715611052575b600101557f8c5be1e5ebec7d5bd14f71427d1e84f3dd0314c0f7b2291e5b200ac8c7c3b9255f80a4005b9050815f526030600c205415611069578290611028565b634b6e7f185f526004601cfd5b34610238576020366003190112610238576004355f818152673ec412a9852d173d60c11b601c5260209020810101805460601b15610c6257600101546040516001600160a01b039091168152602090f35b3461023857602036600319011261023857600435906001600160e01b0319821682036102385760209160e01c635b5e139f8114906301ffc9a76380ac58cd82149114171715158152f35b602060409281835280519182918282860152018484015e5f828201840152601f01601f1916010190565b34610238575f3660031901126102385761046360405161115c60408261120e565b60048152634c45535360e01b602082015260405191829182611111565b600435906001600160a01b038216820361023857565b602435906001600160a01b038216820361023857565b6060906003190112610238576004356001600160a01b038116810361023857906024356001600160a01b0381168103610238579060443590565b604081019081106001600160401b038211176111fa57604052565b634e487b7160e01b5f52604160045260245ffd5b90601f801991011681019081106001600160401b038211176111fa57604052565b6001600160401b0381116111fa57601f01601f191660200190565b61125261151f565b6112ea576006547f00000000000000000000000000000000000000000000000000000000000000006001600160a01b0316908131106112e55760206004916040519283809263016dc09d60e31b82525afa908115610489575f916112b557501590565b90506020813d6020116112dd575b816112d06020938361120e565b8101031261023857511590565b3d91506112c3565b505f90565b5f90565b5f838152673ec412a9852d173d60c11b3317601c52602090208301830180546001600160a01b03938416939283169281168084148102156113d05750825f5281600101805480331485331417156113b9575b6113b0575b50838318189055601c600c205f198154019055815f52601c600c2060018154019063ffffffff821684021561139b57557fddf252ad1be2c89b69c2b068fc378daa952ba7f163c4a11628f55a4df523b3ef5f80a4565b67ea553b3401336cea841560021b526004601cfd5b5f90555f611345565b6030600c205461134057634b6e7f185f526004601cfd5b67ceea21b6a1148100901560021b526004601cfd5b91908201809211610ab957565b91908203918211610ab957565b6001548015611429575f52600a60205260405f209060018060a01b03165f5260205260405f205490565b50505f90565b908015611429576001546114679290801561146a575f52600a60205260405f209060018060a01b03165f5260205260405f20546117d9565b90565b50505f6117d9565b602081830312610238578051906001600160401b038211610238570181601f82011215610238578051906114a58261122f565b926114b3604051948561120e565b8284526020838301011161023857815f9260208093018386015e8301015290565b6114dc61151f565b156112ea576001545f5260086020526114676001600160401b0360405f20541642906113f2565b638b78c6d81954330361151257565b6382b429005f526004601cfd5b60015480156112e5575f5260086020526001600160401b0360405f205416421090565b9060a46020939460405195869463150b7a028652338787015260018060a01b03166040860152606085015260808085015280518091818060a08801526115c0575b505001905f601c8401915af1156115b2575b5163757a42ff60e11b016115a557565b63d1a57ed65f526004601cfd5b3d15611595573d5f823e3d90fd5b818760c08801920160045afa50805f611583565b60018060a01b031680638b78c6d819547f8be0079c531659141344cd1fd0a4f28419497f9722a3daafe3b4186f6b6457e05f80a3638b78c6d81955565b6006545f907f00000000000000000000000000000000000000000000000000000000000000006001600160a01b03169081311061177c57803b15610238575f8091600460405180948193631db5275560e01b83525af1801561048957611769575b506001545f1981146117555760010190816001556001600160401b034216906001600160401b038154168201906001600160401b0382116117415760405191602083018381106001600160401b0382111761172d576001600160401b0360407fe06ce442afd483033ce0a251188ca4c4d1c81a74bf69c6d3699cede668afda479694828297958195845216988986528152600860205220925116166001600160401b03198254161790556001549382519182526020820152a2565b634e487b7160e01b83526041600452602483fd5b634e487b7160e01b81526011600452602490fd5b634e487b7160e01b82526011600452602482fd5b61177591505f9061120e565b5f80611672565b6354e89c2b60e11b5f5260045ffd5b60a18111610ab95760030a90565b81810292918115918404141715610ab957565b60ff8111610ab9576001901b90565b81156117c5570490565b634e487b7160e01b5f52601260045260245ffd5b60018214611843576117ea8161178b565b906118076117f78461178b565b93611801816117ac565b926113e5565b5f19810193908411610ab95761183861183e92611832611829611467976117ac565b95600354611799565b926113f2565b90611799565b6117bb565b611467915061186061185a6003546118388461178b565b916117ac565b906117bb56fea26469706673582212204e40c12f1f81ed873f545cc0bb8494bc6f22805654f03ae3d155ed2a7b5a550c64736f6c634300081a0033","linkReferences":{}},"methodIdentifiers":{"approve(address,uint256)":"095ea7b3","balanceOf(address)":"70a08231","canCreateWindow()":"223c4972","cancelOwnershipHandover()":"54d1f13d","completeOwnershipHandover(address)":"f04e283e","contractURI()":"e8a3d485","createWindow()":"ebe4238b","getApproved(uint256)":"081812fc","getMintCost(address,uint256)":"b98fb3ee","getMintCount(address)":"a2801f57","getSeed(uint256)":"e0d4ea37","getTokenData(uint256)":"b09afec1","isApprovedForAll(address,address)":"e985e9c5","isWindowActive()":"b977946d","minEthForWindow()":"fd282a98","mint(uint256)":"a0712d68","mintPrice()":"6817c76c","mintingPaused()":"e1a283d6","name()":"06fdde03","owner()":"8da5cb5b","ownerOf(uint256)":"6352211e","ownershipHandoverExpiresAt(address)":"fee81cf4","payoutRecipient()":"3fb80b15","renderer()":"8ada6b0f","renounceOwnership()":"715018a6","requestOwnershipHandover()":"25692962","safeTransferFrom(address,address,uint256)":"42842e0e","safeTransferFrom(address,address,uint256,bytes)":"b88d4fde","setApprovalForAll(address,bool)":"a22cb465","setMinEthForWindow(uint256)":"205760eb","setMintPrice(uint256)":"f4a0a528","setMintingPaused(bool)":"ad13419d","setPayoutRecipient(address)":"46bb5954","setRenderer(address)":"56d3163d","setWindowDuration(uint256)":"b4f738cf","strategy()":"a8c62e76","supportsInterface(bytes4)":"01ffc9a7","symbol()":"95d89b41","timeUntilWindowCloses()":"ff0ea236","tokenURI(uint256)":"c87b56dd","totalSupply()":"18160ddd","transferFrom(address,address,uint256)":"23b872dd","transferOwnership(address)":"f2fde38b","windowCount()":"2d07ae11","windowDuration()":"5c11ff7a","withdraw()":"3ccfd60b"},"id":2}