{"abi":[{"type":"constructor","inputs":[{"name":"_strategy","type":"address","internalType":"address"},{"name":"_mintPrice","type":"uint256","internalType":"uint256"},{"name":"_payoutRecipient","type":"address","internalType":"address"},{"name":"_owner","type":"address","internalType":"address"}],"stateMutability":"nonpayable"},{"type":"function","name":"activeFoldId","inputs":[],"outputs":[{"name":"","type":"uint256","internalType":"uint256"}],"stateMutability":"view"},{"type":"function","name":"approve","inputs":[{"name":"account","type":"address","internalType":"address"},{"name":"id","type":"uint256","internalType":"uint256"}],"outputs":[],"stateMutability":"payable"},{"type":"function","name":"balanceOf","inputs":[{"name":"owner","type":"address","internalType":"address"}],"outputs":[{"name":"result","type":"uint256","internalType":"uint256"}],"stateMutability":"view"},{"type":"function","name":"canCreateFold","inputs":[],"outputs":[{"name":"","type":"bool","internalType":"bool"}],"stateMutability":"view"},{"type":"function","name":"cancelOwnershipHandover","inputs":[],"outputs":[],"stateMutability":"payable"},{"type":"function","name":"completeOwnershipHandover","inputs":[{"name":"pendingOwner","type":"address","internalType":"address"}],"outputs":[],"stateMutability":"payable"},{"type":"function","name":"createFold","inputs":[],"outputs":[],"stateMutability":"nonpayable"},{"type":"function","name":"currentFoldId","inputs":[],"outputs":[{"name":"","type":"uint256","internalType":"uint256"}],"stateMutability":"view"},{"type":"function","name":"folds","inputs":[{"name":"","type":"uint256","internalType":"uint256"}],"outputs":[{"name":"startTime","type":"uint64","internalType":"uint64"},{"name":"endTime","type":"uint64","internalType":"uint64"},{"name":"blockHash","type":"bytes32","internalType":"bytes32"}],"stateMutability":"view"},{"type":"function","name":"getApproved","inputs":[{"name":"id","type":"uint256","internalType":"uint256"}],"outputs":[{"name":"result","type":"address","internalType":"address"}],"stateMutability":"view"},{"type":"function","name":"getFold","inputs":[{"name":"foldId","type":"uint256","internalType":"uint256"}],"outputs":[{"name":"","type":"tuple","internalType":"struct Less.Fold","components":[{"name":"startTime","type":"uint64","internalType":"uint64"},{"name":"endTime","type":"uint64","internalType":"uint64"},{"name":"blockHash","type":"bytes32","internalType":"bytes32"}]}],"stateMutability":"view"},{"type":"function","name":"getFoldId","inputs":[{"name":"tokenId","type":"uint256","internalType":"uint256"}],"outputs":[{"name":"","type":"uint256","internalType":"uint256"}],"stateMutability":"view"},{"type":"function","name":"getSeed","inputs":[{"name":"tokenId","type":"uint256","internalType":"uint256"}],"outputs":[{"name":"","type":"bytes32","internalType":"bytes32"}],"stateMutability":"view"},{"type":"function","name":"getTokenData","inputs":[{"name":"tokenId","type":"uint256","internalType":"uint256"}],"outputs":[{"name":"","type":"tuple","internalType":"struct Less.TokenData","components":[{"name":"foldId","type":"uint64","internalType":"uint64"}]}],"stateMutability":"view"},{"type":"function","name":"hasMintedFold","inputs":[{"name":"","type":"uint256","internalType":"uint256"},{"name":"","type":"address","internalType":"address"}],"outputs":[{"name":"","type":"bool","internalType":"bool"}],"stateMutability":"view"},{"type":"function","name":"isApprovedForAll","inputs":[{"name":"owner","type":"address","internalType":"address"},{"name":"operator","type":"address","internalType":"address"}],"outputs":[{"name":"result","type":"bool","internalType":"bool"}],"stateMutability":"view"},{"type":"function","name":"isWindowActive","inputs":[],"outputs":[{"name":"","type":"bool","internalType":"bool"}],"stateMutability":"view"},{"type":"function","name":"minEthForFold","inputs":[],"outputs":[{"name":"","type":"uint256","internalType":"uint256"}],"stateMutability":"view"},{"type":"function","name":"mint","inputs":[],"outputs":[],"stateMutability":"payable"},{"type":"function","name":"mintPrice","inputs":[],"outputs":[{"name":"","type":"uint256","internalType":"uint256"}],"stateMutability":"view"},{"type":"function","name":"name","inputs":[],"outputs":[{"name":"","type":"string","internalType":"string"}],"stateMutability":"pure"},{"type":"function","name":"owner","inputs":[],"outputs":[{"name":"result","type":"address","internalType":"address"}],"stateMutability":"view"},{"type":"function","name":"ownerOf","inputs":[{"name":"id","type":"uint256","internalType":"uint256"}],"outputs":[{"name":"result","type":"address","internalType":"address"}],"stateMutability":"view"},{"type":"function","name":"ownershipHandoverExpiresAt","inputs":[{"name":"pendingOwner","type":"address","internalType":"address"}],"outputs":[{"name":"result","type":"uint256","internalType":"uint256"}],"stateMutability":"view"},{"type":"function","name":"payoutRecipient","inputs":[],"outputs":[{"name":"","type":"address","internalType":"address"}],"stateMutability":"view"},{"type":"function","name":"renderer","inputs":[],"outputs":[{"name":"","type":"address","internalType":"address"}],"stateMutability":"view"},{"type":"function","name":"renounceOwnership","inputs":[],"outputs":[],"stateMutability":"payable"},{"type":"function","name":"requestOwnershipHandover","inputs":[],"outputs":[],"stateMutability":"payable"},{"type":"function","name":"safeTransferFrom","inputs":[{"name":"from","type":"address","internalType":"address"},{"name":"to","type":"address","internalType":"address"},{"name":"id","type":"uint256","internalType":"uint256"}],"outputs":[],"stateMutability":"payable"},{"type":"function","name":"safeTransferFrom","inputs":[{"name":"from","type":"address","internalType":"address"},{"name":"to","type":"address","internalType":"address"},{"name":"id","type":"uint256","internalType":"uint256"},{"name":"data","type":"bytes","internalType":"bytes"}],"outputs":[],"stateMutability":"payable"},{"type":"function","name":"setApprovalForAll","inputs":[{"name":"operator","type":"address","internalType":"address"},{"name":"isApproved","type":"bool","internalType":"bool"}],"outputs":[],"stateMutability":"nonpayable"},{"type":"function","name":"setMinEthForFold","inputs":[{"name":"_minEthForFold","type":"uint256","internalType":"uint256"}],"outputs":[],"stateMutability":"nonpayable"},{"type":"function","name":"setMintPrice","inputs":[{"name":"_mintPrice","type":"uint256","internalType":"uint256"}],"outputs":[],"stateMutability":"nonpayable"},{"type":"function","name":"setPayoutRecipient","inputs":[{"name":"_payoutRecipient","type":"address","internalType":"address"}],"outputs":[],"stateMutability":"nonpayable"},{"type":"function","name":"setRenderer","inputs":[{"name":"_renderer","type":"address","internalType":"address"}],"outputs":[],"stateMutability":"nonpayable"},{"type":"function","name":"strategy","inputs":[],"outputs":[{"name":"","type":"address","internalType":"contract IRecursiveStrategy"}],"stateMutability":"view"},{"type":"function","name":"supportsInterface","inputs":[{"name":"interfaceId","type":"bytes4","internalType":"bytes4"}],"outputs":[{"name":"result","type":"bool","internalType":"bool"}],"stateMutability":"view"},{"type":"function","name":"symbol","inputs":[],"outputs":[{"name":"","type":"string","internalType":"string"}],"stateMutability":"pure"},{"type":"function","name":"timeUntilWindowCloses","inputs":[],"outputs":[{"name":"","type":"uint256","internalType":"uint256"}],"stateMutability":"view"},{"type":"function","name":"tokenData","inputs":[{"name":"","type":"uint256","internalType":"uint256"}],"outputs":[{"name":"foldId","type":"uint64","internalType":"uint64"}],"stateMutability":"view"},{"type":"function","name":"tokenURI","inputs":[{"name":"tokenId","type":"uint256","internalType":"uint256"}],"outputs":[{"name":"","type":"string","internalType":"string"}],"stateMutability":"view"},{"type":"function","name":"totalSupply","inputs":[],"outputs":[{"name":"","type":"uint256","internalType":"uint256"}],"stateMutability":"view"},{"type":"function","name":"transferFrom","inputs":[{"name":"from","type":"address","internalType":"address"},{"name":"to","type":"address","internalType":"address"},{"name":"id","type":"uint256","internalType":"uint256"}],"outputs":[],"stateMutability":"payable"},{"type":"function","name":"transferOwnership","inputs":[{"name":"newOwner","type":"address","internalType":"address"}],"outputs":[],"stateMutability":"payable"},{"type":"function","name":"windowDuration","inputs":[],"outputs":[{"name":"","type":"uint256","internalType":"uint256"}],"stateMutability":"view"},{"type":"event","name":"Approval","inputs":[{"name":"owner","type":"address","indexed":true,"internalType":"address"},{"name":"account","type":"address","indexed":true,"internalType":"address"},{"name":"id","type":"uint256","indexed":true,"internalType":"uint256"}],"anonymous":false},{"type":"event","name":"ApprovalForAll","inputs":[{"name":"owner","type":"address","indexed":true,"internalType":"address"},{"name":"operator","type":"address","indexed":true,"internalType":"address"},{"name":"isApproved","type":"bool","indexed":false,"internalType":"bool"}],"anonymous":false},{"type":"event","name":"FoldCreated","inputs":[{"name":"foldId","type":"uint256","indexed":true,"internalType":"uint256"},{"name":"startTime","type":"uint64","indexed":false,"internalType":"uint64"},{"name":"endTime","type":"uint64","indexed":false,"internalType":"uint64"},{"name":"blockHash","type":"bytes32","indexed":false,"internalType":"bytes32"}],"anonymous":false},{"type":"event","name":"MinEthForFoldUpdated","inputs":[{"name":"newMinEth","type":"uint256","indexed":false,"internalType":"uint256"}],"anonymous":false},{"type":"event","name":"MintPriceUpdated","inputs":[{"name":"newPrice","type":"uint256","indexed":false,"internalType":"uint256"}],"anonymous":false},{"type":"event","name":"Minted","inputs":[{"name":"tokenId","type":"uint256","indexed":true,"internalType":"uint256"},{"name":"foldId","type":"uint256","indexed":true,"internalType":"uint256"},{"name":"minter","type":"address","indexed":true,"internalType":"address"},{"name":"seed","type":"bytes32","indexed":false,"internalType":"bytes32"}],"anonymous":false},{"type":"event","name":"OwnershipHandoverCanceled","inputs":[{"name":"pendingOwner","type":"address","indexed":true,"internalType":"address"}],"anonymous":false},{"type":"event","name":"OwnershipHandoverRequested","inputs":[{"name":"pendingOwner","type":"address","indexed":true,"internalType":"address"}],"anonymous":false},{"type":"event","name":"OwnershipTransferred","inputs":[{"name":"oldOwner","type":"address","indexed":true,"internalType":"address"},{"name":"newOwner","type":"address","indexed":true,"internalType":"address"}],"anonymous":false},{"type":"event","name":"PayoutRecipientUpdated","inputs":[{"name":"newRecipient","type":"address","indexed":false,"internalType":"address"}],"anonymous":false},{"type":"event","name":"RendererUpdated","inputs":[{"name":"newRenderer","type":"address","indexed":false,"internalType":"address"}],"anonymous":false},{"type":"event","name":"Transfer","inputs":[{"name":"from","type":"address","indexed":true,"internalType":"address"},{"name":"to","type":"address","indexed":true,"internalType":"address"},{"name":"id","type":"uint256","indexed":true,"internalType":"uint256"}],"anonymous":false},{"type":"error","name":"AccountBalanceOverflow","inputs":[]},{"type":"error","name":"AlreadyInitialized","inputs":[]},{"type":"error","name":"AlreadyMintedThisFold","inputs":[]},{"type":"error","name":"BalanceQueryForZeroAddress","inputs":[]},{"type":"error","name":"InsufficientPayment","inputs":[]},{"type":"error","name":"InsufficientStrategyBalance","inputs":[]},{"type":"error","name":"InvalidOwner","inputs":[]},{"type":"error","name":"InvalidPayoutRecipient","inputs":[]},{"type":"error","name":"InvalidRenderer","inputs":[]},{"type":"error","name":"InvalidStrategyAddress","inputs":[]},{"type":"error","name":"MintWindowActive","inputs":[]},{"type":"error","name":"NewOwnerIsZeroAddress","inputs":[]},{"type":"error","name":"NoActiveMintWindow","inputs":[]},{"type":"error","name":"NoHandoverRequest","inputs":[]},{"type":"error","name":"NotOwnerNorApproved","inputs":[]},{"type":"error","name":"Reentrancy","inputs":[]},{"type":"error","name":"TokenAlreadyExists","inputs":[]},{"type":"error","name":"TokenDoesNotExist","inputs":[]},{"type":"error","name":"TransferFromIncorrectOwner","inputs":[]},{"type":"error","name":"TransferToNonERC721ReceiverImplementer","inputs":[]},{"type":"error","name":"TransferToZeroAddress","inputs":[]},{"type":"error","name":"Unauthorized","inputs":[]}],"bytecode":{"object":"0x60c060405234801561000f575f80fd5b50604051611d4e380380611d4e83398101604081905261002e916101a6565b6001600160a01b03841661005557604051633408148f60e01b815260040160405180910390fd5b6001600160a01b03821661007c576040516321c17ee560e11b815260040160405180910390fd5b6001600160a01b0381166100a3576040516349e27cff60e01b815260040160405180910390fd5b6001600160a01b03841660808190526040805163377da8df60e21b8152905163ddf6a37c916004808201926020929091908290030181865afa1580156100eb573d5f803e3d5ffd5b505050506040513d601f19601f8201168201806040525081019061010f91906101f1565b60a0526002839055600380546001600160a01b0319166001600160a01b0384161790556703782dace9d9000060055561014781610150565b50505050610208565b6001600160a01b0316638b78c6d819819055805f7f8be0079c531659141344cd1fd0a4f28419497f9722a3daafe3b4186f6b6457e08180a350565b80516001600160a01b03811681146101a1575f80fd5b919050565b5f805f80608085870312156101b9575f80fd5b6101c28561018b565b602086015190945092506101d86040860161018b565b91506101e66060860161018b565b905092959194509250565b5f60208284031215610201575f80fd5b5051919050565b60805160a051611b0261024c5f395f818161045601526114b701525f818161063901528181610c7f01528181610cb5015281816113d6015261142f0152611b025ff3fe60806040526004361061026a575f3560e01c8063715018a61161014a578063b4b5b48f116100be578063e985e9c511610078578063e985e9c5146107e9578063f04e283e1461081d578063f2fde38b14610830578063f4a0a52814610843578063fee81cf414610862578063ff0ea23614610893575f80fd5b8063b4b5b48f146106cb578063b88d4fde14610717578063b977946d1461072a578063c72aad5d1461073e578063c87b56dd146107ab578063e0d4ea37146107ca575f80fd5b806395d89b411161010f57806395d89b41146102bf578063a22cb46514610566578063a2f0fc5e14610585578063a8c62e7614610628578063ac1e447e1461065b578063b09afec114610694575f80fd5b8063715018a6146104f357806371bfab8a146104fb5780638ada6b0f146105105780638da5cb5b1461052f5780638dfe32c414610547575f80fd5b80634086df64116101e15780635c11ff7a116101a65780635c11ff7a146104455780636352211e1461047857806363a2eda6146104975780636817c76c146104ab57806368669371146104c057806370a08231146104d4575f80fd5b80634086df64146103d857806342842e0e146103ec57806346bb5954146103ff57806354d1f13d1461041e57806356d3163d14610426575f80fd5b806314d92f5b1161023257806314d92f5b1461034857806318160ddd1461036757806323b872dd1461038a578063256929621461039d5780633412da2b146103a55780633fb80b15146103b9575f80fd5b806301ffc9a71461026e57806306fdde03146102bf578063081812fc146102f4578063095ea7b31461032b5780631249c58b14610340575b5f80fd5b348015610279575f80fd5b506102aa610288366004611771565b6301ffc9a760e09190911c9081146380ac58cd821417635b5e139f9091141790565b60405190151581526020015b60405180910390f35b3480156102ca575f80fd5b506040805180820190915260048152634c45535360e01b60208201525b6040516102b69190611798565b3480156102ff575f80fd5b5061031361030e3660046117cd565b6108a7565b6040516001600160a01b0390911681526020016102b6565b61033e6103393660046117fa565b6108e2565b005b61033e6108f1565b348015610353575f80fd5b5061033e6103623660046117cd565b610add565b348015610372575f80fd5b5061037c60015481565b6040519081526020016102b6565b61033e610398366004611822565b610b21565b61033e610c1b565b3480156103b0575f80fd5b506102aa610c67565b3480156103c4575f80fd5b50600354610313906001600160a01b031681565b3480156103e3575f80fd5b5061037c5f5481565b61033e6103fa366004611822565b610d39565b34801561040a575f80fd5b5061033e61041936600461185c565b610d65565b61033e610de2565b348015610431575f80fd5b5061033e61044036600461185c565b610e1b565b348015610450575f80fd5b5061037c7f000000000000000000000000000000000000000000000000000000000000000081565b348015610483575f80fd5b506103136104923660046117cd565b610e98565b3480156104a2575f80fd5b5061037c610ed4565b3480156104b6575f80fd5b5061037c60025481565b3480156104cb575f80fd5b5061033e610eed565b3480156104df575f80fd5b5061037c6104ee36600461185c565b610f53565b61033e610f8b565b348015610506575f80fd5b5061037c60055481565b34801561051b575f80fd5b50600454610313906001600160a01b031681565b34801561053a575f80fd5b50638b78c6d81954610313565b348015610552575f80fd5b5061037c6105613660046117cd565b610f9e565b348015610571575f80fd5b5061033e610580366004611875565b610fe0565b348015610590575f80fd5b506105f861059f3660046117cd565b60408051606080820183525f808352602080840182905292840181905293845260068252928290208251938401835280546001600160401b038082168652600160401b9091041691840191909152600101549082015290565b6040805182516001600160401b0390811682526020808501519091169082015291810151908201526060016102b6565b348015610633575f80fd5b506103137f000000000000000000000000000000000000000000000000000000000000000081565b348015610666575f80fd5b506102aa6106753660046118ae565b600860209081525f928352604080842090915290825290205460ff1681565b34801561069f575f80fd5b506106b36106ae3660046117cd565b611033565b60405190516001600160401b031681526020016102b6565b3480156106d6575f80fd5b506106ff6106e53660046117cd565b60076020525f90815260409020546001600160401b031681565b6040516001600160401b0390911681526020016102b6565b61033e6107253660046118d8565b611091565b348015610735575f80fd5b506102aa6110eb565b348015610749575f80fd5b506107856107583660046117cd565b60066020525f9081526040902080546001909101546001600160401b0380831692600160401b9004169083565b604080516001600160401b039485168152939092166020840152908201526060016102b6565b3480156107b6575f80fd5b506102e76107c53660046117cd565b6110f9565b3480156107d5575f80fd5b5061037c6107e43660046117cd565b611192565b3480156107f4575f80fd5b506102aa61080336600461196b565b601c52670a5a2e7a000000006008525f526030600c205490565b61033e61082b36600461185c565b61120f565b61033e61083e36600461185c565b61124c565b34801561084e575f80fd5b5061033e61085d3660046117cd565b611272565b34801561086d575f80fd5b5061037c61087c36600461185c565b63389a75e1600c9081525f91909152602090205490565b34801561089e575f80fd5b5061037c6112af565b5f815f52673ec412a9852d173d60c11b601c5260205f2082018201805460601b6108d85763ceea21b65f526004601cfd5b6001015492915050565b6108ed3383836112eb565b5050565b3068929eee149b4bd21268540361090f5763ab143c065f526004601cfd5b3068929eee149b4bd2126855610923611385565b61092f5761092f6113d1565b5f80548082526008602090815260408084203385529091529091205460ff161561096c57604051633efd109360e21b815260040160405180910390fd5b60025434101561098f5760405163cd1c886760e01b815260040160405180910390fd5b5f6002543461099e91906119a7565b5f8381526008602090815260408083203384529091528120805460ff191660019081179091558054929350909182906109d6906119ba565b918290555060408051602080820183526001600160401b0387811683525f85815260079092529290209051815467ffffffffffffffff191692169190911790559050610a223382611593565b600354600254610a3b916001600160a01b03169061162f565b8115610a4b57610a4b338361162f565b5f83815260066020908152604080832060010154815180840191909152808201859052815180820383018152606090910190915280519101209050336001600160a01b031684837fd8d3f4689036e011512f797b74f83dbe227a55ff95d3ea8c9a556d086191ba9e84604051610ac391815260200190565b60405180910390a4505050503868929eee149b4bd2126855565b610ae561166e565b60058190556040518181527f05bdd1aacb378e978cf29f9d949d975a1422d55607cd52d6a569373358ba4100906020015b60405180910390a150565b5f818152673ec412a9852d173d60c11b3317601c52602090208101810180546001600160a01b039485169493841693811691908286148302610b725767ceea21b6a1148100831560021b526004601cfd5b855f528160010154925082331486331417610b9e576030600c2054610b9e57634b6e7f185f526004601cfd5b8215610bab575f82600101555b85851818905550601c600c81812080545f190190555f84905220805460010163ffffffff81168402610bec5767ea553b3401336cea841560021b526004601cfd5b90558082847fddf252ad1be2c89b69c2b068fc378daa952ba7f163c4a11628f55a4df523b3ef5f38a45b505050565b5f6202a3006001600160401b03164201905063389a75e1600c52335f52806020600c2055337fdbf36a107da19e49527a7176a1babf963b4b0ff8cde35ee35d6cd8f1f9ac7e1d5f80a250565b5f610c70611385565b15610c7a57505f90565b6005547f00000000000000000000000000000000000000000000000000000000000000006001600160a01b0316311015610cb357505f90565b7f00000000000000000000000000000000000000000000000000000000000000006001600160a01b0316630b6e04e86040518163ffffffff1660e01b8152600401602060405180830381865afa158015610d0f573d5f803e3d5ffd5b505050506040513d601f19601f82011682018060405250810190610d3391906119d2565b15919050565b610d44838383610b21565b813b15610c1657610c1683838360405180602001604052805f815250611688565b610d6d61166e565b6001600160a01b038116610d94576040516321c17ee560e11b815260040160405180910390fd5b600380546001600160a01b0319166001600160a01b0383169081179091556040519081527f5eb0913799140a38d5e80f5c04a585a09b65facadcbbe1a2c0c942d4198b2e9390602001610b16565b63389a75e1600c52335f525f6020600c2055337ffa7b8eab7da67f412cc9575ed43464468f9bfbae89d1675917346ca6d8fe3c925f80a2565b610e2361166e565b6001600160a01b038116610e4a57604051630161139960e31b815260040160405180910390fd5b600480546001600160a01b0319166001600160a01b0383169081179091556040519081527f482cbbbcf912da3be80deb8503ae1e94c0b7d5d1d0ec0af3d9d6403e06e609ee90602001610b16565b5f818152673ec412a9852d173d60c11b601c526020902081018101546001600160a01b031680610ecf5763ceea21b65f526004601cfd5b919050565b5f610edd611385565b15610ee857505f5490565b505f90565b3068929eee149b4bd212685403610f0b5763ab143c065f526004601cfd5b3068929eee149b4bd2126855610f1f611385565b15610f3d5760405163209b21a560e11b815260040160405180910390fd5b610f456113d1565b3868929eee149b4bd2126855565b5f81610f6657638f4eb6045f526004601cfd5b673ec412a9852d173d60c11b601c52815f5263ffffffff601c600c2054169050919050565b610f9361166e565b610f9c5f611711565b565b5f610fa88261174e565b610fc55760405163677510db60e11b815260040160405180910390fd5b505f908152600760205260409020546001600160401b031690565b801515905081601c52670a5a2e7a00000000600852335f52806030600c2055805f528160601b60601c337f17307eab39ab6107e8899845ad3d59bd9653f200f220920489ca2b5937696c3160205fa35050565b60408051602081019091525f815261104a8261174e565b6110675760405163677510db60e11b815260040160405180910390fd5b505f90815260076020908152604091829020825191820190925290546001600160401b0316815290565b61109c858585610b21565b833b156110e4576110e485858585858080601f0160208091040260200160405190810160405280939291908181526020018383808284375f9201919091525061168892505050565b5050505050565b5f6110f4611385565b905090565b60606111048261174e565b6111215760405163677510db60e11b815260040160405180910390fd5b6004805460405163c87b56dd60e01b81529182018490526001600160a01b03169063c87b56dd906024015f60405180830381865afa158015611165573d5f803e3d5ffd5b505050506040513d5f823e601f3d908101601f1916820160405261118c91908101906119fd565b92915050565b5f61119c8261174e565b6111b95760405163677510db60e11b815260040160405180910390fd5b5f828152600760209081526040808320546001600160401b0316808452600683529281902060010154815180840191909152808201869052815180820383018152606090910190915280519101205b9392505050565b61121761166e565b63389a75e1600c52805f526020600c20805442111561123d57636f5e88185f526004601cfd5b5f905561124981611711565b50565b61125461166e565b8060601b61126957637448fbae5f526004601cfd5b61124981611711565b61127a61166e565b60028190556040518181527f525b762709cc2a983aec5ccdfd807a061f993c91090b5bcd7da92ca254976aaa90602001610b16565b5f6112b8611385565b6112c157505f90565b5f80548152600660205260409020546110f4904290600160401b90046001600160401b03166119a7565b5f1960601c82811692508381169350815f5283673ec412a9852d173d60c11b17601c5260205f20820182018054821691508161132e5763ceea21b65f526004601cfd5b81851485151761135257815f526030600c205461135257634b6e7f185f526004601cfd5b6001018390558183827f8c5be1e5ebec7d5bd14f71427d1e84f3dd0314c0f7b2291e5b200ac8c7c3b9255f38a450505050565b5f80545f0361139357505f90565b5f8054815260066020526040902080546001600160401b031642108015906113cb57508054600160401b90046001600160401b031642105b91505090565b6005547f00000000000000000000000000000000000000000000000000000000000000006001600160a01b031631101561141e576040516354e89c2b60e11b815260040160405180910390fd5b5f61142a6001436119a7565b4090507f00000000000000000000000000000000000000000000000000000000000000006001600160a01b0316631db527556040518163ffffffff1660e01b81526004015f604051808303815f87803b158015611485575f80fd5b505af1158015611497573d5f803e3d5ffd5b50505f805492509050806114aa836119ba565b909155504290505f6114dc7f000000000000000000000000000000000000000000000000000000000000000083611aad565b60408051606080820183526001600160401b0386811680845285821660208086018281528688018c81525f80548152600684528981209851895493518816600160401b026fffffffffffffffffffffffffffffffff19909416971696909617919091178755516001909601959095559154855191825293810191909152928301879052929350917f34e1125fd554b81ceb010ad3291c6bad86b1c4e0dea6acfb12bb6d85f5477b6c910160405180910390a2505050565b8160601b60601c9150805f52673ec412a9852d173d60c11b601c5260205f208101810180548060601b156115ce5763c991cbb15f526004601cfd5b831790555f829052601c600c20805460010163ffffffff811684026116025767ea553b3401336cea841560021b526004601cfd5b905580825f7fddf252ad1be2c89b69c2b068fc378daa952ba7f163c4a11628f55a4df523b3ef8138a45050565b804710156116445763b12d13eb5f526004601cfd5b5f385f388486620186a0f16108ed57815f526073600b5360ff6020536016600b82f06108ed573838fd5b638b78c6d819543314610f9c576382b429005f526004601cfd5b60405163150b7a028082523360208301528560601b60601c604083015283606083015260808083015282518060a084015280156116cf578060c08401826020870160045afa505b60208360a48301601c86015f8a5af16116f0573d156116f0573d5f843e3d83fd5b508060e01b8251146117095763d1a57ed65f526004601cfd5b505050505050565b638b78c6d81980546001600160a01b039092169182907f8be0079c531659141344cd1fd0a4f28419497f9722a3daafe3b4186f6b6457e05f80a355565b5f818152673ec412a9852d173d60c11b601c52602090208101015460601b151590565b5f60208284031215611781575f80fd5b81356001600160e01b031981168114611208575f80fd5b602081525f82518060208401528060208501604085015e5f604082850101526040601f19601f83011684010191505092915050565b5f602082840312156117dd575f80fd5b5035919050565b80356001600160a01b0381168114610ecf575f80fd5b5f806040838503121561180b575f80fd5b611814836117e4565b946020939093013593505050565b5f805f60608486031215611834575f80fd5b61183d846117e4565b925061184b602085016117e4565b929592945050506040919091013590565b5f6020828403121561186c575f80fd5b611208826117e4565b5f8060408385031215611886575f80fd5b61188f836117e4565b9150602083013580151581146118a3575f80fd5b809150509250929050565b5f80604083850312156118bf575f80fd5b823591506118cf602084016117e4565b90509250929050565b5f805f805f608086880312156118ec575f80fd5b6118f5866117e4565b9450611903602087016117e4565b93506040860135925060608601356001600160401b03811115611924575f80fd5b8601601f81018813611934575f80fd5b80356001600160401b03811115611949575f80fd5b88602082840101111561195a575f80fd5b959894975092955050506020019190565b5f806040838503121561197c575f80fd5b611985836117e4565b91506118cf602084016117e4565b634e487b7160e01b5f52601160045260245ffd5b8181038181111561118c5761118c611993565b5f600182016119cb576119cb611993565b5060010190565b5f602082840312156119e2575f80fd5b5051919050565b634e487b7160e01b5f52604160045260245ffd5b5f60208284031215611a0d575f80fd5b81516001600160401b03811115611a22575f80fd5b8201601f81018413611a32575f80fd5b80516001600160401b03811115611a4b57611a4b6119e9565b604051601f8201601f19908116603f011681016001600160401b0381118282101715611a7957611a796119e9565b604052818152828201602001861015611a90575f80fd5b8160208401602083015e5f91810160200191909152949350505050565b6001600160401b03818116838216019081111561118c5761118c61199356fea264697066735822122051c87b1da949d9e7214f2203472b8613c4470473c34401a81e31c7617fc2606764736f6c634300081a0033","linkReferences":{}},"methodIdentifiers":{"activeFoldId()":"63a2eda6","approve(address,uint256)":"095ea7b3","balanceOf(address)":"70a08231","canCreateFold()":"3412da2b","cancelOwnershipHandover()":"54d1f13d","completeOwnershipHandover(address)":"f04e283e","createFold()":"68669371","currentFoldId()":"4086df64","folds(uint256)":"c72aad5d","getApproved(uint256)":"081812fc","getFold(uint256)":"a2f0fc5e","getFoldId(uint256)":"8dfe32c4","getSeed(uint256)":"e0d4ea37","getTokenData(uint256)":"b09afec1","hasMintedFold(uint256,address)":"ac1e447e","isApprovedForAll(address,address)":"e985e9c5","isWindowActive()":"b977946d","minEthForFold()":"71bfab8a","mint()":"1249c58b","mintPrice()":"6817c76c","name()":"06fdde03","owner()":"8da5cb5b","ownerOf(uint256)":"6352211e","ownershipHandoverExpiresAt(address)":"fee81cf4","payoutRecipient()":"3fb80b15","renderer()":"8ada6b0f","renounceOwnership()":"715018a6","requestOwnershipHandover()":"25692962","safeTransferFrom(address,address,uint256)":"42842e0e","safeTransferFrom(address,address,uint256,bytes)":"b88d4fde","setApprovalForAll(address,bool)":"a22cb465","setMinEthForFold(uint256)":"14d92f5b","setMintPrice(uint256)":"f4a0a528","setPayoutRecipient(address)":"46bb5954","setRenderer(address)":"56d3163d","strategy()":"a8c62e76","supportsInterface(bytes4)":"01ffc9a7","symbol()":"95d89b41","timeUntilWindowCloses()":"ff0ea236","tokenData(uint256)":"b4b5b48f","tokenURI(uint256)":"c87b56dd","totalSupply()":"18160ddd","transferFrom(address,address,uint256)":"23b872dd","transferOwnership(address)":"f2fde38b","windowDuration()":"5c11ff7a"},"id":2}