{"abi":[{"type":"constructor","inputs":[{"name":"_strategy","type":"address","internalType":"address"},{"name":"_mintPrice","type":"uint256","internalType":"uint256"},{"name":"_payoutRecipient","type":"address","internalType":"address"},{"name":"_owner","type":"address","internalType":"address"}],"stateMutability":"nonpayable"},{"type":"function","name":"activeFoldId","inputs":[],"outputs":[{"name":"","type":"uint256","internalType":"uint256"}],"stateMutability":"view"},{"type":"function","name":"approve","inputs":[{"name":"account","type":"address","internalType":"address"},{"name":"id","type":"uint256","internalType":"uint256"}],"outputs":[],"stateMutability":"payable"},{"type":"function","name":"balanceOf","inputs":[{"name":"owner","type":"address","internalType":"address"}],"outputs":[{"name":"result","type":"uint256","internalType":"uint256"}],"stateMutability":"view"},{"type":"function","name":"canCreateFold","inputs":[],"outputs":[{"name":"","type":"bool","internalType":"bool"}],"stateMutability":"view"},{"type":"function","name":"cancelOwnershipHandover","inputs":[],"outputs":[],"stateMutability":"payable"},{"type":"function","name":"completeOwnershipHandover","inputs":[{"name":"pendingOwner","type":"address","internalType":"address"}],"outputs":[],"stateMutability":"payable"},{"type":"function","name":"contractURI","inputs":[],"outputs":[{"name":"","type":"string","internalType":"string"}],"stateMutability":"view"},{"type":"function","name":"createFold","inputs":[],"outputs":[],"stateMutability":"nonpayable"},{"type":"function","name":"currentFoldId","inputs":[],"outputs":[{"name":"","type":"uint256","internalType":"uint256"}],"stateMutability":"view"},{"type":"function","name":"folds","inputs":[{"name":"","type":"uint256","internalType":"uint256"}],"outputs":[{"name":"startTime","type":"uint64","internalType":"uint64"},{"name":"endTime","type":"uint64","internalType":"uint64"},{"name":"blockHash","type":"bytes32","internalType":"bytes32"}],"stateMutability":"view"},{"type":"function","name":"getApproved","inputs":[{"name":"id","type":"uint256","internalType":"uint256"}],"outputs":[{"name":"result","type":"address","internalType":"address"}],"stateMutability":"view"},{"type":"function","name":"getFold","inputs":[{"name":"foldId","type":"uint256","internalType":"uint256"}],"outputs":[{"name":"","type":"tuple","internalType":"struct Less.Fold","components":[{"name":"startTime","type":"uint64","internalType":"uint64"},{"name":"endTime","type":"uint64","internalType":"uint64"},{"name":"blockHash","type":"bytes32","internalType":"bytes32"}]}],"stateMutability":"view"},{"type":"function","name":"getSeed","inputs":[{"name":"tokenId","type":"uint256","internalType":"uint256"}],"outputs":[{"name":"","type":"bytes32","internalType":"bytes32"}],"stateMutability":"view"},{"type":"function","name":"getTokenData","inputs":[{"name":"tokenId","type":"uint256","internalType":"uint256"}],"outputs":[{"name":"","type":"tuple","internalType":"struct Less.TokenData","components":[{"name":"foldId","type":"uint64","internalType":"uint64"}]}],"stateMutability":"view"},{"type":"function","name":"hasMintedFold","inputs":[{"name":"","type":"uint256","internalType":"uint256"},{"name":"","type":"address","internalType":"address"}],"outputs":[{"name":"","type":"bool","internalType":"bool"}],"stateMutability":"view"},{"type":"function","name":"isApprovedForAll","inputs":[{"name":"owner","type":"address","internalType":"address"},{"name":"operator","type":"address","internalType":"address"}],"outputs":[{"name":"result","type":"bool","internalType":"bool"}],"stateMutability":"view"},{"type":"function","name":"isWindowActive","inputs":[],"outputs":[{"name":"","type":"bool","internalType":"bool"}],"stateMutability":"view"},{"type":"function","name":"minEthForFold","inputs":[],"outputs":[{"name":"","type":"uint256","internalType":"uint256"}],"stateMutability":"view"},{"type":"function","name":"mint","inputs":[],"outputs":[],"stateMutability":"payable"},{"type":"function","name":"mintPrice","inputs":[],"outputs":[{"name":"","type":"uint256","internalType":"uint256"}],"stateMutability":"view"},{"type":"function","name":"name","inputs":[],"outputs":[{"name":"","type":"string","internalType":"string"}],"stateMutability":"pure"},{"type":"function","name":"owner","inputs":[],"outputs":[{"name":"result","type":"address","internalType":"address"}],"stateMutability":"view"},{"type":"function","name":"ownerOf","inputs":[{"name":"id","type":"uint256","internalType":"uint256"}],"outputs":[{"name":"result","type":"address","internalType":"address"}],"stateMutability":"view"},{"type":"function","name":"ownershipHandoverExpiresAt","inputs":[{"name":"pendingOwner","type":"address","internalType":"address"}],"outputs":[{"name":"result","type":"uint256","internalType":"uint256"}],"stateMutability":"view"},{"type":"function","name":"payoutRecipient","inputs":[],"outputs":[{"name":"","type":"address","internalType":"address"}],"stateMutability":"view"},{"type":"function","name":"renderer","inputs":[],"outputs":[{"name":"","type":"address","internalType":"address"}],"stateMutability":"view"},{"type":"function","name":"renounceOwnership","inputs":[],"outputs":[],"stateMutability":"payable"},{"type":"function","name":"requestOwnershipHandover","inputs":[],"outputs":[],"stateMutability":"payable"},{"type":"function","name":"safeTransferFrom","inputs":[{"name":"from","type":"address","internalType":"address"},{"name":"to","type":"address","internalType":"address"},{"name":"id","type":"uint256","internalType":"uint256"}],"outputs":[],"stateMutability":"payable"},{"type":"function","name":"safeTransferFrom","inputs":[{"name":"from","type":"address","internalType":"address"},{"name":"to","type":"address","internalType":"address"},{"name":"id","type":"uint256","internalType":"uint256"},{"name":"data","type":"bytes","internalType":"bytes"}],"outputs":[],"stateMutability":"payable"},{"type":"function","name":"setApprovalForAll","inputs":[{"name":"operator","type":"address","internalType":"address"},{"name":"isApproved","type":"bool","internalType":"bool"}],"outputs":[],"stateMutability":"nonpayable"},{"type":"function","name":"setMinEthForFold","inputs":[{"name":"_minEthForFold","type":"uint256","internalType":"uint256"}],"outputs":[],"stateMutability":"nonpayable"},{"type":"function","name":"setMintPrice","inputs":[{"name":"_mintPrice","type":"uint256","internalType":"uint256"}],"outputs":[],"stateMutability":"nonpayable"},{"type":"function","name":"setPayoutRecipient","inputs":[{"name":"_payoutRecipient","type":"address","internalType":"address"}],"outputs":[],"stateMutability":"nonpayable"},{"type":"function","name":"setRenderer","inputs":[{"name":"_renderer","type":"address","internalType":"address"}],"outputs":[],"stateMutability":"nonpayable"},{"type":"function","name":"strategy","inputs":[],"outputs":[{"name":"","type":"address","internalType":"contract IRecursiveStrategy"}],"stateMutability":"view"},{"type":"function","name":"supportsInterface","inputs":[{"name":"interfaceId","type":"bytes4","internalType":"bytes4"}],"outputs":[{"name":"result","type":"bool","internalType":"bool"}],"stateMutability":"view"},{"type":"function","name":"symbol","inputs":[],"outputs":[{"name":"","type":"string","internalType":"string"}],"stateMutability":"pure"},{"type":"function","name":"timeUntilWindowCloses","inputs":[],"outputs":[{"name":"","type":"uint256","internalType":"uint256"}],"stateMutability":"view"},{"type":"function","name":"tokenData","inputs":[{"name":"","type":"uint256","internalType":"uint256"}],"outputs":[{"name":"foldId","type":"uint64","internalType":"uint64"}],"stateMutability":"view"},{"type":"function","name":"tokenURI","inputs":[{"name":"tokenId","type":"uint256","internalType":"uint256"}],"outputs":[{"name":"","type":"string","internalType":"string"}],"stateMutability":"view"},{"type":"function","name":"totalSupply","inputs":[],"outputs":[{"name":"","type":"uint256","internalType":"uint256"}],"stateMutability":"view"},{"type":"function","name":"transferFrom","inputs":[{"name":"from","type":"address","internalType":"address"},{"name":"to","type":"address","internalType":"address"},{"name":"id","type":"uint256","internalType":"uint256"}],"outputs":[],"stateMutability":"payable"},{"type":"function","name":"transferOwnership","inputs":[{"name":"newOwner","type":"address","internalType":"address"}],"outputs":[],"stateMutability":"payable"},{"type":"function","name":"windowDuration","inputs":[],"outputs":[{"name":"","type":"uint256","internalType":"uint256"}],"stateMutability":"view"},{"type":"event","name":"Approval","inputs":[{"name":"owner","type":"address","indexed":true,"internalType":"address"},{"name":"account","type":"address","indexed":true,"internalType":"address"},{"name":"id","type":"uint256","indexed":true,"internalType":"uint256"}],"anonymous":false},{"type":"event","name":"ApprovalForAll","inputs":[{"name":"owner","type":"address","indexed":true,"internalType":"address"},{"name":"operator","type":"address","indexed":true,"internalType":"address"},{"name":"isApproved","type":"bool","indexed":false,"internalType":"bool"}],"anonymous":false},{"type":"event","name":"FoldCreated","inputs":[{"name":"foldId","type":"uint256","indexed":true,"internalType":"uint256"},{"name":"startTime","type":"uint64","indexed":false,"internalType":"uint64"},{"name":"endTime","type":"uint64","indexed":false,"internalType":"uint64"},{"name":"blockHash","type":"bytes32","indexed":false,"internalType":"bytes32"}],"anonymous":false},{"type":"event","name":"MinEthForFoldUpdated","inputs":[{"name":"newMinEth","type":"uint256","indexed":false,"internalType":"uint256"}],"anonymous":false},{"type":"event","name":"MintPriceUpdated","inputs":[{"name":"newPrice","type":"uint256","indexed":false,"internalType":"uint256"}],"anonymous":false},{"type":"event","name":"Minted","inputs":[{"name":"tokenId","type":"uint256","indexed":true,"internalType":"uint256"},{"name":"foldId","type":"uint256","indexed":true,"internalType":"uint256"},{"name":"minter","type":"address","indexed":true,"internalType":"address"},{"name":"seed","type":"bytes32","indexed":false,"internalType":"bytes32"}],"anonymous":false},{"type":"event","name":"OwnershipHandoverCanceled","inputs":[{"name":"pendingOwner","type":"address","indexed":true,"internalType":"address"}],"anonymous":false},{"type":"event","name":"OwnershipHandoverRequested","inputs":[{"name":"pendingOwner","type":"address","indexed":true,"internalType":"address"}],"anonymous":false},{"type":"event","name":"OwnershipTransferred","inputs":[{"name":"oldOwner","type":"address","indexed":true,"internalType":"address"},{"name":"newOwner","type":"address","indexed":true,"internalType":"address"}],"anonymous":false},{"type":"event","name":"PayoutRecipientUpdated","inputs":[{"name":"newRecipient","type":"address","indexed":false,"internalType":"address"}],"anonymous":false},{"type":"event","name":"RendererUpdated","inputs":[{"name":"newRenderer","type":"address","indexed":false,"internalType":"address"}],"anonymous":false},{"type":"event","name":"Transfer","inputs":[{"name":"from","type":"address","indexed":true,"internalType":"address"},{"name":"to","type":"address","indexed":true,"internalType":"address"},{"name":"id","type":"uint256","indexed":true,"internalType":"uint256"}],"anonymous":false},{"type":"error","name":"AccountBalanceOverflow","inputs":[]},{"type":"error","name":"AlreadyInitialized","inputs":[]},{"type":"error","name":"AlreadyMintedThisFold","inputs":[]},{"type":"error","name":"BalanceQueryForZeroAddress","inputs":[]},{"type":"error","name":"FoldDoesNotExist","inputs":[]},{"type":"error","name":"InsufficientPayment","inputs":[]},{"type":"error","name":"InsufficientStrategyBalance","inputs":[]},{"type":"error","name":"InvalidOwner","inputs":[]},{"type":"error","name":"InvalidPayoutRecipient","inputs":[]},{"type":"error","name":"InvalidRenderer","inputs":[]},{"type":"error","name":"InvalidStrategyAddress","inputs":[]},{"type":"error","name":"MintWindowActive","inputs":[]},{"type":"error","name":"NewOwnerIsZeroAddress","inputs":[]},{"type":"error","name":"NoActiveMintWindow","inputs":[]},{"type":"error","name":"NoHandoverRequest","inputs":[]},{"type":"error","name":"NotOwnerNorApproved","inputs":[]},{"type":"error","name":"Reentrancy","inputs":[]},{"type":"error","name":"TokenAlreadyExists","inputs":[]},{"type":"error","name":"TokenDoesNotExist","inputs":[]},{"type":"error","name":"TransferFromIncorrectOwner","inputs":[]},{"type":"error","name":"TransferToNonERC721ReceiverImplementer","inputs":[]},{"type":"error","name":"TransferToZeroAddress","inputs":[]},{"type":"error","name":"Unauthorized","inputs":[]}],"bytecode":{"object":"0x60c0806040523461016057608081611a1e803803809161001f82856101a4565b83398101031261016057610032816101db565b602082015161004f6060610048604086016101db565b94016101db565b6001600160a01b03909216928315610195576001600160a01b0316918215610186576001600160a01b0316928315610177576020816004926080526040519283809263377da8df60e21b82525afa90811561016c575f91610136575b5060a052600255600380546001600160a01b0319169190911790556703782dace9d90000600555638b78c6d8198190555f7f8be0079c531659141344cd1fd0a4f28419497f9722a3daafe3b4186f6b6457e08180a360405161182e90816101f08239608051818181610740015281816113800152611504015260a051818181610aaa015261158d0152f35b90506020813d602011610164575b81610151602093836101a4565b8101031261016057515f6100ab565b5f80fd5b3d9150610144565b6040513d5f823e3d90fd5b6349e27cff60e01b5f5260045ffd5b6321c17ee560e11b5f5260045ffd5b633408148f60e01b5f5260045ffd5b601f909101601f19168101906001600160401b038211908210176101c757604052565b634e487b7160e01b5f52604160045260245ffd5b51906001600160a01b03821682036101605756fe6080806040526004361015610012575f80fd5b5f3560e01c90816301ffc9a7146110ab5750806306fdde0314610889578063081812fc1461105a578063095ea7b314610fb25780631249c58b14610d7657806314d92f5b14610d2a57806318160ddd14610d0d57806323b872dd14610cfb5780632569296214610cb25780633412da2b14610c985780633fb80b1514610c705780634086df6414610c5457806342842e0e14610c1b57806346bb595414610b9657806354d1f13d14610b5257806356d3163d14610acd5780635c11ff7a14610a935780636352211e14610a3d57806363a2eda614610a235780636817c76c14610a06578063686693711461099b57806370a0823114610948578063715018a6146108ff57806371bfab8a146108e25780638ada6b0f146108ba5780638da5cb5b1461088e57806395d89b4114610889578063a22cb46514610817578063a2f0fc5e1461076f578063a8c62e761461072b578063ac1e447e146106e2578063b09afec11461066d578063b4b5b48f1461063a578063b88d4fde14610599578063b977946d14610575578063c72aad5d14610513578063c87b56dd14610497578063e0d4ea3714610400578063e8a3d4851461037d578063e985e9c514610339578063f04e283e146102ec578063f2fde38b146102af578063f4a0a52814610263578063fee81cf4146102315763ff0ea2361461020b575f80fd5b3461022d575f36600319011261022d57602061022561148a565b604051908152f35b5f80fd5b3461022d57602036600319011261022d5761024a61115d565b63389a75e1600c525f52602080600c2054604051908152f35b3461022d57602036600319011261022d577f525b762709cc2a983aec5ccdfd807a061f993c91090b5bcd7da92ca254976aaa60206004356102a261170d565b80600255604051908152a1005b602036600319011261022d576102c361115d565b6102cb61170d565b8060601b156102df576102dd906117bb565b005b637448fbae5f526004601cfd5b602036600319011261022d5761030061115d565b61030861170d565b63389a75e1600c52805f526020600c20908154421161032c575f6102dd92556117bb565b636f5e88185f526004601cfd5b3461022d57604036600319011261022d5761035261115d565b61035a611173565b601c52670a5a2e7a000000006008525f5260206030600c20546040519015158152f35b3461022d575f36600319011261022d576004805460405163e8a3d48560e01b8152915f9183919082906001600160a01b03165afa80156103f5576103cf915f916103d3575b50604051918291826110f5565b0390f35b6103ef91503d805f833e6103e7818361120d565b810190611428565b826103c2565b6040513d5f823e3d90fd5b3461022d57602036600319011261022d576004355f818152673ec412a9852d173d60c11b601c5260209020810181015460601b1561048857806020915f52600782526001600160401b0360405f2054165f5260068252600160405f200154906040519083820192835260408201526040815261047d60608261120d565b519020604051908152f35b63677510db60e11b5f5260045ffd5b3461022d57602036600319011261022d576004355f818152673ec412a9852d173d60c11b601c5260209020810181015460601b15610488575f60018060a01b03600454169160246040518094819363c87b56dd60e01b835260048301525afa80156103f5576103cf915f916103d35750604051918291826110f5565b3461022d57602036600319011261022d576004355f52600660205260405f2060018154910154906103cf60405192826001600160401b0380869560401c169116846001600160401b036040929594938160608401971683521660208201520152565b3461022d575f36600319011261022d57602061058f6114be565b6040519015158152f35b608036600319011261022d576105ad61115d565b6105b5611173565b604435606435916001600160401b03831161022d573660238401121561022d578260040135936001600160401b03851161022d57366024868601011161022d57610600838383611278565b813b61060857005b5f60208680602461061b6102dd9a61122e565b986106296040519a8b61120d565b828a52018389013786010152611729565b3461022d57602036600319011261022d576004355f52600760205260206001600160401b0360405f205416604051908152f35b3461022d57602036600319011261022d576004355f60405161068e816111c3565b525f818152673ec412a9852d173d60c11b601c5260209020810181015460601b15610488575f526007602052602060405f206001600160401b03604051916106d5836111c3565b5416809152604051908152f35b3461022d57604036600319011261022d576106fb611173565b6004355f52600860205260405f209060018060a01b03165f52602052602060ff60405f2054166040519015158152f35b3461022d575f36600319011261022d576040517f00000000000000000000000000000000000000000000000000000000000000006001600160a01b03168152602090f35b3461022d57602036600319011261022d576004355f60408051610791816111f2565b82815282602082015201528015801561080d575b6107fe575f526006602052606060405f206040516107c2816111f2565b6001600160401b0382546040600183831695868652846020870194841c1684520154930192835260405193845251166020830152516040820152f35b6304868b6560e21b5f5260045ffd5b505f5481116107a5565b3461022d57604036600319011261022d5761083061115d565b60243580151580910361022d5781601c52670a5a2e7a00000000600852335f52806030600c20555f5260018060a01b0316337f17307eab39ab6107e8899845ad3d59bd9653f200f220920489ca2b5937696c3160205fa3005b61111f565b3461022d575f36600319011261022d57638b78c6d819546040516001600160a01b039091168152602090f35b3461022d575f36600319011261022d576004546040516001600160a01b039091168152602090f35b3461022d575f36600319011261022d576020600554604051908152f35b5f36600319011261022d5761091261170d565b5f638b78c6d819547f8be0079c531659141344cd1fd0a4f28419497f9722a3daafe3b4186f6b6457e08280a35f638b78c6d81955005b3461022d57602036600319011261022d5761096161115d565b801561098e57673ec412a9852d173d60c11b601c525f52602063ffffffff601c600c205416604051908152f35b638f4eb6045f526004601cfd5b3461022d575f36600319011261022d573068929eee149b4bd2126854146109f9573068929eee149b4bd21268556109d06114be565b6109ea576109dc6114fc565b3868929eee149b4bd2126855005b63209b21a560e11b5f5260045ffd5b63ab143c065f526004601cfd5b3461022d575f36600319011261022d576020600254604051908152f35b3461022d575f36600319011261022d576020610225611413565b3461022d57602036600319011261022d576004355f818152673ec412a9852d173d60c11b601c5260209020810101546001600160a01b03168015610a8657602090604051908152f35b63ceea21b65f526004601cfd5b3461022d575f36600319011261022d5760206040517f00000000000000000000000000000000000000000000000000000000000000008152f35b3461022d57602036600319011261022d57610ae661115d565b610aee61170d565b6001600160a01b03168015610b43576020817f482cbbbcf912da3be80deb8503ae1e94c0b7d5d1d0ec0af3d9d6403e06e609ee926bffffffffffffffffffffffff60a01b6004541617600455604051908152a1005b630161139960e31b5f5260045ffd5b5f36600319011261022d5763389a75e1600c52335f525f6020600c2055337ffa7b8eab7da67f412cc9575ed43464468f9bfbae89d1675917346ca6d8fe3c925f80a2005b3461022d57602036600319011261022d57610baf61115d565b610bb761170d565b6001600160a01b03168015610c0c576020817f5eb0913799140a38d5e80f5c04a585a09b65facadcbbe1a2c0c942d4198b2e93926bffffffffffffffffffffffff60a01b6003541617600355604051908152a1005b6321c17ee560e11b5f5260045ffd5b610c2436611189565b610c318183859495611278565b823b610c3957005b6102dd9260405192610c4c60208561120d565b5f8452611729565b3461022d575f36600319011261022d5760205f54604051908152f35b3461022d575f36600319011261022d576003546040516001600160a01b039091168152602090f35b3461022d575f36600319011261022d57602061058f61136f565b5f36600319011261022d5763389a75e1600c52335f526202a30042016020600c2055337fdbf36a107da19e49527a7176a1babf963b4b0ff8cde35ee35d6cd8f1f9ac7e1d5f80a2005b6102dd610d0736611189565b91611278565b3461022d575f36600319011261022d576020600154604051908152f35b3461022d57602036600319011261022d577f05bdd1aacb378e978cf29f9d949d975a1422d55607cd52d6a569373358ba41006020600435610d6961170d565b80600555604051908152a1005b5f36600319011261022d573068929eee149b4bd2126854146109f9573068929eee149b4bd2126855610da66114be565b15610fa5575b5f80548082526008602090815260408084203385529091529091205460ff16610f9657600254803410610f8757610de39034611249565b90805f52600860205260405f2060018060a01b0333165f5260205260405f20600160ff19825416179055610e1860015461126a565b9182600155604051610e29816111c3565b6001600160401b0383168152835f5260076020526001600160401b038060405f20925116166001600160401b0319825416179055825f52673ec412a9852d173d60c11b601c5260205f208301830180548060601b610f7a5733179055335f52601c600c2060018154019063ffffffff8216330215610f65575582335f7fddf252ad1be2c89b69c2b068fc378daa952ba7f163c4a11628f55a4df523b3ef8180a4600354600254610ee1916001600160a01b03166116c8565b80610f55575b50805f526006602052600160405f2001546040516020810191825283604082015260408152610f1760608261120d565b519020916040519283527fd8d3f4689036e011512f797b74f83dbe227a55ff95d3ea8c9a556d086191ba9e60203394a43868929eee149b4bd2126855005b610f5f90336116c8565b82610ee7565b67ea553b3401336cea331560021b526004601cfd5b63c991cbb15f526004601cfd5b63cd1c886760e01b5f5260045ffd5b633efd109360e21b5f5260045ffd5b610fad6114fc565b610dac565b604036600319011261022d57610fc661115d565b6024355f818152673ec412a9852d173d60c11b3317601c526020902081018101805491926001600160a01b039081169216908115610a8657829082331433151715611036575b600101557f8c5be1e5ebec7d5bd14f71427d1e84f3dd0314c0f7b2291e5b200ac8c7c3b9255f80a4005b9050815f526030600c20541561104d57829061100c565b634b6e7f185f526004601cfd5b3461022d57602036600319011261022d576004355f818152673ec412a9852d173d60c11b601c5260209020810101805460601b15610a8657600101546040516001600160a01b039091168152602090f35b3461022d57602036600319011261022d57600435906001600160e01b03198216820361022d5760209160e01c635b5e139f8114906301ffc9a76380ac58cd82149114171715158152f35b602060409281835280519182918282860152018484015e5f828201840152601f01601f1916010190565b3461022d575f36600319011261022d576103cf60405161114060408261120d565b60048152634c45535360e01b6020820152604051918291826110f5565b600435906001600160a01b038216820361022d57565b602435906001600160a01b038216820361022d57565b606090600319011261022d576004356001600160a01b038116810361022d57906024356001600160a01b038116810361022d579060443590565b602081019081106001600160401b038211176111de57604052565b634e487b7160e01b5f52604160045260245ffd5b606081019081106001600160401b038211176111de57604052565b90601f801991011681019081106001600160401b038211176111de57604052565b6001600160401b0381116111de57601f01601f191660200190565b9190820391821161125657565b634e487b7160e01b5f52601160045260245ffd5b5f1981146112565760010190565b5f838152673ec412a9852d173d60c11b3317601c52602090208301830180546001600160a01b039384169392831692811680841481021561135a5750825f528160010180548033148533141715611343575b61133a575b50838318189055601c600c205f198154019055815f52601c600c2060018154019063ffffffff821684021561132557557fddf252ad1be2c89b69c2b068fc378daa952ba7f163c4a11628f55a4df523b3ef5f80a4565b67ea553b3401336cea841560021b526004601cfd5b5f90555f6112cf565b6030600c20546112ca57634b6e7f185f526004601cfd5b67ceea21b6a1148100901560021b526004601cfd5b6113776114be565b61140f576005547f00000000000000000000000000000000000000000000000000000000000000006001600160a01b03169081311061140a5760206004916040519283809263016dc09d60e31b82525afa9081156103f5575f916113da57501590565b90506020813d602011611402575b816113f56020938361120d565b8101031261022d57511590565b3d91506113e8565b505f90565b5f90565b61141b6114be565b611423575f90565b5f5490565b60208183031261022d578051906001600160401b03821161022d570181601f8201121561022d5780519061145b8261122e565b92611469604051948561120d565b8284526020838301011161022d57815f9260208093018386015e8301015290565b6114926114be565b1561140f575f545f5260066020526114bb6001600160401b0360405f205460401c164290611249565b90565b5f54801561140a575f52600660205260405f20546001600160401b03811642101590816114e9575090565b6001600160401b03915060401c16421090565b6005545f91907f00000000000000000000000000000000000000000000000000000000000000006001600160a01b0316908131106116b9575f194301438111611256574090803b1561022d575f8091600460405180948193631db5275560e01b83525af180156103f5576116a4575b50611576835461126a565b8084556001600160401b0342166001600160401b037f0000000000000000000000000000000000000000000000000000000000000000168101916001600160401b038311611690577f34e1125fd554b81ceb010ad3291c6bad86b1c4e0dea6acfb12bb6d85f5477b6c93949561168b916001604051916115f5836111f2565b858352602083016001600160401b038816815260408401918a8352855260066020526001600160401b038060408720955116166001600160401b03198554161784555167ffffffffffffffff60401b84549160401b169067ffffffffffffffff60401b1916178355519101555494604051938493846001600160401b036040929594938160608401971683521660208201520152565b0390a2565b634e487b7160e01b86526011600452602486fd5b6116b19193505f9061120d565b5f915f61156b565b6354e89c2b60e11b5f5260045ffd5b814710611700575f3881808585620186a0f1156116e3575050565b601691600b915f526073825360ff602053f0156116fc57565b3838fd5b63b12d13eb5f526004601cfd5b638b78c6d81954330361171c57565b6382b429005f526004601cfd5b9060a46020939460405195869463150b7a028652338787015260018060a01b03166040860152606085015260808085015280518091818060a08801526117a7575b505001905f601c8401915af115611799575b5163757a42ff60e11b0161178c57565b63d1a57ed65f526004601cfd5b3d1561177c573d5f823e3d90fd5b818760c08801920160045afa50805f61176a565b60018060a01b031680638b78c6d819547f8be0079c531659141344cd1fd0a4f28419497f9722a3daafe3b4186f6b6457e05f80a3638b78c6d8195556fea264697066735822122028f173ea2ded1f3104c9aaaf16bc91f8f7386d83a957a92ffef4738267f824df64736f6c634300081a0033","linkReferences":{}},"methodIdentifiers":{"activeFoldId()":"63a2eda6","approve(address,uint256)":"095ea7b3","balanceOf(address)":"70a08231","canCreateFold()":"3412da2b","cancelOwnershipHandover()":"54d1f13d","completeOwnershipHandover(address)":"f04e283e","contractURI()":"e8a3d485","createFold()":"68669371","currentFoldId()":"4086df64","folds(uint256)":"c72aad5d","getApproved(uint256)":"081812fc","getFold(uint256)":"a2f0fc5e","getSeed(uint256)":"e0d4ea37","getTokenData(uint256)":"b09afec1","hasMintedFold(uint256,address)":"ac1e447e","isApprovedForAll(address,address)":"e985e9c5","isWindowActive()":"b977946d","minEthForFold()":"71bfab8a","mint()":"1249c58b","mintPrice()":"6817c76c","name()":"06fdde03","owner()":"8da5cb5b","ownerOf(uint256)":"6352211e","ownershipHandoverExpiresAt(address)":"fee81cf4","payoutRecipient()":"3fb80b15","renderer()":"8ada6b0f","renounceOwnership()":"715018a6","requestOwnershipHandover()":"25692962","safeTransferFrom(address,address,uint256)":"42842e0e","safeTransferFrom(address,address,uint256,bytes)":"b88d4fde","setApprovalForAll(address,bool)":"a22cb465","setMinEthForFold(uint256)":"14d92f5b","setMintPrice(uint256)":"f4a0a528","setPayoutRecipient(address)":"46bb5954","setRenderer(address)":"56d3163d","strategy()":"a8c62e76","supportsInterface(bytes4)":"01ffc9a7","symbol()":"95d89b41","timeUntilWindowCloses()":"ff0ea236","tokenData(uint256)":"b4b5b48f","tokenURI(uint256)":"c87b56dd","totalSupply()":"18160ddd","transferFrom(address,address,uint256)":"23b872dd","transferOwnership(address)":"f2fde38b","windowDuration()":"5c11ff7a"},"id":2}