{"abi":[{"type":"constructor","inputs":[{"name":"_strategy","type":"address","internalType":"address"},{"name":"_mintPrice","type":"uint256","internalType":"uint256"},{"name":"_payoutRecipient","type":"address","internalType":"address"},{"name":"_owner","type":"address","internalType":"address"}],"stateMutability":"nonpayable"},{"type":"function","name":"activeFoldId","inputs":[],"outputs":[{"name":"","type":"uint256","internalType":"uint256"}],"stateMutability":"view"},{"type":"function","name":"approve","inputs":[{"name":"account","type":"address","internalType":"address"},{"name":"id","type":"uint256","internalType":"uint256"}],"outputs":[],"stateMutability":"payable"},{"type":"function","name":"balanceOf","inputs":[{"name":"owner","type":"address","internalType":"address"}],"outputs":[{"name":"result","type":"uint256","internalType":"uint256"}],"stateMutability":"view"},{"type":"function","name":"canCreateFold","inputs":[],"outputs":[{"name":"","type":"bool","internalType":"bool"}],"stateMutability":"view"},{"type":"function","name":"cancelOwnershipHandover","inputs":[],"outputs":[],"stateMutability":"payable"},{"type":"function","name":"completeOwnershipHandover","inputs":[{"name":"pendingOwner","type":"address","internalType":"address"}],"outputs":[],"stateMutability":"payable"},{"type":"function","name":"contractURI","inputs":[],"outputs":[{"name":"","type":"string","internalType":"string"}],"stateMutability":"view"},{"type":"function","name":"createFold","inputs":[],"outputs":[],"stateMutability":"nonpayable"},{"type":"function","name":"currentFoldId","inputs":[],"outputs":[{"name":"","type":"uint256","internalType":"uint256"}],"stateMutability":"view"},{"type":"function","name":"folds","inputs":[{"name":"","type":"uint256","internalType":"uint256"}],"outputs":[{"name":"startTime","type":"uint64","internalType":"uint64"},{"name":"endTime","type":"uint64","internalType":"uint64"},{"name":"blockHash","type":"bytes32","internalType":"bytes32"}],"stateMutability":"view"},{"type":"function","name":"getApproved","inputs":[{"name":"id","type":"uint256","internalType":"uint256"}],"outputs":[{"name":"result","type":"address","internalType":"address"}],"stateMutability":"view"},{"type":"function","name":"getFold","inputs":[{"name":"foldId","type":"uint256","internalType":"uint256"}],"outputs":[{"name":"","type":"tuple","internalType":"struct Less.Fold","components":[{"name":"startTime","type":"uint64","internalType":"uint64"},{"name":"endTime","type":"uint64","internalType":"uint64"},{"name":"blockHash","type":"bytes32","internalType":"bytes32"}]}],"stateMutability":"view"},{"type":"function","name":"getSeed","inputs":[{"name":"tokenId","type":"uint256","internalType":"uint256"}],"outputs":[{"name":"","type":"bytes32","internalType":"bytes32"}],"stateMutability":"view"},{"type":"function","name":"getTokenData","inputs":[{"name":"tokenId","type":"uint256","internalType":"uint256"}],"outputs":[{"name":"","type":"tuple","internalType":"struct Less.TokenData","components":[{"name":"foldId","type":"uint64","internalType":"uint64"}]}],"stateMutability":"view"},{"type":"function","name":"hasMintedFold","inputs":[{"name":"","type":"uint256","internalType":"uint256"},{"name":"","type":"address","internalType":"address"}],"outputs":[{"name":"","type":"bool","internalType":"bool"}],"stateMutability":"view"},{"type":"function","name":"isApprovedForAll","inputs":[{"name":"owner","type":"address","internalType":"address"},{"name":"operator","type":"address","internalType":"address"}],"outputs":[{"name":"result","type":"bool","internalType":"bool"}],"stateMutability":"view"},{"type":"function","name":"isWindowActive","inputs":[],"outputs":[{"name":"","type":"bool","internalType":"bool"}],"stateMutability":"view"},{"type":"function","name":"minEthForFold","inputs":[],"outputs":[{"name":"","type":"uint256","internalType":"uint256"}],"stateMutability":"view"},{"type":"function","name":"mint","inputs":[],"outputs":[],"stateMutability":"payable"},{"type":"function","name":"mintPrice","inputs":[],"outputs":[{"name":"","type":"uint256","internalType":"uint256"}],"stateMutability":"view"},{"type":"function","name":"name","inputs":[],"outputs":[{"name":"","type":"string","internalType":"string"}],"stateMutability":"pure"},{"type":"function","name":"owner","inputs":[],"outputs":[{"name":"result","type":"address","internalType":"address"}],"stateMutability":"view"},{"type":"function","name":"ownerOf","inputs":[{"name":"id","type":"uint256","internalType":"uint256"}],"outputs":[{"name":"result","type":"address","internalType":"address"}],"stateMutability":"view"},{"type":"function","name":"ownershipHandoverExpiresAt","inputs":[{"name":"pendingOwner","type":"address","internalType":"address"}],"outputs":[{"name":"result","type":"uint256","internalType":"uint256"}],"stateMutability":"view"},{"type":"function","name":"payoutRecipient","inputs":[],"outputs":[{"name":"","type":"address","internalType":"address"}],"stateMutability":"view"},{"type":"function","name":"renderer","inputs":[],"outputs":[{"name":"","type":"address","internalType":"address"}],"stateMutability":"view"},{"type":"function","name":"renounceOwnership","inputs":[],"outputs":[],"stateMutability":"payable"},{"type":"function","name":"requestOwnershipHandover","inputs":[],"outputs":[],"stateMutability":"payable"},{"type":"function","name":"safeTransferFrom","inputs":[{"name":"from","type":"address","internalType":"address"},{"name":"to","type":"address","internalType":"address"},{"name":"id","type":"uint256","internalType":"uint256"}],"outputs":[],"stateMutability":"payable"},{"type":"function","name":"safeTransferFrom","inputs":[{"name":"from","type":"address","internalType":"address"},{"name":"to","type":"address","internalType":"address"},{"name":"id","type":"uint256","internalType":"uint256"},{"name":"data","type":"bytes","internalType":"bytes"}],"outputs":[],"stateMutability":"payable"},{"type":"function","name":"setApprovalForAll","inputs":[{"name":"operator","type":"address","internalType":"address"},{"name":"isApproved","type":"bool","internalType":"bool"}],"outputs":[],"stateMutability":"nonpayable"},{"type":"function","name":"setMinEthForFold","inputs":[{"name":"_minEthForFold","type":"uint256","internalType":"uint256"}],"outputs":[],"stateMutability":"nonpayable"},{"type":"function","name":"setMintPrice","inputs":[{"name":"_mintPrice","type":"uint256","internalType":"uint256"}],"outputs":[],"stateMutability":"nonpayable"},{"type":"function","name":"setPayoutRecipient","inputs":[{"name":"_payoutRecipient","type":"address","internalType":"address"}],"outputs":[],"stateMutability":"nonpayable"},{"type":"function","name":"setRenderer","inputs":[{"name":"_renderer","type":"address","internalType":"address"}],"outputs":[],"stateMutability":"nonpayable"},{"type":"function","name":"strategy","inputs":[],"outputs":[{"name":"","type":"address","internalType":"contract IRecursiveStrategy"}],"stateMutability":"view"},{"type":"function","name":"supportsInterface","inputs":[{"name":"interfaceId","type":"bytes4","internalType":"bytes4"}],"outputs":[{"name":"result","type":"bool","internalType":"bool"}],"stateMutability":"view"},{"type":"function","name":"symbol","inputs":[],"outputs":[{"name":"","type":"string","internalType":"string"}],"stateMutability":"pure"},{"type":"function","name":"timeUntilWindowCloses","inputs":[],"outputs":[{"name":"","type":"uint256","internalType":"uint256"}],"stateMutability":"view"},{"type":"function","name":"tokenData","inputs":[{"name":"","type":"uint256","internalType":"uint256"}],"outputs":[{"name":"foldId","type":"uint64","internalType":"uint64"}],"stateMutability":"view"},{"type":"function","name":"tokenURI","inputs":[{"name":"tokenId","type":"uint256","internalType":"uint256"}],"outputs":[{"name":"","type":"string","internalType":"string"}],"stateMutability":"view"},{"type":"function","name":"totalSupply","inputs":[],"outputs":[{"name":"","type":"uint256","internalType":"uint256"}],"stateMutability":"view"},{"type":"function","name":"transferFrom","inputs":[{"name":"from","type":"address","internalType":"address"},{"name":"to","type":"address","internalType":"address"},{"name":"id","type":"uint256","internalType":"uint256"}],"outputs":[],"stateMutability":"payable"},{"type":"function","name":"transferOwnership","inputs":[{"name":"newOwner","type":"address","internalType":"address"}],"outputs":[],"stateMutability":"payable"},{"type":"function","name":"windowDuration","inputs":[],"outputs":[{"name":"","type":"uint256","internalType":"uint256"}],"stateMutability":"view"},{"type":"event","name":"Approval","inputs":[{"name":"owner","type":"address","indexed":true,"internalType":"address"},{"name":"account","type":"address","indexed":true,"internalType":"address"},{"name":"id","type":"uint256","indexed":true,"internalType":"uint256"}],"anonymous":false},{"type":"event","name":"ApprovalForAll","inputs":[{"name":"owner","type":"address","indexed":true,"internalType":"address"},{"name":"operator","type":"address","indexed":true,"internalType":"address"},{"name":"isApproved","type":"bool","indexed":false,"internalType":"bool"}],"anonymous":false},{"type":"event","name":"FoldCreated","inputs":[{"name":"foldId","type":"uint256","indexed":true,"internalType":"uint256"},{"name":"startTime","type":"uint64","indexed":false,"internalType":"uint64"},{"name":"endTime","type":"uint64","indexed":false,"internalType":"uint64"},{"name":"blockHash","type":"bytes32","indexed":false,"internalType":"bytes32"}],"anonymous":false},{"type":"event","name":"MinEthForFoldUpdated","inputs":[{"name":"newMinEth","type":"uint256","indexed":false,"internalType":"uint256"}],"anonymous":false},{"type":"event","name":"MintPriceUpdated","inputs":[{"name":"newPrice","type":"uint256","indexed":false,"internalType":"uint256"}],"anonymous":false},{"type":"event","name":"Minted","inputs":[{"name":"tokenId","type":"uint256","indexed":true,"internalType":"uint256"},{"name":"foldId","type":"uint256","indexed":true,"internalType":"uint256"},{"name":"minter","type":"address","indexed":true,"internalType":"address"},{"name":"seed","type":"bytes32","indexed":false,"internalType":"bytes32"}],"anonymous":false},{"type":"event","name":"OwnershipHandoverCanceled","inputs":[{"name":"pendingOwner","type":"address","indexed":true,"internalType":"address"}],"anonymous":false},{"type":"event","name":"OwnershipHandoverRequested","inputs":[{"name":"pendingOwner","type":"address","indexed":true,"internalType":"address"}],"anonymous":false},{"type":"event","name":"OwnershipTransferred","inputs":[{"name":"oldOwner","type":"address","indexed":true,"internalType":"address"},{"name":"newOwner","type":"address","indexed":true,"internalType":"address"}],"anonymous":false},{"type":"event","name":"PayoutRecipientUpdated","inputs":[{"name":"newRecipient","type":"address","indexed":false,"internalType":"address"}],"anonymous":false},{"type":"event","name":"RendererUpdated","inputs":[{"name":"newRenderer","type":"address","indexed":false,"internalType":"address"}],"anonymous":false},{"type":"event","name":"Transfer","inputs":[{"name":"from","type":"address","indexed":true,"internalType":"address"},{"name":"to","type":"address","indexed":true,"internalType":"address"},{"name":"id","type":"uint256","indexed":true,"internalType":"uint256"}],"anonymous":false},{"type":"error","name":"AccountBalanceOverflow","inputs":[]},{"type":"error","name":"AlreadyInitialized","inputs":[]},{"type":"error","name":"AlreadyMintedThisFold","inputs":[]},{"type":"error","name":"BalanceQueryForZeroAddress","inputs":[]},{"type":"error","name":"FoldDoesNotExist","inputs":[]},{"type":"error","name":"InsufficientPayment","inputs":[]},{"type":"error","name":"InsufficientStrategyBalance","inputs":[]},{"type":"error","name":"InvalidOwner","inputs":[]},{"type":"error","name":"InvalidPayoutRecipient","inputs":[]},{"type":"error","name":"InvalidRenderer","inputs":[]},{"type":"error","name":"InvalidStrategyAddress","inputs":[]},{"type":"error","name":"MintWindowActive","inputs":[]},{"type":"error","name":"NewOwnerIsZeroAddress","inputs":[]},{"type":"error","name":"NoActiveMintWindow","inputs":[]},{"type":"error","name":"NoHandoverRequest","inputs":[]},{"type":"error","name":"NotOwnerNorApproved","inputs":[]},{"type":"error","name":"Reentrancy","inputs":[]},{"type":"error","name":"TokenAlreadyExists","inputs":[]},{"type":"error","name":"TokenDoesNotExist","inputs":[]},{"type":"error","name":"TransferFromIncorrectOwner","inputs":[]},{"type":"error","name":"TransferToNonERC721ReceiverImplementer","inputs":[]},{"type":"error","name":"TransferToZeroAddress","inputs":[]},{"type":"error","name":"Unauthorized","inputs":[]}],"bytecode":{"object":"0x60c060405234801561000f575f80fd5b50604051611db8380380611db883398101604081905261002e916101a6565b6001600160a01b03841661005557604051633408148f60e01b815260040160405180910390fd5b6001600160a01b03821661007c576040516321c17ee560e11b815260040160405180910390fd5b6001600160a01b0381166100a3576040516349e27cff60e01b815260040160405180910390fd5b6001600160a01b03841660808190526040805163377da8df60e21b8152905163ddf6a37c916004808201926020929091908290030181865afa1580156100eb573d5f803e3d5ffd5b505050506040513d601f19601f8201168201806040525081019061010f91906101f1565b60a0526002839055600380546001600160a01b0319166001600160a01b0384161790556703782dace9d9000060055561014781610150565b50505050610208565b6001600160a01b0316638b78c6d819819055805f7f8be0079c531659141344cd1fd0a4f28419497f9722a3daafe3b4186f6b6457e08180a350565b80516001600160a01b03811681146101a1575f80fd5b919050565b5f805f80608085870312156101b9575f80fd5b6101c28561018b565b602086015190945092506101d86040860161018b565b91506101e66060860161018b565b905092959194509250565b5f60208284031215610201575f80fd5b5051919050565b60805160a051611b6c61024c5f395f8181610456015261151a01525f81816105c601528181610c1f01528181610c550152818161143901526114920152611b6c5ff3fe60806040526004361061026a575f3560e01c8063715018a61161014a578063b88d4fde116100be578063e985e9c511610078578063e985e9c51461078a578063f04e283e146107be578063f2fde38b146107d1578063f4a0a528146107e4578063fee81cf414610803578063ff0ea23614610834575f80fd5b8063b88d4fde146106a4578063b977946d146106b7578063c72aad5d146106cb578063c87b56dd14610738578063e0d4ea3714610757578063e8a3d48514610776575f80fd5b8063a22cb4651161010f578063a22cb46514610547578063a2f0fc5e14610566578063a8c62e76146105b5578063ac1e447e146105e8578063b09afec114610621578063b4b5b48f14610658575f80fd5b8063715018a6146104f357806371bfab8a146104fb5780638ada6b0f146105105780638da5cb5b1461052f57806395d89b41146102bf575f80fd5b80634086df64116101e15780635c11ff7a116101a65780635c11ff7a146104455780636352211e1461047857806363a2eda6146104975780636817c76c146104ab57806368669371146104c057806370a08231146104d4575f80fd5b80634086df64146103d857806342842e0e146103ec57806346bb5954146103ff57806354d1f13d1461041e57806356d3163d14610426575f80fd5b806314d92f5b1161023257806314d92f5b1461034857806318160ddd1461036757806323b872dd1461038a578063256929621461039d5780633412da2b146103a55780633fb80b15146103b9575f80fd5b806301ffc9a71461026e57806306fdde03146102bf578063081812fc146102f4578063095ea7b31461032b5780631249c58b14610340575b5f80fd5b348015610279575f80fd5b506102aa6102883660046117d4565b6301ffc9a760e09190911c9081146380ac58cd821417635b5e139f9091141790565b60405190151581526020015b60405180910390f35b3480156102ca575f80fd5b506040805180820190915260048152634c45535360e01b60208201525b6040516102b69190611802565b3480156102ff575f80fd5b5061031361030e366004611837565b610848565b6040516001600160a01b0390911681526020016102b6565b61033e610339366004611864565b610883565b005b61033e610892565b348015610353575f80fd5b5061033e610362366004611837565b610a7d565b348015610372575f80fd5b5061037c60015481565b6040519081526020016102b6565b61033e61039836600461188c565b610ac1565b61033e610bbb565b3480156103b0575f80fd5b506102aa610c07565b3480156103c4575f80fd5b50600354610313906001600160a01b031681565b3480156103e3575f80fd5b5061037c5f5481565b61033e6103fa36600461188c565b610cd9565b34801561040a575f80fd5b5061033e6104193660046118c6565b610d05565b61033e610d82565b348015610431575f80fd5b5061033e6104403660046118c6565b610dbb565b348015610450575f80fd5b5061037c7f000000000000000000000000000000000000000000000000000000000000000081565b348015610483575f80fd5b50610313610492366004611837565b610e38565b3480156104a2575f80fd5b5061037c610e74565b3480156104b6575f80fd5b5061037c60025481565b3480156104cb575f80fd5b5061033e610e8d565b3480156104df575f80fd5b5061037c6104ee3660046118c6565b610ef3565b61033e610f2b565b348015610506575f80fd5b5061037c60055481565b34801561051b575f80fd5b50600454610313906001600160a01b031681565b34801561053a575f80fd5b50638b78c6d81954610313565b348015610552575f80fd5b5061033e6105613660046118df565b610f3e565b348015610571575f80fd5b50610585610580366004611837565b610f91565b6040805182516001600160401b0390811682526020808501519091169082015291810151908201526060016102b6565b3480156105c0575f80fd5b506103137f000000000000000000000000000000000000000000000000000000000000000081565b3480156105f3575f80fd5b506102aa610602366004611918565b600860209081525f928352604080842090915290825290205460ff1681565b34801561062c575f80fd5b5061064061063b366004611837565b61101f565b60405190516001600160401b031681526020016102b6565b348015610663575f80fd5b5061068c610672366004611837565b60076020525f90815260409020546001600160401b031681565b6040516001600160401b0390911681526020016102b6565b61033e6106b2366004611942565b61107d565b3480156106c2575f80fd5b506102aa6110d7565b3480156106d6575f80fd5b506107126106e5366004611837565b60066020525f9081526040902080546001909101546001600160401b0380831692600160401b9004169083565b604080516001600160401b039485168152939092166020840152908201526060016102b6565b348015610743575f80fd5b506102e7610752366004611837565b6110e5565b348015610762575f80fd5b5061037c610771366004611837565b61117e565b348015610781575f80fd5b506102e76111fa565b348015610795575f80fd5b506102aa6107a43660046119d5565b601c52670a5a2e7a000000006008525f526030600c205490565b61033e6107cc3660046118c6565b611272565b61033e6107df3660046118c6565b6112af565b3480156107ef575f80fd5b5061033e6107fe366004611837565b6112d5565b34801561080e575f80fd5b5061037c61081d3660046118c6565b63389a75e1600c9081525f91909152602090205490565b34801561083f575f80fd5b5061037c611312565b5f815f52673ec412a9852d173d60c11b601c5260205f2082018201805460601b6108795763ceea21b65f526004601cfd5b6001015492915050565b61088e33838361134e565b5050565b3068929eee149b4bd2126854036108b05763ab143c065f526004601cfd5b3068929eee149b4bd21268556108c46113e8565b6108d0576108d0611434565b5f80548082526008602090815260408084203385529091529091205460ff161561090d57604051633efd109360e21b815260040160405180910390fd5b6002543410156109305760405163cd1c886760e01b815260040160405180910390fd5b5f6002543461093f9190611a11565b5f8381526008602090815260408083203384529091528120805460ff1916600190811790915580549293509091829061097790611a24565b918290555060408051602080820183526001600160401b0387811683525f85815260079092529290209051815467ffffffffffffffff1916921691909117905590506109c333826115f6565b6003546002546109dc916001600160a01b031690611692565b81156109ec576109ec3383611692565b5f838152600660209081526040808320600101548151928301528101839052606001604051602081830303815290604052805190602001209050336001600160a01b031684837fd8d3f4689036e011512f797b74f83dbe227a55ff95d3ea8c9a556d086191ba9e84604051610a6391815260200190565b60405180910390a4505050503868929eee149b4bd2126855565b610a856116d1565b60058190556040518181527f05bdd1aacb378e978cf29f9d949d975a1422d55607cd52d6a569373358ba4100906020015b60405180910390a150565b5f818152673ec412a9852d173d60c11b3317601c52602090208101810180546001600160a01b039485169493841693811691908286148302610b125767ceea21b6a1148100831560021b526004601cfd5b855f528160010154925082331486331417610b3e576030600c2054610b3e57634b6e7f185f526004601cfd5b8215610b4b575f82600101555b85851818905550601c600c81812080545f190190555f84905220805460010163ffffffff81168402610b8c5767ea553b3401336cea841560021b526004601cfd5b90558082847fddf252ad1be2c89b69c2b068fc378daa952ba7f163c4a11628f55a4df523b3ef5f38a45b505050565b5f6202a3006001600160401b03164201905063389a75e1600c52335f52806020600c2055337fdbf36a107da19e49527a7176a1babf963b4b0ff8cde35ee35d6cd8f1f9ac7e1d5f80a250565b5f610c106113e8565b15610c1a57505f90565b6005547f00000000000000000000000000000000000000000000000000000000000000006001600160a01b0316311015610c5357505f90565b7f00000000000000000000000000000000000000000000000000000000000000006001600160a01b0316630b6e04e86040518163ffffffff1660e01b8152600401602060405180830381865afa158015610caf573d5f803e3d5ffd5b505050506040513d601f19601f82011682018060405250810190610cd39190611a3c565b15919050565b610ce4838383610ac1565b813b15610bb657610bb683838360405180602001604052805f8152506116eb565b610d0d6116d1565b6001600160a01b038116610d34576040516321c17ee560e11b815260040160405180910390fd5b600380546001600160a01b0319166001600160a01b0383169081179091556040519081527f5eb0913799140a38d5e80f5c04a585a09b65facadcbbe1a2c0c942d4198b2e9390602001610ab6565b63389a75e1600c52335f525f6020600c2055337ffa7b8eab7da67f412cc9575ed43464468f9bfbae89d1675917346ca6d8fe3c925f80a2565b610dc36116d1565b6001600160a01b038116610dea57604051630161139960e31b815260040160405180910390fd5b600480546001600160a01b0319166001600160a01b0383169081179091556040519081527f482cbbbcf912da3be80deb8503ae1e94c0b7d5d1d0ec0af3d9d6403e06e609ee90602001610ab6565b5f818152673ec412a9852d173d60c11b601c526020902081018101546001600160a01b031680610e6f5763ceea21b65f526004601cfd5b919050565b5f610e7d6113e8565b15610e8857505f5490565b505f90565b3068929eee149b4bd212685403610eab5763ab143c065f526004601cfd5b3068929eee149b4bd2126855610ebf6113e8565b15610edd5760405163209b21a560e11b815260040160405180910390fd5b610ee5611434565b3868929eee149b4bd2126855565b5f81610f0657638f4eb6045f526004601cfd5b673ec412a9852d173d60c11b601c52815f5263ffffffff601c600c2054169050919050565b610f336116d1565b610f3c5f611774565b565b801515905081601c52670a5a2e7a00000000600852335f52806030600c2055805f528160601b60601c337f17307eab39ab6107e8899845ad3d59bd9653f200f220920489ca2b5937696c3160205fa35050565b604080516060810182525f8082526020820181905291810191909152811580610fba57505f5482115b15610fd8576040516304868b6560e21b815260040160405180910390fd5b505f90815260066020908152604091829020825160608101845281546001600160401b038082168352600160401b9091041692810192909252600101549181019190915290565b60408051602081019091525f8152611036826117b1565b6110535760405163677510db60e11b815260040160405180910390fd5b505f90815260076020908152604091829020825191820190925290546001600160401b0316815290565b611088858585610ac1565b833b156110d0576110d085858585858080601f0160208091040260200160405190810160405280939291908181526020018383808284375f920191909152506116eb92505050565b5050505050565b5f6110e06113e8565b905090565b60606110f0826117b1565b61110d5760405163677510db60e11b815260040160405180910390fd5b6004805460405163c87b56dd60e01b81529182018490526001600160a01b03169063c87b56dd906024015f60405180830381865afa158015611151573d5f803e3d5ffd5b505050506040513d5f823e601f3d908101601f191682016040526111789190810190611a67565b92915050565b5f611188826117b1565b6111a55760405163677510db60e11b815260040160405180910390fd5b5f828152600760209081526040808320546001600160401b0316808452600683529281902060010154815192830152810184905260600160405160208183030381529060405280519060200120915050919050565b606060045f9054906101000a90046001600160a01b03166001600160a01b031663e8a3d4856040518163ffffffff1660e01b81526004015f60405180830381865afa15801561124b573d5f803e3d5ffd5b505050506040513d5f823e601f3d908101601f191682016040526110e09190810190611a67565b61127a6116d1565b63389a75e1600c52805f526020600c2080544211156112a057636f5e88185f526004601cfd5b5f90556112ac81611774565b50565b6112b76116d1565b8060601b6112cc57637448fbae5f526004601cfd5b6112ac81611774565b6112dd6116d1565b60028190556040518181527f525b762709cc2a983aec5ccdfd807a061f993c91090b5bcd7da92ca254976aaa90602001610ab6565b5f61131b6113e8565b61132457505f90565b5f80548152600660205260409020546110e0904290600160401b90046001600160401b0316611a11565b5f1960601c82811692508381169350815f5283673ec412a9852d173d60c11b17601c5260205f2082018201805482169150816113915763ceea21b65f526004601cfd5b8185148515176113b557815f526030600c20546113b557634b6e7f185f526004601cfd5b6001018390558183827f8c5be1e5ebec7d5bd14f71427d1e84f3dd0314c0f7b2291e5b200ac8c7c3b9255f38a450505050565b5f80545f036113f657505f90565b5f8054815260066020526040902080546001600160401b0316421080159061142e57508054600160401b90046001600160401b031642105b91505090565b6005547f00000000000000000000000000000000000000000000000000000000000000006001600160a01b0316311015611481576040516354e89c2b60e11b815260040160405180910390fd5b5f61148d600143611a11565b4090507f00000000000000000000000000000000000000000000000000000000000000006001600160a01b0316631db527556040518163ffffffff1660e01b81526004015f604051808303815f87803b1580156114e8575f80fd5b505af11580156114fa573d5f803e3d5ffd5b50505f8054925090508061150d83611a24565b909155504290505f61153f7f000000000000000000000000000000000000000000000000000000000000000083611b17565b60408051606080820183526001600160401b0386811680845285821660208086018281528688018c81525f80548152600684528981209851895493518816600160401b026fffffffffffffffffffffffffffffffff19909416971696909617919091178755516001909601959095559154855191825293810191909152928301879052929350917f34e1125fd554b81ceb010ad3291c6bad86b1c4e0dea6acfb12bb6d85f5477b6c910160405180910390a2505050565b8160601b60601c9150805f52673ec412a9852d173d60c11b601c5260205f208101810180548060601b156116315763c991cbb15f526004601cfd5b831790555f829052601c600c20805460010163ffffffff811684026116655767ea553b3401336cea841560021b526004601cfd5b905580825f7fddf252ad1be2c89b69c2b068fc378daa952ba7f163c4a11628f55a4df523b3ef8138a45050565b804710156116a75763b12d13eb5f526004601cfd5b5f385f388486620186a0f161088e57815f526073600b5360ff6020536016600b82f061088e573838fd5b638b78c6d819543314610f3c576382b429005f526004601cfd5b60405163150b7a028082523360208301528560601b60601c604083015283606083015260808083015282518060a08401528015611732578060c08401826020870160045afa505b60208360a48301601c86015f8a5af1611753573d15611753573d5f843e3d83fd5b508060e01b82511461176c5763d1a57ed65f526004601cfd5b505050505050565b638b78c6d81980546001600160a01b039092169182907f8be0079c531659141344cd1fd0a4f28419497f9722a3daafe3b4186f6b6457e05f80a355565b5f818152673ec412a9852d173d60c11b601c52602090208101015460601b151590565b5f602082840312156117e4575f80fd5b81356001600160e01b0319811681146117fb575f80fd5b9392505050565b602081525f82518060208401528060208501604085015e5f604082850101526040601f19601f83011684010191505092915050565b5f60208284031215611847575f80fd5b5035919050565b80356001600160a01b0381168114610e6f575f80fd5b5f8060408385031215611875575f80fd5b61187e8361184e565b946020939093013593505050565b5f805f6060848603121561189e575f80fd5b6118a78461184e565b92506118b56020850161184e565b929592945050506040919091013590565b5f602082840312156118d6575f80fd5b6117fb8261184e565b5f80604083850312156118f0575f80fd5b6118f98361184e565b91506020830135801515811461190d575f80fd5b809150509250929050565b5f8060408385031215611929575f80fd5b823591506119396020840161184e565b90509250929050565b5f805f805f60808688031215611956575f80fd5b61195f8661184e565b945061196d6020870161184e565b93506040860135925060608601356001600160401b0381111561198e575f80fd5b8601601f8101881361199e575f80fd5b80356001600160401b038111156119b3575f80fd5b8860208284010111156119c4575f80fd5b959894975092955050506020019190565b5f80604083850312156119e6575f80fd5b6119ef8361184e565b91506119396020840161184e565b634e487b7160e01b5f52601160045260245ffd5b81810381811115611178576111786119fd565b5f60018201611a3557611a356119fd565b5060010190565b5f60208284031215611a4c575f80fd5b5051919050565b634e487b7160e01b5f52604160045260245ffd5b5f60208284031215611a77575f80fd5b81516001600160401b03811115611a8c575f80fd5b8201601f81018413611a9c575f80fd5b80516001600160401b03811115611ab557611ab5611a53565b604051601f8201601f19908116603f011681016001600160401b0381118282101715611ae357611ae3611a53565b604052818152828201602001861015611afa575f80fd5b8160208401602083015e5f91810160200191909152949350505050565b6001600160401b038181168382160190811115611178576111786119fd56fea264697066735822122088fa214cfeefb465842a6964115853d25a2baa3bc74331e87092615366fde87564736f6c634300081a0033","linkReferences":{}},"methodIdentifiers":{"activeFoldId()":"63a2eda6","approve(address,uint256)":"095ea7b3","balanceOf(address)":"70a08231","canCreateFold()":"3412da2b","cancelOwnershipHandover()":"54d1f13d","completeOwnershipHandover(address)":"f04e283e","contractURI()":"e8a3d485","createFold()":"68669371","currentFoldId()":"4086df64","folds(uint256)":"c72aad5d","getApproved(uint256)":"081812fc","getFold(uint256)":"a2f0fc5e","getSeed(uint256)":"e0d4ea37","getTokenData(uint256)":"b09afec1","hasMintedFold(uint256,address)":"ac1e447e","isApprovedForAll(address,address)":"e985e9c5","isWindowActive()":"b977946d","minEthForFold()":"71bfab8a","mint()":"1249c58b","mintPrice()":"6817c76c","name()":"06fdde03","owner()":"8da5cb5b","ownerOf(uint256)":"6352211e","ownershipHandoverExpiresAt(address)":"fee81cf4","payoutRecipient()":"3fb80b15","renderer()":"8ada6b0f","renounceOwnership()":"715018a6","requestOwnershipHandover()":"25692962","safeTransferFrom(address,address,uint256)":"42842e0e","safeTransferFrom(address,address,uint256,bytes)":"b88d4fde","setApprovalForAll(address,bool)":"a22cb465","setMinEthForFold(uint256)":"14d92f5b","setMintPrice(uint256)":"f4a0a528","setPayoutRecipient(address)":"46bb5954","setRenderer(address)":"56d3163d","strategy()":"a8c62e76","supportsInterface(bytes4)":"01ffc9a7","symbol()":"95d89b41","timeUntilWindowCloses()":"ff0ea236","tokenData(uint256)":"b4b5b48f","tokenURI(uint256)":"c87b56dd","totalSupply()":"18160ddd","transferFrom(address,address,uint256)":"23b872dd","transferOwnership(address)":"f2fde38b","windowDuration()":"5c11ff7a"},"id":2}